{
  "_format": "hh-sol-artifact-1",
  "contractName": "MockWitnetRandomness",
  "sourceName": "contracts/MockWitnetRandomness.sol",
  "abi": [
    {
      "inputs": [
        {
          "internalType": "uint256",
          "name": "fee",
          "type": "uint256"
        }
      ],
      "stateMutability": "nonpayable",
      "type": "constructor"
    },
    {
      "inputs": [
        {
          "internalType": "uint256",
          "name": "",
          "type": "uint256"
        }
      ],
      "name": "estimateRandomizeFee",
      "outputs": [
        {
          "internalType": "uint256",
          "name": "",
          "type": "uint256"
        }
      ],
      "stateMutability": "view",
      "type": "function"
    },
    {
      "inputs": [
        {
          "internalType": "uint256",
          "name": "blockNumber",
          "type": "uint256"
        }
      ],
      "name": "getRandomnessAfter",
      "outputs": [
        {
          "internalType": "bytes32",
          "name": "",
          "type": "bytes32"
        }
      ],
      "stateMutability": "view",
      "type": "function"
    },
    {
      "inputs": [
        {
          "internalType": "uint256",
          "name": "blockNumber",
          "type": "uint256"
        }
      ],
      "name": "isRandomized",
      "outputs": [
        {
          "internalType": "bool",
          "name": "",
          "type": "bool"
        }
      ],
      "stateMutability": "view",
      "type": "function"
    },
    {
      "inputs": [],
      "name": "lastPayment",
      "outputs": [
        {
          "internalType": "uint256",
          "name": "",
          "type": "uint256"
        }
      ],
      "stateMutability": "view",
      "type": "function"
    },
    {
      "inputs": [],
      "name": "lastRandomizeBlock",
      "outputs": [
        {
          "internalType": "uint256",
          "name": "",
          "type": "uint256"
        }
      ],
      "stateMutability": "view",
      "type": "function"
    },
    {
      "inputs": [
        {
          "internalType": "uint32",
          "name": "range",
          "type": "uint32"
        },
        {
          "internalType": "uint256",
          "name": "nonce",
          "type": "uint256"
        },
        {
          "internalType": "uint256",
          "name": "blockNumber",
          "type": "uint256"
        }
      ],
      "name": "random",
      "outputs": [
        {
          "internalType": "uint32",
          "name": "",
          "type": "uint32"
        }
      ],
      "stateMutability": "view",
      "type": "function"
    },
    {
      "inputs": [],
      "name": "randomize",
      "outputs": [
        {
          "internalType": "uint256",
          "name": "",
          "type": "uint256"
        }
      ],
      "stateMutability": "payable",
      "type": "function"
    },
    {
      "inputs": [],
      "name": "requiredFee",
      "outputs": [
        {
          "internalType": "uint256",
          "name": "",
          "type": "uint256"
        }
      ],
      "stateMutability": "view",
      "type": "function"
    },
    {
      "inputs": [
        {
          "internalType": "uint256",
          "name": "blockNumber",
          "type": "uint256"
        },
        {
          "internalType": "uint256",
          "name": "nonce",
          "type": "uint256"
        },
        {
          "internalType": "uint32",
          "name": "value",
          "type": "uint32"
        }
      ],
      "name": "setRandomValue",
      "outputs": [],
      "stateMutability": "nonpayable",
      "type": "function"
    },
    {
      "inputs": [
        {
          "internalType": "uint256",
          "name": "blockNumber",
          "type": "uint256"
        },
        {
          "internalType": "bytes32",
          "name": "seed",
          "type": "bytes32"
        }
      ],
      "name": "setRandomized",
      "outputs": [],
      "stateMutability": "nonpayable",
      "type": "function"
    }
  ],
  "bytecode": "0x60a03461006857601f61058c38819003918201601f19168301916001600160401b0383118484101761006d578084926020946040528339810103126100685751608052604051610508908161008482396080518181816101a20152818161022a015261025c0152f35b600080fd5b634e487b7160e01b600052604160045260246000fdfe6080604081815260048036101561001557600080fd5b600092833560e01c908163177eb1e6146103515750806324cbbfc11461030f578063699b328a1461024d5780636f8ec04f1461021257806381e170de146101f55780639bc86fec146101c9578063a60ee26814610189578063ec85427f14610153578063f9f1b673146100d15763fb476cad1461009157600080fd5b346100cd5760203660031901126100cd57602092829135808252600285526100be60ff848420541661036d565b81526003845220549051908152f35b8280fd5b5090346100cd5760603660031901126100cd576044359063ffffffff9182811680910361014f576001019282841161013c57815160208101908235825260243584820152838152610121816103b2565b51902085526020528320911663ffffffff1982541617905580f35b634e487b7160e01b855260119052602484fd5b8480fd5b50346100cd57816003193601126100cd573582526002602052808220600160ff1982541617905560036020526024359082205580f35b5050346101c55760203660031901126101c557602090517f00000000000000000000000000000000000000000000000000000000000000008152f35b5080fd5b50346100cd5760203660031901126100cd578160209360ff923581526002855220541690519015158152f35b5050346101c557816003193601126101c557602091549051908152f35b5050346101c557816003193601126101c557602090517f00000000000000000000000000000000000000000000000000000000000000008152f35b5090826003193601126100cd577f0000000000000000000000000000000000000000000000000000000000000000918234106102da57828455436001558234039034821161013c575082341480156102aa575b6020848451908152f35b84808093819382906102d1575b3390f1156102c65782806102a0565b51913d9150823e3d90fd5b506108fc6102b7565b6020606492519162461bcd60e51b8352820152601060248201526f696e73756666696369656e742066656560801b6044820152fd5b50346100cd5760603660031901126100cd57359163ffffffff90818416840361034e575061034660209360443590602435906103e4565b915191168152f35b80fd5b8490346101c557816003193601126101c5576020906001548152f35b1561037457565b60405162461bcd60e51b815260206004820152601660248201527572616e646f6d6e65737320756e617661696c61626c6560501b6044820152606490fd5b6060810190811067ffffffffffffffff8211176103ce57604052565b634e487b7160e01b600052604160045260246000fd5b9163ffffffff80931691821561049d576000828152600260205260409261041060ff858420541661036d565b83516020810190828252848682015285815261042b816103b2565b519020825260046020528584832054168061046f57509083918152600360205220549180519160208301938452818301528152610467816103b2565b519020061690565b949594600019019350909150508282116104895750160690565b634e487b7160e01b81526011600452602490fd5b60405162461bcd60e51b815260206004820152600d60248201526c696e76616c69642072616e676560981b6044820152606490fdfea2646970667358221220e3f3c91a2bba99afa11eb307f3beebf3ae429c786fbd1d745e9b6b2a848f05ec64736f6c63430008180033",
  "linkReferences": {},
  "deployedLinkReferences": {}
}