{"contracts/Xolat.sol":{"Xolat":{"abi":[{"inputs":[{"internalType":"address","name":"usdmAddress","type":"address"},{"internalType":"address","name":"witnetAddress","type":"address"}],"stateMutability":"nonpayable","type":"constructor"},{"inputs":[],"name":"EnforcedPause","type":"error"},{"inputs":[],"name":"ExpectedPause","type":"error"},{"inputs":[{"internalType":"address","name":"owner","type":"address"}],"name":"OwnableInvalidOwner","type":"error"},{"inputs":[{"internalType":"address","name":"account","type":"address"}],"name":"OwnableUnauthorizedAccount","type":"error"},{"inputs":[],"name":"ReentrancyGuardReentrantCall","type":"error"},{"anonymous":false,"inputs":[{"indexed":true,"internalType":"uint256","name":"arenaId","type":"uint256"},{"indexed":true,"internalType":"address","name":"creator","type":"address"},{"indexed":false,"internalType":"uint256","name":"betAmount","type":"uint256"},{"indexed":false,"internalType":"uint8","name":"maxPlayers","type":"uint8"}],"name":"ArenaCreated","type":"event"},{"anonymous":false,"inputs":[{"indexed":true,"internalType":"uint256","name":"arenaId","type":"uint256"},{"indexed":true,"internalType":"address","name":"player","type":"address"},{"indexed":false,"internalType":"uint8","name":"cardIndex","type":"uint8"}],"name":"CardPicked","type":"event"},{"anonymous":false,"inputs":[{"indexed":true,"internalType":"address","name":"player","type":"address"},{"indexed":false,"internalType":"uint256","name":"duration","type":"uint256"}],"name":"CooldownApplied","type":"event"},{"anonymous":false,"inputs":[{"indexed":true,"internalType":"address","name":"previousOwner","type":"address"},{"indexed":true,"internalType":"address","name":"newOwner","type":"address"}],"name":"OwnershipTransferred","type":"event"},{"anonymous":false,"inputs":[{"indexed":false,"internalType":"address","name":"account","type":"address"}],"name":"Paused","type":"event"},{"anonymous":false,"inputs":[{"indexed":true,"internalType":"address","name":"player","type":"address"}],"name":"PlayerBanned","type":"event"},{"anonymous":false,"inputs":[{"indexed":true,"internalType":"uint256","name":"arenaId","type":"uint256"},{"indexed":true,"internalType":"address","name":"player","type":"address"}],"name":"PlayerJoined","type":"event"},{"anonymous":false,"inputs":[{"indexed":true,"internalType":"uint256","name":"roundId","type":"uint256"},{"indexed":true,"internalType":"uint256","name":"requestBlock","type":"uint256"},{"indexed":true,"internalType":"address","name":"requester","type":"address"},{"indexed":false,"internalType":"uint256","name":"celoPaid","type":"uint256"}],"name":"RandomnessRequested","type":"event"},{"anonymous":false,"inputs":[{"indexed":true,"internalType":"uint256","name":"roundId","type":"uint256"},{"indexed":false,"internalType":"bytes32","name":"commitHash","type":"bytes32"},{"indexed":false,"internalType":"bytes32","name":"randomness","type":"bytes32"}],"name":"RandomnessRevealed","type":"event"},{"anonymous":false,"inputs":[{"indexed":true,"internalType":"uint256","name":"roundId","type":"uint256"},{"indexed":true,"internalType":"uint256","name":"requestBlock","type":"uint256"}],"name":"RandomnessTimeoutTriggered","type":"event"},{"anonymous":false,"inputs":[{"indexed":true,"internalType":"uint256","name":"roundId","type":"uint256"},{"indexed":true,"internalType":"address","name":"player","type":"address"},{"indexed":false,"internalType":"uint256","name":"amount","type":"uint256"},{"indexed":false,"internalType":"string","name":"reason","type":"string"}],"name":"RefundProcessed","type":"event"},{"anonymous":false,"inputs":[{"indexed":true,"internalType":"uint256","name":"roundId","type":"uint256"},{"indexed":false,"internalType":"string","name":"roundType","type":"string"},{"indexed":true,"internalType":"uint256","name":"arenaId","type":"uint256"},{"indexed":true,"internalType":"address","name":"player","type":"address"},{"indexed":false,"internalType":"uint256","name":"potUsdm","type":"uint256"}],"name":"RoundCreated","type":"event"},{"anonymous":false,"inputs":[{"indexed":true,"internalType":"uint256","name":"roundId","type":"uint256"},{"indexed":false,"internalType":"string","name":"serverSeed","type":"string"},{"indexed":false,"internalType":"string","name":"clientSeed","type":"string"},{"indexed":false,"internalType":"uint256","name":"nonce","type":"uint256"}],"name":"SeedRevealed","type":"event"},{"anonymous":false,"inputs":[{"indexed":true,"internalType":"address","name":"player","type":"address"},{"indexed":false,"internalType":"uint256","name":"betAmount","type":"uint256"},{"indexed":false,"internalType":"uint8","name":"cardIndex","type":"uint8"},{"indexed":false,"internalType":"uint256","name":"roundId","type":"uint256"}],"name":"SoloPlayed","type":"event"},{"anonymous":false,"inputs":[{"indexed":false,"internalType":"address","name":"account","type":"address"}],"name":"Unpaused","type":"event"},{"anonymous":false,"inputs":[{"indexed":true,"internalType":"uint256","name":"roundId","type":"uint256"},{"indexed":true,"internalType":"address","name":"winner","type":"address"},{"indexed":false,"internalType":"uint256","name":"payout","type":"uint256"},{"indexed":false,"internalType":"string","name":"reason","type":"string"}],"name":"WinnerPaid","type":"event"},{"inputs":[],"name":"RANDOMNESS_TIMEOUT","outputs":[{"internalType":"uint256","name":"","type":"uint256"}],"stateMutability":"view","type":"function"},{"inputs":[{"internalType":"address","name":"player","type":"address"}],"name":"applyCooldown","outputs":[],"stateMutability":"nonpayable","type":"function"},{"inputs":[],"name":"arenaCount","outputs":[{"internalType":"uint256","name":"","type":"uint256"}],"stateMutability":"view","type":"function"},{"inputs":[{"internalType":"uint256","name":"","type":"uint256"}],"name":"arenas","outputs":[{"internalType":"uint256","name":"arenaId","type":"uint256"},{"internalType":"uint256","name":"betAmount","type":"uint256"},{"internalType":"uint8","name":"maxPlayers","type":"uint8"},{"internalType":"uint8","name":"playerCount","type":"uint8"},{"internalType":"bool","name":"settled","type":"bool"},{"internalType":"address","name":"winner","type":"address"},{"internalType":"uint256","name":"createdAt","type":"uint256"},{"internalType":"uint256","name":"roundId","type":"uint256"},{"internalType":"uint8","name":"pickedCount","type":"uint8"}],"stateMutability":"view","type":"function"},{"inputs":[{"internalType":"address","name":"player","type":"address"}],"name":"ban","outputs":[],"stateMutability":"nonpayable","type":"function"},{"inputs":[{"internalType":"address","name":"","type":"address"}],"name":"blacklist","outputs":[{"internalType":"bool","name":"","type":"bool"}],"stateMutability":"view","type":"function"},{"inputs":[{"internalType":"uint256","name":"roundId","type":"uint256"}],"name":"checkRandomnessTimeout","outputs":[],"stateMutability":"nonpayable","type":"function"},{"inputs":[],"name":"cooldownDuration","outputs":[{"internalType":"uint256","name":"","type":"uint256"}],"stateMutability":"view","type":"function"},{"inputs":[{"internalType":"uint256","name":"betAmount","type":"uint256"},{"internalType":"uint8","name":"maxPlayers","type":"uint8"}],"name":"createArena","outputs":[{"internalType":"uint256","name":"arenaId","type":"uint256"}],"stateMutability":"nonpayable","type":"function"},{"inputs":[{"internalType":"address","name":"","type":"address"}],"name":"dailyBetTotal","outputs":[{"internalType":"uint256","name":"","type":"uint256"}],"stateMutability":"view","type":"function"},{"inputs":[{"internalType":"uint256","name":"roundId","type":"uint256"}],"name":"emergencyRefundRound","outputs":[],"stateMutability":"nonpayable","type":"function"},{"inputs":[{"internalType":"uint256","name":"roundId","type":"uint256"}],"name":"fetchRandomness","outputs":[],"stateMutability":"nonpayable","type":"function"},{"inputs":[{"internalType":"uint256","name":"arenaId","type":"uint256"}],"name":"getArena","outputs":[{"internalType":"uint256","name":"","type":"uint256"},{"internalType":"uint256","name":"","type":"uint256"},{"internalType":"uint8","name":"","type":"uint8"},{"internalType":"uint8","name":"","type":"uint8"},{"internalType":"bool","name":"","type":"bool"},{"internalType":"address","name":"","type":"address"},{"internalType":"uint256","name":"","type":"uint256"},{"internalType":"address[]","name":"","type":"address[]"}],"stateMutability":"view","type":"function"},{"inputs":[{"internalType":"uint256","name":"roundId","type":"uint256"}],"name":"getCommitHash","outputs":[{"internalType":"bytes32","name":"","type":"bytes32"}],"stateMutability":"view","type":"function"},{"inputs":[{"internalType":"address","name":"player","type":"address"}],"name":"getPlayerStats","outputs":[{"components":[{"internalType":"uint256","name":"totalWonUsdm","type":"uint256"},{"internalType":"uint256","name":"totalPlayed","type":"uint256"},{"internalType":"uint256","name":"dailyBetTotal","type":"uint256"},{"internalType":"uint256","name":"lastBetDate","type":"uint256"},{"internalType":"string","name":"rank","type":"string"},{"internalType":"bool","name":"isBanned","type":"bool"},{"internalType":"uint256","name":"recentLosses","type":"uint256"},{"internalType":"uint256","name":"lastLossTime","type":"uint256"}],"internalType":"struct Xolat.PlayerStats","name":"","type":"tuple"}],"stateMutability":"view","type":"function"},{"inputs":[{"internalType":"uint256","name":"roundId","type":"uint256"}],"name":"getRandomness","outputs":[{"internalType":"bytes32","name":"","type":"bytes32"}],"stateMutability":"view","type":"function"},{"inputs":[{"internalType":"uint256","name":"roundId","type":"uint256"}],"name":"getRandomnessRequest","outputs":[{"components":[{"internalType":"uint256","name":"roundId","type":"uint256"},{"internalType":"uint256","name":"requestBlock","type":"uint256"},{"internalType":"uint256","name":"requestedAt","type":"uint256"},{"internalType":"uint256","name":"celoPaid","type":"uint256"},{"internalType":"bool","name":"fulfilled","type":"bool"}],"internalType":"struct Xolat.RandomnessRequest","name":"","type":"tuple"}],"stateMutability":"view","type":"function"},{"inputs":[{"internalType":"uint256","name":"roundId","type":"uint256"}],"name":"getRound","outputs":[{"components":[{"internalType":"uint256","name":"roundId","type":"uint256"},{"internalType":"string","name":"roundType","type":"string"},{"internalType":"address","name":"player","type":"address"},{"internalType":"uint256","name":"arenaId","type":"uint256"},{"internalType":"bytes32","name":"commitHash","type":"bytes32"},{"internalType":"string","name":"serverSeed","type":"string"},{"internalType":"string","name":"clientSeed","type":"string"},{"internalType":"uint256","name":"nonce","type":"uint256"},{"internalType":"bytes32","name":"randomness","type":"bytes32"},{"internalType":"uint256[]","name":"numbers","type":"uint256[]"},{"internalType":"address","name":"winnerAddress","type":"address"},{"internalType":"uint256","name":"potUsdm","type":"uint256"},{"internalType":"string","name":"txHash","type":"string"},{"internalType":"uint8","name":"selectedCard","type":"uint8"},{"internalType":"string","name":"status","type":"string"},{"internalType":"uint256","name":"createdAt","type":"uint256"}],"internalType":"struct Xolat.Round","name":"","type":"tuple"}],"stateMutability":"view","type":"function"},{"inputs":[{"internalType":"address","name":"player","type":"address"}],"name":"isPlayerBanned","outputs":[{"internalType":"bool","name":"","type":"bool"}],"stateMutability":"view","type":"function"},{"inputs":[{"internalType":"uint256","name":"arenaId","type":"uint256"}],"name":"joinArena","outputs":[],"stateMutability":"nonpayable","type":"function"},{"inputs":[],"name":"lossesBeforeCooldown","outputs":[{"internalType":"uint256","name":"","type":"uint256"}],"stateMutability":"view","type":"function"},{"inputs":[],"name":"maxBetPerDay","outputs":[{"internalType":"uint256","name":"","type":"uint256"}],"stateMutability":"view","type":"function"},{"inputs":[],"name":"maxBetPerTx","outputs":[{"internalType":"uint256","name":"","type":"uint256"}],"stateMutability":"view","type":"function"},{"inputs":[],"name":"owner","outputs":[{"internalType":"address","name":"","type":"address"}],"stateMutability":"view","type":"function"},{"inputs":[],"name":"pause","outputs":[],"stateMutability":"nonpayable","type":"function"},{"inputs":[],"name":"paused","outputs":[{"internalType":"bool","name":"","type":"bool"}],"stateMutability":"view","type":"function"},{"inputs":[{"internalType":"uint256","name":"arenaId","type":"uint256"},{"internalType":"uint8","name":"cardIndex","type":"uint8"}],"name":"pickCard","outputs":[],"stateMutability":"nonpayable","type":"function"},{"inputs":[{"internalType":"uint256","name":"gameId","type":"uint256"},{"internalType":"uint8","name":"cardIndex","type":"uint8"}],"name":"pickSoloCard","outputs":[],"stateMutability":"nonpayable","type":"function"},{"inputs":[{"internalType":"address","name":"","type":"address"}],"name":"playerStats","outputs":[{"internalType":"uint256","name":"totalWonUsdm","type":"uint256"},{"internalType":"uint256","name":"totalPlayed","type":"uint256"},{"internalType":"uint256","name":"dailyBetTotal","type":"uint256"},{"internalType":"uint256","name":"lastBetDate","type":"uint256"},{"internalType":"string","name":"rank","type":"string"},{"internalType":"bool","name":"isBanned","type":"bool"},{"internalType":"uint256","name":"recentLosses","type":"uint256"},{"internalType":"uint256","name":"lastLossTime","type":"uint256"}],"stateMutability":"view","type":"function"},{"inputs":[{"internalType":"uint256","name":"roundId","type":"uint256"}],"name":"randomnessRequests","outputs":[{"internalType":"uint256","name":"roundId","type":"uint256"},{"internalType":"uint256","name":"requestBlock","type":"uint256"},{"internalType":"uint256","name":"requestedAt","type":"uint256"},{"internalType":"uint256","name":"celoPaid","type":"uint256"},{"internalType":"bool","name":"fulfilled","type":"bool"}],"stateMutability":"view","type":"function"},{"inputs":[],"name":"renounceOwnership","outputs":[],"stateMutability":"nonpayable","type":"function"},{"inputs":[{"internalType":"uint256","name":"roundId","type":"uint256"}],"name":"requestRandomness","outputs":[],"stateMutability":"payable","type":"function"},{"inputs":[{"internalType":"uint256","name":"roundId","type":"uint256"},{"internalType":"string","name":"serverSeed","type":"string"},{"internalType":"string","name":"clientSeed","type":"string"},{"internalType":"uint256","name":"nonce","type":"uint256"}],"name":"revealSeeds","outputs":[],"stateMutability":"nonpayable","type":"function"},{"inputs":[],"name":"roundCount","outputs":[{"internalType":"uint256","name":"","type":"uint256"}],"stateMutability":"view","type":"function"},{"inputs":[{"internalType":"uint256","name":"","type":"uint256"}],"name":"rounds","outputs":[{"internalType":"uint256","name":"roundId","type":"uint256"},{"internalType":"string","name":"roundType","type":"string"},{"internalType":"address","name":"player","type":"address"},{"internalType":"uint256","name":"arenaId","type":"uint256"},{"internalType":"bytes32","name":"commitHash","type":"bytes32"},{"internalType":"string","name":"serverSeed","type":"string"},{"internalType":"string","name":"clientSeed","type":"string"},{"internalType":"uint256","name":"nonce","type":"uint256"},{"internalType":"bytes32","name":"randomness","type":"bytes32"},{"internalType":"address","name":"winnerAddress","type":"address"},{"internalType":"uint256","name":"potUsdm","type":"uint256"},{"internalType":"string","name":"txHash","type":"string"},{"internalType":"uint8","name":"selectedCard","type":"uint8"},{"internalType":"string","name":"status","type":"string"},{"internalType":"uint256","name":"createdAt","type":"uint256"}],"stateMutability":"view","type":"function"},{"inputs":[{"internalType":"uint256","name":"duration","type":"uint256"},{"internalType":"uint256","name":"losses","type":"uint256"}],"name":"setCooldownParams","outputs":[],"stateMutability":"nonpayable","type":"function"},{"inputs":[{"internalType":"uint256","name":"perTx","type":"uint256"},{"internalType":"uint256","name":"perDay","type":"uint256"}],"name":"setMaxBet","outputs":[],"stateMutability":"nonpayable","type":"function"},{"inputs":[{"internalType":"uint256","name":"roundId","type":"uint256"}],"name":"settleRound","outputs":[],"stateMutability":"nonpayable","type":"function"},{"inputs":[{"internalType":"uint256","name":"betAmount","type":"uint256"}],"name":"startSoloGame","outputs":[{"internalType":"uint256","name":"roundId","type":"uint256"}],"stateMutability":"nonpayable","type":"function"},{"inputs":[{"internalType":"address","name":"newOwner","type":"address"}],"name":"transferOwnership","outputs":[],"stateMutability":"nonpayable","type":"function"},{"inputs":[{"internalType":"address","name":"player","type":"address"}],"name":"unban","outputs":[],"stateMutability":"nonpayable","type":"function"},{"inputs":[],"name":"unpause","outputs":[],"stateMutability":"nonpayable","type":"function"},{"inputs":[],"name":"usdm","outputs":[{"internalType":"contract IERC20","name":"","type":"address"}],"stateMutability":"view","type":"function"},{"inputs":[],"name":"witnet","outputs":[{"internalType":"contract IWitnetRandomness","name":"","type":"address"}],"stateMutability":"view","type":"function"}],"evm":{"bytecode":{"linkReferences":{},"object":"60c0346200022e576200422290601f38839003908101601f19168201906001600160401b038211838310176200023357808391604095869485528339810103126200022e576200005d6020620000558362000249565b920162000249565b9060017f9b779b17422d0df92223018b32b4d1fa46e071723d6817e2486d003becc55f00553315620002165760008054610100600160a81b0319811633600881811b610100600160a81b03169290921784558651956001600160a01b03959094869491939190911c8416907f8be0079c531659141344cd1fd0a4f28419497f9722a3daafe3b4186f6b6457e09080a36801158e460913d0000060015568056bc75e2d63100000600255610e10600555600560065516928315620001d4575016908115620001905760805260a05251613fc390816200025f8239608051818181610a6c01528181610f7601528181611288015281816113be0152818161398e01528181613b500152613daf015260a0518181816103110152818161036d015281816105bd015281816125540152612ccb0152f35b825162461bcd60e51b815260206004820152601660248201527f696e76616c6964205769746e65742061646472657373000000000000000000006044820152606490fd5b62461bcd60e51b815260206004820152601460248201527f696e76616c6964205553444d20616464726573730000000000000000000000006044820152606490fd5b8251631e4fbdf760e01b815260006004820152602490fd5b600080fd5b634e487b7160e01b600052604160045260246000fd5b51906001600160a01b03821682036200022e5756fe608080604052600436101561001357600080fd5b60003560e01c908163127f0b3f14613320575080631a8425b4146132185780632bbf12741461317a5780633200fc7114612ff95780633526931514612fdb5780633f4ba83a14612f71578063410ddaca14612e24578063453f4f6214612cfa57806346d1d21a14612cb55780634fd66eae14612b735780635c975abb14612b505780635cb6dfff14612af357806365c1c63014612ad55780636695113114612a975780636e3288a214610203578063712fb12114612828578063715018a6146127cb5780637363ae1f146124b057806374b06938146124925780638456cb591461243857806384f4319c146123a1578063858d9da21461201b5780638c65c81f14611e7c5780638da5cb5b14611e4f5780638f1327c014611b0f57806392d53a67146119c4578063951b60a41461194957806397c3ccd8146118c35780639918965f146118a55780639b795a0014611887578063b181ee85146117d3578063b9f1455714611776578063c03daa4d146116af578063cdafbbb6146115f7578063d09d142314611492578063d2b48cd314610d4e578063dd35e7aa14610d31578063ed28b37914610aca578063edfe721614610a9b578063ee138d0f14610a56578063f2fde38b146109b8578063f6b3a00a146107d7578063f87de1101461024b5763f9f92be41461020357600080fd5b34610246576020366003190112610246576004356001600160a01b0381169081900361024657600052600a602052602060ff604060002054166040519015158152f35b600080fd5b3461024657602036600319011261024657610264613837565b600435600052600c602052604060002061028081541515613552565b6040516020810190602082526102ae816102a060408201600e8701613403565b03601f19810183528261350b565b51902060405160208101906102c6816102a084613590565b5190200361079257600435600052600760205260406000209060048201549160ff831661074d5760018101546040516326f21bfb60e21b8152600481018290529091906020816024817f00000000000000000000000000000000000000000000000000000000000000006001600160a01b03165afa9081156106a05760009161071e575b50156106e05760405163fb476cad60e01b815260048101839052936020856024817f00000000000000000000000000000000000000000000000000000000000000006001600160a01b03165afa9485156106a0576000956106ac575b50604051926103b4846134b6565b60048452608036602086013760005b60048110610553575050600160049160ff1916179101558260088301556009820181519067ffffffffffffffff821161053d57600160401b821161053d57805482825580831061051f575b506020830190600052602060002060005b83811061050b575050505060405190816060810191856020830152604080830152805180935260206080830191019260005b8181106104f257505061046d925003601f19810183528261350b565b60208151910120906004810191825561049561048c600e8301546133c9565b600e83016136de565b600e6010671c995d99585b195960c21b01910155549060405191825260208201527f5bea98f83eb292dbd765e5bf6dfc7f916d0bc8f6aa03f07518763c300ad832c5604060043592a26001600080516020613f6e83398151915255005b8451835260209485019486945090920191600101610451565b60019060208451940193818401550161041f565b610537908260005283602060002091820191016136c7565b8561040e565b634e487b7160e01b600052604160045260246000fd5b6040519060043560208301528060408301526040825281606081011067ffffffffffffffff60608401111761053d5760608201604081905282516020808501919091206324cbbfc160e01b83526064808601819052608486019190915260a48501869052909190817f00000000000000000000000000000000000000000000000000000000000000006001600160a01b03165afa9182156106a057600092610659575b5063ffffffff8083166001011161064357855181101561062d5763ffffffff806001931683011660208260051b88010152016103c3565b634e487b7160e01b600052603260045260246000fd5b634e487b7160e01b600052601160045260246000fd5b9091506020813d602011610698575b816106786020936060840161350b565b81010312610246576060015163ffffffff811681036102465790886105f6565b3d9150610668565b6040513d6000823e3d90fd5b9094506020813d6020116106d8575b816106c86020938361350b565b81010312610246575193856103a6565b3d91506106bb565b60405162461bcd60e51b815260206004820152601660248201527572616e646f6d6e65737320756e617661696c61626c6560501b6044820152606490fd5b610740915060203d602011610746575b610738818361350b565b8101906137f0565b8561034a565b503d61072e565b60405162461bcd60e51b815260206004820152601a60248201527f72616e646f6d6e65737320616c726561647920666574636865640000000000006044820152606490fd5b60405162461bcd60e51b815260206004820152601860248201527f72616e646f6d6e657373206e6f742072657175657374656400000000000000006044820152606490fd5b3461024657602080600319360112610246576004356107f4613cb4565b6107fc613837565b33600052600a825261081660ff60406000205416156135cb565b806000526008825260406000209160028301805460ff8160081c1680151590816109ab575b50156109725760101c60ff1661093557600060068501928354915b8281106108d557505050610872600161089a9495015433613cd2565b805461ff0061088660ff8360081c166137df565b60081b169061ff0019161790553390613668565b33907f87969bc7faf902221a147b95ceba76e011c5efb0339a0a8ee7a2bb82d9cfbbd6600080a36001600080516020613f6e83398151915255005b6108df8186613650565b905460039190911b1c6001600160a01b031633146108ff57600101610856565b60405162461bcd60e51b815260048101839052600e60248201526d185b1c9958591e481a9bda5b995960921b6044820152606490fd5b60405162461bcd60e51b8152600481018390526015602482015274185c995b9848185b1c9958591e481cd95d1d1b1959605a1b6044820152606490fd5b60405162461bcd60e51b81526004810184905260116024820152706172656e6120756e617661696c61626c6560781b6044820152606490fd5b905060ff8216118661083b565b34610246576020366003190112610246576004356001600160a01b0381811691828103610246576109e7613808565b8215610a3d5760008054610100600160a81b03198116600893841b610100600160a81b031617825590911c91909116907f8be0079c531659141344cd1fd0a4f28419497f9722a3daafe3b4186f6b6457e09080a3005b604051631e4fbdf760e01b815260006004820152602490fd5b34610246576000366003190112610246576040517f00000000000000000000000000000000000000000000000000000000000000006001600160a01b03168152602090f35b3461024657602036600319011261024657600435600052600c6020526020600460406000200154604051908152f35b3461024657610ad83661333b565b90610ae1613cb4565b3360005260ff602092600a8452610aff8260406000205416156135cb565b166002811015610cfd5781600052600c835260406000203360018060a01b0360028301541603610cc857600e81016040519085820186815282610b456040820184613403565b0392610b59601f199485810183528261350b565b51902060405187810190610b7c81610b70846136a3565b0386810183528261350b565b519020141580610c61575b15610c2f57600b9291610be891604051610bbb81610baf8b8201948c86526040830190613403565b0384810183528261350b565b51902090604051610bdf8982019282610bd38561376e565b0390810183528261350b565b51902014613790565b600d81018360ff1982541617905501549260405193845283015260408201527f74e6cd5d5d8fda41d1dfe0a2b03c42d613de1e32c1758c97c3ce0397579608f160603392a2005b60405162461bcd60e51b815260048101879052600a60248201526919d85b5948195b99195960b21b6044820152606490fd5b5060405186810190878252610c8981610c7d6040820186613403565b0385810183528261350b565b51902060405187810190610cbe81610b70846060906020815260086020820152671c99599d5b99195960c21b60408201520190565b5190201415610b87565b60405162461bcd60e51b815260048101859052600d60248201526c6e6f7420796f75722067616d6560981b6044820152606490fd5b60405162461bcd60e51b815260048101849052600c60248201526b1a5b9d985b1a590818d85c9960a21b6044820152606490fd5b346102465760003660031901126102465760206040516104b08152f35b3461024657602036600319011261024657610d67613837565b600435600052600c6020526040600020610d8381541515613552565b604051602081016020815281610d9f60408201600e8601613403565b0391610db3601f199384810183528261350b565b5190206040516020810190610de981610c7d846060906020815260086020820152671c995d99585b195960c21b60408201520190565b5190200361145857604051602081019060208252610e1181610baf6040820160018801613403565b51902090604051610e4560208201926020845282610bd36040820160409060058152646172656e6160d81b60208201520190565b519020036111ad5760038101546000526008602052604060002090600682015490811561062d576006830160005260018060a01b0360206000205416918260005260078401602052610ea260ff6040600020541660098401613650565b90549060031b1c60015b82811061114b57505050600b81015492605f8402848104605f148515171561064357610ede60646002920480966137d2565b91600a84019360018060a01b03861694856001600160601b0360a01b825416179055610f1061048c600e8301546133c9565b60126818dbdb5c1b195d195960ba1b01600e919091015501805462010000600160b81b031916601885901b6301000000600160b81b0316176201000017905560405163a9059cbb60e01b8082526001600160a01b038086166004840152602483018790527f000000000000000000000000000000000000000000000000000000000000000016929091602081806044810103816000885af19081156106a05760009161112c575b50156110ee576000805460405193845260081c6001600160a01b0316600484015260248301919091529091602091839160449183915af19081156106a0576000916110cf575b501561108a57600052600b602052604060002061101b8382546135be565b90555b60405191825260406020830152600a6040830152691cd95d1d1b195b595b9d60b21b606083015260018060a01b0316907f76e3932ab627fbf797df82027f96467d2db24b01f1863446b10447eb72d64cf2608060043592a36001600080516020613f6e83398151915255005b60405162461bcd60e51b815260206004820152601960248201527f6f776e657220666565207472616e73666572206661696c6564000000000000006044820152606490fd5b6110e8915060203d60201161074657610738818361350b565b84610ffd565b60405162461bcd60e51b81526020600482015260166024820152751dda5b9b995c881d1c985b9cd9995c8819985a5b195960521b6044820152606490fd5b611145915060203d60201161074657610738818361350b565b87610fb7565b6111588160068801613650565b60018060a01b0391549060031b1c16806000526007870160205261118760ff6040600020541660098701613650565b90549060031b1c8381116111a0575b5050600101610eac565b9095509150600187611196565b6009810160ff600d830154166111c38183613650565b9290549160010360ff8111610643576111db91613650565b9054600391821b1c92901b1c106113385760018060a01b038060028301541690600b83015460c381029080820460c31490151715610643576064900492600a8101836001600160601b0360a01b82541617905561123e61048c600e8301546133c9565b60126818dbdb5c1b195d195960ba1b01600e919091015560405163a9059cbb60e01b81526001600160a01b03831660048201526024810184905290602090829060449082906000907f0000000000000000000000000000000000000000000000000000000000000000165af19081156106a057600091611319575b50156112df5780600052600b60205260406000206112d88382546135be565b905561101e565b60405162461bcd60e51b81526020600482015260126024820152711cdbdb1bc81c185e5bdd5d0819985a5b195960721b6044820152606490fd5b611332915060203d60201161074657610738818361350b565b836112b9565b60018060a01b038060005460081c1690600b83015492600a8101836001600160601b0360a01b82541617905561137461048c600e8301546133c9565b60126818dbdb5c1b195d195960ba1b01600e919091015560405163a9059cbb60e01b81526001600160a01b03831660048201526024810184905290602090829060449082906000907f0000000000000000000000000000000000000000000000000000000000000000165af19081156106a057600091611439575b5061101e5760405162461bcd60e51b815260206004820152601960248201527f736f6c6f206c6f7373207472616e73666572206661696c6564000000000000006044820152606490fd5b611452915060203d60201161074657610738818361350b565b836113ef565b60405162461bcd60e51b81526020600482015260126024820152711c9bdd5b99081b9bdd081c995d99585b195960721b6044820152606490fd5b346102465760208060031936011261024657600435906114b0613808565b6114b8613837565b81600052600c8152600e60406000206114d381541515613552565b01604051828101838152816114eb6040820185613403565b03916114ff601f199384810183528261350b565b5190206040518481019061151681610c7d8461376e565b519020149182156115b6575b50501561157b57611567917f656d657267656e63792072616e646f6d6e65737320726566756e6400000000006040519261155b846134ef565b601b8452830152613867565b6001600080516020613f6e83398151915255005b6064906040519062461bcd60e51b825260048201526014602482015273726f756e64206e6f7420726566756e6461626c6560601b6044820152fd5b9091506040516115d481610baf868201948786526040830190613403565b519020906040516115ec8482019282610bd385613590565b519020148380611522565b34610246576020366003190112610246576004356001600160a01b0381169081900361024657600052600b6020526040600020805460018201549060028301549260038101549061169960405161165c816116558160048701613403565b038261350b565b60ff600584015416946007600685015494015494604051988998610100938a5260208a01526040890152606088015280608088015286019061335b565b92151560a085015260c084015260e08301520390f35b34610246576116bd3661352d565b906116c6613808565b8015158061176d575b15611728578082106116e357600155600255005b60405162461bcd60e51b815260206004820152601f60248201527f6461696c79206c696d6974206d757374206265203e3d207478206c696d6974006044820152606490fd5b60405162461bcd60e51b815260206004820152601b60248201527f626574206c696d697473206d75737420626520706f73697469766500000000006044820152606490fd5b508115156116cf565b34610246576020366003190112610246576004356001600160a01b03811690819003610246576117a4613808565b600052600a602052604060002060ff1990818154169055600b6020526005604060002001908154169055600080f35b3461024657602036600319011261024657600060806040516117f4816134b6565b8281528260208201528260408201528260608201520152600435600052600760205260a06040600020604051611829816134b6565b81549182825260018101546020830190815260028201549060408401918252608060ff600460038601549560608801968752015416940193151584526040519485525160208501525160408401525160608301525115156080820152f35b34610246576000366003190112610246576020600254604051908152f35b34610246576000366003190112610246576020600154604051908152f35b34610246576020366003190112610246576004356001600160a01b03811690819003610246576118f1613808565b80600052600a602052604060002060ff1990600182825416179055600b60205260016005604060002001918254161790557fe9668cca25138ad3c67ec987cb4843e582d8b30a9b47338c21b2c18ade516454600080a2005b34610246576119573661352d565b90611960613808565b801515806119bb575b1561197657600555600655005b60405162461bcd60e51b815260206004820152601760248201527f706172616d73206d75737420626520706f7369746976650000000000000000006044820152606490fd5b50811515611969565b346102465760203660031901126102465760206004356119e2613cb4565b6119ea613837565b33600052600a8252611a0460ff60406000205416156135cb565b611a0f81151561360d565b611a198133613cd2565b611a24600454613543565b908160045581600052600c8352600e604060002083815560018101611a52611a4c82546133c9565b826136de565b600863736f6c6f60e01b0190556002810180546001600160a01b03191633179055600b810183905542600f820155018054611a9090611a4c906133c9565b600e6618dc99585d195960ca1b0190556000827f9577abb201dc9d305bcbb0b9a535f972e3883d6dc9bdb72dee07ee7b3b50358660405160408152611aea604082016040906004815263736f6c6f60e01b60208201520190565b94878201528033950390a46001600080516020613f6e83398151915255604051908152f35b346102465760203660031901126102465760006101e0604051611b31816134d2565b82815260606020820152826040820152826060820152826080820152606060a0820152606060c08201528260e082015282610100820152606061012082015282610140820152826101608201526060610180820152826101a082015260606101c08201520152600435600052600c6020526040600020604051611bb3816134d2565b81548152604051611bcb816116558160018701613403565b602082015260028201546001600160a01b0316604080830191909152600383015460608301526004830154608083015251611c0d816116558160058701613403565b60a0820152604051611c26816116558160068701613403565b60c0820152600782015460e082015260088201546101008201526009820191604051806020855491828152019460005260206000209060005b818110611e3957505050611c7881600f9495038261350b565b610120840152600a8101546001600160a01b0316610140840152600b810154610160840152604051611cb18161165581600c8601613403565b61018084015260ff600d820154166101a0840152604051611cd98161165581600e8601613403565b6101c084015201546101e08201526040516020815281516020820152611d68611d52611d166020850151610200604086015261022085019061335b565b60018060a01b03604086015116606085015260608501516080850152608085015160a085015260a0850151601f198583030160c086015261335b565b60c0840151838203601f190160e085015261335b565b9160e081015161010083015261010081015161012083015261012081015192601f19838203016101408401526020808551928381520194019060005b818110611e23575050506101e0611e16611df1849560018060a01b0361014086015116610160870152610160850151610180870152610180850151601f19878303016101a088015261335b565b60ff6101a0850151166101c08601526101c0840151601f19868303018487015261335b565b9101516102008301520390f35b8251865260209586019590920191600101611da4565b8254875260209096019560019283019201611c5f565b346102465760003660031901126102465760005460405160089190911c6001600160a01b03168152602090f35b3461024657602036600319011261024657600435600052600c60205260406000208054906040519081806001830190611eb491613403565b03611ebf908361350b565b60028101546003820154600483015460405191939290916001600160a01b03918216919080611ef18160058801613403565b03611efc908261350b565b60405180611f0d8160068901613403565b03611f18908261350b565b600786015492600887015490600a8801541691600b88015493604051968780600c8c0190611f4591613403565b03611f50908961350b565b600d8a015460ff16986040519a8b80600e830190611f6d91613403565b03611f78908d61350b565b600f01549b6040519e8f9e8f916101e09083528060208401528201611f9c9161335b565b9360408201526060015260808d01528b810360a08d0152611fbc9161335b565b8a810360c08c0152611fcd9161335b565b9360e08a0152610100890152610120880152610140870152858103610160870152611ff79161335b565b906101808501528381036101a08501526120109161335b565b906101c08301520390f35b34610246576120293661333b565b90612032613cb4565b33600052602091600a835260ff80916120528260406000205416156135cb565b166004811015612367578260005260088452604060002093600285018054848160081c16156123305760101c84166122fb57600486019283546122be57600080600689018054915b828110612286575b5050501561224b573360005260088701835260406000208054908682161561221f575b50503360005260078701835260406000208160ff19825416179055604051908152857f66cee2873c9d4f051647de1b983be68fc0860d323d4ff6594c7d622ca213bc3f843393a3805484808260081c1691168114908161220f575b5061212757005b612132600454613543565b938460045584600052600c8352600160406000209786895581890161215a611a4c82546133c9565b600a646172656e6160d81b0190558760038a01550154915460081c169081810291818304149015171561064357837f9577abb201dc9d305bcbb0b9a535f972e3883d6dc9bdb72dee07ee7b3b50358693600e88600b60009a0194855542600f820155016121ca611a4c82546133c9565b600e6618dc99585d195960ca1b0190555554604051918291604083526122066040840160409060058152646172656e6160d81b60208201520190565b918301520390a4005b9050846005880154161487612120565b60ff19918216600117905560058801805490918761223e8184166137df565b16911617905587806120c5565b60405162461bcd60e51b81526004810184905260136024820152723737ba1030b71030b932b73090383630bcb2b960691b6044820152606490fd5b6122908183613650565b905460039190911b1c6001600160a01b031633146122b05760010161209a565b5050505060018880806120a2565b60405162461bcd60e51b81526004810184905260156024820152741c9bdd5b9908185b1c9958591e4818dc99585d1959605a1b6044820152606490fd5b60405162461bcd60e51b815260048101839052600d60248201526c185c995b98481cd95d1d1b1959609a1b6044820152606490fd5b60405162461bcd60e51b815260048101849052600f60248201526e185c995b98481b9bdd08199bdd5b99608a1b6044820152606490fd5b60405162461bcd60e51b81526004810185905260126024820152710d2dcecc2d8d2c840c6c2e4c840d2dcc8caf60731b6044820152606490fd5b346102465760203660031901126102465760043560005260086020526101206040600020805490600181015490600281015460038201549060ff600560048501549401541693604051958652602086015260ff8116604086015260ff8160081c16606086015260ff8160101c161515608086015260018060a01b039060181c1660a085015260c084015260e0830152610100820152f35b3461024657600036600319011261024657612451613808565b612459613cb4565b600160ff1960005416176000557f62e78cea01bee320cd4e420270b5ea74000d11b0c9f74754ebdbfc544b05a2586020604051338152a1005b34610246576000366003190112610246576020600354604051908152f35b602080600319360112610246576004356124c8613cb4565b6124d0613837565b80600052600c8252600e60406000206124eb81541515613552565b01906040519261253f818501828152856125086040820187613403565b039561251c601f199788810183528261350b565b51902060405183810190610bdf816125338461376e565b0389810183528261350b565b6040516314c1dc4d60e31b81523a60048201527f00000000000000000000000000000000000000000000000000000000000000006001600160a01b03169490938285602481895afa9485156106a05760009561279c575b50843410612763578285966004604051809881936334cd994560e11b83525af19485156106a057600095612734575b506040516125d2816134b6565b8481526004848201918783526040810142815260608201908a82526080830194600086528960005260078952604060002093518455516001840155516002830155516003820155019051151560ff80198354169116179055612637611a4c82546133c9565b7f72616e646f6d6e65737352657175657374656400000000000000000000000026905561266485346137d2565b806126ab575b50507feee7195b6cee0fa7044c3af0b86fe2febb1d2703d71191f44052ba0d60ffda64906040519485523394a46001600080516020613f6e83398151915255005b600080808093335af1903d1561272e573d67ffffffffffffffff811161053d576126df8460405193601f840116018361350b565b81526000833d92013e5b156126f557848061266a565b6064906040519062461bcd60e51b82526004820152601260248201527110d15313c81c99599d5b990819985a5b195960721b6044820152fd5b506126e9565b9094508281813d831161275c575b61274c818361350b565b81010312610246575193866125c5565b503d612742565b60405162461bcd60e51b8152600481018490526011602482015270696e73756666696369656e742043454c4f60781b6044820152606490fd5b9094508281813d83116127c4575b6127b4818361350b565b8101031261024657519386612596565b503d6127aa565b34610246576000366003190112610246576127e4613808565b60008054610100600160a81b03198116825560081c6001600160a01b03167f8be0079c531659141344cd1fd0a4f28419497f9722a3daafe3b4186f6b6457e08280a3005b346102465760803660031901126102465767ffffffffffffffff6004356024358281116102465761285d90369060040161339b565b6044358481116102465761287590369060040161339b565b60643591612881613808565b85600052602096600c885260406000209061289e82541515613552565b6005820181871161053d576128bd876128b783546133c9565b83613708565b866000601f8211600114612a3057600091612a25575b508760011b906000198960031b1c19161790555b6006820190841161053d57612900846128b783546133c9565b6000601f851160011461299457600785937f431e05890b19757a3e2c8fcc029f9cba75796d3f867432c8aca4908a867c2a129a9b959361297e978994600091612989575b508660011b906000198860031b1c19161790555b015561297160405197889760608952606089019161374d565b928684039087015261374d565b9060408301520390a2005b90508501358e612944565b601f19851690826000528a6000209160005b818110612a0e5750937f431e05890b19757a3e2c8fcc029f9cba75796d3f867432c8aca4908a867c2a129a9b959388936007938961297e9a98106129f4575b5050600186811b019055612958565b860135600019600389901b60f8161c191690558d806129e5565b91928c60018192868a0135815501940192016129a6565b90508801358b6128d3565b60008381528c812092508990601f198216908e5b8d838310612a7e5750505010612a64575b5050600187811b0190556128e7565b89013560001960038a901b60f8161c191690558a80612a55565b8501358655600190950194938401938c9350018e612a44565b34610246576020366003190112610246576004356001600160a01b038116908190036102465760005260096020526020604060002054604051908152f35b34610246576000366003190112610246576020600654604051908152f35b3461024657602036600319011261024657600435600052600760205260a06040600020805490600181015490600281015460ff60046003840154930154169260405194855260208501526040840152606083015215156080820152f35b3461024657600036600319011261024657602060ff600054166040519015158152f35b3461024657602080600319360112610246576004356001600160a01b0381169081900361024657600060e0604051612baa81613499565b8281528285820152826040820152826060820152606060808201528260a08201528260c08201520152600052600b8152604060002060405190612bec82613499565b805482526001810154908383019182526002810154916040840192835260038201546060850190815260405190612c3182612c2a8160048801613403565b038361350b565b6080860191825260ff6005850154169460a087019515158652600760068601549560c0890196875201549360e08801948552604051988998818a5251908901525160408801525160608701525160808601525191612c9d610100938460a088015261012087019061335b565b9351151560c08601525160e085015251908301520390f35b34610246576000366003190112610246576040517f00000000000000000000000000000000000000000000000000000000000000006001600160a01b03168152602090f35b346102465760208060031936011261024657600435600052600c81526040600020600e810160405183810184815281612d366040820185613403565b0391612d4a601f199384810183528261350b565b51902060405185810190612d7f81610c7d846060906020815260086020820152671c995d99585b195960c21b60408201520190565b51902014918215612de3575b505015612d9e5760080154604051908152f35b60405162461bcd60e51b815260048101839052601760248201527f72616e646f6d6e657373206e6f742072657665616c65640000000000000000006044820152606490fd5b909150604051612e0181610baf878201948886526040830190613403565b51902090604051612e198582019282610bd3856136a3565b519020148380612d8b565b346102465760ff612e343661333b565b612e3f929192613cb4565b612e47613837565b33600052600a602052612e618260406000205416156135cb565b16600281101580612f66575b15612f215781612e80602093151561360d565b612e8a8133613cd2565b612e95600354613543565b91826003558260005260088452612ed66040600020848155836001820155600281016101008461ffff19835416171790554260038201556006339101613668565b60405191825283820152817fa2bbd44031e4a29e8a7b02904c750b86ee4b539b515b912b6312f23f7a12de8f60403393a36001600080516020613f6e83398151915255604051908152f35b60405162461bcd60e51b815260206004820152601860248201527f706c6179657220636f756e74206d75737420626520322d3400000000000000006044820152606490fd5b506004811115612e6d565b3461024657600036600319011261024657612f8a613808565b60005460ff811615612fc95760ff19166000557f5db9ee0a495bf2e6ff9c91a7834c1ba4fdd244a5e8aa4e537bd38aeae4b073aa6020604051338152a1005b604051638dfc202b60e01b8152600490fd5b34610246576000366003190112610246576020600554604051908152f35b34610246576020806003193601126102465760043590613017613837565b81600052600c8152604060002061303081541515613552565b604051908161304c84820192858452600e604084019101613403565b0391613060601f199384810183528261350b565b519020906040516130788482019282610bd385613590565b5190200361313d57816000526007815260406000209160028301546104b08101809111610643574210613102576001611567930154817fd9c88ce99c062b2cd8b0eecd6d9164002cc3ba98f31f5a1e83dde1ed5c21e049600080a3711c985b991bdb5b995cdcc81d1a5b595bdd5d60721b604051926130f6846134ef565b60128452830152613867565b60405162461bcd60e51b81526004810183905260136024820152721d1a5b595bdd5d081b9bdd081c995858da1959606a1b6044820152606490fd5b6064906040519062461bcd60e51b82526004820152601660248201527572616e646f6d6e657373206e6f742070656e64696e6760501b6044820152fd5b34610246576020366003190112610246576004356001600160a01b03811690819003610246576131a8613808565b80600052600b60205260066040600020016131c38154613543565b905580600052600b6020526040600020600681015460065411156131e357005b6007429101557f2cab723428c7ee886be3d0fb35d9aa30beab5acc2016ea5dcadd2d6b9eec81e56020600554604051908152a2005b3461024657602080600319360112610246576004356000526008815260406000209081549160019060018101549360028201549360018060a01b0392600660038201549101966040519182848a54918281520190819a600052856000209060005b81811061330b575050508361328f91038461350b565b856040519861010093848b01978b52868b015260ff811660408b015260ff8160081c1660608b015260ff8160101c16151560808b015260181c1660a089015260c088015260e087015251809252610120850195926000905b8382106132f45786880387f35b8451811688529682019693820193908501906132e7565b82548a16845292870192918a01918a01613279565b34610246576000366003190112610246576020906004548152f35b6040906003190112610246576004359060243560ff811681036102465790565b919082519283825260005b848110613387575050826000602080949584010152601f8019910116010190565b602081830181015184830182015201613366565b9181601f840112156102465782359167ffffffffffffffff8311610246576020838186019501011161024657565b90600182811c921680156133f9575b60208310146133e357565b634e487b7160e01b600052602260045260246000fd5b91607f16916133d8565b805460009392613412826133c9565b9182825260209360019160018116908160001461347a5750600114613439575b5050505050565b90939495506000929192528360002092846000945b83861061346657505050500101903880808080613432565b80548587018301529401938590820161344e565b60ff19168685015250505090151560051b010191503880808080613432565b610100810190811067ffffffffffffffff82111761053d57604052565b60a0810190811067ffffffffffffffff82111761053d57604052565b610200810190811067ffffffffffffffff82111761053d57604052565b6040810190811067ffffffffffffffff82111761053d57604052565b90601f8019910116810190811067ffffffffffffffff82111761053d57604052565b6040906003190112610246576004359060243590565b60001981146106435760010190565b1561355957565b60405162461bcd60e51b815260206004820152600f60248201526e1c9bdd5b99081b9bdd08199bdd5b99608a1b6044820152606490fd5b6060906020815260136020820152721c985b991bdb5b995cdcd4995c5d595cdd1959606a1b60408201520190565b9190820180921161064357565b156135d257565b60405162461bcd60e51b81526020600482015260136024820152721859191c995cdcc8189b1858dadb1a5cdd1959606a1b6044820152606490fd5b1561361457565b60405162461bcd60e51b8152602060048201526014602482015273626574206d75737420626520706f73697469766560601b6044820152606490fd5b805482101561062d5760005260206000200190600090565b8054600160401b81101561053d5761368591600182018155613650565b60018060a09493941b038084549260031b9316831b921b1916179055565b60609060208152600960208201526818dbdb5c1b195d195960ba1b60408201520190565b8181106136d2575050565b600081556001016136c7565b90601f81116136eb575050565b61370691600052601f6020600020910160051c8101906136c7565b565b9190601f811161371757505050565b613706926000526020600020906020601f840160051c83019310613743575b601f0160051c01906136c7565b9091508190613736565b908060209392818452848401376000828201840152601f01601f1916010190565b60609060208152600760208201526618dc99585d195960ca1b60408201520190565b1561379757565b60405162461bcd60e51b8152602060048201526013602482015272696e76616c696420726f756e6420737461746560681b6044820152606490fd5b9190820391821161064357565b60ff1660ff81146106435760010190565b90816020910312610246575180151581036102465790565b60005460081c6001600160a01b0316330361381f57565b60405163118cdaa760e01b8152336004820152602490fd5b600080516020613f6e83398151915260028154146138555760029055565b604051633ee5aeb560e01b8152600490fd5b91906000838152602090600c82526040948582209261388884541515613552565b600e840193875194828601838152866138a38b820184613403565b03966138b7601f199889810183528261350b565b5190208951848101906138d9816138cd846136a3565b038a810183528261350b565b519020141580613c5c575b15613c28576138f6611a4c82546133c9565b6010671c99599d5b99195960c21b0190556001948880518481019085825261392781610c7d85820160018901613403565b5190209161395682519182610bd38882019589875282016040906004815263736f6c6f60e01b60208201520190565b51902014613b075750818352600c8152868320600390810154845260088252878420939793956001600160a01b0395949160018801907f00000000000000000000000000000000000000000000000000000000000000008816908b9060068b01895b6139df575b50505050505050505050506002919250016201000062ff000019825416179055565b8d819d9c9b9d541115613afe578c6139f78f83613650565b905490841b1c168554885163a9059cbb60e01b81528a8180613a336004958787840160209093929193604081019460018060a01b031681520152565b0381898b5af1908115613af4578691613ad7575b5015613a9e57508a9b9c9d9e8b918b7f9b4b9fe42e556d768a938a82696607b338f22ed4a51cd053ce2559efc1616a5a8c8c613a938d8d5492808051958695865285015283019061335b565b0390a3019d9a6139b8565b885162461bcd60e51b81529081018a90526013602482015272185c995b98481c99599d5b990819985a5b1959606a1b6044820152606490fd5b613aee91508b3d8d1161074657610738818361350b565b38613a47565b8a513d88823e3d90fd5b8a9b9c506139bd565b600281018054600b90920180548a5163a9059cbb60e01b81526001600160a01b0394851660048201526024810191909152989990989497939650949293919290918681604481857f000000000000000000000000000000000000000000000000000000000000000089165af1918215613c1d5791613c00575b5015613bcc5791613bc7917f9b4b9fe42e556d768a938a82696607b338f22ed4a51cd053ce2559efc1616a5a9594935416965492808051958695865285015283019061335b565b0390a3565b835162461bcd60e51b815260048101869052600d60248201526c1c99599d5b990819985a5b1959609a1b6044820152606490fd5b613c179150863d881161074657610738818361350b565b38613b80565b8651903d90823e3d90fd5b885162461bcd60e51b815260048101849052600d60248201526c18d85b9b9bdd081c99599d5b99609a1b6044820152606490fd5b50885183810190848252613c76816125338d820186613403565b519020895184810190613caa816138cd846060906020815260086020820152671c99599d5b99195960c21b60408201520190565b51902014156138e4565b60ff60005416613cc057565b60405163d93c066560e01b8152600490fd5b60018060a01b0380911690600090828252602093600a855260409360ff8585205416613f345781151580613f28575b15613eef57620151804204818552600b8752600386862001548111613ed5575b5060098652613d3382868620546135be565b60025410613e9a57908186928552600b835285852060068101546006541115613e45575b5080606491865260098452868620613d708482546135be565b9055808652600b8452600187872001613d898154613543565b905585875195869485936323b872dd60e01b8552600485015230602485015260448401527f0000000000000000000000000000000000000000000000000000000000000000165af1918215613e3a5791613e1d575b5015613de8575050565b60649250519062461bcd60e51b82526004820152600f60248201526e1d1c985b9cd9995c8819985a5b1959608a1b6044820152fd5b613e349150833d851161074657610738818361350b565b38613dde565b8351903d90823e3d90fd5b613e599192935060070154600554906135be565b4210613e685790859138613d57565b845162461bcd60e51b815260048101879052600b60248201526a34b71031b7b7b63237bbb760a91b6044820152606490fd5b845162461bcd60e51b815260048101879052601460248201527319185a5b1e481b1a5b5a5d08195e18d95959195960621b6044820152606490fd5b600987528486812055600b87526003868620015538613d21565b845162461bcd60e51b8152600481018790526012602482015271626574206f757473696465206c696d69747360701b6044820152606490fd5b50600154821115613d01565b845162461bcd60e51b81526004810187905260126024820152711c1b185e595c88189b1858dadb1a5cdd195960721b6044820152606490fdfe9b779b17422d0df92223018b32b4d1fa46e071723d6817e2486d003becc55f00a26469706673582212208eb5f69947a0bd9547d6fc366aca9eee7d640419a4dc2da4091b4fb5d9f40c4b64736f6c63430008180033","opcodes":"PUSH1 0xC0 CALLVALUE PUSH3 0x22E JUMPI PUSH3 0x4222 SWAP1 PUSH1 0x1F CODESIZE DUP4 SWAP1 SUB SWAP1 DUP2 ADD PUSH1 0x1F NOT AND DUP3 ADD SWAP1 PUSH1 0x1 PUSH1 0x1 PUSH1 0x40 SHL SUB DUP3 GT DUP4 DUP4 LT OR PUSH3 0x233 JUMPI DUP1 DUP4 SWAP2 PUSH1 0x40 SWAP6 DUP7 SWAP5 DUP6 MSTORE DUP4 CODECOPY DUP2 ADD SUB SLT PUSH3 0x22E JUMPI PUSH3 0x5D PUSH1 0x20 PUSH3 0x55 DUP4 PUSH3 0x249 JUMP JUMPDEST SWAP3 ADD PUSH3 0x249 JUMP JUMPDEST SWAP1 PUSH1 0x1 PUSH32 0x9B779B17422D0DF92223018B32B4D1FA46E071723D6817E2486D003BECC55F00 SSTORE CALLER ISZERO PUSH3 0x216 JUMPI PUSH1 0x0 DUP1 SLOAD PUSH2 0x100 PUSH1 0x1 PUSH1 0xA8 SHL SUB NOT DUP2 AND CALLER PUSH1 0x8 DUP2 DUP2 SHL PUSH2 0x100 PUSH1 0x1 PUSH1 0xA8 SHL SUB AND SWAP3 SWAP1 SWAP3 OR DUP5 SSTORE DUP7 MLOAD SWAP6 PUSH1 0x1 PUSH1 0x1 PUSH1 0xA0 SHL SUB SWAP6 SWAP1 SWAP5 DUP7 SWAP5 SWAP2 SWAP4 SWAP2 SWAP1 SWAP2 SHR DUP5 AND SWAP1 PUSH32 0x8BE0079C531659141344CD1FD0A4F28419497F9722A3DAAFE3B4186F6B6457E0 SWAP1 DUP1 LOG3 PUSH9 0x1158E460913D00000 PUSH1 0x1 SSTORE PUSH9 0x56BC75E2D63100000 PUSH1 0x2 SSTORE PUSH2 0xE10 PUSH1 0x5 SSTORE PUSH1 0x5 PUSH1 0x6 SSTORE AND SWAP3 DUP4 ISZERO PUSH3 0x1D4 JUMPI POP AND SWAP1 DUP2 ISZERO PUSH3 0x190 JUMPI PUSH1 0x80 MSTORE PUSH1 0xA0 MSTORE MLOAD PUSH2 0x3FC3 SWAP1 DUP2 PUSH3 0x25F DUP3 CODECOPY PUSH1 0x80 MLOAD DUP2 DUP2 DUP2 PUSH2 0xA6C ADD MSTORE DUP2 DUP2 PUSH2 0xF76 ADD MSTORE DUP2 DUP2 PUSH2 0x1288 ADD MSTORE DUP2 DUP2 PUSH2 0x13BE ADD MSTORE DUP2 DUP2 PUSH2 0x398E ADD MSTORE DUP2 DUP2 PUSH2 0x3B50 ADD MSTORE PUSH2 0x3DAF ADD MSTORE PUSH1 0xA0 MLOAD DUP2 DUP2 DUP2 PUSH2 0x311 ADD MSTORE DUP2 DUP2 PUSH2 0x36D ADD MSTORE DUP2 DUP2 PUSH2 0x5BD ADD MSTORE DUP2 DUP2 PUSH2 0x2554 ADD MSTORE PUSH2 0x2CCB ADD MSTORE RETURN JUMPDEST DUP3 MLOAD PUSH3 0x461BCD PUSH1 0xE5 SHL DUP2 MSTORE PUSH1 0x20 PUSH1 0x4 DUP3 ADD MSTORE PUSH1 0x16 PUSH1 0x24 DUP3 ADD MSTORE PUSH32 0x696E76616C6964205769746E6574206164647265737300000000000000000000 PUSH1 0x44 DUP3 ADD MSTORE PUSH1 0x64 SWAP1 REVERT JUMPDEST PUSH3 0x461BCD PUSH1 0xE5 SHL DUP2 MSTORE PUSH1 0x20 PUSH1 0x4 DUP3 ADD MSTORE PUSH1 0x14 PUSH1 0x24 DUP3 ADD MSTORE PUSH32 0x696E76616C6964205553444D2061646472657373000000000000000000000000 PUSH1 0x44 DUP3 ADD MSTORE PUSH1 0x64 SWAP1 REVERT JUMPDEST DUP3 MLOAD PUSH4 0x1E4FBDF7 PUSH1 0xE0 SHL DUP2 MSTORE PUSH1 0x0 PUSH1 0x4 DUP3 ADD MSTORE PUSH1 0x24 SWAP1 REVERT JUMPDEST PUSH1 0x0 DUP1 REVERT JUMPDEST PUSH4 0x4E487B71 PUSH1 0xE0 SHL PUSH1 0x0 MSTORE PUSH1 0x41 PUSH1 0x4 MSTORE PUSH1 0x24 PUSH1 0x0 REVERT JUMPDEST MLOAD SWAP1 PUSH1 0x1 PUSH1 0x1 PUSH1 0xA0 SHL SUB DUP3 AND DUP3 SUB PUSH3 0x22E JUMPI JUMP INVALID PUSH1 0x80 DUP1 PUSH1 0x40 MSTORE PUSH1 0x4 CALLDATASIZE LT ISZERO PUSH2 0x13 JUMPI PUSH1 0x0 DUP1 REVERT JUMPDEST PUSH1 0x0 CALLDATALOAD PUSH1 0xE0 SHR SWAP1 DUP2 PUSH4 0x127F0B3F EQ PUSH2 0x3320 JUMPI POP DUP1 PUSH4 0x1A8425B4 EQ PUSH2 0x3218 JUMPI DUP1 PUSH4 0x2BBF1274 EQ PUSH2 0x317A JUMPI DUP1 PUSH4 0x3200FC71 EQ PUSH2 0x2FF9 JUMPI DUP1 PUSH4 0x35269315 EQ PUSH2 0x2FDB JUMPI DUP1 PUSH4 0x3F4BA83A EQ PUSH2 0x2F71 JUMPI DUP1 PUSH4 0x410DDACA EQ PUSH2 0x2E24 JUMPI DUP1 PUSH4 0x453F4F62 EQ PUSH2 0x2CFA JUMPI DUP1 PUSH4 0x46D1D21A EQ PUSH2 0x2CB5 JUMPI DUP1 PUSH4 0x4FD66EAE EQ PUSH2 0x2B73 JUMPI DUP1 PUSH4 0x5C975ABB EQ PUSH2 0x2B50 JUMPI DUP1 PUSH4 0x5CB6DFFF EQ PUSH2 0x2AF3 JUMPI DUP1 PUSH4 0x65C1C630 EQ PUSH2 0x2AD5 JUMPI DUP1 PUSH4 0x66951131 EQ PUSH2 0x2A97 JUMPI DUP1 PUSH4 0x6E3288A2 EQ PUSH2 0x203 JUMPI DUP1 PUSH4 0x712FB121 EQ PUSH2 0x2828 JUMPI DUP1 PUSH4 0x715018A6 EQ PUSH2 0x27CB JUMPI DUP1 PUSH4 0x7363AE1F EQ PUSH2 0x24B0 JUMPI DUP1 PUSH4 0x74B06938 EQ PUSH2 0x2492 JUMPI DUP1 PUSH4 0x8456CB59 EQ PUSH2 0x2438 JUMPI DUP1 PUSH4 0x84F4319C EQ PUSH2 0x23A1 JUMPI DUP1 PUSH4 0x858D9DA2 EQ PUSH2 0x201B JUMPI DUP1 PUSH4 0x8C65C81F EQ PUSH2 0x1E7C JUMPI DUP1 PUSH4 0x8DA5CB5B EQ PUSH2 0x1E4F JUMPI DUP1 PUSH4 0x8F1327C0 EQ PUSH2 0x1B0F JUMPI DUP1 PUSH4 0x92D53A67 EQ PUSH2 0x19C4 JUMPI DUP1 PUSH4 0x951B60A4 EQ PUSH2 0x1949 JUMPI DUP1 PUSH4 0x97C3CCD8 EQ PUSH2 0x18C3 JUMPI DUP1 PUSH4 0x9918965F EQ PUSH2 0x18A5 JUMPI DUP1 PUSH4 0x9B795A00 EQ PUSH2 0x1887 JUMPI DUP1 PUSH4 0xB181EE85 EQ PUSH2 0x17D3 JUMPI DUP1 PUSH4 0xB9F14557 EQ PUSH2 0x1776 JUMPI DUP1 PUSH4 0xC03DAA4D EQ PUSH2 0x16AF JUMPI DUP1 PUSH4 0xCDAFBBB6 EQ PUSH2 0x15F7 JUMPI DUP1 PUSH4 0xD09D1423 EQ PUSH2 0x1492 JUMPI DUP1 PUSH4 0xD2B48CD3 EQ PUSH2 0xD4E JUMPI DUP1 PUSH4 0xDD35E7AA EQ PUSH2 0xD31 JUMPI DUP1 PUSH4 0xED28B379 EQ PUSH2 0xACA JUMPI DUP1 PUSH4 0xEDFE7216 EQ PUSH2 0xA9B JUMPI DUP1 PUSH4 0xEE138D0F EQ PUSH2 0xA56 JUMPI DUP1 PUSH4 0xF2FDE38B EQ PUSH2 0x9B8 JUMPI DUP1 PUSH4 0xF6B3A00A EQ PUSH2 0x7D7 JUMPI DUP1 PUSH4 0xF87DE110 EQ PUSH2 0x24B JUMPI PUSH4 0xF9F92BE4 EQ PUSH2 0x203 JUMPI PUSH1 0x0 DUP1 REVERT JUMPDEST CALLVALUE PUSH2 0x246 JUMPI PUSH1 0x20 CALLDATASIZE PUSH1 0x3 NOT ADD SLT PUSH2 0x246 JUMPI PUSH1 0x4 CALLDATALOAD PUSH1 0x1 PUSH1 0x1 PUSH1 0xA0 SHL SUB DUP2 AND SWAP1 DUP2 SWAP1 SUB PUSH2 0x246 JUMPI PUSH1 0x0 MSTORE PUSH1 0xA PUSH1 0x20 MSTORE PUSH1 0x20 PUSH1 0xFF PUSH1 0x40 PUSH1 0x0 KECCAK256 SLOAD AND PUSH1 0x40 MLOAD SWAP1 ISZERO ISZERO DUP2 MSTORE RETURN JUMPDEST PUSH1 0x0 DUP1 REVERT JUMPDEST CALLVALUE PUSH2 0x246 JUMPI PUSH1 0x20 CALLDATASIZE PUSH1 0x3 NOT ADD SLT PUSH2 0x246 JUMPI PUSH2 0x264 PUSH2 0x3837 JUMP JUMPDEST PUSH1 0x4 CALLDATALOAD PUSH1 0x0 MSTORE PUSH1 0xC PUSH1 0x20 MSTORE PUSH1 0x40 PUSH1 0x0 KECCAK256 PUSH2 0x280 DUP2 SLOAD ISZERO ISZERO PUSH2 0x3552 JUMP JUMPDEST PUSH1 0x40 MLOAD PUSH1 0x20 DUP2 ADD SWAP1 PUSH1 0x20 DUP3 MSTORE PUSH2 0x2AE DUP2 PUSH2 0x2A0 PUSH1 0x40 DUP3 ADD PUSH1 0xE DUP8 ADD PUSH2 0x3403 JUMP JUMPDEST SUB PUSH1 0x1F NOT DUP2 ADD DUP4 MSTORE DUP3 PUSH2 0x350B JUMP JUMPDEST MLOAD SWAP1 KECCAK256 PUSH1 0x40 MLOAD PUSH1 0x20 DUP2 ADD SWAP1 PUSH2 0x2C6 DUP2 PUSH2 0x2A0 DUP5 PUSH2 0x3590 JUMP JUMPDEST MLOAD SWAP1 KECCAK256 SUB PUSH2 0x792 JUMPI PUSH1 0x4 CALLDATALOAD PUSH1 0x0 MSTORE PUSH1 0x7 PUSH1 0x20 MSTORE PUSH1 0x40 PUSH1 0x0 KECCAK256 SWAP1 PUSH1 0x4 DUP3 ADD SLOAD SWAP2 PUSH1 0xFF DUP4 AND PUSH2 0x74D JUMPI PUSH1 0x1 DUP2 ADD SLOAD PUSH1 0x40 MLOAD PUSH4 0x26F21BFB PUSH1 0xE2 SHL DUP2 MSTORE PUSH1 0x4 DUP2 ADD DUP3 SWAP1 MSTORE SWAP1 SWAP2 SWAP1 PUSH1 0x20 DUP2 PUSH1 0x24 DUP2 PUSH32 0x0 PUSH1 0x1 PUSH1 0x1 PUSH1 0xA0 SHL SUB AND GAS STATICCALL SWAP1 DUP2 ISZERO PUSH2 0x6A0 JUMPI PUSH1 0x0 SWAP2 PUSH2 0x71E JUMPI JUMPDEST POP ISZERO PUSH2 0x6E0 JUMPI PUSH1 0x40 MLOAD PUSH4 0xFB476CAD PUSH1 0xE0 SHL DUP2 MSTORE PUSH1 0x4 DUP2 ADD DUP4 SWAP1 MSTORE SWAP4 PUSH1 0x20 DUP6 PUSH1 0x24 DUP2 PUSH32 0x0 PUSH1 0x1 PUSH1 0x1 PUSH1 0xA0 SHL SUB AND GAS STATICCALL SWAP5 DUP6 ISZERO PUSH2 0x6A0 JUMPI PUSH1 0x0 SWAP6 PUSH2 0x6AC JUMPI JUMPDEST POP PUSH1 0x40 MLOAD SWAP3 PUSH2 0x3B4 DUP5 PUSH2 0x34B6 JUMP JUMPDEST PUSH1 0x4 DUP5 MSTORE PUSH1 0x80 CALLDATASIZE PUSH1 0x20 DUP7 ADD CALLDATACOPY PUSH1 0x0 JUMPDEST PUSH1 0x4 DUP2 LT PUSH2 0x553 JUMPI POP POP PUSH1 0x1 PUSH1 0x4 SWAP2 PUSH1 0xFF NOT AND OR SWAP2 ADD SSTORE DUP3 PUSH1 0x8 DUP4 ADD SSTORE PUSH1 0x9 DUP3 ADD DUP2 MLOAD SWAP1 PUSH8 0xFFFFFFFFFFFFFFFF DUP3 GT PUSH2 0x53D JUMPI PUSH1 0x1 PUSH1 0x40 SHL DUP3 GT PUSH2 0x53D JUMPI DUP1 SLOAD DUP3 DUP3 SSTORE DUP1 DUP4 LT PUSH2 0x51F JUMPI JUMPDEST POP PUSH1 0x20 DUP4 ADD SWAP1 PUSH1 0x0 MSTORE PUSH1 0x20 PUSH1 0x0 KECCAK256 PUSH1 0x0 JUMPDEST DUP4 DUP2 LT PUSH2 0x50B JUMPI POP POP POP POP PUSH1 0x40 MLOAD SWAP1 DUP2 PUSH1 0x60 DUP2 ADD SWAP2 DUP6 PUSH1 0x20 DUP4 ADD MSTORE PUSH1 0x40 DUP1 DUP4 ADD MSTORE DUP1 MLOAD DUP1 SWAP4 MSTORE PUSH1 0x20 PUSH1 0x80 DUP4 ADD SWAP2 ADD SWAP3 PUSH1 0x0 JUMPDEST DUP2 DUP2 LT PUSH2 0x4F2 JUMPI POP POP PUSH2 0x46D SWAP3 POP SUB PUSH1 0x1F NOT DUP2 ADD DUP4 MSTORE DUP3 PUSH2 0x350B JUMP JUMPDEST PUSH1 0x20 DUP2 MLOAD SWAP2 ADD KECCAK256 SWAP1 PUSH1 0x4 DUP2 ADD SWAP2 DUP3 SSTORE PUSH2 0x495 PUSH2 0x48C PUSH1 0xE DUP4 ADD SLOAD PUSH2 0x33C9 JUMP JUMPDEST PUSH1 0xE DUP4 ADD PUSH2 0x36DE JUMP JUMPDEST PUSH1 0xE PUSH1 0x10 PUSH8 0x1C995D99585B1959 PUSH1 0xC2 SHL ADD SWAP2 ADD SSTORE SLOAD SWAP1 PUSH1 0x40 MLOAD SWAP2 DUP3 MSTORE PUSH1 0x20 DUP3 ADD MSTORE PUSH32 0x5BEA98F83EB292DBD765E5BF6DFC7F916D0BC8F6AA03F07518763C300AD832C5 PUSH1 0x40 PUSH1 0x4 CALLDATALOAD SWAP3 LOG2 PUSH1 0x1 PUSH1 0x0 DUP1 MLOAD PUSH1 0x20 PUSH2 0x3F6E DUP4 CODECOPY DUP2 MLOAD SWAP2 MSTORE SSTORE STOP JUMPDEST DUP5 MLOAD DUP4 MSTORE PUSH1 0x20 SWAP5 DUP6 ADD SWAP5 DUP7 SWAP5 POP SWAP1 SWAP3 ADD SWAP2 PUSH1 0x1 ADD PUSH2 0x451 JUMP JUMPDEST PUSH1 0x1 SWAP1 PUSH1 0x20 DUP5 MLOAD SWAP5 ADD SWAP4 DUP2 DUP5 ADD SSTORE ADD PUSH2 0x41F JUMP JUMPDEST PUSH2 0x537 SWAP1 DUP3 PUSH1 0x0 MSTORE DUP4 PUSH1 0x20 PUSH1 0x0 KECCAK256 SWAP2 DUP3 ADD SWAP2 ADD PUSH2 0x36C7 JUMP JUMPDEST DUP6 PUSH2 0x40E JUMP JUMPDEST PUSH4 0x4E487B71 PUSH1 0xE0 SHL PUSH1 0x0 MSTORE PUSH1 0x41 PUSH1 0x4 MSTORE PUSH1 0x24 PUSH1 0x0 REVERT JUMPDEST PUSH1 0x40 MLOAD SWAP1 PUSH1 0x4 CALLDATALOAD PUSH1 0x20 DUP4 ADD MSTORE DUP1 PUSH1 0x40 DUP4 ADD MSTORE PUSH1 0x40 DUP3 MSTORE DUP2 PUSH1 0x60 DUP2 ADD LT PUSH8 0xFFFFFFFFFFFFFFFF PUSH1 0x60 DUP5 ADD GT OR PUSH2 0x53D JUMPI PUSH1 0x60 DUP3 ADD PUSH1 0x40 DUP2 SWAP1 MSTORE DUP3 MLOAD PUSH1 0x20 DUP1 DUP6 ADD SWAP2 SWAP1 SWAP2 KECCAK256 PUSH4 0x24CBBFC1 PUSH1 0xE0 SHL DUP4 MSTORE PUSH1 0x64 DUP1 DUP7 ADD DUP2 SWAP1 MSTORE PUSH1 0x84 DUP7 ADD SWAP2 SWAP1 SWAP2 MSTORE PUSH1 0xA4 DUP6 ADD DUP7 SWAP1 MSTORE SWAP1 SWAP2 SWAP1 DUP2 PUSH32 0x0 PUSH1 0x1 PUSH1 0x1 PUSH1 0xA0 SHL SUB AND GAS STATICCALL SWAP2 DUP3 ISZERO PUSH2 0x6A0 JUMPI PUSH1 0x0 SWAP3 PUSH2 0x659 JUMPI JUMPDEST POP PUSH4 0xFFFFFFFF DUP1 DUP4 AND PUSH1 0x1 ADD GT PUSH2 0x643 JUMPI DUP6 MLOAD DUP2 LT ISZERO PUSH2 0x62D JUMPI PUSH4 0xFFFFFFFF DUP1 PUSH1 0x1 SWAP4 AND DUP4 ADD AND PUSH1 0x20 DUP3 PUSH1 0x5 SHL DUP9 ADD ADD MSTORE ADD PUSH2 0x3C3 JUMP JUMPDEST PUSH4 0x4E487B71 PUSH1 0xE0 SHL PUSH1 0x0 MSTORE PUSH1 0x32 PUSH1 0x4 MSTORE PUSH1 0x24 PUSH1 0x0 REVERT JUMPDEST PUSH4 0x4E487B71 PUSH1 0xE0 SHL PUSH1 0x0 MSTORE PUSH1 0x11 PUSH1 0x4 MSTORE PUSH1 0x24 PUSH1 0x0 REVERT JUMPDEST SWAP1 SWAP2 POP PUSH1 0x20 DUP2 RETURNDATASIZE PUSH1 0x20 GT PUSH2 0x698 JUMPI JUMPDEST DUP2 PUSH2 0x678 PUSH1 0x20 SWAP4 PUSH1 0x60 DUP5 ADD PUSH2 0x350B JUMP JUMPDEST DUP2 ADD SUB SLT PUSH2 0x246 JUMPI PUSH1 0x60 ADD MLOAD PUSH4 0xFFFFFFFF DUP2 AND DUP2 SUB PUSH2 0x246 JUMPI SWAP1 DUP9 PUSH2 0x5F6 JUMP JUMPDEST RETURNDATASIZE SWAP2 POP PUSH2 0x668 JUMP JUMPDEST PUSH1 0x40 MLOAD RETURNDATASIZE PUSH1 0x0 DUP3 RETURNDATACOPY RETURNDATASIZE SWAP1 REVERT JUMPDEST SWAP1 SWAP5 POP PUSH1 0x20 DUP2 RETURNDATASIZE PUSH1 0x20 GT PUSH2 0x6D8 JUMPI JUMPDEST DUP2 PUSH2 0x6C8 PUSH1 0x20 SWAP4 DUP4 PUSH2 0x350B JUMP JUMPDEST DUP2 ADD SUB SLT PUSH2 0x246 JUMPI MLOAD SWAP4 DUP6 PUSH2 0x3A6 JUMP JUMPDEST RETURNDATASIZE SWAP2 POP PUSH2 0x6BB JUMP JUMPDEST PUSH1 0x40 MLOAD PUSH3 0x461BCD PUSH1 0xE5 SHL DUP2 MSTORE PUSH1 0x20 PUSH1 0x4 DUP3 ADD MSTORE PUSH1 0x16 PUSH1 0x24 DUP3 ADD MSTORE PUSH22 0x72616E646F6D6E65737320756E617661696C61626C65 PUSH1 0x50 SHL PUSH1 0x44 DUP3 ADD MSTORE PUSH1 0x64 SWAP1 REVERT JUMPDEST PUSH2 0x740 SWAP2 POP PUSH1 0x20 RETURNDATASIZE PUSH1 0x20 GT PUSH2 0x746 JUMPI JUMPDEST PUSH2 0x738 DUP2 DUP4 PUSH2 0x350B JUMP JUMPDEST DUP2 ADD SWAP1 PUSH2 0x37F0 JUMP JUMPDEST DUP6 PUSH2 0x34A JUMP JUMPDEST POP RETURNDATASIZE PUSH2 0x72E JUMP JUMPDEST PUSH1 0x40 MLOAD PUSH3 0x461BCD PUSH1 0xE5 SHL DUP2 MSTORE PUSH1 0x20 PUSH1 0x4 DUP3 ADD MSTORE PUSH1 0x1A PUSH1 0x24 DUP3 ADD MSTORE PUSH32 0x72616E646F6D6E65737320616C72656164792066657463686564000000000000 PUSH1 0x44 DUP3 ADD MSTORE PUSH1 0x64 SWAP1 REVERT JUMPDEST PUSH1 0x40 MLOAD PUSH3 0x461BCD PUSH1 0xE5 SHL DUP2 MSTORE PUSH1 0x20 PUSH1 0x4 DUP3 ADD MSTORE PUSH1 0x18 PUSH1 0x24 DUP3 ADD MSTORE PUSH32 0x72616E646F6D6E657373206E6F74207265717565737465640000000000000000 PUSH1 0x44 DUP3 ADD MSTORE PUSH1 0x64 SWAP1 REVERT JUMPDEST CALLVALUE PUSH2 0x246 JUMPI PUSH1 0x20 DUP1 PUSH1 0x3 NOT CALLDATASIZE ADD SLT PUSH2 0x246 JUMPI PUSH1 0x4 CALLDATALOAD PUSH2 0x7F4 PUSH2 0x3CB4 JUMP JUMPDEST PUSH2 0x7FC PUSH2 0x3837 JUMP JUMPDEST CALLER PUSH1 0x0 MSTORE PUSH1 0xA DUP3 MSTORE PUSH2 0x816 PUSH1 0xFF PUSH1 0x40 PUSH1 0x0 KECCAK256 SLOAD AND ISZERO PUSH2 0x35CB JUMP JUMPDEST DUP1 PUSH1 0x0 MSTORE PUSH1 0x8 DUP3 MSTORE PUSH1 0x40 PUSH1 0x0 KECCAK256 SWAP2 PUSH1 0x2 DUP4 ADD DUP1 SLOAD PUSH1 0xFF DUP2 PUSH1 0x8 SHR AND DUP1 ISZERO ISZERO SWAP1 DUP2 PUSH2 0x9AB JUMPI JUMPDEST POP ISZERO PUSH2 0x972 JUMPI PUSH1 0x10 SHR PUSH1 0xFF AND PUSH2 0x935 JUMPI PUSH1 0x0 PUSH1 0x6 DUP6 ADD SWAP3 DUP4 SLOAD SWAP2 JUMPDEST DUP3 DUP2 LT PUSH2 0x8D5 JUMPI POP POP POP PUSH2 0x872 PUSH1 0x1 PUSH2 0x89A SWAP5 SWAP6 ADD SLOAD CALLER PUSH2 0x3CD2 JUMP JUMPDEST DUP1 SLOAD PUSH2 0xFF00 PUSH2 0x886 PUSH1 0xFF DUP4 PUSH1 0x8 SHR AND PUSH2 0x37DF JUMP JUMPDEST PUSH1 0x8 SHL AND SWAP1 PUSH2 0xFF00 NOT AND OR SWAP1 SSTORE CALLER SWAP1 PUSH2 0x3668 JUMP JUMPDEST CALLER SWAP1 PUSH32 0x87969BC7FAF902221A147B95CEBA76E011C5EFB0339A0A8EE7A2BB82D9CFBBD6 PUSH1 0x0 DUP1 LOG3 PUSH1 0x1 PUSH1 0x0 DUP1 MLOAD PUSH1 0x20 PUSH2 0x3F6E DUP4 CODECOPY DUP2 MLOAD SWAP2 MSTORE SSTORE STOP JUMPDEST PUSH2 0x8DF DUP2 DUP7 PUSH2 0x3650 JUMP JUMPDEST SWAP1 SLOAD PUSH1 0x3 SWAP2 SWAP1 SWAP2 SHL SHR PUSH1 0x1 PUSH1 0x1 PUSH1 0xA0 SHL SUB AND CALLER EQ PUSH2 0x8FF JUMPI PUSH1 0x1 ADD PUSH2 0x856 JUMP JUMPDEST PUSH1 0x40 MLOAD PUSH3 0x461BCD PUSH1 0xE5 SHL DUP2 MSTORE PUSH1 0x4 DUP2 ADD DUP4 SWAP1 MSTORE PUSH1 0xE PUSH1 0x24 DUP3 ADD MSTORE PUSH14 0x185B1C9958591E481A9BDA5B9959 PUSH1 0x92 SHL PUSH1 0x44 DUP3 ADD MSTORE PUSH1 0x64 SWAP1 REVERT JUMPDEST PUSH1 0x40 MLOAD PUSH3 0x461BCD PUSH1 0xE5 SHL DUP2 MSTORE PUSH1 0x4 DUP2 ADD DUP4 SWAP1 MSTORE PUSH1 0x15 PUSH1 0x24 DUP3 ADD MSTORE PUSH21 0x185C995B9848185B1C9958591E481CD95D1D1B1959 PUSH1 0x5A SHL PUSH1 0x44 DUP3 ADD MSTORE PUSH1 0x64 SWAP1 REVERT JUMPDEST PUSH1 0x40 MLOAD PUSH3 0x461BCD PUSH1 0xE5 SHL DUP2 MSTORE PUSH1 0x4 DUP2 ADD DUP5 SWAP1 MSTORE PUSH1 0x11 PUSH1 0x24 DUP3 ADD MSTORE PUSH17 0x6172656E6120756E617661696C61626C65 PUSH1 0x78 SHL PUSH1 0x44 DUP3 ADD MSTORE PUSH1 0x64 SWAP1 REVERT JUMPDEST SWAP1 POP PUSH1 0xFF DUP3 AND GT DUP7 PUSH2 0x83B JUMP JUMPDEST CALLVALUE PUSH2 0x246 JUMPI PUSH1 0x20 CALLDATASIZE PUSH1 0x3 NOT ADD SLT PUSH2 0x246 JUMPI PUSH1 0x4 CALLDATALOAD PUSH1 0x1 PUSH1 0x1 PUSH1 0xA0 SHL SUB DUP2 DUP2 AND SWAP2 DUP3 DUP2 SUB PUSH2 0x246 JUMPI PUSH2 0x9E7 PUSH2 0x3808 JUMP JUMPDEST DUP3 ISZERO PUSH2 0xA3D JUMPI PUSH1 0x0 DUP1 SLOAD PUSH2 0x100 PUSH1 0x1 PUSH1 0xA8 SHL SUB NOT DUP2 AND PUSH1 0x8 SWAP4 DUP5 SHL PUSH2 0x100 PUSH1 0x1 PUSH1 0xA8 SHL SUB AND OR DUP3 SSTORE SWAP1 SWAP2 SHR SWAP2 SWAP1 SWAP2 AND SWAP1 PUSH32 0x8BE0079C531659141344CD1FD0A4F28419497F9722A3DAAFE3B4186F6B6457E0 SWAP1 DUP1 LOG3 STOP JUMPDEST PUSH1 0x40 MLOAD PUSH4 0x1E4FBDF7 PUSH1 0xE0 SHL DUP2 MSTORE PUSH1 0x0 PUSH1 0x4 DUP3 ADD MSTORE PUSH1 0x24 SWAP1 REVERT JUMPDEST CALLVALUE PUSH2 0x246 JUMPI PUSH1 0x0 CALLDATASIZE PUSH1 0x3 NOT ADD SLT PUSH2 0x246 JUMPI PUSH1 0x40 MLOAD PUSH32 0x0 PUSH1 0x1 PUSH1 0x1 PUSH1 0xA0 SHL SUB AND DUP2 MSTORE PUSH1 0x20 SWAP1 RETURN JUMPDEST CALLVALUE PUSH2 0x246 JUMPI PUSH1 0x20 CALLDATASIZE PUSH1 0x3 NOT ADD SLT PUSH2 0x246 JUMPI PUSH1 0x4 CALLDATALOAD PUSH1 0x0 MSTORE PUSH1 0xC PUSH1 0x20 MSTORE PUSH1 0x20 PUSH1 0x4 PUSH1 0x40 PUSH1 0x0 KECCAK256 ADD SLOAD PUSH1 0x40 MLOAD SWAP1 DUP2 MSTORE RETURN JUMPDEST CALLVALUE PUSH2 0x246 JUMPI PUSH2 0xAD8 CALLDATASIZE PUSH2 0x333B JUMP JUMPDEST SWAP1 PUSH2 0xAE1 PUSH2 0x3CB4 JUMP JUMPDEST CALLER PUSH1 0x0 MSTORE PUSH1 0xFF PUSH1 0x20 SWAP3 PUSH1 0xA DUP5 MSTORE PUSH2 0xAFF DUP3 PUSH1 0x40 PUSH1 0x0 KECCAK256 SLOAD AND ISZERO PUSH2 0x35CB JUMP JUMPDEST AND PUSH1 0x2 DUP2 LT ISZERO PUSH2 0xCFD JUMPI DUP2 PUSH1 0x0 MSTORE PUSH1 0xC DUP4 MSTORE PUSH1 0x40 PUSH1 0x0 KECCAK256 CALLER PUSH1 0x1 DUP1 PUSH1 0xA0 SHL SUB PUSH1 0x2 DUP4 ADD SLOAD AND SUB PUSH2 0xCC8 JUMPI PUSH1 0xE DUP2 ADD PUSH1 0x40 MLOAD SWAP1 DUP6 DUP3 ADD DUP7 DUP2 MSTORE DUP3 PUSH2 0xB45 PUSH1 0x40 DUP3 ADD DUP5 PUSH2 0x3403 JUMP JUMPDEST SUB SWAP3 PUSH2 0xB59 PUSH1 0x1F NOT SWAP5 DUP6 DUP2 ADD DUP4 MSTORE DUP3 PUSH2 0x350B JUMP JUMPDEST MLOAD SWAP1 KECCAK256 PUSH1 0x40 MLOAD DUP8 DUP2 ADD SWAP1 PUSH2 0xB7C DUP2 PUSH2 0xB70 DUP5 PUSH2 0x36A3 JUMP JUMPDEST SUB DUP7 DUP2 ADD DUP4 MSTORE DUP3 PUSH2 0x350B JUMP JUMPDEST MLOAD SWAP1 KECCAK256 EQ ISZERO DUP1 PUSH2 0xC61 JUMPI JUMPDEST ISZERO PUSH2 0xC2F JUMPI PUSH1 0xB SWAP3 SWAP2 PUSH2 0xBE8 SWAP2 PUSH1 0x40 MLOAD PUSH2 0xBBB DUP2 PUSH2 0xBAF DUP12 DUP3 ADD SWAP5 DUP13 DUP7 MSTORE PUSH1 0x40 DUP4 ADD SWAP1 PUSH2 0x3403 JUMP JUMPDEST SUB DUP5 DUP2 ADD DUP4 MSTORE DUP3 PUSH2 0x350B JUMP JUMPDEST MLOAD SWAP1 KECCAK256 SWAP1 PUSH1 0x40 MLOAD PUSH2 0xBDF DUP10 DUP3 ADD SWAP3 DUP3 PUSH2 0xBD3 DUP6 PUSH2 0x376E JUMP JUMPDEST SUB SWAP1 DUP2 ADD DUP4 MSTORE DUP3 PUSH2 0x350B JUMP JUMPDEST MLOAD SWAP1 KECCAK256 EQ PUSH2 0x3790 JUMP JUMPDEST PUSH1 0xD DUP2 ADD DUP4 PUSH1 0xFF NOT DUP3 SLOAD AND OR SWAP1 SSTORE ADD SLOAD SWAP3 PUSH1 0x40 MLOAD SWAP4 DUP5 MSTORE DUP4 ADD MSTORE PUSH1 0x40 DUP3 ADD MSTORE PUSH32 0x74E6CD5D5D8FDA41D1DFE0A2B03C42D613DE1E32C1758C97C3CE0397579608F1 PUSH1 0x60 CALLER SWAP3 LOG2 STOP JUMPDEST PUSH1 0x40 MLOAD PUSH3 0x461BCD PUSH1 0xE5 SHL DUP2 MSTORE PUSH1 0x4 DUP2 ADD DUP8 SWAP1 MSTORE PUSH1 0xA PUSH1 0x24 DUP3 ADD MSTORE PUSH10 0x19D85B5948195B991959 PUSH1 0xB2 SHL PUSH1 0x44 DUP3 ADD MSTORE PUSH1 0x64 SWAP1 REVERT JUMPDEST POP PUSH1 0x40 MLOAD DUP7 DUP2 ADD SWAP1 DUP8 DUP3 MSTORE PUSH2 0xC89 DUP2 PUSH2 0xC7D PUSH1 0x40 DUP3 ADD DUP7 PUSH2 0x3403 JUMP JUMPDEST SUB DUP6 DUP2 ADD DUP4 MSTORE DUP3 PUSH2 0x350B JUMP JUMPDEST MLOAD SWAP1 KECCAK256 PUSH1 0x40 MLOAD DUP8 DUP2 ADD SWAP1 PUSH2 0xCBE DUP2 PUSH2 0xB70 DUP5 PUSH1 0x60 SWAP1 PUSH1 0x20 DUP2 MSTORE PUSH1 0x8 PUSH1 0x20 DUP3 ADD MSTORE PUSH8 0x1C99599D5B991959 PUSH1 0xC2 SHL PUSH1 0x40 DUP3 ADD MSTORE ADD SWAP1 JUMP JUMPDEST MLOAD SWAP1 KECCAK256 EQ ISZERO PUSH2 0xB87 JUMP JUMPDEST PUSH1 0x40 MLOAD PUSH3 0x461BCD PUSH1 0xE5 SHL DUP2 MSTORE PUSH1 0x4 DUP2 ADD DUP6 SWAP1 MSTORE PUSH1 0xD PUSH1 0x24 DUP3 ADD MSTORE PUSH13 0x6E6F7420796F75722067616D65 PUSH1 0x98 SHL PUSH1 0x44 DUP3 ADD MSTORE PUSH1 0x64 SWAP1 REVERT JUMPDEST PUSH1 0x40 MLOAD PUSH3 0x461BCD PUSH1 0xE5 SHL DUP2 MSTORE PUSH1 0x4 DUP2 ADD DUP5 SWAP1 MSTORE PUSH1 0xC PUSH1 0x24 DUP3 ADD MSTORE PUSH12 0x1A5B9D985B1A590818D85C99 PUSH1 0xA2 SHL PUSH1 0x44 DUP3 ADD MSTORE PUSH1 0x64 SWAP1 REVERT JUMPDEST CALLVALUE PUSH2 0x246 JUMPI PUSH1 0x0 CALLDATASIZE PUSH1 0x3 NOT ADD SLT PUSH2 0x246 JUMPI PUSH1 0x20 PUSH1 0x40 MLOAD PUSH2 0x4B0 DUP2 MSTORE RETURN JUMPDEST CALLVALUE PUSH2 0x246 JUMPI PUSH1 0x20 CALLDATASIZE PUSH1 0x3 NOT ADD SLT PUSH2 0x246 JUMPI PUSH2 0xD67 PUSH2 0x3837 JUMP JUMPDEST PUSH1 0x4 CALLDATALOAD PUSH1 0x0 MSTORE PUSH1 0xC PUSH1 0x20 MSTORE PUSH1 0x40 PUSH1 0x0 KECCAK256 PUSH2 0xD83 DUP2 SLOAD ISZERO ISZERO PUSH2 0x3552 JUMP JUMPDEST PUSH1 0x40 MLOAD PUSH1 0x20 DUP2 ADD PUSH1 0x20 DUP2 MSTORE DUP2 PUSH2 0xD9F PUSH1 0x40 DUP3 ADD PUSH1 0xE DUP7 ADD PUSH2 0x3403 JUMP JUMPDEST SUB SWAP2 PUSH2 0xDB3 PUSH1 0x1F NOT SWAP4 DUP5 DUP2 ADD DUP4 MSTORE DUP3 PUSH2 0x350B JUMP JUMPDEST MLOAD SWAP1 KECCAK256 PUSH1 0x40 MLOAD PUSH1 0x20 DUP2 ADD SWAP1 PUSH2 0xDE9 DUP2 PUSH2 0xC7D DUP5 PUSH1 0x60 SWAP1 PUSH1 0x20 DUP2 MSTORE PUSH1 0x8 PUSH1 0x20 DUP3 ADD MSTORE PUSH8 0x1C995D99585B1959 PUSH1 0xC2 SHL PUSH1 0x40 DUP3 ADD MSTORE ADD SWAP1 JUMP JUMPDEST MLOAD SWAP1 KECCAK256 SUB PUSH2 0x1458 JUMPI PUSH1 0x40 MLOAD PUSH1 0x20 DUP2 ADD SWAP1 PUSH1 0x20 DUP3 MSTORE PUSH2 0xE11 DUP2 PUSH2 0xBAF PUSH1 0x40 DUP3 ADD PUSH1 0x1 DUP9 ADD PUSH2 0x3403 JUMP JUMPDEST MLOAD SWAP1 KECCAK256 SWAP1 PUSH1 0x40 MLOAD PUSH2 0xE45 PUSH1 0x20 DUP3 ADD SWAP3 PUSH1 0x20 DUP5 MSTORE DUP3 PUSH2 0xBD3 PUSH1 0x40 DUP3 ADD PUSH1 0x40 SWAP1 PUSH1 0x5 DUP2 MSTORE PUSH5 0x6172656E61 PUSH1 0xD8 SHL PUSH1 0x20 DUP3 ADD MSTORE ADD SWAP1 JUMP JUMPDEST MLOAD SWAP1 KECCAK256 SUB PUSH2 0x11AD JUMPI PUSH1 0x3 DUP2 ADD SLOAD PUSH1 0x0 MSTORE PUSH1 0x8 PUSH1 0x20 MSTORE PUSH1 0x40 PUSH1 0x0 KECCAK256 SWAP1 PUSH1 0x6 DUP3 ADD SLOAD SWAP1 DUP2 ISZERO PUSH2 0x62D JUMPI PUSH1 0x6 DUP4 ADD PUSH1 0x0 MSTORE PUSH1 0x1 DUP1 PUSH1 0xA0 SHL SUB PUSH1 0x20 PUSH1 0x0 KECCAK256 SLOAD AND SWAP2 DUP3 PUSH1 0x0 MSTORE PUSH1 0x7 DUP5 ADD PUSH1 0x20 MSTORE PUSH2 0xEA2 PUSH1 0xFF PUSH1 0x40 PUSH1 0x0 KECCAK256 SLOAD AND PUSH1 0x9 DUP5 ADD PUSH2 0x3650 JUMP JUMPDEST SWAP1 SLOAD SWAP1 PUSH1 0x3 SHL SHR PUSH1 0x1 JUMPDEST DUP3 DUP2 LT PUSH2 0x114B JUMPI POP POP POP PUSH1 0xB DUP2 ADD SLOAD SWAP3 PUSH1 0x5F DUP5 MUL DUP5 DUP2 DIV PUSH1 0x5F EQ DUP6 ISZERO OR ISZERO PUSH2 0x643 JUMPI PUSH2 0xEDE PUSH1 0x64 PUSH1 0x2 SWAP3 DIV DUP1 SWAP7 PUSH2 0x37D2 JUMP JUMPDEST SWAP2 PUSH1 0xA DUP5 ADD SWAP4 PUSH1 0x1 DUP1 PUSH1 0xA0 SHL SUB DUP7 AND SWAP5 DUP6 PUSH1 0x1 PUSH1 0x1 PUSH1 0x60 SHL SUB PUSH1 0xA0 SHL DUP3 SLOAD AND OR SWAP1 SSTORE PUSH2 0xF10 PUSH2 0x48C PUSH1 0xE DUP4 ADD SLOAD PUSH2 0x33C9 JUMP JUMPDEST PUSH1 0x12 PUSH9 0x18DBDB5C1B195D1959 PUSH1 0xBA SHL ADD PUSH1 0xE SWAP2 SWAP1 SWAP2 ADD SSTORE ADD DUP1 SLOAD PUSH3 0x10000 PUSH1 0x1 PUSH1 0xB8 SHL SUB NOT AND PUSH1 0x18 DUP6 SWAP1 SHL PUSH4 0x1000000 PUSH1 0x1 PUSH1 0xB8 SHL SUB AND OR PUSH3 0x10000 OR SWAP1 SSTORE PUSH1 0x40 MLOAD PUSH4 0xA9059CBB PUSH1 0xE0 SHL DUP1 DUP3 MSTORE PUSH1 0x1 PUSH1 0x1 PUSH1 0xA0 SHL SUB DUP1 DUP7 AND PUSH1 0x4 DUP5 ADD MSTORE PUSH1 0x24 DUP4 ADD DUP8 SWAP1 MSTORE PUSH32 0x0 AND SWAP3 SWAP1 SWAP2 PUSH1 0x20 DUP2 DUP1 PUSH1 0x44 DUP2 ADD SUB DUP2 PUSH1 0x0 DUP9 GAS CALL SWAP1 DUP2 ISZERO PUSH2 0x6A0 JUMPI PUSH1 0x0 SWAP2 PUSH2 0x112C JUMPI JUMPDEST POP ISZERO PUSH2 0x10EE JUMPI PUSH1 0x0 DUP1 SLOAD PUSH1 0x40 MLOAD SWAP4 DUP5 MSTORE PUSH1 0x8 SHR PUSH1 0x1 PUSH1 0x1 PUSH1 0xA0 SHL SUB AND PUSH1 0x4 DUP5 ADD MSTORE PUSH1 0x24 DUP4 ADD SWAP2 SWAP1 SWAP2 MSTORE SWAP1 SWAP2 PUSH1 0x20 SWAP2 DUP4 SWAP2 PUSH1 0x44 SWAP2 DUP4 SWAP2 GAS CALL SWAP1 DUP2 ISZERO PUSH2 0x6A0 JUMPI PUSH1 0x0 SWAP2 PUSH2 0x10CF JUMPI JUMPDEST POP ISZERO PUSH2 0x108A JUMPI PUSH1 0x0 MSTORE PUSH1 0xB PUSH1 0x20 MSTORE PUSH1 0x40 PUSH1 0x0 KECCAK256 PUSH2 0x101B DUP4 DUP3 SLOAD PUSH2 0x35BE JUMP JUMPDEST SWAP1 SSTORE JUMPDEST PUSH1 0x40 MLOAD SWAP2 DUP3 MSTORE PUSH1 0x40 PUSH1 0x20 DUP4 ADD MSTORE PUSH1 0xA PUSH1 0x40 DUP4 ADD MSTORE PUSH10 0x1CD95D1D1B195B595B9D PUSH1 0xB2 SHL PUSH1 0x60 DUP4 ADD MSTORE PUSH1 0x1 DUP1 PUSH1 0xA0 SHL SUB AND SWAP1 PUSH32 0x76E3932AB627FBF797DF82027F96467D2DB24B01F1863446B10447EB72D64CF2 PUSH1 0x80 PUSH1 0x4 CALLDATALOAD SWAP3 LOG3 PUSH1 0x1 PUSH1 0x0 DUP1 MLOAD PUSH1 0x20 PUSH2 0x3F6E DUP4 CODECOPY DUP2 MLOAD SWAP2 MSTORE SSTORE STOP JUMPDEST PUSH1 0x40 MLOAD PUSH3 0x461BCD PUSH1 0xE5 SHL DUP2 MSTORE PUSH1 0x20 PUSH1 0x4 DUP3 ADD MSTORE PUSH1 0x19 PUSH1 0x24 DUP3 ADD MSTORE PUSH32 0x6F776E657220666565207472616E73666572206661696C656400000000000000 PUSH1 0x44 DUP3 ADD MSTORE PUSH1 0x64 SWAP1 REVERT JUMPDEST PUSH2 0x10E8 SWAP2 POP PUSH1 0x20 RETURNDATASIZE PUSH1 0x20 GT PUSH2 0x746 JUMPI PUSH2 0x738 DUP2 DUP4 PUSH2 0x350B JUMP JUMPDEST DUP5 PUSH2 0xFFD JUMP JUMPDEST PUSH1 0x40 MLOAD PUSH3 0x461BCD PUSH1 0xE5 SHL DUP2 MSTORE PUSH1 0x20 PUSH1 0x4 DUP3 ADD MSTORE PUSH1 0x16 PUSH1 0x24 DUP3 ADD MSTORE PUSH22 0x1DDA5B9B995C881D1C985B9CD9995C8819985A5B1959 PUSH1 0x52 SHL PUSH1 0x44 DUP3 ADD MSTORE PUSH1 0x64 SWAP1 REVERT JUMPDEST PUSH2 0x1145 SWAP2 POP PUSH1 0x20 RETURNDATASIZE PUSH1 0x20 GT PUSH2 0x746 JUMPI PUSH2 0x738 DUP2 DUP4 PUSH2 0x350B JUMP JUMPDEST DUP8 PUSH2 0xFB7 JUMP JUMPDEST PUSH2 0x1158 DUP2 PUSH1 0x6 DUP9 ADD PUSH2 0x3650 JUMP JUMPDEST PUSH1 0x1 DUP1 PUSH1 0xA0 SHL SUB SWAP2 SLOAD SWAP1 PUSH1 0x3 SHL SHR AND DUP1 PUSH1 0x0 MSTORE PUSH1 0x7 DUP8 ADD PUSH1 0x20 MSTORE PUSH2 0x1187 PUSH1 0xFF PUSH1 0x40 PUSH1 0x0 KECCAK256 SLOAD AND PUSH1 0x9 DUP8 ADD PUSH2 0x3650 JUMP JUMPDEST SWAP1 SLOAD SWAP1 PUSH1 0x3 SHL SHR DUP4 DUP2 GT PUSH2 0x11A0 JUMPI JUMPDEST POP POP PUSH1 0x1 ADD PUSH2 0xEAC JUMP JUMPDEST SWAP1 SWAP6 POP SWAP2 POP PUSH1 0x1 DUP8 PUSH2 0x1196 JUMP JUMPDEST PUSH1 0x9 DUP2 ADD PUSH1 0xFF PUSH1 0xD DUP4 ADD SLOAD AND PUSH2 0x11C3 DUP2 DUP4 PUSH2 0x3650 JUMP JUMPDEST SWAP3 SWAP1 SLOAD SWAP2 PUSH1 0x1 SUB PUSH1 0xFF DUP2 GT PUSH2 0x643 JUMPI PUSH2 0x11DB SWAP2 PUSH2 0x3650 JUMP JUMPDEST SWAP1 SLOAD PUSH1 0x3 SWAP2 DUP3 SHL SHR SWAP3 SWAP1 SHL SHR LT PUSH2 0x1338 JUMPI PUSH1 0x1 DUP1 PUSH1 0xA0 SHL SUB DUP1 PUSH1 0x2 DUP4 ADD SLOAD AND SWAP1 PUSH1 0xB DUP4 ADD SLOAD PUSH1 0xC3 DUP2 MUL SWAP1 DUP1 DUP3 DIV PUSH1 0xC3 EQ SWAP1 ISZERO OR ISZERO PUSH2 0x643 JUMPI PUSH1 0x64 SWAP1 DIV SWAP3 PUSH1 0xA DUP2 ADD DUP4 PUSH1 0x1 PUSH1 0x1 PUSH1 0x60 SHL SUB PUSH1 0xA0 SHL DUP3 SLOAD AND OR SWAP1 SSTORE PUSH2 0x123E PUSH2 0x48C PUSH1 0xE DUP4 ADD SLOAD PUSH2 0x33C9 JUMP JUMPDEST PUSH1 0x12 PUSH9 0x18DBDB5C1B195D1959 PUSH1 0xBA SHL ADD PUSH1 0xE SWAP2 SWAP1 SWAP2 ADD SSTORE PUSH1 0x40 MLOAD PUSH4 0xA9059CBB PUSH1 0xE0 SHL DUP2 MSTORE PUSH1 0x1 PUSH1 0x1 PUSH1 0xA0 SHL SUB DUP4 AND PUSH1 0x4 DUP3 ADD MSTORE PUSH1 0x24 DUP2 ADD DUP5 SWAP1 MSTORE SWAP1 PUSH1 0x20 SWAP1 DUP3 SWAP1 PUSH1 0x44 SWAP1 DUP3 SWAP1 PUSH1 0x0 SWAP1 PUSH32 0x0 AND GAS CALL SWAP1 DUP2 ISZERO PUSH2 0x6A0 JUMPI PUSH1 0x0 SWAP2 PUSH2 0x1319 JUMPI JUMPDEST POP ISZERO PUSH2 0x12DF JUMPI DUP1 PUSH1 0x0 MSTORE PUSH1 0xB PUSH1 0x20 MSTORE PUSH1 0x40 PUSH1 0x0 KECCAK256 PUSH2 0x12D8 DUP4 DUP3 SLOAD PUSH2 0x35BE JUMP JUMPDEST SWAP1 SSTORE PUSH2 0x101E JUMP JUMPDEST PUSH1 0x40 MLOAD PUSH3 0x461BCD PUSH1 0xE5 SHL DUP2 MSTORE PUSH1 0x20 PUSH1 0x4 DUP3 ADD MSTORE PUSH1 0x12 PUSH1 0x24 DUP3 ADD MSTORE PUSH18 0x1CDBDB1BC81C185E5BDD5D0819985A5B1959 PUSH1 0x72 SHL PUSH1 0x44 DUP3 ADD MSTORE PUSH1 0x64 SWAP1 REVERT JUMPDEST PUSH2 0x1332 SWAP2 POP PUSH1 0x20 RETURNDATASIZE PUSH1 0x20 GT PUSH2 0x746 JUMPI PUSH2 0x738 DUP2 DUP4 PUSH2 0x350B JUMP JUMPDEST DUP4 PUSH2 0x12B9 JUMP JUMPDEST PUSH1 0x1 DUP1 PUSH1 0xA0 SHL SUB DUP1 PUSH1 0x0 SLOAD PUSH1 0x8 SHR AND SWAP1 PUSH1 0xB DUP4 ADD SLOAD SWAP3 PUSH1 0xA DUP2 ADD DUP4 PUSH1 0x1 PUSH1 0x1 PUSH1 0x60 SHL SUB PUSH1 0xA0 SHL DUP3 SLOAD AND OR SWAP1 SSTORE PUSH2 0x1374 PUSH2 0x48C PUSH1 0xE DUP4 ADD SLOAD PUSH2 0x33C9 JUMP JUMPDEST PUSH1 0x12 PUSH9 0x18DBDB5C1B195D1959 PUSH1 0xBA SHL ADD PUSH1 0xE SWAP2 SWAP1 SWAP2 ADD SSTORE PUSH1 0x40 MLOAD PUSH4 0xA9059CBB PUSH1 0xE0 SHL DUP2 MSTORE PUSH1 0x1 PUSH1 0x1 PUSH1 0xA0 SHL SUB DUP4 AND PUSH1 0x4 DUP3 ADD MSTORE PUSH1 0x24 DUP2 ADD DUP5 SWAP1 MSTORE SWAP1 PUSH1 0x20 SWAP1 DUP3 SWAP1 PUSH1 0x44 SWAP1 DUP3 SWAP1 PUSH1 0x0 SWAP1 PUSH32 0x0 AND GAS CALL SWAP1 DUP2 ISZERO PUSH2 0x6A0 JUMPI PUSH1 0x0 SWAP2 PUSH2 0x1439 JUMPI JUMPDEST POP PUSH2 0x101E JUMPI PUSH1 0x40 MLOAD PUSH3 0x461BCD PUSH1 0xE5 SHL DUP2 MSTORE PUSH1 0x20 PUSH1 0x4 DUP3 ADD MSTORE PUSH1 0x19 PUSH1 0x24 DUP3 ADD MSTORE PUSH32 0x736F6C6F206C6F7373207472616E73666572206661696C656400000000000000 PUSH1 0x44 DUP3 ADD MSTORE PUSH1 0x64 SWAP1 REVERT JUMPDEST PUSH2 0x1452 SWAP2 POP PUSH1 0x20 RETURNDATASIZE PUSH1 0x20 GT PUSH2 0x746 JUMPI PUSH2 0x738 DUP2 DUP4 PUSH2 0x350B JUMP JUMPDEST DUP4 PUSH2 0x13EF JUMP JUMPDEST PUSH1 0x40 MLOAD PUSH3 0x461BCD PUSH1 0xE5 SHL DUP2 MSTORE PUSH1 0x20 PUSH1 0x4 DUP3 ADD MSTORE PUSH1 0x12 PUSH1 0x24 DUP3 ADD MSTORE PUSH18 0x1C9BDD5B99081B9BDD081C995D99585B1959 PUSH1 0x72 SHL PUSH1 0x44 DUP3 ADD MSTORE PUSH1 0x64 SWAP1 REVERT JUMPDEST CALLVALUE PUSH2 0x246 JUMPI PUSH1 0x20 DUP1 PUSH1 0x3 NOT CALLDATASIZE ADD SLT PUSH2 0x246 JUMPI PUSH1 0x4 CALLDATALOAD SWAP1 PUSH2 0x14B0 PUSH2 0x3808 JUMP JUMPDEST PUSH2 0x14B8 PUSH2 0x3837 JUMP JUMPDEST DUP2 PUSH1 0x0 MSTORE PUSH1 0xC DUP2 MSTORE PUSH1 0xE PUSH1 0x40 PUSH1 0x0 KECCAK256 PUSH2 0x14D3 DUP2 SLOAD ISZERO ISZERO PUSH2 0x3552 JUMP JUMPDEST ADD PUSH1 0x40 MLOAD DUP3 DUP2 ADD DUP4 DUP2 MSTORE DUP2 PUSH2 0x14EB PUSH1 0x40 DUP3 ADD DUP6 PUSH2 0x3403 JUMP JUMPDEST SUB SWAP2 PUSH2 0x14FF PUSH1 0x1F NOT SWAP4 DUP5 DUP2 ADD DUP4 MSTORE DUP3 PUSH2 0x350B JUMP JUMPDEST MLOAD SWAP1 KECCAK256 PUSH1 0x40 MLOAD DUP5 DUP2 ADD SWAP1 PUSH2 0x1516 DUP2 PUSH2 0xC7D DUP5 PUSH2 0x376E JUMP JUMPDEST MLOAD SWAP1 KECCAK256 EQ SWAP2 DUP3 ISZERO PUSH2 0x15B6 JUMPI JUMPDEST POP POP ISZERO PUSH2 0x157B JUMPI PUSH2 0x1567 SWAP2 PUSH32 0x656D657267656E63792072616E646F6D6E65737320726566756E640000000000 PUSH1 0x40 MLOAD SWAP3 PUSH2 0x155B DUP5 PUSH2 0x34EF JUMP JUMPDEST PUSH1 0x1B DUP5 MSTORE DUP4 ADD MSTORE PUSH2 0x3867 JUMP JUMPDEST PUSH1 0x1 PUSH1 0x0 DUP1 MLOAD PUSH1 0x20 PUSH2 0x3F6E DUP4 CODECOPY DUP2 MLOAD SWAP2 MSTORE SSTORE STOP JUMPDEST PUSH1 0x64 SWAP1 PUSH1 0x40 MLOAD SWAP1 PUSH3 0x461BCD PUSH1 0xE5 SHL DUP3 MSTORE PUSH1 0x4 DUP3 ADD MSTORE PUSH1 0x14 PUSH1 0x24 DUP3 ADD MSTORE PUSH20 0x726F756E64206E6F7420726566756E6461626C65 PUSH1 0x60 SHL PUSH1 0x44 DUP3 ADD MSTORE REVERT JUMPDEST SWAP1 SWAP2 POP PUSH1 0x40 MLOAD PUSH2 0x15D4 DUP2 PUSH2 0xBAF DUP7 DUP3 ADD SWAP5 DUP8 DUP7 MSTORE PUSH1 0x40 DUP4 ADD SWAP1 PUSH2 0x3403 JUMP JUMPDEST MLOAD SWAP1 KECCAK256 SWAP1 PUSH1 0x40 MLOAD PUSH2 0x15EC DUP5 DUP3 ADD SWAP3 DUP3 PUSH2 0xBD3 DUP6 PUSH2 0x3590 JUMP JUMPDEST MLOAD SWAP1 KECCAK256 EQ DUP4 DUP1 PUSH2 0x1522 JUMP JUMPDEST CALLVALUE PUSH2 0x246 JUMPI PUSH1 0x20 CALLDATASIZE PUSH1 0x3 NOT ADD SLT PUSH2 0x246 JUMPI PUSH1 0x4 CALLDATALOAD PUSH1 0x1 PUSH1 0x1 PUSH1 0xA0 SHL SUB DUP2 AND SWAP1 DUP2 SWAP1 SUB PUSH2 0x246 JUMPI PUSH1 0x0 MSTORE PUSH1 0xB PUSH1 0x20 MSTORE PUSH1 0x40 PUSH1 0x0 KECCAK256 DUP1 SLOAD PUSH1 0x1 DUP3 ADD SLOAD SWAP1 PUSH1 0x2 DUP4 ADD SLOAD SWAP3 PUSH1 0x3 DUP2 ADD SLOAD SWAP1 PUSH2 0x1699 PUSH1 0x40 MLOAD PUSH2 0x165C DUP2 PUSH2 0x1655 DUP2 PUSH1 0x4 DUP8 ADD PUSH2 0x3403 JUMP JUMPDEST SUB DUP3 PUSH2 0x350B JUMP JUMPDEST PUSH1 0xFF PUSH1 0x5 DUP5 ADD SLOAD AND SWAP5 PUSH1 0x7 PUSH1 0x6 DUP6 ADD SLOAD SWAP5 ADD SLOAD SWAP5 PUSH1 0x40 MLOAD SWAP9 DUP10 SWAP9 PUSH2 0x100 SWAP4 DUP11 MSTORE PUSH1 0x20 DUP11 ADD MSTORE PUSH1 0x40 DUP10 ADD MSTORE PUSH1 0x60 DUP9 ADD MSTORE DUP1 PUSH1 0x80 DUP9 ADD MSTORE DUP7 ADD SWAP1 PUSH2 0x335B JUMP JUMPDEST SWAP3 ISZERO ISZERO PUSH1 0xA0 DUP6 ADD MSTORE PUSH1 0xC0 DUP5 ADD MSTORE PUSH1 0xE0 DUP4 ADD MSTORE SUB SWAP1 RETURN JUMPDEST CALLVALUE PUSH2 0x246 JUMPI PUSH2 0x16BD CALLDATASIZE PUSH2 0x352D JUMP JUMPDEST SWAP1 PUSH2 0x16C6 PUSH2 0x3808 JUMP JUMPDEST DUP1 ISZERO ISZERO DUP1 PUSH2 0x176D JUMPI JUMPDEST ISZERO PUSH2 0x1728 JUMPI DUP1 DUP3 LT PUSH2 0x16E3 JUMPI PUSH1 0x1 SSTORE PUSH1 0x2 SSTORE STOP JUMPDEST PUSH1 0x40 MLOAD PUSH3 0x461BCD PUSH1 0xE5 SHL DUP2 MSTORE PUSH1 0x20 PUSH1 0x4 DUP3 ADD MSTORE PUSH1 0x1F PUSH1 0x24 DUP3 ADD MSTORE PUSH32 0x6461696C79206C696D6974206D757374206265203E3D207478206C696D697400 PUSH1 0x44 DUP3 ADD MSTORE PUSH1 0x64 SWAP1 REVERT JUMPDEST PUSH1 0x40 MLOAD PUSH3 0x461BCD PUSH1 0xE5 SHL DUP2 MSTORE PUSH1 0x20 PUSH1 0x4 DUP3 ADD MSTORE PUSH1 0x1B PUSH1 0x24 DUP3 ADD MSTORE PUSH32 0x626574206C696D697473206D75737420626520706F7369746976650000000000 PUSH1 0x44 DUP3 ADD MSTORE PUSH1 0x64 SWAP1 REVERT JUMPDEST POP DUP2 ISZERO ISZERO PUSH2 0x16CF JUMP JUMPDEST CALLVALUE PUSH2 0x246 JUMPI PUSH1 0x20 CALLDATASIZE PUSH1 0x3 NOT ADD SLT PUSH2 0x246 JUMPI PUSH1 0x4 CALLDATALOAD PUSH1 0x1 PUSH1 0x1 PUSH1 0xA0 SHL SUB DUP2 AND SWAP1 DUP2 SWAP1 SUB PUSH2 0x246 JUMPI PUSH2 0x17A4 PUSH2 0x3808 JUMP JUMPDEST PUSH1 0x0 MSTORE PUSH1 0xA PUSH1 0x20 MSTORE PUSH1 0x40 PUSH1 0x0 KECCAK256 PUSH1 0xFF NOT SWAP1 DUP2 DUP2 SLOAD AND SWAP1 SSTORE PUSH1 0xB PUSH1 0x20 MSTORE PUSH1 0x5 PUSH1 0x40 PUSH1 0x0 KECCAK256 ADD SWAP1 DUP2 SLOAD AND SWAP1 SSTORE PUSH1 0x0 DUP1 RETURN JUMPDEST CALLVALUE PUSH2 0x246 JUMPI PUSH1 0x20 CALLDATASIZE PUSH1 0x3 NOT ADD SLT PUSH2 0x246 JUMPI PUSH1 0x0 PUSH1 0x80 PUSH1 0x40 MLOAD PUSH2 0x17F4 DUP2 PUSH2 0x34B6 JUMP JUMPDEST DUP3 DUP2 MSTORE DUP3 PUSH1 0x20 DUP3 ADD MSTORE DUP3 PUSH1 0x40 DUP3 ADD MSTORE DUP3 PUSH1 0x60 DUP3 ADD MSTORE ADD MSTORE PUSH1 0x4 CALLDATALOAD PUSH1 0x0 MSTORE PUSH1 0x7 PUSH1 0x20 MSTORE PUSH1 0xA0 PUSH1 0x40 PUSH1 0x0 KECCAK256 PUSH1 0x40 MLOAD PUSH2 0x1829 DUP2 PUSH2 0x34B6 JUMP JUMPDEST DUP2 SLOAD SWAP2 DUP3 DUP3 MSTORE PUSH1 0x1 DUP2 ADD SLOAD PUSH1 0x20 DUP4 ADD SWAP1 DUP2 MSTORE PUSH1 0x2 DUP3 ADD SLOAD SWAP1 PUSH1 0x40 DUP5 ADD SWAP2 DUP3 MSTORE PUSH1 0x80 PUSH1 0xFF PUSH1 0x4 PUSH1 0x3 DUP7 ADD SLOAD SWAP6 PUSH1 0x60 DUP9 ADD SWAP7 DUP8 MSTORE ADD SLOAD AND SWAP5 ADD SWAP4 ISZERO ISZERO DUP5 MSTORE PUSH1 0x40 MLOAD SWAP5 DUP6 MSTORE MLOAD PUSH1 0x20 DUP6 ADD MSTORE MLOAD PUSH1 0x40 DUP5 ADD MSTORE MLOAD PUSH1 0x60 DUP4 ADD MSTORE MLOAD ISZERO ISZERO PUSH1 0x80 DUP3 ADD MSTORE RETURN JUMPDEST CALLVALUE PUSH2 0x246 JUMPI PUSH1 0x0 CALLDATASIZE PUSH1 0x3 NOT ADD SLT PUSH2 0x246 JUMPI PUSH1 0x20 PUSH1 0x2 SLOAD PUSH1 0x40 MLOAD SWAP1 DUP2 MSTORE RETURN JUMPDEST CALLVALUE PUSH2 0x246 JUMPI PUSH1 0x0 CALLDATASIZE PUSH1 0x3 NOT ADD SLT PUSH2 0x246 JUMPI PUSH1 0x20 PUSH1 0x1 SLOAD PUSH1 0x40 MLOAD SWAP1 DUP2 MSTORE RETURN JUMPDEST CALLVALUE PUSH2 0x246 JUMPI PUSH1 0x20 CALLDATASIZE PUSH1 0x3 NOT ADD SLT PUSH2 0x246 JUMPI PUSH1 0x4 CALLDATALOAD PUSH1 0x1 PUSH1 0x1 PUSH1 0xA0 SHL SUB DUP2 AND SWAP1 DUP2 SWAP1 SUB PUSH2 0x246 JUMPI PUSH2 0x18F1 PUSH2 0x3808 JUMP JUMPDEST DUP1 PUSH1 0x0 MSTORE PUSH1 0xA PUSH1 0x20 MSTORE PUSH1 0x40 PUSH1 0x0 KECCAK256 PUSH1 0xFF NOT SWAP1 PUSH1 0x1 DUP3 DUP3 SLOAD AND OR SWAP1 SSTORE PUSH1 0xB PUSH1 0x20 MSTORE PUSH1 0x1 PUSH1 0x5 PUSH1 0x40 PUSH1 0x0 KECCAK256 ADD SWAP2 DUP3 SLOAD AND OR SWAP1 SSTORE PUSH32 0xE9668CCA25138AD3C67EC987CB4843E582D8B30A9B47338C21B2C18ADE516454 PUSH1 0x0 DUP1 LOG2 STOP JUMPDEST CALLVALUE PUSH2 0x246 JUMPI PUSH2 0x1957 CALLDATASIZE PUSH2 0x352D JUMP JUMPDEST SWAP1 PUSH2 0x1960 PUSH2 0x3808 JUMP JUMPDEST DUP1 ISZERO ISZERO DUP1 PUSH2 0x19BB JUMPI JUMPDEST ISZERO PUSH2 0x1976 JUMPI PUSH1 0x5 SSTORE PUSH1 0x6 SSTORE STOP JUMPDEST PUSH1 0x40 MLOAD PUSH3 0x461BCD PUSH1 0xE5 SHL DUP2 MSTORE PUSH1 0x20 PUSH1 0x4 DUP3 ADD MSTORE PUSH1 0x17 PUSH1 0x24 DUP3 ADD MSTORE PUSH32 0x706172616D73206D75737420626520706F736974697665000000000000000000 PUSH1 0x44 DUP3 ADD MSTORE PUSH1 0x64 SWAP1 REVERT JUMPDEST POP DUP2 ISZERO ISZERO PUSH2 0x1969 JUMP JUMPDEST CALLVALUE PUSH2 0x246 JUMPI PUSH1 0x20 CALLDATASIZE PUSH1 0x3 NOT ADD SLT PUSH2 0x246 JUMPI PUSH1 0x20 PUSH1 0x4 CALLDATALOAD PUSH2 0x19E2 PUSH2 0x3CB4 JUMP JUMPDEST PUSH2 0x19EA PUSH2 0x3837 JUMP JUMPDEST CALLER PUSH1 0x0 MSTORE PUSH1 0xA DUP3 MSTORE PUSH2 0x1A04 PUSH1 0xFF PUSH1 0x40 PUSH1 0x0 KECCAK256 SLOAD AND ISZERO PUSH2 0x35CB JUMP JUMPDEST PUSH2 0x1A0F DUP2 ISZERO ISZERO PUSH2 0x360D JUMP JUMPDEST PUSH2 0x1A19 DUP2 CALLER PUSH2 0x3CD2 JUMP JUMPDEST PUSH2 0x1A24 PUSH1 0x4 SLOAD PUSH2 0x3543 JUMP JUMPDEST SWAP1 DUP2 PUSH1 0x4 SSTORE DUP2 PUSH1 0x0 MSTORE PUSH1 0xC DUP4 MSTORE PUSH1 0xE PUSH1 0x40 PUSH1 0x0 KECCAK256 DUP4 DUP2 SSTORE PUSH1 0x1 DUP2 ADD PUSH2 0x1A52 PUSH2 0x1A4C DUP3 SLOAD PUSH2 0x33C9 JUMP JUMPDEST DUP3 PUSH2 0x36DE JUMP JUMPDEST PUSH1 0x8 PUSH4 0x736F6C6F PUSH1 0xE0 SHL ADD SWAP1 SSTORE PUSH1 0x2 DUP2 ADD DUP1 SLOAD PUSH1 0x1 PUSH1 0x1 PUSH1 0xA0 SHL SUB NOT AND CALLER OR SWAP1 SSTORE PUSH1 0xB DUP2 ADD DUP4 SWAP1 SSTORE TIMESTAMP PUSH1 0xF DUP3 ADD SSTORE ADD DUP1 SLOAD PUSH2 0x1A90 SWAP1 PUSH2 0x1A4C SWAP1 PUSH2 0x33C9 JUMP JUMPDEST PUSH1 0xE PUSH7 0x18DC99585D1959 PUSH1 0xCA SHL ADD SWAP1 SSTORE PUSH1 0x0 DUP3 PUSH32 0x9577ABB201DC9D305BCBB0B9A535F972E3883D6DC9BDB72DEE07EE7B3B503586 PUSH1 0x40 MLOAD PUSH1 0x40 DUP2 MSTORE PUSH2 0x1AEA PUSH1 0x40 DUP3 ADD PUSH1 0x40 SWAP1 PUSH1 0x4 DUP2 MSTORE PUSH4 0x736F6C6F PUSH1 0xE0 SHL PUSH1 0x20 DUP3 ADD MSTORE ADD SWAP1 JUMP JUMPDEST SWAP5 DUP8 DUP3 ADD MSTORE DUP1 CALLER SWAP6 SUB SWAP1 LOG4 PUSH1 0x1 PUSH1 0x0 DUP1 MLOAD PUSH1 0x20 PUSH2 0x3F6E DUP4 CODECOPY DUP2 MLOAD SWAP2 MSTORE SSTORE PUSH1 0x40 MLOAD SWAP1 DUP2 MSTORE RETURN JUMPDEST CALLVALUE PUSH2 0x246 JUMPI PUSH1 0x20 CALLDATASIZE PUSH1 0x3 NOT ADD SLT PUSH2 0x246 JUMPI PUSH1 0x0 PUSH2 0x1E0 PUSH1 0x40 MLOAD PUSH2 0x1B31 DUP2 PUSH2 0x34D2 JUMP JUMPDEST DUP3 DUP2 MSTORE PUSH1 0x60 PUSH1 0x20 DUP3 ADD MSTORE DUP3 PUSH1 0x40 DUP3 ADD MSTORE DUP3 PUSH1 0x60 DUP3 ADD MSTORE DUP3 PUSH1 0x80 DUP3 ADD MSTORE PUSH1 0x60 PUSH1 0xA0 DUP3 ADD MSTORE PUSH1 0x60 PUSH1 0xC0 DUP3 ADD MSTORE DUP3 PUSH1 0xE0 DUP3 ADD MSTORE DUP3 PUSH2 0x100 DUP3 ADD MSTORE PUSH1 0x60 PUSH2 0x120 DUP3 ADD MSTORE DUP3 PUSH2 0x140 DUP3 ADD MSTORE DUP3 PUSH2 0x160 DUP3 ADD MSTORE PUSH1 0x60 PUSH2 0x180 DUP3 ADD MSTORE DUP3 PUSH2 0x1A0 DUP3 ADD MSTORE PUSH1 0x60 PUSH2 0x1C0 DUP3 ADD MSTORE ADD MSTORE PUSH1 0x4 CALLDATALOAD PUSH1 0x0 MSTORE PUSH1 0xC PUSH1 0x20 MSTORE PUSH1 0x40 PUSH1 0x0 KECCAK256 PUSH1 0x40 MLOAD PUSH2 0x1BB3 DUP2 PUSH2 0x34D2 JUMP JUMPDEST DUP2 SLOAD DUP2 MSTORE PUSH1 0x40 MLOAD PUSH2 0x1BCB DUP2 PUSH2 0x1655 DUP2 PUSH1 0x1 DUP8 ADD PUSH2 0x3403 JUMP JUMPDEST PUSH1 0x20 DUP3 ADD MSTORE PUSH1 0x2 DUP3 ADD SLOAD PUSH1 0x1 PUSH1 0x1 PUSH1 0xA0 SHL SUB AND PUSH1 0x40 DUP1 DUP4 ADD SWAP2 SWAP1 SWAP2 MSTORE PUSH1 0x3 DUP4 ADD SLOAD PUSH1 0x60 DUP4 ADD MSTORE PUSH1 0x4 DUP4 ADD SLOAD PUSH1 0x80 DUP4 ADD MSTORE MLOAD PUSH2 0x1C0D DUP2 PUSH2 0x1655 DUP2 PUSH1 0x5 DUP8 ADD PUSH2 0x3403 JUMP JUMPDEST PUSH1 0xA0 DUP3 ADD MSTORE PUSH1 0x40 MLOAD PUSH2 0x1C26 DUP2 PUSH2 0x1655 DUP2 PUSH1 0x6 DUP8 ADD PUSH2 0x3403 JUMP JUMPDEST PUSH1 0xC0 DUP3 ADD MSTORE PUSH1 0x7 DUP3 ADD SLOAD PUSH1 0xE0 DUP3 ADD MSTORE PUSH1 0x8 DUP3 ADD SLOAD PUSH2 0x100 DUP3 ADD MSTORE PUSH1 0x9 DUP3 ADD SWAP2 PUSH1 0x40 MLOAD DUP1 PUSH1 0x20 DUP6 SLOAD SWAP2 DUP3 DUP2 MSTORE ADD SWAP5 PUSH1 0x0 MSTORE PUSH1 0x20 PUSH1 0x0 KECCAK256 SWAP1 PUSH1 0x0 JUMPDEST DUP2 DUP2 LT PUSH2 0x1E39 JUMPI POP POP POP PUSH2 0x1C78 DUP2 PUSH1 0xF SWAP5 SWAP6 SUB DUP3 PUSH2 0x350B JUMP JUMPDEST PUSH2 0x120 DUP5 ADD MSTORE PUSH1 0xA DUP2 ADD SLOAD PUSH1 0x1 PUSH1 0x1 PUSH1 0xA0 SHL SUB AND PUSH2 0x140 DUP5 ADD MSTORE PUSH1 0xB DUP2 ADD SLOAD PUSH2 0x160 DUP5 ADD MSTORE PUSH1 0x40 MLOAD PUSH2 0x1CB1 DUP2 PUSH2 0x1655 DUP2 PUSH1 0xC DUP7 ADD PUSH2 0x3403 JUMP JUMPDEST PUSH2 0x180 DUP5 ADD MSTORE PUSH1 0xFF PUSH1 0xD DUP3 ADD SLOAD AND PUSH2 0x1A0 DUP5 ADD MSTORE PUSH1 0x40 MLOAD PUSH2 0x1CD9 DUP2 PUSH2 0x1655 DUP2 PUSH1 0xE DUP7 ADD PUSH2 0x3403 JUMP JUMPDEST PUSH2 0x1C0 DUP5 ADD MSTORE ADD SLOAD PUSH2 0x1E0 DUP3 ADD MSTORE PUSH1 0x40 MLOAD PUSH1 0x20 DUP2 MSTORE DUP2 MLOAD PUSH1 0x20 DUP3 ADD MSTORE PUSH2 0x1D68 PUSH2 0x1D52 PUSH2 0x1D16 PUSH1 0x20 DUP6 ADD MLOAD PUSH2 0x200 PUSH1 0x40 DUP7 ADD MSTORE PUSH2 0x220 DUP6 ADD SWAP1 PUSH2 0x335B JUMP JUMPDEST PUSH1 0x1 DUP1 PUSH1 0xA0 SHL SUB PUSH1 0x40 DUP7 ADD MLOAD AND PUSH1 0x60 DUP6 ADD MSTORE PUSH1 0x60 DUP6 ADD MLOAD PUSH1 0x80 DUP6 ADD MSTORE PUSH1 0x80 DUP6 ADD MLOAD PUSH1 0xA0 DUP6 ADD MSTORE PUSH1 0xA0 DUP6 ADD MLOAD PUSH1 0x1F NOT DUP6 DUP4 SUB ADD PUSH1 0xC0 DUP7 ADD MSTORE PUSH2 0x335B JUMP JUMPDEST PUSH1 0xC0 DUP5 ADD MLOAD DUP4 DUP3 SUB PUSH1 0x1F NOT ADD PUSH1 0xE0 DUP6 ADD MSTORE PUSH2 0x335B JUMP JUMPDEST SWAP2 PUSH1 0xE0 DUP2 ADD MLOAD PUSH2 0x100 DUP4 ADD MSTORE PUSH2 0x100 DUP2 ADD MLOAD PUSH2 0x120 DUP4 ADD MSTORE PUSH2 0x120 DUP2 ADD MLOAD SWAP3 PUSH1 0x1F NOT DUP4 DUP3 SUB ADD PUSH2 0x140 DUP5 ADD MSTORE PUSH1 0x20 DUP1 DUP6 MLOAD SWAP3 DUP4 DUP2 MSTORE ADD SWAP5 ADD SWAP1 PUSH1 0x0 JUMPDEST DUP2 DUP2 LT PUSH2 0x1E23 JUMPI POP POP POP PUSH2 0x1E0 PUSH2 0x1E16 PUSH2 0x1DF1 DUP5 SWAP6 PUSH1 0x1 DUP1 PUSH1 0xA0 SHL SUB PUSH2 0x140 DUP7 ADD MLOAD AND PUSH2 0x160 DUP8 ADD MSTORE PUSH2 0x160 DUP6 ADD MLOAD PUSH2 0x180 DUP8 ADD MSTORE PUSH2 0x180 DUP6 ADD MLOAD PUSH1 0x1F NOT DUP8 DUP4 SUB ADD PUSH2 0x1A0 DUP9 ADD MSTORE PUSH2 0x335B JUMP JUMPDEST PUSH1 0xFF PUSH2 0x1A0 DUP6 ADD MLOAD AND PUSH2 0x1C0 DUP7 ADD MSTORE PUSH2 0x1C0 DUP5 ADD MLOAD PUSH1 0x1F NOT DUP7 DUP4 SUB ADD DUP5 DUP8 ADD MSTORE PUSH2 0x335B JUMP JUMPDEST SWAP2 ADD MLOAD PUSH2 0x200 DUP4 ADD MSTORE SUB SWAP1 RETURN JUMPDEST DUP3 MLOAD DUP7 MSTORE PUSH1 0x20 SWAP6 DUP7 ADD SWAP6 SWAP1 SWAP3 ADD SWAP2 PUSH1 0x1 ADD PUSH2 0x1DA4 JUMP JUMPDEST DUP3 SLOAD DUP8 MSTORE PUSH1 0x20 SWAP1 SWAP7 ADD SWAP6 PUSH1 0x1 SWAP3 DUP4 ADD SWAP3 ADD PUSH2 0x1C5F JUMP JUMPDEST CALLVALUE PUSH2 0x246 JUMPI PUSH1 0x0 CALLDATASIZE PUSH1 0x3 NOT ADD SLT PUSH2 0x246 JUMPI PUSH1 0x0 SLOAD PUSH1 0x40 MLOAD PUSH1 0x8 SWAP2 SWAP1 SWAP2 SHR PUSH1 0x1 PUSH1 0x1 PUSH1 0xA0 SHL SUB AND DUP2 MSTORE PUSH1 0x20 SWAP1 RETURN JUMPDEST CALLVALUE PUSH2 0x246 JUMPI PUSH1 0x20 CALLDATASIZE PUSH1 0x3 NOT ADD SLT PUSH2 0x246 JUMPI PUSH1 0x4 CALLDATALOAD PUSH1 0x0 MSTORE PUSH1 0xC PUSH1 0x20 MSTORE PUSH1 0x40 PUSH1 0x0 KECCAK256 DUP1 SLOAD SWAP1 PUSH1 0x40 MLOAD SWAP1 DUP2 DUP1 PUSH1 0x1 DUP4 ADD SWAP1 PUSH2 0x1EB4 SWAP2 PUSH2 0x3403 JUMP JUMPDEST SUB PUSH2 0x1EBF SWAP1 DUP4 PUSH2 0x350B JUMP JUMPDEST PUSH1 0x2 DUP2 ADD SLOAD PUSH1 0x3 DUP3 ADD SLOAD PUSH1 0x4 DUP4 ADD SLOAD PUSH1 0x40 MLOAD SWAP2 SWAP4 SWAP3 SWAP1 SWAP2 PUSH1 0x1 PUSH1 0x1 PUSH1 0xA0 SHL SUB SWAP2 DUP3 AND SWAP2 SWAP1 DUP1 PUSH2 0x1EF1 DUP2 PUSH1 0x5 DUP9 ADD PUSH2 0x3403 JUMP JUMPDEST SUB PUSH2 0x1EFC SWAP1 DUP3 PUSH2 0x350B JUMP JUMPDEST PUSH1 0x40 MLOAD DUP1 PUSH2 0x1F0D DUP2 PUSH1 0x6 DUP10 ADD PUSH2 0x3403 JUMP JUMPDEST SUB PUSH2 0x1F18 SWAP1 DUP3 PUSH2 0x350B JUMP JUMPDEST PUSH1 0x7 DUP7 ADD SLOAD SWAP3 PUSH1 0x8 DUP8 ADD SLOAD SWAP1 PUSH1 0xA DUP9 ADD SLOAD AND SWAP2 PUSH1 0xB DUP9 ADD SLOAD SWAP4 PUSH1 0x40 MLOAD SWAP7 DUP8 DUP1 PUSH1 0xC DUP13 ADD SWAP1 PUSH2 0x1F45 SWAP2 PUSH2 0x3403 JUMP JUMPDEST SUB PUSH2 0x1F50 SWAP1 DUP10 PUSH2 0x350B JUMP JUMPDEST PUSH1 0xD DUP11 ADD SLOAD PUSH1 0xFF AND SWAP9 PUSH1 0x40 MLOAD SWAP11 DUP12 DUP1 PUSH1 0xE DUP4 ADD SWAP1 PUSH2 0x1F6D SWAP2 PUSH2 0x3403 JUMP JUMPDEST SUB PUSH2 0x1F78 SWAP1 DUP14 PUSH2 0x350B JUMP JUMPDEST PUSH1 0xF ADD SLOAD SWAP12 PUSH1 0x40 MLOAD SWAP15 DUP16 SWAP15 DUP16 SWAP2 PUSH2 0x1E0 SWAP1 DUP4 MSTORE DUP1 PUSH1 0x20 DUP5 ADD MSTORE DUP3 ADD PUSH2 0x1F9C SWAP2 PUSH2 0x335B JUMP JUMPDEST SWAP4 PUSH1 0x40 DUP3 ADD MSTORE PUSH1 0x60 ADD MSTORE PUSH1 0x80 DUP14 ADD MSTORE DUP12 DUP2 SUB PUSH1 0xA0 DUP14 ADD MSTORE PUSH2 0x1FBC SWAP2 PUSH2 0x335B JUMP JUMPDEST DUP11 DUP2 SUB PUSH1 0xC0 DUP13 ADD MSTORE PUSH2 0x1FCD SWAP2 PUSH2 0x335B JUMP JUMPDEST SWAP4 PUSH1 0xE0 DUP11 ADD MSTORE PUSH2 0x100 DUP10 ADD MSTORE PUSH2 0x120 DUP9 ADD MSTORE PUSH2 0x140 DUP8 ADD MSTORE DUP6 DUP2 SUB PUSH2 0x160 DUP8 ADD MSTORE PUSH2 0x1FF7 SWAP2 PUSH2 0x335B JUMP JUMPDEST SWAP1 PUSH2 0x180 DUP6 ADD MSTORE DUP4 DUP2 SUB PUSH2 0x1A0 DUP6 ADD MSTORE PUSH2 0x2010 SWAP2 PUSH2 0x335B JUMP JUMPDEST SWAP1 PUSH2 0x1C0 DUP4 ADD MSTORE SUB SWAP1 RETURN JUMPDEST CALLVALUE PUSH2 0x246 JUMPI PUSH2 0x2029 CALLDATASIZE PUSH2 0x333B JUMP JUMPDEST SWAP1 PUSH2 0x2032 PUSH2 0x3CB4 JUMP JUMPDEST CALLER PUSH1 0x0 MSTORE PUSH1 0x20 SWAP2 PUSH1 0xA DUP4 MSTORE PUSH1 0xFF DUP1 SWAP2 PUSH2 0x2052 DUP3 PUSH1 0x40 PUSH1 0x0 KECCAK256 SLOAD AND ISZERO PUSH2 0x35CB JUMP JUMPDEST AND PUSH1 0x4 DUP2 LT ISZERO PUSH2 0x2367 JUMPI DUP3 PUSH1 0x0 MSTORE PUSH1 0x8 DUP5 MSTORE PUSH1 0x40 PUSH1 0x0 KECCAK256 SWAP4 PUSH1 0x2 DUP6 ADD DUP1 SLOAD DUP5 DUP2 PUSH1 0x8 SHR AND ISZERO PUSH2 0x2330 JUMPI PUSH1 0x10 SHR DUP5 AND PUSH2 0x22FB JUMPI PUSH1 0x4 DUP7 ADD SWAP3 DUP4 SLOAD PUSH2 0x22BE JUMPI PUSH1 0x0 DUP1 PUSH1 0x6 DUP10 ADD DUP1 SLOAD SWAP2 JUMPDEST DUP3 DUP2 LT PUSH2 0x2286 JUMPI JUMPDEST POP POP POP ISZERO PUSH2 0x224B JUMPI CALLER PUSH1 0x0 MSTORE PUSH1 0x8 DUP8 ADD DUP4 MSTORE PUSH1 0x40 PUSH1 0x0 KECCAK256 DUP1 SLOAD SWAP1 DUP7 DUP3 AND ISZERO PUSH2 0x221F JUMPI JUMPDEST POP POP CALLER PUSH1 0x0 MSTORE PUSH1 0x7 DUP8 ADD DUP4 MSTORE PUSH1 0x40 PUSH1 0x0 KECCAK256 DUP2 PUSH1 0xFF NOT DUP3 SLOAD AND OR SWAP1 SSTORE PUSH1 0x40 MLOAD SWAP1 DUP2 MSTORE DUP6 PUSH32 0x66CEE2873C9D4F051647DE1B983BE68FC0860D323D4FF6594C7D622CA213BC3F DUP5 CALLER SWAP4 LOG3 DUP1 SLOAD DUP5 DUP1 DUP3 PUSH1 0x8 SHR AND SWAP2 AND DUP2 EQ SWAP1 DUP2 PUSH2 0x220F JUMPI JUMPDEST POP PUSH2 0x2127 JUMPI STOP JUMPDEST PUSH2 0x2132 PUSH1 0x4 SLOAD PUSH2 0x3543 JUMP JUMPDEST SWAP4 DUP5 PUSH1 0x4 SSTORE DUP5 PUSH1 0x0 MSTORE PUSH1 0xC DUP4 MSTORE PUSH1 0x1 PUSH1 0x40 PUSH1 0x0 KECCAK256 SWAP8 DUP7 DUP10 SSTORE DUP2 DUP10 ADD PUSH2 0x215A PUSH2 0x1A4C DUP3 SLOAD PUSH2 0x33C9 JUMP JUMPDEST PUSH1 0xA PUSH5 0x6172656E61 PUSH1 0xD8 SHL ADD SWAP1 SSTORE DUP8 PUSH1 0x3 DUP11 ADD SSTORE ADD SLOAD SWAP2 SLOAD PUSH1 0x8 SHR AND SWAP1 DUP2 DUP2 MUL SWAP2 DUP2 DUP4 DIV EQ SWAP1 ISZERO OR ISZERO PUSH2 0x643 JUMPI DUP4 PUSH32 0x9577ABB201DC9D305BCBB0B9A535F972E3883D6DC9BDB72DEE07EE7B3B503586 SWAP4 PUSH1 0xE DUP9 PUSH1 0xB PUSH1 0x0 SWAP11 ADD SWAP5 DUP6 SSTORE TIMESTAMP PUSH1 0xF DUP3 ADD SSTORE ADD PUSH2 0x21CA PUSH2 0x1A4C DUP3 SLOAD PUSH2 0x33C9 JUMP JUMPDEST PUSH1 0xE PUSH7 0x18DC99585D1959 PUSH1 0xCA SHL ADD SWAP1 SSTORE SSTORE SLOAD PUSH1 0x40 MLOAD SWAP2 DUP3 SWAP2 PUSH1 0x40 DUP4 MSTORE PUSH2 0x2206 PUSH1 0x40 DUP5 ADD PUSH1 0x40 SWAP1 PUSH1 0x5 DUP2 MSTORE PUSH5 0x6172656E61 PUSH1 0xD8 SHL PUSH1 0x20 DUP3 ADD MSTORE ADD SWAP1 JUMP JUMPDEST SWAP2 DUP4 ADD MSTORE SUB SWAP1 LOG4 STOP JUMPDEST SWAP1 POP DUP5 PUSH1 0x5 DUP9 ADD SLOAD AND EQ DUP8 PUSH2 0x2120 JUMP JUMPDEST PUSH1 0xFF NOT SWAP2 DUP3 AND PUSH1 0x1 OR SWAP1 SSTORE PUSH1 0x5 DUP9 ADD DUP1 SLOAD SWAP1 SWAP2 DUP8 PUSH2 0x223E DUP2 DUP5 AND PUSH2 0x37DF JUMP JUMPDEST AND SWAP2 AND OR SWAP1 SSTORE DUP8 DUP1 PUSH2 0x20C5 JUMP JUMPDEST PUSH1 0x40 MLOAD PUSH3 0x461BCD PUSH1 0xE5 SHL DUP2 MSTORE PUSH1 0x4 DUP2 ADD DUP5 SWAP1 MSTORE PUSH1 0x13 PUSH1 0x24 DUP3 ADD MSTORE PUSH19 0x3737BA1030B71030B932B73090383630BCB2B9 PUSH1 0x69 SHL PUSH1 0x44 DUP3 ADD MSTORE PUSH1 0x64 SWAP1 REVERT JUMPDEST PUSH2 0x2290 DUP2 DUP4 PUSH2 0x3650 JUMP JUMPDEST SWAP1 SLOAD PUSH1 0x3 SWAP2 SWAP1 SWAP2 SHL SHR PUSH1 0x1 PUSH1 0x1 PUSH1 0xA0 SHL SUB AND CALLER EQ PUSH2 0x22B0 JUMPI PUSH1 0x1 ADD PUSH2 0x209A JUMP JUMPDEST POP POP POP POP PUSH1 0x1 DUP9 DUP1 DUP1 PUSH2 0x20A2 JUMP JUMPDEST PUSH1 0x40 MLOAD PUSH3 0x461BCD PUSH1 0xE5 SHL DUP2 MSTORE PUSH1 0x4 DUP2 ADD DUP5 SWAP1 MSTORE PUSH1 0x15 PUSH1 0x24 DUP3 ADD MSTORE PUSH21 0x1C9BDD5B9908185B1C9958591E4818DC99585D1959 PUSH1 0x5A SHL PUSH1 0x44 DUP3 ADD MSTORE PUSH1 0x64 SWAP1 REVERT JUMPDEST PUSH1 0x40 MLOAD PUSH3 0x461BCD PUSH1 0xE5 SHL DUP2 MSTORE PUSH1 0x4 DUP2 ADD DUP4 SWAP1 MSTORE PUSH1 0xD PUSH1 0x24 DUP3 ADD MSTORE PUSH13 0x185C995B98481CD95D1D1B1959 PUSH1 0x9A SHL PUSH1 0x44 DUP3 ADD MSTORE PUSH1 0x64 SWAP1 REVERT JUMPDEST PUSH1 0x40 MLOAD PUSH3 0x461BCD PUSH1 0xE5 SHL DUP2 MSTORE PUSH1 0x4 DUP2 ADD DUP5 SWAP1 MSTORE PUSH1 0xF PUSH1 0x24 DUP3 ADD MSTORE PUSH15 0x185C995B98481B9BDD08199BDD5B99 PUSH1 0x8A SHL PUSH1 0x44 DUP3 ADD MSTORE PUSH1 0x64 SWAP1 REVERT JUMPDEST PUSH1 0x40 MLOAD PUSH3 0x461BCD PUSH1 0xE5 SHL DUP2 MSTORE PUSH1 0x4 DUP2 ADD DUP6 SWAP1 MSTORE PUSH1 0x12 PUSH1 0x24 DUP3 ADD MSTORE PUSH18 0xD2DCECC2D8D2C840C6C2E4C840D2DCC8CAF PUSH1 0x73 SHL PUSH1 0x44 DUP3 ADD MSTORE PUSH1 0x64 SWAP1 REVERT JUMPDEST CALLVALUE PUSH2 0x246 JUMPI PUSH1 0x20 CALLDATASIZE PUSH1 0x3 NOT ADD SLT PUSH2 0x246 JUMPI PUSH1 0x4 CALLDATALOAD PUSH1 0x0 MSTORE PUSH1 0x8 PUSH1 0x20 MSTORE PUSH2 0x120 PUSH1 0x40 PUSH1 0x0 KECCAK256 DUP1 SLOAD SWAP1 PUSH1 0x1 DUP2 ADD SLOAD SWAP1 PUSH1 0x2 DUP2 ADD SLOAD PUSH1 0x3 DUP3 ADD SLOAD SWAP1 PUSH1 0xFF PUSH1 0x5 PUSH1 0x4 DUP6 ADD SLOAD SWAP5 ADD SLOAD AND SWAP4 PUSH1 0x40 MLOAD SWAP6 DUP7 MSTORE PUSH1 0x20 DUP7 ADD MSTORE PUSH1 0xFF DUP2 AND PUSH1 0x40 DUP7 ADD MSTORE PUSH1 0xFF DUP2 PUSH1 0x8 SHR AND PUSH1 0x60 DUP7 ADD MSTORE PUSH1 0xFF DUP2 PUSH1 0x10 SHR AND ISZERO ISZERO PUSH1 0x80 DUP7 ADD MSTORE PUSH1 0x1 DUP1 PUSH1 0xA0 SHL SUB SWAP1 PUSH1 0x18 SHR AND PUSH1 0xA0 DUP6 ADD MSTORE PUSH1 0xC0 DUP5 ADD MSTORE PUSH1 0xE0 DUP4 ADD MSTORE PUSH2 0x100 DUP3 ADD MSTORE RETURN JUMPDEST CALLVALUE PUSH2 0x246 JUMPI PUSH1 0x0 CALLDATASIZE PUSH1 0x3 NOT ADD SLT PUSH2 0x246 JUMPI PUSH2 0x2451 PUSH2 0x3808 JUMP JUMPDEST PUSH2 0x2459 PUSH2 0x3CB4 JUMP JUMPDEST PUSH1 0x1 PUSH1 0xFF NOT PUSH1 0x0 SLOAD AND OR PUSH1 0x0 SSTORE PUSH32 0x62E78CEA01BEE320CD4E420270B5EA74000D11B0C9F74754EBDBFC544B05A258 PUSH1 0x20 PUSH1 0x40 MLOAD CALLER DUP2 MSTORE LOG1 STOP JUMPDEST CALLVALUE PUSH2 0x246 JUMPI PUSH1 0x0 CALLDATASIZE PUSH1 0x3 NOT ADD SLT PUSH2 0x246 JUMPI PUSH1 0x20 PUSH1 0x3 SLOAD PUSH1 0x40 MLOAD SWAP1 DUP2 MSTORE RETURN JUMPDEST PUSH1 0x20 DUP1 PUSH1 0x3 NOT CALLDATASIZE ADD SLT PUSH2 0x246 JUMPI PUSH1 0x4 CALLDATALOAD PUSH2 0x24C8 PUSH2 0x3CB4 JUMP JUMPDEST PUSH2 0x24D0 PUSH2 0x3837 JUMP JUMPDEST DUP1 PUSH1 0x0 MSTORE PUSH1 0xC DUP3 MSTORE PUSH1 0xE PUSH1 0x40 PUSH1 0x0 KECCAK256 PUSH2 0x24EB DUP2 SLOAD ISZERO ISZERO PUSH2 0x3552 JUMP JUMPDEST ADD SWAP1 PUSH1 0x40 MLOAD SWAP3 PUSH2 0x253F DUP2 DUP6 ADD DUP3 DUP2 MSTORE DUP6 PUSH2 0x2508 PUSH1 0x40 DUP3 ADD DUP8 PUSH2 0x3403 JUMP JUMPDEST SUB SWAP6 PUSH2 0x251C PUSH1 0x1F NOT SWAP8 DUP9 DUP2 ADD DUP4 MSTORE DUP3 PUSH2 0x350B JUMP JUMPDEST MLOAD SWAP1 KECCAK256 PUSH1 0x40 MLOAD DUP4 DUP2 ADD SWAP1 PUSH2 0xBDF DUP2 PUSH2 0x2533 DUP5 PUSH2 0x376E JUMP JUMPDEST SUB DUP10 DUP2 ADD DUP4 MSTORE DUP3 PUSH2 0x350B JUMP JUMPDEST PUSH1 0x40 MLOAD PUSH4 0x14C1DC4D PUSH1 0xE3 SHL DUP2 MSTORE GASPRICE PUSH1 0x4 DUP3 ADD MSTORE PUSH32 0x0 PUSH1 0x1 PUSH1 0x1 PUSH1 0xA0 SHL SUB AND SWAP5 SWAP1 SWAP4 DUP3 DUP6 PUSH1 0x24 DUP2 DUP10 GAS STATICCALL SWAP5 DUP6 ISZERO PUSH2 0x6A0 JUMPI PUSH1 0x0 SWAP6 PUSH2 0x279C JUMPI JUMPDEST POP DUP5 CALLVALUE LT PUSH2 0x2763 JUMPI DUP3 DUP6 SWAP7 PUSH1 0x4 PUSH1 0x40 MLOAD DUP1 SWAP9 DUP2 SWAP4 PUSH4 0x34CD9945 PUSH1 0xE1 SHL DUP4 MSTORE GAS CALL SWAP5 DUP6 ISZERO PUSH2 0x6A0 JUMPI PUSH1 0x0 SWAP6 PUSH2 0x2734 JUMPI JUMPDEST POP PUSH1 0x40 MLOAD PUSH2 0x25D2 DUP2 PUSH2 0x34B6 JUMP JUMPDEST DUP5 DUP2 MSTORE PUSH1 0x4 DUP5 DUP3 ADD SWAP2 DUP8 DUP4 MSTORE PUSH1 0x40 DUP2 ADD TIMESTAMP DUP2 MSTORE PUSH1 0x60 DUP3 ADD SWAP1 DUP11 DUP3 MSTORE PUSH1 0x80 DUP4 ADD SWAP5 PUSH1 0x0 DUP7 MSTORE DUP10 PUSH1 0x0 MSTORE PUSH1 0x7 DUP10 MSTORE PUSH1 0x40 PUSH1 0x0 KECCAK256 SWAP4 MLOAD DUP5 SSTORE MLOAD PUSH1 0x1 DUP5 ADD SSTORE MLOAD PUSH1 0x2 DUP4 ADD SSTORE MLOAD PUSH1 0x3 DUP3 ADD SSTORE ADD SWAP1 MLOAD ISZERO ISZERO PUSH1 0xFF DUP1 NOT DUP4 SLOAD AND SWAP2 AND OR SWAP1 SSTORE PUSH2 0x2637 PUSH2 0x1A4C DUP3 SLOAD PUSH2 0x33C9 JUMP JUMPDEST PUSH32 0x72616E646F6D6E65737352657175657374656400000000000000000000000026 SWAP1 SSTORE PUSH2 0x2664 DUP6 CALLVALUE PUSH2 0x37D2 JUMP JUMPDEST DUP1 PUSH2 0x26AB JUMPI JUMPDEST POP POP PUSH32 0xEEE7195B6CEE0FA7044C3AF0B86FE2FEBB1D2703D71191F44052BA0D60FFDA64 SWAP1 PUSH1 0x40 MLOAD SWAP5 DUP6 MSTORE CALLER SWAP5 LOG4 PUSH1 0x1 PUSH1 0x0 DUP1 MLOAD PUSH1 0x20 PUSH2 0x3F6E DUP4 CODECOPY DUP2 MLOAD SWAP2 MSTORE SSTORE STOP JUMPDEST PUSH1 0x0 DUP1 DUP1 DUP1 SWAP4 CALLER GAS CALL SWAP1 RETURNDATASIZE ISZERO PUSH2 0x272E JUMPI RETURNDATASIZE PUSH8 0xFFFFFFFFFFFFFFFF DUP2 GT PUSH2 0x53D JUMPI PUSH2 0x26DF DUP5 PUSH1 0x40 MLOAD SWAP4 PUSH1 0x1F DUP5 ADD AND ADD DUP4 PUSH2 0x350B JUMP JUMPDEST DUP2 MSTORE PUSH1 0x0 DUP4 RETURNDATASIZE SWAP3 ADD RETURNDATACOPY JUMPDEST ISZERO PUSH2 0x26F5 JUMPI DUP5 DUP1 PUSH2 0x266A JUMP JUMPDEST PUSH1 0x64 SWAP1 PUSH1 0x40 MLOAD SWAP1 PUSH3 0x461BCD PUSH1 0xE5 SHL DUP3 MSTORE PUSH1 0x4 DUP3 ADD MSTORE PUSH1 0x12 PUSH1 0x24 DUP3 ADD MSTORE PUSH18 0x10D15313C81C99599D5B990819985A5B1959 PUSH1 0x72 SHL PUSH1 0x44 DUP3 ADD MSTORE REVERT JUMPDEST POP PUSH2 0x26E9 JUMP JUMPDEST SWAP1 SWAP5 POP DUP3 DUP2 DUP2 RETURNDATASIZE DUP4 GT PUSH2 0x275C JUMPI JUMPDEST PUSH2 0x274C DUP2 DUP4 PUSH2 0x350B JUMP JUMPDEST DUP2 ADD SUB SLT PUSH2 0x246 JUMPI MLOAD SWAP4 DUP7 PUSH2 0x25C5 JUMP JUMPDEST POP RETURNDATASIZE PUSH2 0x2742 JUMP JUMPDEST PUSH1 0x40 MLOAD PUSH3 0x461BCD PUSH1 0xE5 SHL DUP2 MSTORE PUSH1 0x4 DUP2 ADD DUP5 SWAP1 MSTORE PUSH1 0x11 PUSH1 0x24 DUP3 ADD MSTORE PUSH17 0x696E73756666696369656E742043454C4F PUSH1 0x78 SHL PUSH1 0x44 DUP3 ADD MSTORE PUSH1 0x64 SWAP1 REVERT JUMPDEST SWAP1 SWAP5 POP DUP3 DUP2 DUP2 RETURNDATASIZE DUP4 GT PUSH2 0x27C4 JUMPI JUMPDEST PUSH2 0x27B4 DUP2 DUP4 PUSH2 0x350B JUMP JUMPDEST DUP2 ADD SUB SLT PUSH2 0x246 JUMPI MLOAD SWAP4 DUP7 PUSH2 0x2596 JUMP JUMPDEST POP RETURNDATASIZE PUSH2 0x27AA JUMP JUMPDEST CALLVALUE PUSH2 0x246 JUMPI PUSH1 0x0 CALLDATASIZE PUSH1 0x3 NOT ADD SLT PUSH2 0x246 JUMPI PUSH2 0x27E4 PUSH2 0x3808 JUMP JUMPDEST PUSH1 0x0 DUP1 SLOAD PUSH2 0x100 PUSH1 0x1 PUSH1 0xA8 SHL SUB NOT DUP2 AND DUP3 SSTORE PUSH1 0x8 SHR PUSH1 0x1 PUSH1 0x1 PUSH1 0xA0 SHL SUB AND PUSH32 0x8BE0079C531659141344CD1FD0A4F28419497F9722A3DAAFE3B4186F6B6457E0 DUP3 DUP1 LOG3 STOP JUMPDEST CALLVALUE PUSH2 0x246 JUMPI PUSH1 0x80 CALLDATASIZE PUSH1 0x3 NOT ADD SLT PUSH2 0x246 JUMPI PUSH8 0xFFFFFFFFFFFFFFFF PUSH1 0x4 CALLDATALOAD PUSH1 0x24 CALLDATALOAD DUP3 DUP2 GT PUSH2 0x246 JUMPI PUSH2 0x285D SWAP1 CALLDATASIZE SWAP1 PUSH1 0x4 ADD PUSH2 0x339B JUMP JUMPDEST PUSH1 0x44 CALLDATALOAD DUP5 DUP2 GT PUSH2 0x246 JUMPI PUSH2 0x2875 SWAP1 CALLDATASIZE SWAP1 PUSH1 0x4 ADD PUSH2 0x339B JUMP JUMPDEST PUSH1 0x64 CALLDATALOAD SWAP2 PUSH2 0x2881 PUSH2 0x3808 JUMP JUMPDEST DUP6 PUSH1 0x0 MSTORE PUSH1 0x20 SWAP7 PUSH1 0xC DUP9 MSTORE PUSH1 0x40 PUSH1 0x0 KECCAK256 SWAP1 PUSH2 0x289E DUP3 SLOAD ISZERO ISZERO PUSH2 0x3552 JUMP JUMPDEST PUSH1 0x5 DUP3 ADD DUP2 DUP8 GT PUSH2 0x53D JUMPI PUSH2 0x28BD DUP8 PUSH2 0x28B7 DUP4 SLOAD PUSH2 0x33C9 JUMP JUMPDEST DUP4 PUSH2 0x3708 JUMP JUMPDEST DUP7 PUSH1 0x0 PUSH1 0x1F DUP3 GT PUSH1 0x1 EQ PUSH2 0x2A30 JUMPI PUSH1 0x0 SWAP2 PUSH2 0x2A25 JUMPI JUMPDEST POP DUP8 PUSH1 0x1 SHL SWAP1 PUSH1 0x0 NOT DUP10 PUSH1 0x3 SHL SHR NOT AND OR SWAP1 SSTORE JUMPDEST PUSH1 0x6 DUP3 ADD SWAP1 DUP5 GT PUSH2 0x53D JUMPI PUSH2 0x2900 DUP5 PUSH2 0x28B7 DUP4 SLOAD PUSH2 0x33C9 JUMP JUMPDEST PUSH1 0x0 PUSH1 0x1F DUP6 GT PUSH1 0x1 EQ PUSH2 0x2994 JUMPI PUSH1 0x7 DUP6 SWAP4 PUSH32 0x431E05890B19757A3E2C8FCC029F9CBA75796D3F867432C8ACA4908A867C2A12 SWAP11 SWAP12 SWAP6 SWAP4 PUSH2 0x297E SWAP8 DUP10 SWAP5 PUSH1 0x0 SWAP2 PUSH2 0x2989 JUMPI JUMPDEST POP DUP7 PUSH1 0x1 SHL SWAP1 PUSH1 0x0 NOT DUP9 PUSH1 0x3 SHL SHR NOT AND OR SWAP1 SSTORE JUMPDEST ADD SSTORE PUSH2 0x2971 PUSH1 0x40 MLOAD SWAP8 DUP9 SWAP8 PUSH1 0x60 DUP10 MSTORE PUSH1 0x60 DUP10 ADD SWAP2 PUSH2 0x374D JUMP JUMPDEST SWAP3 DUP7 DUP5 SUB SWAP1 DUP8 ADD MSTORE PUSH2 0x374D JUMP JUMPDEST SWAP1 PUSH1 0x40 DUP4 ADD MSTORE SUB SWAP1 LOG2 STOP JUMPDEST SWAP1 POP DUP6 ADD CALLDATALOAD DUP15 PUSH2 0x2944 JUMP JUMPDEST PUSH1 0x1F NOT DUP6 AND SWAP1 DUP3 PUSH1 0x0 MSTORE DUP11 PUSH1 0x0 KECCAK256 SWAP2 PUSH1 0x0 JUMPDEST DUP2 DUP2 LT PUSH2 0x2A0E JUMPI POP SWAP4 PUSH32 0x431E05890B19757A3E2C8FCC029F9CBA75796D3F867432C8ACA4908A867C2A12 SWAP11 SWAP12 SWAP6 SWAP4 DUP9 SWAP4 PUSH1 0x7 SWAP4 DUP10 PUSH2 0x297E SWAP11 SWAP9 LT PUSH2 0x29F4 JUMPI JUMPDEST POP POP PUSH1 0x1 DUP7 DUP2 SHL ADD SWAP1 SSTORE PUSH2 0x2958 JUMP JUMPDEST DUP7 ADD CALLDATALOAD PUSH1 0x0 NOT PUSH1 0x3 DUP10 SWAP1 SHL PUSH1 0xF8 AND SHR NOT AND SWAP1 SSTORE DUP14 DUP1 PUSH2 0x29E5 JUMP JUMPDEST SWAP2 SWAP3 DUP13 PUSH1 0x1 DUP2 SWAP3 DUP7 DUP11 ADD CALLDATALOAD DUP2 SSTORE ADD SWAP5 ADD SWAP3 ADD PUSH2 0x29A6 JUMP JUMPDEST SWAP1 POP DUP9 ADD CALLDATALOAD DUP12 PUSH2 0x28D3 JUMP JUMPDEST PUSH1 0x0 DUP4 DUP2 MSTORE DUP13 DUP2 KECCAK256 SWAP3 POP DUP10 SWAP1 PUSH1 0x1F NOT DUP3 AND SWAP1 DUP15 JUMPDEST DUP14 DUP4 DUP4 LT PUSH2 0x2A7E JUMPI POP POP POP LT PUSH2 0x2A64 JUMPI JUMPDEST POP POP PUSH1 0x1 DUP8 DUP2 SHL ADD SWAP1 SSTORE PUSH2 0x28E7 JUMP JUMPDEST DUP10 ADD CALLDATALOAD PUSH1 0x0 NOT PUSH1 0x3 DUP11 SWAP1 SHL PUSH1 0xF8 AND SHR NOT AND SWAP1 SSTORE DUP11 DUP1 PUSH2 0x2A55 JUMP JUMPDEST DUP6 ADD CALLDATALOAD DUP7 SSTORE PUSH1 0x1 SWAP1 SWAP6 ADD SWAP5 SWAP4 DUP5 ADD SWAP4 DUP13 SWAP4 POP ADD DUP15 PUSH2 0x2A44 JUMP JUMPDEST CALLVALUE PUSH2 0x246 JUMPI PUSH1 0x20 CALLDATASIZE PUSH1 0x3 NOT ADD SLT PUSH2 0x246 JUMPI PUSH1 0x4 CALLDATALOAD PUSH1 0x1 PUSH1 0x1 PUSH1 0xA0 SHL SUB DUP2 AND SWAP1 DUP2 SWAP1 SUB PUSH2 0x246 JUMPI PUSH1 0x0 MSTORE PUSH1 0x9 PUSH1 0x20 MSTORE PUSH1 0x20 PUSH1 0x40 PUSH1 0x0 KECCAK256 SLOAD PUSH1 0x40 MLOAD SWAP1 DUP2 MSTORE RETURN JUMPDEST CALLVALUE PUSH2 0x246 JUMPI PUSH1 0x0 CALLDATASIZE PUSH1 0x3 NOT ADD SLT PUSH2 0x246 JUMPI PUSH1 0x20 PUSH1 0x6 SLOAD PUSH1 0x40 MLOAD SWAP1 DUP2 MSTORE RETURN JUMPDEST CALLVALUE PUSH2 0x246 JUMPI PUSH1 0x20 CALLDATASIZE PUSH1 0x3 NOT ADD SLT PUSH2 0x246 JUMPI PUSH1 0x4 CALLDATALOAD PUSH1 0x0 MSTORE PUSH1 0x7 PUSH1 0x20 MSTORE PUSH1 0xA0 PUSH1 0x40 PUSH1 0x0 KECCAK256 DUP1 SLOAD SWAP1 PUSH1 0x1 DUP2 ADD SLOAD SWAP1 PUSH1 0x2 DUP2 ADD SLOAD PUSH1 0xFF PUSH1 0x4 PUSH1 0x3 DUP5 ADD SLOAD SWAP4 ADD SLOAD AND SWAP3 PUSH1 0x40 MLOAD SWAP5 DUP6 MSTORE PUSH1 0x20 DUP6 ADD MSTORE PUSH1 0x40 DUP5 ADD MSTORE PUSH1 0x60 DUP4 ADD MSTORE ISZERO ISZERO PUSH1 0x80 DUP3 ADD MSTORE RETURN JUMPDEST CALLVALUE PUSH2 0x246 JUMPI PUSH1 0x0 CALLDATASIZE PUSH1 0x3 NOT ADD SLT PUSH2 0x246 JUMPI PUSH1 0x20 PUSH1 0xFF PUSH1 0x0 SLOAD AND PUSH1 0x40 MLOAD SWAP1 ISZERO ISZERO DUP2 MSTORE RETURN JUMPDEST CALLVALUE PUSH2 0x246 JUMPI PUSH1 0x20 DUP1 PUSH1 0x3 NOT CALLDATASIZE ADD SLT PUSH2 0x246 JUMPI PUSH1 0x4 CALLDATALOAD PUSH1 0x1 PUSH1 0x1 PUSH1 0xA0 SHL SUB DUP2 AND SWAP1 DUP2 SWAP1 SUB PUSH2 0x246 JUMPI PUSH1 0x0 PUSH1 0xE0 PUSH1 0x40 MLOAD PUSH2 0x2BAA DUP2 PUSH2 0x3499 JUMP JUMPDEST DUP3 DUP2 MSTORE DUP3 DUP6 DUP3 ADD MSTORE DUP3 PUSH1 0x40 DUP3 ADD MSTORE DUP3 PUSH1 0x60 DUP3 ADD MSTORE PUSH1 0x60 PUSH1 0x80 DUP3 ADD MSTORE DUP3 PUSH1 0xA0 DUP3 ADD MSTORE DUP3 PUSH1 0xC0 DUP3 ADD MSTORE ADD MSTORE PUSH1 0x0 MSTORE PUSH1 0xB DUP2 MSTORE PUSH1 0x40 PUSH1 0x0 KECCAK256 PUSH1 0x40 MLOAD SWAP1 PUSH2 0x2BEC DUP3 PUSH2 0x3499 JUMP JUMPDEST DUP1 SLOAD DUP3 MSTORE PUSH1 0x1 DUP2 ADD SLOAD SWAP1 DUP4 DUP4 ADD SWAP2 DUP3 MSTORE PUSH1 0x2 DUP2 ADD SLOAD SWAP2 PUSH1 0x40 DUP5 ADD SWAP3 DUP4 MSTORE PUSH1 0x3 DUP3 ADD SLOAD PUSH1 0x60 DUP6 ADD SWAP1 DUP2 MSTORE PUSH1 0x40 MLOAD SWAP1 PUSH2 0x2C31 DUP3 PUSH2 0x2C2A DUP2 PUSH1 0x4 DUP9 ADD PUSH2 0x3403 JUMP JUMPDEST SUB DUP4 PUSH2 0x350B JUMP JUMPDEST PUSH1 0x80 DUP7 ADD SWAP2 DUP3 MSTORE PUSH1 0xFF PUSH1 0x5 DUP6 ADD SLOAD AND SWAP5 PUSH1 0xA0 DUP8 ADD SWAP6 ISZERO ISZERO DUP7 MSTORE PUSH1 0x7 PUSH1 0x6 DUP7 ADD SLOAD SWAP6 PUSH1 0xC0 DUP10 ADD SWAP7 DUP8 MSTORE ADD SLOAD SWAP4 PUSH1 0xE0 DUP9 ADD SWAP5 DUP6 MSTORE PUSH1 0x40 MLOAD SWAP9 DUP10 SWAP9 DUP2 DUP11 MSTORE MLOAD SWAP1 DUP10 ADD MSTORE MLOAD PUSH1 0x40 DUP9 ADD MSTORE MLOAD PUSH1 0x60 DUP8 ADD MSTORE MLOAD PUSH1 0x80 DUP7 ADD MSTORE MLOAD SWAP2 PUSH2 0x2C9D PUSH2 0x100 SWAP4 DUP5 PUSH1 0xA0 DUP9 ADD MSTORE PUSH2 0x120 DUP8 ADD SWAP1 PUSH2 0x335B JUMP JUMPDEST SWAP4 MLOAD ISZERO ISZERO PUSH1 0xC0 DUP7 ADD MSTORE MLOAD PUSH1 0xE0 DUP6 ADD MSTORE MLOAD SWAP1 DUP4 ADD MSTORE SUB SWAP1 RETURN JUMPDEST CALLVALUE PUSH2 0x246 JUMPI PUSH1 0x0 CALLDATASIZE PUSH1 0x3 NOT ADD SLT PUSH2 0x246 JUMPI PUSH1 0x40 MLOAD PUSH32 0x0 PUSH1 0x1 PUSH1 0x1 PUSH1 0xA0 SHL SUB AND DUP2 MSTORE PUSH1 0x20 SWAP1 RETURN JUMPDEST CALLVALUE PUSH2 0x246 JUMPI PUSH1 0x20 DUP1 PUSH1 0x3 NOT CALLDATASIZE ADD SLT PUSH2 0x246 JUMPI PUSH1 0x4 CALLDATALOAD PUSH1 0x0 MSTORE PUSH1 0xC DUP2 MSTORE PUSH1 0x40 PUSH1 0x0 KECCAK256 PUSH1 0xE DUP2 ADD PUSH1 0x40 MLOAD DUP4 DUP2 ADD DUP5 DUP2 MSTORE DUP2 PUSH2 0x2D36 PUSH1 0x40 DUP3 ADD DUP6 PUSH2 0x3403 JUMP JUMPDEST SUB SWAP2 PUSH2 0x2D4A PUSH1 0x1F NOT SWAP4 DUP5 DUP2 ADD DUP4 MSTORE DUP3 PUSH2 0x350B JUMP JUMPDEST MLOAD SWAP1 KECCAK256 PUSH1 0x40 MLOAD DUP6 DUP2 ADD SWAP1 PUSH2 0x2D7F DUP2 PUSH2 0xC7D DUP5 PUSH1 0x60 SWAP1 PUSH1 0x20 DUP2 MSTORE PUSH1 0x8 PUSH1 0x20 DUP3 ADD MSTORE PUSH8 0x1C995D99585B1959 PUSH1 0xC2 SHL PUSH1 0x40 DUP3 ADD MSTORE ADD SWAP1 JUMP JUMPDEST MLOAD SWAP1 KECCAK256 EQ SWAP2 DUP3 ISZERO PUSH2 0x2DE3 JUMPI JUMPDEST POP POP ISZERO PUSH2 0x2D9E JUMPI PUSH1 0x8 ADD SLOAD PUSH1 0x40 MLOAD SWAP1 DUP2 MSTORE RETURN JUMPDEST PUSH1 0x40 MLOAD PUSH3 0x461BCD PUSH1 0xE5 SHL DUP2 MSTORE PUSH1 0x4 DUP2 ADD DUP4 SWAP1 MSTORE PUSH1 0x17 PUSH1 0x24 DUP3 ADD MSTORE PUSH32 0x72616E646F6D6E657373206E6F742072657665616C6564000000000000000000 PUSH1 0x44 DUP3 ADD MSTORE PUSH1 0x64 SWAP1 REVERT JUMPDEST SWAP1 SWAP2 POP PUSH1 0x40 MLOAD PUSH2 0x2E01 DUP2 PUSH2 0xBAF DUP8 DUP3 ADD SWAP5 DUP9 DUP7 MSTORE PUSH1 0x40 DUP4 ADD SWAP1 PUSH2 0x3403 JUMP JUMPDEST MLOAD SWAP1 KECCAK256 SWAP1 PUSH1 0x40 MLOAD PUSH2 0x2E19 DUP6 DUP3 ADD SWAP3 DUP3 PUSH2 0xBD3 DUP6 PUSH2 0x36A3 JUMP JUMPDEST MLOAD SWAP1 KECCAK256 EQ DUP4 DUP1 PUSH2 0x2D8B JUMP JUMPDEST CALLVALUE PUSH2 0x246 JUMPI PUSH1 0xFF PUSH2 0x2E34 CALLDATASIZE PUSH2 0x333B JUMP JUMPDEST PUSH2 0x2E3F SWAP3 SWAP2 SWAP3 PUSH2 0x3CB4 JUMP JUMPDEST PUSH2 0x2E47 PUSH2 0x3837 JUMP JUMPDEST CALLER PUSH1 0x0 MSTORE PUSH1 0xA PUSH1 0x20 MSTORE PUSH2 0x2E61 DUP3 PUSH1 0x40 PUSH1 0x0 KECCAK256 SLOAD AND ISZERO PUSH2 0x35CB JUMP JUMPDEST AND PUSH1 0x2 DUP2 LT ISZERO DUP1 PUSH2 0x2F66 JUMPI JUMPDEST ISZERO PUSH2 0x2F21 JUMPI DUP2 PUSH2 0x2E80 PUSH1 0x20 SWAP4 ISZERO ISZERO PUSH2 0x360D JUMP JUMPDEST PUSH2 0x2E8A DUP2 CALLER PUSH2 0x3CD2 JUMP JUMPDEST PUSH2 0x2E95 PUSH1 0x3 SLOAD PUSH2 0x3543 JUMP JUMPDEST SWAP2 DUP3 PUSH1 0x3 SSTORE DUP3 PUSH1 0x0 MSTORE PUSH1 0x8 DUP5 MSTORE PUSH2 0x2ED6 PUSH1 0x40 PUSH1 0x0 KECCAK256 DUP5 DUP2 SSTORE DUP4 PUSH1 0x1 DUP3 ADD SSTORE PUSH1 0x2 DUP2 ADD PUSH2 0x100 DUP5 PUSH2 0xFFFF NOT DUP4 SLOAD AND OR OR SWAP1 SSTORE TIMESTAMP PUSH1 0x3 DUP3 ADD SSTORE PUSH1 0x6 CALLER SWAP2 ADD PUSH2 0x3668 JUMP JUMPDEST PUSH1 0x40 MLOAD SWAP2 DUP3 MSTORE DUP4 DUP3 ADD MSTORE DUP2 PUSH32 0xA2BBD44031E4A29E8A7B02904C750B86EE4B539B515B912B6312F23F7A12DE8F PUSH1 0x40 CALLER SWAP4 LOG3 PUSH1 0x1 PUSH1 0x0 DUP1 MLOAD PUSH1 0x20 PUSH2 0x3F6E DUP4 CODECOPY DUP2 MLOAD SWAP2 MSTORE SSTORE PUSH1 0x40 MLOAD SWAP1 DUP2 MSTORE RETURN JUMPDEST PUSH1 0x40 MLOAD PUSH3 0x461BCD PUSH1 0xE5 SHL DUP2 MSTORE PUSH1 0x20 PUSH1 0x4 DUP3 ADD MSTORE PUSH1 0x18 PUSH1 0x24 DUP3 ADD MSTORE PUSH32 0x706C6179657220636F756E74206D75737420626520322D340000000000000000 PUSH1 0x44 DUP3 ADD MSTORE PUSH1 0x64 SWAP1 REVERT JUMPDEST POP PUSH1 0x4 DUP2 GT ISZERO PUSH2 0x2E6D JUMP JUMPDEST CALLVALUE PUSH2 0x246 JUMPI PUSH1 0x0 CALLDATASIZE PUSH1 0x3 NOT ADD SLT PUSH2 0x246 JUMPI PUSH2 0x2F8A PUSH2 0x3808 JUMP JUMPDEST PUSH1 0x0 SLOAD PUSH1 0xFF DUP2 AND ISZERO PUSH2 0x2FC9 JUMPI PUSH1 0xFF NOT AND PUSH1 0x0 SSTORE PUSH32 0x5DB9EE0A495BF2E6FF9C91A7834C1BA4FDD244A5E8AA4E537BD38AEAE4B073AA PUSH1 0x20 PUSH1 0x40 MLOAD CALLER DUP2 MSTORE LOG1 STOP JUMPDEST PUSH1 0x40 MLOAD PUSH4 0x8DFC202B PUSH1 0xE0 SHL DUP2 MSTORE PUSH1 0x4 SWAP1 REVERT JUMPDEST CALLVALUE PUSH2 0x246 JUMPI PUSH1 0x0 CALLDATASIZE PUSH1 0x3 NOT ADD SLT PUSH2 0x246 JUMPI PUSH1 0x20 PUSH1 0x5 SLOAD PUSH1 0x40 MLOAD SWAP1 DUP2 MSTORE RETURN JUMPDEST CALLVALUE PUSH2 0x246 JUMPI PUSH1 0x20 DUP1 PUSH1 0x3 NOT CALLDATASIZE ADD SLT PUSH2 0x246 JUMPI PUSH1 0x4 CALLDATALOAD SWAP1 PUSH2 0x3017 PUSH2 0x3837 JUMP JUMPDEST DUP2 PUSH1 0x0 MSTORE PUSH1 0xC DUP2 MSTORE PUSH1 0x40 PUSH1 0x0 KECCAK256 PUSH2 0x3030 DUP2 SLOAD ISZERO ISZERO PUSH2 0x3552 JUMP JUMPDEST PUSH1 0x40 MLOAD SWAP1 DUP2 PUSH2 0x304C DUP5 DUP3 ADD SWAP3 DUP6 DUP5 MSTORE PUSH1 0xE PUSH1 0x40 DUP5 ADD SWAP2 ADD PUSH2 0x3403 JUMP JUMPDEST SUB SWAP2 PUSH2 0x3060 PUSH1 0x1F NOT SWAP4 DUP5 DUP2 ADD DUP4 MSTORE DUP3 PUSH2 0x350B JUMP JUMPDEST MLOAD SWAP1 KECCAK256 SWAP1 PUSH1 0x40 MLOAD PUSH2 0x3078 DUP5 DUP3 ADD SWAP3 DUP3 PUSH2 0xBD3 DUP6 PUSH2 0x3590 JUMP JUMPDEST MLOAD SWAP1 KECCAK256 SUB PUSH2 0x313D JUMPI DUP2 PUSH1 0x0 MSTORE PUSH1 0x7 DUP2 MSTORE PUSH1 0x40 PUSH1 0x0 KECCAK256 SWAP2 PUSH1 0x2 DUP4 ADD SLOAD PUSH2 0x4B0 DUP2 ADD DUP1 SWAP2 GT PUSH2 0x643 JUMPI TIMESTAMP LT PUSH2 0x3102 JUMPI PUSH1 0x1 PUSH2 0x1567 SWAP4 ADD SLOAD DUP2 PUSH32 0xD9C88CE99C062B2CD8B0EECD6D9164002CC3BA98F31F5A1E83DDE1ED5C21E049 PUSH1 0x0 DUP1 LOG3 PUSH18 0x1C985B991BDB5B995CDCC81D1A5B595BDD5D PUSH1 0x72 SHL PUSH1 0x40 MLOAD SWAP3 PUSH2 0x30F6 DUP5 PUSH2 0x34EF JUMP JUMPDEST PUSH1 0x12 DUP5 MSTORE DUP4 ADD MSTORE PUSH2 0x3867 JUMP JUMPDEST PUSH1 0x40 MLOAD PUSH3 0x461BCD PUSH1 0xE5 SHL DUP2 MSTORE PUSH1 0x4 DUP2 ADD DUP4 SWAP1 MSTORE PUSH1 0x13 PUSH1 0x24 DUP3 ADD MSTORE PUSH19 0x1D1A5B595BDD5D081B9BDD081C995858DA1959 PUSH1 0x6A SHL PUSH1 0x44 DUP3 ADD MSTORE PUSH1 0x64 SWAP1 REVERT JUMPDEST PUSH1 0x64 SWAP1 PUSH1 0x40 MLOAD SWAP1 PUSH3 0x461BCD PUSH1 0xE5 SHL DUP3 MSTORE PUSH1 0x4 DUP3 ADD MSTORE PUSH1 0x16 PUSH1 0x24 DUP3 ADD MSTORE PUSH22 0x72616E646F6D6E657373206E6F742070656E64696E67 PUSH1 0x50 SHL PUSH1 0x44 DUP3 ADD MSTORE REVERT JUMPDEST CALLVALUE PUSH2 0x246 JUMPI PUSH1 0x20 CALLDATASIZE PUSH1 0x3 NOT ADD SLT PUSH2 0x246 JUMPI PUSH1 0x4 CALLDATALOAD PUSH1 0x1 PUSH1 0x1 PUSH1 0xA0 SHL SUB DUP2 AND SWAP1 DUP2 SWAP1 SUB PUSH2 0x246 JUMPI PUSH2 0x31A8 PUSH2 0x3808 JUMP JUMPDEST DUP1 PUSH1 0x0 MSTORE PUSH1 0xB PUSH1 0x20 MSTORE PUSH1 0x6 PUSH1 0x40 PUSH1 0x0 KECCAK256 ADD PUSH2 0x31C3 DUP2 SLOAD PUSH2 0x3543 JUMP JUMPDEST SWAP1 SSTORE DUP1 PUSH1 0x0 MSTORE PUSH1 0xB PUSH1 0x20 MSTORE PUSH1 0x40 PUSH1 0x0 KECCAK256 PUSH1 0x6 DUP2 ADD SLOAD PUSH1 0x6 SLOAD GT ISZERO PUSH2 0x31E3 JUMPI STOP JUMPDEST PUSH1 0x7 TIMESTAMP SWAP2 ADD SSTORE PUSH32 0x2CAB723428C7EE886BE3D0FB35D9AA30BEAB5ACC2016EA5DCADD2D6B9EEC81E5 PUSH1 0x20 PUSH1 0x5 SLOAD PUSH1 0x40 MLOAD SWAP1 DUP2 MSTORE LOG2 STOP JUMPDEST CALLVALUE PUSH2 0x246 JUMPI PUSH1 0x20 DUP1 PUSH1 0x3 NOT CALLDATASIZE ADD SLT PUSH2 0x246 JUMPI PUSH1 0x4 CALLDATALOAD PUSH1 0x0 MSTORE PUSH1 0x8 DUP2 MSTORE PUSH1 0x40 PUSH1 0x0 KECCAK256 SWAP1 DUP2 SLOAD SWAP2 PUSH1 0x1 SWAP1 PUSH1 0x1 DUP2 ADD SLOAD SWAP4 PUSH1 0x2 DUP3 ADD SLOAD SWAP4 PUSH1 0x1 DUP1 PUSH1 0xA0 SHL SUB SWAP3 PUSH1 0x6 PUSH1 0x3 DUP3 ADD SLOAD SWAP2 ADD SWAP7 PUSH1 0x40 MLOAD SWAP2 DUP3 DUP5 DUP11 SLOAD SWAP2 DUP3 DUP2 MSTORE ADD SWAP1 DUP2 SWAP11 PUSH1 0x0 MSTORE DUP6 PUSH1 0x0 KECCAK256 SWAP1 PUSH1 0x0 JUMPDEST DUP2 DUP2 LT PUSH2 0x330B JUMPI POP POP POP DUP4 PUSH2 0x328F SWAP2 SUB DUP5 PUSH2 0x350B JUMP JUMPDEST DUP6 PUSH1 0x40 MLOAD SWAP9 PUSH2 0x100 SWAP4 DUP5 DUP12 ADD SWAP8 DUP12 MSTORE DUP7 DUP12 ADD MSTORE PUSH1 0xFF DUP2 AND PUSH1 0x40 DUP12 ADD MSTORE PUSH1 0xFF DUP2 PUSH1 0x8 SHR AND PUSH1 0x60 DUP12 ADD MSTORE PUSH1 0xFF DUP2 PUSH1 0x10 SHR AND ISZERO ISZERO PUSH1 0x80 DUP12 ADD MSTORE PUSH1 0x18 SHR AND PUSH1 0xA0 DUP10 ADD MSTORE PUSH1 0xC0 DUP9 ADD MSTORE PUSH1 0xE0 DUP8 ADD MSTORE MLOAD DUP1 SWAP3 MSTORE PUSH2 0x120 DUP6 ADD SWAP6 SWAP3 PUSH1 0x0 SWAP1 JUMPDEST DUP4 DUP3 LT PUSH2 0x32F4 JUMPI DUP7 DUP9 SUB DUP8 RETURN JUMPDEST DUP5 MLOAD DUP2 AND DUP9 MSTORE SWAP7 DUP3 ADD SWAP7 SWAP4 DUP3 ADD SWAP4 SWAP1 DUP6 ADD SWAP1 PUSH2 0x32E7 JUMP JUMPDEST DUP3 SLOAD DUP11 AND DUP5 MSTORE SWAP3 DUP8 ADD SWAP3 SWAP2 DUP11 ADD SWAP2 DUP11 ADD PUSH2 0x3279 JUMP JUMPDEST CALLVALUE PUSH2 0x246 JUMPI PUSH1 0x0 CALLDATASIZE PUSH1 0x3 NOT ADD SLT PUSH2 0x246 JUMPI PUSH1 0x20 SWAP1 PUSH1 0x4 SLOAD DUP2 MSTORE RETURN JUMPDEST PUSH1 0x40 SWAP1 PUSH1 0x3 NOT ADD SLT PUSH2 0x246 JUMPI PUSH1 0x4 CALLDATALOAD SWAP1 PUSH1 0x24 CALLDATALOAD PUSH1 0xFF DUP2 AND DUP2 SUB PUSH2 0x246 JUMPI SWAP1 JUMP JUMPDEST SWAP2 SWAP1 DUP3 MLOAD SWAP3 DUP4 DUP3 MSTORE PUSH1 0x0 JUMPDEST DUP5 DUP2 LT PUSH2 0x3387 JUMPI POP POP DUP3 PUSH1 0x0 PUSH1 0x20 DUP1 SWAP5 SWAP6 DUP5 ADD ADD MSTORE PUSH1 0x1F DUP1 NOT SWAP2 ADD AND ADD ADD SWAP1 JUMP JUMPDEST PUSH1 0x20 DUP2 DUP4 ADD DUP2 ADD MLOAD DUP5 DUP4 ADD DUP3 ADD MSTORE ADD PUSH2 0x3366 JUMP JUMPDEST SWAP2 DUP2 PUSH1 0x1F DUP5 ADD SLT ISZERO PUSH2 0x246 JUMPI DUP3 CALLDATALOAD SWAP2 PUSH8 0xFFFFFFFFFFFFFFFF DUP4 GT PUSH2 0x246 JUMPI PUSH1 0x20 DUP4 DUP2 DUP7 ADD SWAP6 ADD ADD GT PUSH2 0x246 JUMPI JUMP JUMPDEST SWAP1 PUSH1 0x1 DUP3 DUP2 SHR SWAP3 AND DUP1 ISZERO PUSH2 0x33F9 JUMPI JUMPDEST PUSH1 0x20 DUP4 LT EQ PUSH2 0x33E3 JUMPI JUMP JUMPDEST PUSH4 0x4E487B71 PUSH1 0xE0 SHL PUSH1 0x0 MSTORE PUSH1 0x22 PUSH1 0x4 MSTORE PUSH1 0x24 PUSH1 0x0 REVERT JUMPDEST SWAP2 PUSH1 0x7F AND SWAP2 PUSH2 0x33D8 JUMP JUMPDEST DUP1 SLOAD PUSH1 0x0 SWAP4 SWAP3 PUSH2 0x3412 DUP3 PUSH2 0x33C9 JUMP JUMPDEST SWAP2 DUP3 DUP3 MSTORE PUSH1 0x20 SWAP4 PUSH1 0x1 SWAP2 PUSH1 0x1 DUP2 AND SWAP1 DUP2 PUSH1 0x0 EQ PUSH2 0x347A JUMPI POP PUSH1 0x1 EQ PUSH2 0x3439 JUMPI JUMPDEST POP POP POP POP POP JUMP JUMPDEST SWAP1 SWAP4 SWAP5 SWAP6 POP PUSH1 0x0 SWAP3 SWAP2 SWAP3 MSTORE DUP4 PUSH1 0x0 KECCAK256 SWAP3 DUP5 PUSH1 0x0 SWAP5 JUMPDEST DUP4 DUP7 LT PUSH2 0x3466 JUMPI POP POP POP POP ADD ADD SWAP1 CODESIZE DUP1 DUP1 DUP1 DUP1 PUSH2 0x3432 JUMP JUMPDEST DUP1 SLOAD DUP6 DUP8 ADD DUP4 ADD MSTORE SWAP5 ADD SWAP4 DUP6 SWAP1 DUP3 ADD PUSH2 0x344E JUMP JUMPDEST PUSH1 0xFF NOT AND DUP7 DUP6 ADD MSTORE POP POP POP SWAP1 ISZERO ISZERO PUSH1 0x5 SHL ADD ADD SWAP2 POP CODESIZE DUP1 DUP1 DUP1 DUP1 PUSH2 0x3432 JUMP JUMPDEST PUSH2 0x100 DUP2 ADD SWAP1 DUP2 LT PUSH8 0xFFFFFFFFFFFFFFFF DUP3 GT OR PUSH2 0x53D JUMPI PUSH1 0x40 MSTORE JUMP JUMPDEST PUSH1 0xA0 DUP2 ADD SWAP1 DUP2 LT PUSH8 0xFFFFFFFFFFFFFFFF DUP3 GT OR PUSH2 0x53D JUMPI PUSH1 0x40 MSTORE JUMP JUMPDEST PUSH2 0x200 DUP2 ADD SWAP1 DUP2 LT PUSH8 0xFFFFFFFFFFFFFFFF DUP3 GT OR PUSH2 0x53D JUMPI PUSH1 0x40 MSTORE JUMP JUMPDEST PUSH1 0x40 DUP2 ADD SWAP1 DUP2 LT PUSH8 0xFFFFFFFFFFFFFFFF DUP3 GT OR PUSH2 0x53D JUMPI PUSH1 0x40 MSTORE JUMP JUMPDEST SWAP1 PUSH1 0x1F DUP1 NOT SWAP2 ADD AND DUP2 ADD SWAP1 DUP2 LT PUSH8 0xFFFFFFFFFFFFFFFF DUP3 GT OR PUSH2 0x53D JUMPI PUSH1 0x40 MSTORE JUMP JUMPDEST PUSH1 0x40 SWAP1 PUSH1 0x3 NOT ADD SLT PUSH2 0x246 JUMPI PUSH1 0x4 CALLDATALOAD SWAP1 PUSH1 0x24 CALLDATALOAD SWAP1 JUMP JUMPDEST PUSH1 0x0 NOT DUP2 EQ PUSH2 0x643 JUMPI PUSH1 0x1 ADD SWAP1 JUMP JUMPDEST ISZERO PUSH2 0x3559 JUMPI JUMP JUMPDEST PUSH1 0x40 MLOAD PUSH3 0x461BCD PUSH1 0xE5 SHL DUP2 MSTORE PUSH1 0x20 PUSH1 0x4 DUP3 ADD MSTORE PUSH1 0xF PUSH1 0x24 DUP3 ADD MSTORE PUSH15 0x1C9BDD5B99081B9BDD08199BDD5B99 PUSH1 0x8A SHL PUSH1 0x44 DUP3 ADD MSTORE PUSH1 0x64 SWAP1 REVERT JUMPDEST PUSH1 0x60 SWAP1 PUSH1 0x20 DUP2 MSTORE PUSH1 0x13 PUSH1 0x20 DUP3 ADD MSTORE PUSH19 0x1C985B991BDB5B995CDCD4995C5D595CDD1959 PUSH1 0x6A SHL PUSH1 0x40 DUP3 ADD MSTORE ADD SWAP1 JUMP JUMPDEST SWAP2 SWAP1 DUP3 ADD DUP1 SWAP3 GT PUSH2 0x643 JUMPI JUMP JUMPDEST ISZERO PUSH2 0x35D2 JUMPI JUMP JUMPDEST PUSH1 0x40 MLOAD PUSH3 0x461BCD PUSH1 0xE5 SHL DUP2 MSTORE PUSH1 0x20 PUSH1 0x4 DUP3 ADD MSTORE PUSH1 0x13 PUSH1 0x24 DUP3 ADD MSTORE PUSH19 0x1859191C995CDCC8189B1858DADB1A5CDD1959 PUSH1 0x6A SHL PUSH1 0x44 DUP3 ADD MSTORE PUSH1 0x64 SWAP1 REVERT JUMPDEST ISZERO PUSH2 0x3614 JUMPI JUMP JUMPDEST PUSH1 0x40 MLOAD PUSH3 0x461BCD PUSH1 0xE5 SHL DUP2 MSTORE PUSH1 0x20 PUSH1 0x4 DUP3 ADD MSTORE PUSH1 0x14 PUSH1 0x24 DUP3 ADD MSTORE PUSH20 0x626574206D75737420626520706F736974697665 PUSH1 0x60 SHL PUSH1 0x44 DUP3 ADD MSTORE PUSH1 0x64 SWAP1 REVERT JUMPDEST DUP1 SLOAD DUP3 LT ISZERO PUSH2 0x62D JUMPI PUSH1 0x0 MSTORE PUSH1 0x20 PUSH1 0x0 KECCAK256 ADD SWAP1 PUSH1 0x0 SWAP1 JUMP JUMPDEST DUP1 SLOAD PUSH1 0x1 PUSH1 0x40 SHL DUP2 LT ISZERO PUSH2 0x53D JUMPI PUSH2 0x3685 SWAP2 PUSH1 0x1 DUP3 ADD DUP2 SSTORE PUSH2 0x3650 JUMP JUMPDEST PUSH1 0x1 DUP1 PUSH1 0xA0 SWAP5 SWAP4 SWAP5 SHL SUB DUP1 DUP5 SLOAD SWAP3 PUSH1 0x3 SHL SWAP4 AND DUP4 SHL SWAP3 SHL NOT AND OR SWAP1 SSTORE JUMP JUMPDEST PUSH1 0x60 SWAP1 PUSH1 0x20 DUP2 MSTORE PUSH1 0x9 PUSH1 0x20 DUP3 ADD MSTORE PUSH9 0x18DBDB5C1B195D1959 PUSH1 0xBA SHL PUSH1 0x40 DUP3 ADD MSTORE ADD SWAP1 JUMP JUMPDEST DUP2 DUP2 LT PUSH2 0x36D2 JUMPI POP POP JUMP JUMPDEST PUSH1 0x0 DUP2 SSTORE PUSH1 0x1 ADD PUSH2 0x36C7 JUMP JUMPDEST SWAP1 PUSH1 0x1F DUP2 GT PUSH2 0x36EB JUMPI POP POP JUMP JUMPDEST PUSH2 0x3706 SWAP2 PUSH1 0x0 MSTORE PUSH1 0x1F PUSH1 0x20 PUSH1 0x0 KECCAK256 SWAP2 ADD PUSH1 0x5 SHR DUP2 ADD SWAP1 PUSH2 0x36C7 JUMP JUMPDEST JUMP JUMPDEST SWAP2 SWAP1 PUSH1 0x1F DUP2 GT PUSH2 0x3717 JUMPI POP POP POP JUMP JUMPDEST PUSH2 0x3706 SWAP3 PUSH1 0x0 MSTORE PUSH1 0x20 PUSH1 0x0 KECCAK256 SWAP1 PUSH1 0x20 PUSH1 0x1F DUP5 ADD PUSH1 0x5 SHR DUP4 ADD SWAP4 LT PUSH2 0x3743 JUMPI JUMPDEST PUSH1 0x1F ADD PUSH1 0x5 SHR ADD SWAP1 PUSH2 0x36C7 JUMP JUMPDEST SWAP1 SWAP2 POP DUP2 SWAP1 PUSH2 0x3736 JUMP JUMPDEST SWAP1 DUP1 PUSH1 0x20 SWAP4 SWAP3 DUP2 DUP5 MSTORE DUP5 DUP5 ADD CALLDATACOPY PUSH1 0x0 DUP3 DUP3 ADD DUP5 ADD MSTORE PUSH1 0x1F ADD PUSH1 0x1F NOT AND ADD ADD SWAP1 JUMP JUMPDEST PUSH1 0x60 SWAP1 PUSH1 0x20 DUP2 MSTORE PUSH1 0x7 PUSH1 0x20 DUP3 ADD MSTORE PUSH7 0x18DC99585D1959 PUSH1 0xCA SHL PUSH1 0x40 DUP3 ADD MSTORE ADD SWAP1 JUMP JUMPDEST ISZERO PUSH2 0x3797 JUMPI JUMP JUMPDEST PUSH1 0x40 MLOAD PUSH3 0x461BCD PUSH1 0xE5 SHL DUP2 MSTORE PUSH1 0x20 PUSH1 0x4 DUP3 ADD MSTORE PUSH1 0x13 PUSH1 0x24 DUP3 ADD MSTORE PUSH19 0x696E76616C696420726F756E64207374617465 PUSH1 0x68 SHL PUSH1 0x44 DUP3 ADD MSTORE PUSH1 0x64 SWAP1 REVERT JUMPDEST SWAP2 SWAP1 DUP3 SUB SWAP2 DUP3 GT PUSH2 0x643 JUMPI JUMP JUMPDEST PUSH1 0xFF AND PUSH1 0xFF DUP2 EQ PUSH2 0x643 JUMPI PUSH1 0x1 ADD SWAP1 JUMP JUMPDEST SWAP1 DUP2 PUSH1 0x20 SWAP2 SUB SLT PUSH2 0x246 JUMPI MLOAD DUP1 ISZERO ISZERO DUP2 SUB PUSH2 0x246 JUMPI SWAP1 JUMP JUMPDEST PUSH1 0x0 SLOAD PUSH1 0x8 SHR PUSH1 0x1 PUSH1 0x1 PUSH1 0xA0 SHL SUB AND CALLER SUB PUSH2 0x381F JUMPI JUMP JUMPDEST PUSH1 0x40 MLOAD PUSH4 0x118CDAA7 PUSH1 0xE0 SHL DUP2 MSTORE CALLER PUSH1 0x4 DUP3 ADD MSTORE PUSH1 0x24 SWAP1 REVERT JUMPDEST PUSH1 0x0 DUP1 MLOAD PUSH1 0x20 PUSH2 0x3F6E DUP4 CODECOPY DUP2 MLOAD SWAP2 MSTORE PUSH1 0x2 DUP2 SLOAD EQ PUSH2 0x3855 JUMPI PUSH1 0x2 SWAP1 SSTORE JUMP JUMPDEST PUSH1 0x40 MLOAD PUSH4 0x3EE5AEB5 PUSH1 0xE0 SHL DUP2 MSTORE PUSH1 0x4 SWAP1 REVERT JUMPDEST SWAP2 SWAP1 PUSH1 0x0 DUP4 DUP2 MSTORE PUSH1 0x20 SWAP1 PUSH1 0xC DUP3 MSTORE PUSH1 0x40 SWAP5 DUP6 DUP3 KECCAK256 SWAP3 PUSH2 0x3888 DUP5 SLOAD ISZERO ISZERO PUSH2 0x3552 JUMP JUMPDEST PUSH1 0xE DUP5 ADD SWAP4 DUP8 MLOAD SWAP5 DUP3 DUP7 ADD DUP4 DUP2 MSTORE DUP7 PUSH2 0x38A3 DUP12 DUP3 ADD DUP5 PUSH2 0x3403 JUMP JUMPDEST SUB SWAP7 PUSH2 0x38B7 PUSH1 0x1F NOT SWAP9 DUP10 DUP2 ADD DUP4 MSTORE DUP3 PUSH2 0x350B JUMP JUMPDEST MLOAD SWAP1 KECCAK256 DUP10 MLOAD DUP5 DUP2 ADD SWAP1 PUSH2 0x38D9 DUP2 PUSH2 0x38CD DUP5 PUSH2 0x36A3 JUMP JUMPDEST SUB DUP11 DUP2 ADD DUP4 MSTORE DUP3 PUSH2 0x350B JUMP JUMPDEST MLOAD SWAP1 KECCAK256 EQ ISZERO DUP1 PUSH2 0x3C5C JUMPI JUMPDEST ISZERO PUSH2 0x3C28 JUMPI PUSH2 0x38F6 PUSH2 0x1A4C DUP3 SLOAD PUSH2 0x33C9 JUMP JUMPDEST PUSH1 0x10 PUSH8 0x1C99599D5B991959 PUSH1 0xC2 SHL ADD SWAP1 SSTORE PUSH1 0x1 SWAP5 DUP9 DUP1 MLOAD DUP5 DUP2 ADD SWAP1 DUP6 DUP3 MSTORE PUSH2 0x3927 DUP2 PUSH2 0xC7D DUP6 DUP3 ADD PUSH1 0x1 DUP10 ADD PUSH2 0x3403 JUMP JUMPDEST MLOAD SWAP1 KECCAK256 SWAP2 PUSH2 0x3956 DUP3 MLOAD SWAP2 DUP3 PUSH2 0xBD3 DUP9 DUP3 ADD SWAP6 DUP10 DUP8 MSTORE DUP3 ADD PUSH1 0x40 SWAP1 PUSH1 0x4 DUP2 MSTORE PUSH4 0x736F6C6F PUSH1 0xE0 SHL PUSH1 0x20 DUP3 ADD MSTORE ADD SWAP1 JUMP JUMPDEST MLOAD SWAP1 KECCAK256 EQ PUSH2 0x3B07 JUMPI POP DUP2 DUP4 MSTORE PUSH1 0xC DUP2 MSTORE DUP7 DUP4 KECCAK256 PUSH1 0x3 SWAP1 DUP2 ADD SLOAD DUP5 MSTORE PUSH1 0x8 DUP3 MSTORE DUP8 DUP5 KECCAK256 SWAP4 SWAP8 SWAP4 SWAP6 PUSH1 0x1 PUSH1 0x1 PUSH1 0xA0 SHL SUB SWAP6 SWAP5 SWAP2 PUSH1 0x1 DUP9 ADD SWAP1 PUSH32 0x0 DUP9 AND SWAP1 DUP12 SWAP1 PUSH1 0x6 DUP12 ADD DUP10 JUMPDEST PUSH2 0x39DF JUMPI JUMPDEST POP POP POP POP POP POP POP POP POP POP POP PUSH1 0x2 SWAP2 SWAP3 POP ADD PUSH3 0x10000 PUSH3 0xFF0000 NOT DUP3 SLOAD AND OR SWAP1 SSTORE JUMP JUMPDEST DUP14 DUP2 SWAP14 SWAP13 SWAP12 SWAP14 SLOAD GT ISZERO PUSH2 0x3AFE JUMPI DUP13 PUSH2 0x39F7 DUP16 DUP4 PUSH2 0x3650 JUMP JUMPDEST SWAP1 SLOAD SWAP1 DUP5 SHL SHR AND DUP6 SLOAD DUP9 MLOAD PUSH4 0xA9059CBB PUSH1 0xE0 SHL DUP2 MSTORE DUP11 DUP2 DUP1 PUSH2 0x3A33 PUSH1 0x4 SWAP6 DUP8 DUP8 DUP5 ADD PUSH1 0x20 SWAP1 SWAP4 SWAP3 SWAP2 SWAP4 PUSH1 0x40 DUP2 ADD SWAP5 PUSH1 0x1 DUP1 PUSH1 0xA0 SHL SUB AND DUP2 MSTORE ADD MSTORE JUMP JUMPDEST SUB DUP2 DUP10 DUP12 GAS CALL SWAP1 DUP2 ISZERO PUSH2 0x3AF4 JUMPI DUP7 SWAP2 PUSH2 0x3AD7 JUMPI JUMPDEST POP ISZERO PUSH2 0x3A9E JUMPI POP DUP11 SWAP12 SWAP13 SWAP14 SWAP15 DUP12 SWAP2 DUP12 PUSH32 0x9B4B9FE42E556D768A938A82696607B338F22ED4A51CD053CE2559EFC1616A5A DUP13 DUP13 PUSH2 0x3A93 DUP14 DUP14 SLOAD SWAP3 DUP1 DUP1 MLOAD SWAP6 DUP7 SWAP6 DUP7 MSTORE DUP6 ADD MSTORE DUP4 ADD SWAP1 PUSH2 0x335B JUMP JUMPDEST SUB SWAP1 LOG3 ADD SWAP14 SWAP11 PUSH2 0x39B8 JUMP JUMPDEST DUP9 MLOAD PUSH3 0x461BCD PUSH1 0xE5 SHL DUP2 MSTORE SWAP1 DUP2 ADD DUP11 SWAP1 MSTORE PUSH1 0x13 PUSH1 0x24 DUP3 ADD MSTORE PUSH19 0x185C995B98481C99599D5B990819985A5B1959 PUSH1 0x6A SHL PUSH1 0x44 DUP3 ADD MSTORE PUSH1 0x64 SWAP1 REVERT JUMPDEST PUSH2 0x3AEE SWAP2 POP DUP12 RETURNDATASIZE DUP14 GT PUSH2 0x746 JUMPI PUSH2 0x738 DUP2 DUP4 PUSH2 0x350B JUMP JUMPDEST CODESIZE PUSH2 0x3A47 JUMP JUMPDEST DUP11 MLOAD RETURNDATASIZE DUP9 DUP3 RETURNDATACOPY RETURNDATASIZE SWAP1 REVERT JUMPDEST DUP11 SWAP12 SWAP13 POP PUSH2 0x39BD JUMP JUMPDEST PUSH1 0x2 DUP2 ADD DUP1 SLOAD PUSH1 0xB SWAP1 SWAP3 ADD DUP1 SLOAD DUP11 MLOAD PUSH4 0xA9059CBB PUSH1 0xE0 SHL DUP2 MSTORE PUSH1 0x1 PUSH1 0x1 PUSH1 0xA0 SHL SUB SWAP5 DUP6 AND PUSH1 0x4 DUP3 ADD MSTORE PUSH1 0x24 DUP2 ADD SWAP2 SWAP1 SWAP2 MSTORE SWAP9 SWAP10 SWAP1 SWAP9 SWAP5 SWAP8 SWAP4 SWAP7 POP SWAP5 SWAP3 SWAP4 SWAP2 SWAP3 SWAP1 SWAP2 DUP7 DUP2 PUSH1 0x44 DUP2 DUP6 PUSH32 0x0 DUP10 AND GAS CALL SWAP2 DUP3 ISZERO PUSH2 0x3C1D JUMPI SWAP2 PUSH2 0x3C00 JUMPI JUMPDEST POP ISZERO PUSH2 0x3BCC JUMPI SWAP2 PUSH2 0x3BC7 SWAP2 PUSH32 0x9B4B9FE42E556D768A938A82696607B338F22ED4A51CD053CE2559EFC1616A5A SWAP6 SWAP5 SWAP4 SLOAD AND SWAP7 SLOAD SWAP3 DUP1 DUP1 MLOAD SWAP6 DUP7 SWAP6 DUP7 MSTORE DUP6 ADD MSTORE DUP4 ADD SWAP1 PUSH2 0x335B JUMP JUMPDEST SUB SWAP1 LOG3 JUMP JUMPDEST DUP4 MLOAD PUSH3 0x461BCD PUSH1 0xE5 SHL DUP2 MSTORE PUSH1 0x4 DUP2 ADD DUP7 SWAP1 MSTORE PUSH1 0xD PUSH1 0x24 DUP3 ADD MSTORE PUSH13 0x1C99599D5B990819985A5B1959 PUSH1 0x9A SHL PUSH1 0x44 DUP3 ADD MSTORE PUSH1 0x64 SWAP1 REVERT JUMPDEST PUSH2 0x3C17 SWAP2 POP DUP7 RETURNDATASIZE DUP9 GT PUSH2 0x746 JUMPI PUSH2 0x738 DUP2 DUP4 PUSH2 0x350B JUMP JUMPDEST CODESIZE PUSH2 0x3B80 JUMP JUMPDEST DUP7 MLOAD SWAP1 RETURNDATASIZE SWAP1 DUP3 RETURNDATACOPY RETURNDATASIZE SWAP1 REVERT JUMPDEST DUP9 MLOAD PUSH3 0x461BCD PUSH1 0xE5 SHL DUP2 MSTORE PUSH1 0x4 DUP2 ADD DUP5 SWAP1 MSTORE PUSH1 0xD PUSH1 0x24 DUP3 ADD MSTORE PUSH13 0x18D85B9B9BDD081C99599D5B99 PUSH1 0x9A SHL PUSH1 0x44 DUP3 ADD MSTORE PUSH1 0x64 SWAP1 REVERT JUMPDEST POP DUP9 MLOAD DUP4 DUP2 ADD SWAP1 DUP5 DUP3 MSTORE PUSH2 0x3C76 DUP2 PUSH2 0x2533 DUP14 DUP3 ADD DUP7 PUSH2 0x3403 JUMP JUMPDEST MLOAD SWAP1 KECCAK256 DUP10 MLOAD DUP5 DUP2 ADD SWAP1 PUSH2 0x3CAA DUP2 PUSH2 0x38CD DUP5 PUSH1 0x60 SWAP1 PUSH1 0x20 DUP2 MSTORE PUSH1 0x8 PUSH1 0x20 DUP3 ADD MSTORE PUSH8 0x1C99599D5B991959 PUSH1 0xC2 SHL PUSH1 0x40 DUP3 ADD MSTORE ADD SWAP1 JUMP JUMPDEST MLOAD SWAP1 KECCAK256 EQ ISZERO PUSH2 0x38E4 JUMP JUMPDEST PUSH1 0xFF PUSH1 0x0 SLOAD AND PUSH2 0x3CC0 JUMPI JUMP JUMPDEST PUSH1 0x40 MLOAD PUSH4 0xD93C0665 PUSH1 0xE0 SHL DUP2 MSTORE PUSH1 0x4 SWAP1 REVERT JUMPDEST PUSH1 0x1 DUP1 PUSH1 0xA0 SHL SUB DUP1 SWAP2 AND SWAP1 PUSH1 0x0 SWAP1 DUP3 DUP3 MSTORE PUSH1 0x20 SWAP4 PUSH1 0xA DUP6 MSTORE PUSH1 0x40 SWAP4 PUSH1 0xFF DUP6 DUP6 KECCAK256 SLOAD AND PUSH2 0x3F34 JUMPI DUP2 ISZERO ISZERO DUP1 PUSH2 0x3F28 JUMPI JUMPDEST ISZERO PUSH2 0x3EEF JUMPI PUSH3 0x15180 TIMESTAMP DIV DUP2 DUP6 MSTORE PUSH1 0xB DUP8 MSTORE PUSH1 0x3 DUP7 DUP7 KECCAK256 ADD SLOAD DUP2 GT PUSH2 0x3ED5 JUMPI JUMPDEST POP PUSH1 0x9 DUP7 MSTORE PUSH2 0x3D33 DUP3 DUP7 DUP7 KECCAK256 SLOAD PUSH2 0x35BE JUMP JUMPDEST PUSH1 0x2 SLOAD LT PUSH2 0x3E9A JUMPI SWAP1 DUP2 DUP7 SWAP3 DUP6 MSTORE PUSH1 0xB DUP4 MSTORE DUP6 DUP6 KECCAK256 PUSH1 0x6 DUP2 ADD SLOAD PUSH1 0x6 SLOAD GT ISZERO PUSH2 0x3E45 JUMPI JUMPDEST POP DUP1 PUSH1 0x64 SWAP2 DUP7 MSTORE PUSH1 0x9 DUP5 MSTORE DUP7 DUP7 KECCAK256 PUSH2 0x3D70 DUP5 DUP3 SLOAD PUSH2 0x35BE JUMP JUMPDEST SWAP1 SSTORE DUP1 DUP7 MSTORE PUSH1 0xB DUP5 MSTORE PUSH1 0x1 DUP8 DUP8 KECCAK256 ADD PUSH2 0x3D89 DUP2 SLOAD PUSH2 0x3543 JUMP JUMPDEST SWAP1 SSTORE DUP6 DUP8 MLOAD SWAP6 DUP7 SWAP5 DUP6 SWAP4 PUSH4 0x23B872DD PUSH1 0xE0 SHL DUP6 MSTORE PUSH1 0x4 DUP6 ADD MSTORE ADDRESS PUSH1 0x24 DUP6 ADD MSTORE PUSH1 0x44 DUP5 ADD MSTORE PUSH32 0x0 AND GAS CALL SWAP2 DUP3 ISZERO PUSH2 0x3E3A JUMPI SWAP2 PUSH2 0x3E1D JUMPI JUMPDEST POP ISZERO PUSH2 0x3DE8 JUMPI POP POP JUMP JUMPDEST PUSH1 0x64 SWAP3 POP MLOAD SWAP1 PUSH3 0x461BCD PUSH1 0xE5 SHL DUP3 MSTORE PUSH1 0x4 DUP3 ADD MSTORE PUSH1 0xF PUSH1 0x24 DUP3 ADD MSTORE PUSH15 0x1D1C985B9CD9995C8819985A5B1959 PUSH1 0x8A SHL PUSH1 0x44 DUP3 ADD MSTORE REVERT JUMPDEST PUSH2 0x3E34 SWAP2 POP DUP4 RETURNDATASIZE DUP6 GT PUSH2 0x746 JUMPI PUSH2 0x738 DUP2 DUP4 PUSH2 0x350B JUMP JUMPDEST CODESIZE PUSH2 0x3DDE JUMP JUMPDEST DUP4 MLOAD SWAP1 RETURNDATASIZE SWAP1 DUP3 RETURNDATACOPY RETURNDATASIZE SWAP1 REVERT JUMPDEST PUSH2 0x3E59 SWAP2 SWAP3 SWAP4 POP PUSH1 0x7 ADD SLOAD PUSH1 0x5 SLOAD SWAP1 PUSH2 0x35BE JUMP JUMPDEST TIMESTAMP LT PUSH2 0x3E68 JUMPI SWAP1 DUP6 SWAP2 CODESIZE PUSH2 0x3D57 JUMP JUMPDEST DUP5 MLOAD PUSH3 0x461BCD PUSH1 0xE5 SHL DUP2 MSTORE PUSH1 0x4 DUP2 ADD DUP8 SWAP1 MSTORE PUSH1 0xB PUSH1 0x24 DUP3 ADD MSTORE PUSH11 0x34B71031B7B7B63237BBB7 PUSH1 0xA9 SHL PUSH1 0x44 DUP3 ADD MSTORE PUSH1 0x64 SWAP1 REVERT JUMPDEST DUP5 MLOAD PUSH3 0x461BCD PUSH1 0xE5 SHL DUP2 MSTORE PUSH1 0x4 DUP2 ADD DUP8 SWAP1 MSTORE PUSH1 0x14 PUSH1 0x24 DUP3 ADD MSTORE PUSH20 0x19185A5B1E481B1A5B5A5D08195E18D959591959 PUSH1 0x62 SHL PUSH1 0x44 DUP3 ADD MSTORE PUSH1 0x64 SWAP1 REVERT JUMPDEST PUSH1 0x9 DUP8 MSTORE DUP5 DUP7 DUP2 KECCAK256 SSTORE PUSH1 0xB DUP8 MSTORE PUSH1 0x3 DUP7 DUP7 KECCAK256 ADD SSTORE CODESIZE PUSH2 0x3D21 JUMP JUMPDEST DUP5 MLOAD PUSH3 0x461BCD PUSH1 0xE5 SHL DUP2 MSTORE PUSH1 0x4 DUP2 ADD DUP8 SWAP1 MSTORE PUSH1 0x12 PUSH1 0x24 DUP3 ADD MSTORE PUSH18 0x626574206F757473696465206C696D697473 PUSH1 0x70 SHL PUSH1 0x44 DUP3 ADD MSTORE PUSH1 0x64 SWAP1 REVERT JUMPDEST POP PUSH1 0x1 SLOAD DUP3 GT ISZERO PUSH2 0x3D01 JUMP JUMPDEST DUP5 MLOAD PUSH3 0x461BCD PUSH1 0xE5 SHL DUP2 MSTORE PUSH1 0x4 DUP2 ADD DUP8 SWAP1 MSTORE PUSH1 0x12 PUSH1 0x24 DUP3 ADD MSTORE PUSH18 0x1C1B185E595C88189B1858DADB1A5CDD1959 PUSH1 0x72 SHL PUSH1 0x44 DUP3 ADD MSTORE PUSH1 0x64 SWAP1 REVERT INVALID SWAP12 PUSH24 0x9B17422D0DF92223018B32B4D1FA46E071723D6817E2486D STOP EXTCODESIZE 0xEC 0xC5 PUSH0 STOP LOG2 PUSH5 0x6970667358 0x22 SLT KECCAK256 DUP15 0xB5 0xF6 SWAP10 SELFBALANCE LOG0 0xBD SWAP6 SELFBALANCE 0xD6 0xFC CALLDATASIZE PUSH11 0xCA9EEE7D640419A4DC2DA4 MULMOD SHL 0x4F 0xB5 0xD9 DELEGATECALL 0xC 0x4B PUSH5 0x736F6C6343 STOP ADDMOD XOR STOP CALLER "},"methodIdentifiers":{"RANDOMNESS_TIMEOUT()":"dd35e7aa","applyCooldown(address)":"2bbf1274","arenaCount()":"74b06938","arenas(uint256)":"84f4319c","ban(address)":"97c3ccd8","blacklist(address)":"f9f92be4","checkRandomnessTimeout(uint256)":"3200fc71","cooldownDuration()":"35269315","createArena(uint256,uint8)":"410ddaca","dailyBetTotal(address)":"66951131","emergencyRefundRound(uint256)":"d09d1423","fetchRandomness(uint256)":"f87de110","getArena(uint256)":"1a8425b4","getCommitHash(uint256)":"edfe7216","getPlayerStats(address)":"4fd66eae","getRandomness(uint256)":"453f4f62","getRandomnessRequest(uint256)":"b181ee85","getRound(uint256)":"8f1327c0","isPlayerBanned(address)":"6e3288a2","joinArena(uint256)":"f6b3a00a","lossesBeforeCooldown()":"65c1c630","maxBetPerDay()":"9b795a00","maxBetPerTx()":"9918965f","owner()":"8da5cb5b","pause()":"8456cb59","paused()":"5c975abb","pickCard(uint256,uint8)":"858d9da2","pickSoloCard(uint256,uint8)":"ed28b379","playerStats(address)":"cdafbbb6","randomnessRequests(uint256)":"5cb6dfff","renounceOwnership()":"715018a6","requestRandomness(uint256)":"7363ae1f","revealSeeds(uint256,string,string,uint256)":"712fb121","roundCount()":"127f0b3f","rounds(uint256)":"8c65c81f","setCooldownParams(uint256,uint256)":"951b60a4","setMaxBet(uint256,uint256)":"c03daa4d","settleRound(uint256)":"d2b48cd3","startSoloGame(uint256)":"92d53a67","transferOwnership(address)":"f2fde38b","unban(address)":"b9f14557","unpause()":"3f4ba83a","usdm()":"ee138d0f","witnet()":"46d1d21a"}}}}}