{"contracts/MockWitnetRandomness.sol":{"MockWitnetRandomness":{"abi":[{"inputs":[{"internalType":"uint256","name":"fee","type":"uint256"}],"stateMutability":"nonpayable","type":"constructor"},{"inputs":[{"internalType":"uint256","name":"","type":"uint256"}],"name":"estimateRandomizeFee","outputs":[{"internalType":"uint256","name":"","type":"uint256"}],"stateMutability":"view","type":"function"},{"inputs":[{"internalType":"uint256","name":"blockNumber","type":"uint256"}],"name":"getRandomnessAfter","outputs":[{"internalType":"bytes32","name":"","type":"bytes32"}],"stateMutability":"view","type":"function"},{"inputs":[{"internalType":"uint256","name":"blockNumber","type":"uint256"}],"name":"isRandomized","outputs":[{"internalType":"bool","name":"","type":"bool"}],"stateMutability":"view","type":"function"},{"inputs":[],"name":"lastPayment","outputs":[{"internalType":"uint256","name":"","type":"uint256"}],"stateMutability":"view","type":"function"},{"inputs":[],"name":"lastRandomizeBlock","outputs":[{"internalType":"uint256","name":"","type":"uint256"}],"stateMutability":"view","type":"function"},{"inputs":[{"internalType":"uint32","name":"range","type":"uint32"},{"internalType":"uint256","name":"nonce","type":"uint256"},{"internalType":"uint256","name":"blockNumber","type":"uint256"}],"name":"random","outputs":[{"internalType":"uint32","name":"","type":"uint32"}],"stateMutability":"view","type":"function"},{"inputs":[],"name":"randomize","outputs":[{"internalType":"uint256","name":"","type":"uint256"}],"stateMutability":"payable","type":"function"},{"inputs":[],"name":"requiredFee","outputs":[{"internalType":"uint256","name":"","type":"uint256"}],"stateMutability":"view","type":"function"},{"inputs":[{"internalType":"uint256","name":"blockNumber","type":"uint256"},{"internalType":"uint256","name":"nonce","type":"uint256"},{"internalType":"uint32","name":"value","type":"uint32"}],"name":"setRandomValue","outputs":[],"stateMutability":"nonpayable","type":"function"},{"inputs":[{"internalType":"uint256","name":"blockNumber","type":"uint256"},{"internalType":"bytes32","name":"seed","type":"bytes32"}],"name":"setRandomized","outputs":[],"stateMutability":"nonpayable","type":"function"}],"evm":{"bytecode":{"linkReferences":{},"object":"60a03461006857601f61058c38819003918201601f19168301916001600160401b0383118484101761006d578084926020946040528339810103126100685751608052604051610508908161008482396080518181816101a20152818161022a015261025c0152f35b600080fd5b634e487b7160e01b600052604160045260246000fdfe6080604081815260048036101561001557600080fd5b600092833560e01c908163177eb1e6146103515750806324cbbfc11461030f578063699b328a1461024d5780636f8ec04f1461021257806381e170de146101f55780639bc86fec146101c9578063a60ee26814610189578063ec85427f14610153578063f9f1b673146100d15763fb476cad1461009157600080fd5b346100cd5760203660031901126100cd57602092829135808252600285526100be60ff848420541661036d565b81526003845220549051908152f35b8280fd5b5090346100cd5760603660031901126100cd576044359063ffffffff9182811680910361014f576001019282841161013c57815160208101908235825260243584820152838152610121816103b2565b51902085526020528320911663ffffffff1982541617905580f35b634e487b7160e01b855260119052602484fd5b8480fd5b50346100cd57816003193601126100cd573582526002602052808220600160ff1982541617905560036020526024359082205580f35b5050346101c55760203660031901126101c557602090517f00000000000000000000000000000000000000000000000000000000000000008152f35b5080fd5b50346100cd5760203660031901126100cd578160209360ff923581526002855220541690519015158152f35b5050346101c557816003193601126101c557602091549051908152f35b5050346101c557816003193601126101c557602090517f00000000000000000000000000000000000000000000000000000000000000008152f35b5090826003193601126100cd577f0000000000000000000000000000000000000000000000000000000000000000918234106102da57828455436001558234039034821161013c575082341480156102aa575b6020848451908152f35b84808093819382906102d1575b3390f1156102c65782806102a0565b51913d9150823e3d90fd5b506108fc6102b7565b6020606492519162461bcd60e51b8352820152601060248201526f696e73756666696369656e742066656560801b6044820152fd5b50346100cd5760603660031901126100cd57359163ffffffff90818416840361034e575061034660209360443590602435906103e4565b915191168152f35b80fd5b8490346101c557816003193601126101c5576020906001548152f35b1561037457565b60405162461bcd60e51b815260206004820152601660248201527572616e646f6d6e65737320756e617661696c61626c6560501b6044820152606490fd5b6060810190811067ffffffffffffffff8211176103ce57604052565b634e487b7160e01b600052604160045260246000fd5b9163ffffffff80931691821561049d576000828152600260205260409261041060ff858420541661036d565b83516020810190828252848682015285815261042b816103b2565b519020825260046020528584832054168061046f57509083918152600360205220549180519160208301938452818301528152610467816103b2565b519020061690565b949594600019019350909150508282116104895750160690565b634e487b7160e01b81526011600452602490fd5b60405162461bcd60e51b815260206004820152600d60248201526c696e76616c69642072616e676560981b6044820152606490fdfea2646970667358221220e3f3c91a2bba99afa11eb307f3beebf3ae429c786fbd1d745e9b6b2a848f05ec64736f6c63430008180033","opcodes":"PUSH1 0xA0 CALLVALUE PUSH2 0x68 JUMPI PUSH1 0x1F PUSH2 0x58C CODESIZE DUP2 SWAP1 SUB SWAP2 DUP3 ADD PUSH1 0x1F NOT AND DUP4 ADD SWAP2 PUSH1 0x1 PUSH1 0x1 PUSH1 0x40 SHL SUB DUP4 GT DUP5 DUP5 LT OR PUSH2 0x6D JUMPI DUP1 DUP5 SWAP3 PUSH1 0x20 SWAP5 PUSH1 0x40 MSTORE DUP4 CODECOPY DUP2 ADD SUB SLT PUSH2 0x68 JUMPI MLOAD PUSH1 0x80 MSTORE PUSH1 0x40 MLOAD PUSH2 0x508 SWAP1 DUP2 PUSH2 0x84 DUP3 CODECOPY PUSH1 0x80 MLOAD DUP2 DUP2 DUP2 PUSH2 0x1A2 ADD MSTORE DUP2 DUP2 PUSH2 0x22A ADD MSTORE PUSH2 0x25C ADD MSTORE RETURN JUMPDEST PUSH1 0x0 DUP1 REVERT JUMPDEST PUSH4 0x4E487B71 PUSH1 0xE0 SHL PUSH1 0x0 MSTORE PUSH1 0x41 PUSH1 0x4 MSTORE PUSH1 0x24 PUSH1 0x0 REVERT INVALID PUSH1 0x80 PUSH1 0x40 DUP2 DUP2 MSTORE PUSH1 0x4 DUP1 CALLDATASIZE LT ISZERO PUSH2 0x15 JUMPI PUSH1 0x0 DUP1 REVERT JUMPDEST PUSH1 0x0 SWAP3 DUP4 CALLDATALOAD PUSH1 0xE0 SHR SWAP1 DUP2 PUSH4 0x177EB1E6 EQ PUSH2 0x351 JUMPI POP DUP1 PUSH4 0x24CBBFC1 EQ PUSH2 0x30F JUMPI DUP1 PUSH4 0x699B328A EQ PUSH2 0x24D JUMPI DUP1 PUSH4 0x6F8EC04F EQ PUSH2 0x212 JUMPI DUP1 PUSH4 0x81E170DE EQ PUSH2 0x1F5 JUMPI DUP1 PUSH4 0x9BC86FEC EQ PUSH2 0x1C9 JUMPI DUP1 PUSH4 0xA60EE268 EQ PUSH2 0x189 JUMPI DUP1 PUSH4 0xEC85427F EQ PUSH2 0x153 JUMPI DUP1 PUSH4 0xF9F1B673 EQ PUSH2 0xD1 JUMPI PUSH4 0xFB476CAD EQ PUSH2 0x91 JUMPI PUSH1 0x0 DUP1 REVERT JUMPDEST CALLVALUE PUSH2 0xCD JUMPI PUSH1 0x20 CALLDATASIZE PUSH1 0x3 NOT ADD SLT PUSH2 0xCD JUMPI PUSH1 0x20 SWAP3 DUP3 SWAP2 CALLDATALOAD DUP1 DUP3 MSTORE PUSH1 0x2 DUP6 MSTORE PUSH2 0xBE PUSH1 0xFF DUP5 DUP5 KECCAK256 SLOAD AND PUSH2 0x36D JUMP JUMPDEST DUP2 MSTORE PUSH1 0x3 DUP5 MSTORE KECCAK256 SLOAD SWAP1 MLOAD SWAP1 DUP2 MSTORE RETURN JUMPDEST DUP3 DUP1 REVERT JUMPDEST POP SWAP1 CALLVALUE PUSH2 0xCD JUMPI PUSH1 0x60 CALLDATASIZE PUSH1 0x3 NOT ADD SLT PUSH2 0xCD JUMPI PUSH1 0x44 CALLDATALOAD SWAP1 PUSH4 0xFFFFFFFF SWAP2 DUP3 DUP2 AND DUP1 SWAP2 SUB PUSH2 0x14F JUMPI PUSH1 0x1 ADD SWAP3 DUP3 DUP5 GT PUSH2 0x13C JUMPI DUP2 MLOAD PUSH1 0x20 DUP2 ADD SWAP1 DUP3 CALLDATALOAD DUP3 MSTORE PUSH1 0x24 CALLDATALOAD DUP5 DUP3 ADD MSTORE DUP4 DUP2 MSTORE PUSH2 0x121 DUP2 PUSH2 0x3B2 JUMP JUMPDEST MLOAD SWAP1 KECCAK256 DUP6 MSTORE PUSH1 0x20 MSTORE DUP4 KECCAK256 SWAP2 AND PUSH4 0xFFFFFFFF NOT DUP3 SLOAD AND OR SWAP1 SSTORE DUP1 RETURN JUMPDEST PUSH4 0x4E487B71 PUSH1 0xE0 SHL DUP6 MSTORE PUSH1 0x11 SWAP1 MSTORE PUSH1 0x24 DUP5 REVERT JUMPDEST DUP5 DUP1 REVERT JUMPDEST POP CALLVALUE PUSH2 0xCD JUMPI DUP2 PUSH1 0x3 NOT CALLDATASIZE ADD SLT PUSH2 0xCD JUMPI CALLDATALOAD DUP3 MSTORE PUSH1 0x2 PUSH1 0x20 MSTORE DUP1 DUP3 KECCAK256 PUSH1 0x1 PUSH1 0xFF NOT DUP3 SLOAD AND OR SWAP1 SSTORE PUSH1 0x3 PUSH1 0x20 MSTORE PUSH1 0x24 CALLDATALOAD SWAP1 DUP3 KECCAK256 SSTORE DUP1 RETURN JUMPDEST POP POP CALLVALUE PUSH2 0x1C5 JUMPI PUSH1 0x20 CALLDATASIZE PUSH1 0x3 NOT ADD SLT PUSH2 0x1C5 JUMPI PUSH1 0x20 SWAP1 MLOAD PUSH32 0x0 DUP2 MSTORE RETURN JUMPDEST POP DUP1 REVERT JUMPDEST POP CALLVALUE PUSH2 0xCD JUMPI PUSH1 0x20 CALLDATASIZE PUSH1 0x3 NOT ADD SLT PUSH2 0xCD JUMPI DUP2 PUSH1 0x20 SWAP4 PUSH1 0xFF SWAP3 CALLDATALOAD DUP2 MSTORE PUSH1 0x2 DUP6 MSTORE KECCAK256 SLOAD AND SWAP1 MLOAD SWAP1 ISZERO ISZERO DUP2 MSTORE RETURN JUMPDEST POP POP CALLVALUE PUSH2 0x1C5 JUMPI DUP2 PUSH1 0x3 NOT CALLDATASIZE ADD SLT PUSH2 0x1C5 JUMPI PUSH1 0x20 SWAP2 SLOAD SWAP1 MLOAD SWAP1 DUP2 MSTORE RETURN JUMPDEST POP POP CALLVALUE PUSH2 0x1C5 JUMPI DUP2 PUSH1 0x3 NOT CALLDATASIZE ADD SLT PUSH2 0x1C5 JUMPI PUSH1 0x20 SWAP1 MLOAD PUSH32 0x0 DUP2 MSTORE RETURN JUMPDEST POP SWAP1 DUP3 PUSH1 0x3 NOT CALLDATASIZE ADD SLT PUSH2 0xCD JUMPI PUSH32 0x0 SWAP2 DUP3 CALLVALUE LT PUSH2 0x2DA JUMPI DUP3 DUP5 SSTORE NUMBER PUSH1 0x1 SSTORE DUP3 CALLVALUE SUB SWAP1 CALLVALUE DUP3 GT PUSH2 0x13C JUMPI POP DUP3 CALLVALUE EQ DUP1 ISZERO PUSH2 0x2AA JUMPI JUMPDEST PUSH1 0x20 DUP5 DUP5 MLOAD SWAP1 DUP2 MSTORE RETURN JUMPDEST DUP5 DUP1 DUP1 SWAP4 DUP2 SWAP4 DUP3 SWAP1 PUSH2 0x2D1 JUMPI JUMPDEST CALLER SWAP1 CALL ISZERO PUSH2 0x2C6 JUMPI DUP3 DUP1 PUSH2 0x2A0 JUMP JUMPDEST MLOAD SWAP2 RETURNDATASIZE SWAP2 POP DUP3 RETURNDATACOPY RETURNDATASIZE SWAP1 REVERT JUMPDEST POP PUSH2 0x8FC PUSH2 0x2B7 JUMP JUMPDEST PUSH1 0x20 PUSH1 0x64 SWAP3 MLOAD SWAP2 PUSH3 0x461BCD PUSH1 0xE5 SHL DUP4 MSTORE DUP3 ADD MSTORE PUSH1 0x10 PUSH1 0x24 DUP3 ADD MSTORE PUSH16 0x696E73756666696369656E7420666565 PUSH1 0x80 SHL PUSH1 0x44 DUP3 ADD MSTORE REVERT JUMPDEST POP CALLVALUE PUSH2 0xCD JUMPI PUSH1 0x60 CALLDATASIZE PUSH1 0x3 NOT ADD SLT PUSH2 0xCD JUMPI CALLDATALOAD SWAP2 PUSH4 0xFFFFFFFF SWAP1 DUP2 DUP5 AND DUP5 SUB PUSH2 0x34E JUMPI POP PUSH2 0x346 PUSH1 0x20 SWAP4 PUSH1 0x44 CALLDATALOAD SWAP1 PUSH1 0x24 CALLDATALOAD SWAP1 PUSH2 0x3E4 JUMP JUMPDEST SWAP2 MLOAD SWAP2 AND DUP2 MSTORE RETURN JUMPDEST DUP1 REVERT JUMPDEST DUP5 SWAP1 CALLVALUE PUSH2 0x1C5 JUMPI DUP2 PUSH1 0x3 NOT CALLDATASIZE ADD SLT PUSH2 0x1C5 JUMPI PUSH1 0x20 SWAP1 PUSH1 0x1 SLOAD DUP2 MSTORE RETURN JUMPDEST ISZERO PUSH2 0x374 JUMPI JUMP JUMPDEST PUSH1 0x40 MLOAD PUSH3 0x461BCD PUSH1 0xE5 SHL DUP2 MSTORE PUSH1 0x20 PUSH1 0x4 DUP3 ADD MSTORE PUSH1 0x16 PUSH1 0x24 DUP3 ADD MSTORE PUSH22 0x72616E646F6D6E65737320756E617661696C61626C65 PUSH1 0x50 SHL PUSH1 0x44 DUP3 ADD MSTORE PUSH1 0x64 SWAP1 REVERT JUMPDEST PUSH1 0x60 DUP2 ADD SWAP1 DUP2 LT PUSH8 0xFFFFFFFFFFFFFFFF DUP3 GT OR PUSH2 0x3CE JUMPI PUSH1 0x40 MSTORE JUMP JUMPDEST PUSH4 0x4E487B71 PUSH1 0xE0 SHL PUSH1 0x0 MSTORE PUSH1 0x41 PUSH1 0x4 MSTORE PUSH1 0x24 PUSH1 0x0 REVERT JUMPDEST SWAP2 PUSH4 0xFFFFFFFF DUP1 SWAP4 AND SWAP2 DUP3 ISZERO PUSH2 0x49D JUMPI PUSH1 0x0 DUP3 DUP2 MSTORE PUSH1 0x2 PUSH1 0x20 MSTORE PUSH1 0x40 SWAP3 PUSH2 0x410 PUSH1 0xFF DUP6 DUP5 KECCAK256 SLOAD AND PUSH2 0x36D JUMP JUMPDEST DUP4 MLOAD PUSH1 0x20 DUP2 ADD SWAP1 DUP3 DUP3 MSTORE DUP5 DUP7 DUP3 ADD MSTORE DUP6 DUP2 MSTORE PUSH2 0x42B DUP2 PUSH2 0x3B2 JUMP JUMPDEST MLOAD SWAP1 KECCAK256 DUP3 MSTORE PUSH1 0x4 PUSH1 0x20 MSTORE DUP6 DUP5 DUP4 KECCAK256 SLOAD AND DUP1 PUSH2 0x46F JUMPI POP SWAP1 DUP4 SWAP2 DUP2 MSTORE PUSH1 0x3 PUSH1 0x20 MSTORE KECCAK256 SLOAD SWAP2 DUP1 MLOAD SWAP2 PUSH1 0x20 DUP4 ADD SWAP4 DUP5 MSTORE DUP2 DUP4 ADD MSTORE DUP2 MSTORE PUSH2 0x467 DUP2 PUSH2 0x3B2 JUMP JUMPDEST MLOAD SWAP1 KECCAK256 MOD AND SWAP1 JUMP JUMPDEST SWAP5 SWAP6 SWAP5 PUSH1 0x0 NOT ADD SWAP4 POP SWAP1 SWAP2 POP POP DUP3 DUP3 GT PUSH2 0x489 JUMPI POP AND MOD SWAP1 JUMP JUMPDEST PUSH4 0x4E487B71 PUSH1 0xE0 SHL DUP2 MSTORE PUSH1 0x11 PUSH1 0x4 MSTORE PUSH1 0x24 SWAP1 REVERT JUMPDEST PUSH1 0x40 MLOAD PUSH3 0x461BCD PUSH1 0xE5 SHL DUP2 MSTORE PUSH1 0x20 PUSH1 0x4 DUP3 ADD MSTORE PUSH1 0xD PUSH1 0x24 DUP3 ADD MSTORE PUSH13 0x696E76616C69642072616E6765 PUSH1 0x98 SHL PUSH1 0x44 DUP3 ADD MSTORE PUSH1 0x64 SWAP1 REVERT INVALID LOG2 PUSH5 0x6970667358 0x22 SLT KECCAK256 0xE3 RETURN 0xC9 BYTE 0x2B 0xBA SWAP10 0xAF LOG1 0x1E 0xB3 SMOD RETURN 0xBE 0xEB RETURN 0xAE TIMESTAMP SWAP13 PUSH25 0x6FBD1D745E9B6B2A848F05EC64736F6C634300081800330000 "},"methodIdentifiers":{"estimateRandomizeFee(uint256)":"a60ee268","getRandomnessAfter(uint256)":"fb476cad","isRandomized(uint256)":"9bc86fec","lastPayment()":"81e170de","lastRandomizeBlock()":"177eb1e6","random(uint32,uint256,uint256)":"24cbbfc1","randomize()":"699b328a","requiredFee()":"6f8ec04f","setRandomValue(uint256,uint256,uint32)":"f9f1b673","setRandomized(uint256,bytes32)":"ec85427f"}}}}}