{"contracts/Xolat.sol":{"Xolat":{"abi":[{"inputs":[{"internalType":"address","name":"usdmAddress","type":"address"},{"internalType":"address","name":"vrfCoordinator","type":"address"},{"internalType":"bytes32","name":"_keyHash","type":"bytes32"},{"internalType":"uint256","name":"subscriptionId","type":"uint256"}],"stateMutability":"nonpayable","type":"constructor"},{"inputs":[],"name":"EnforcedPause","type":"error"},{"inputs":[],"name":"ExpectedPause","type":"error"},{"inputs":[{"internalType":"address","name":"have","type":"address"},{"internalType":"address","name":"want","type":"address"}],"name":"OnlyCoordinatorCanFulfill","type":"error"},{"inputs":[{"internalType":"address","name":"have","type":"address"},{"internalType":"address","name":"owner","type":"address"},{"internalType":"address","name":"coordinator","type":"address"}],"name":"OnlyOwnerOrCoordinator","type":"error"},{"inputs":[],"name":"ReentrancyGuardReentrantCall","type":"error"},{"inputs":[],"name":"ZeroAddress","type":"error"},{"anonymous":false,"inputs":[{"indexed":true,"internalType":"uint256","name":"arenaId","type":"uint256"},{"indexed":true,"internalType":"address","name":"creator","type":"address"},{"indexed":false,"internalType":"uint256","name":"betAmount","type":"uint256"},{"indexed":false,"internalType":"uint8","name":"maxPlayers","type":"uint8"}],"name":"ArenaCreated","type":"event"},{"anonymous":false,"inputs":[{"indexed":true,"internalType":"uint256","name":"arenaId","type":"uint256"},{"indexed":true,"internalType":"address","name":"player","type":"address"},{"indexed":false,"internalType":"uint8","name":"cardIndex","type":"uint8"}],"name":"CardPicked","type":"event"},{"anonymous":false,"inputs":[{"indexed":true,"internalType":"uint256","name":"roundId","type":"uint256"},{"indexed":false,"internalType":"bytes32","name":"commitHash","type":"bytes32"},{"indexed":false,"internalType":"bytes32","name":"vrfRandom","type":"bytes32"}],"name":"CommitRevealed","type":"event"},{"anonymous":false,"inputs":[{"indexed":true,"internalType":"address","name":"player","type":"address"},{"indexed":false,"internalType":"uint256","name":"duration","type":"uint256"}],"name":"CooldownApplied","type":"event"},{"anonymous":false,"inputs":[{"indexed":false,"internalType":"address","name":"vrfCoordinator","type":"address"}],"name":"CoordinatorSet","type":"event"},{"anonymous":false,"inputs":[{"indexed":true,"internalType":"address","name":"from","type":"address"},{"indexed":true,"internalType":"address","name":"to","type":"address"}],"name":"OwnershipTransferRequested","type":"event"},{"anonymous":false,"inputs":[{"indexed":true,"internalType":"address","name":"from","type":"address"},{"indexed":true,"internalType":"address","name":"to","type":"address"}],"name":"OwnershipTransferred","type":"event"},{"anonymous":false,"inputs":[{"indexed":false,"internalType":"address","name":"account","type":"address"}],"name":"Paused","type":"event"},{"anonymous":false,"inputs":[{"indexed":true,"internalType":"address","name":"player","type":"address"}],"name":"PlayerBanned","type":"event"},{"anonymous":false,"inputs":[{"indexed":true,"internalType":"uint256","name":"arenaId","type":"uint256"},{"indexed":true,"internalType":"address","name":"player","type":"address"}],"name":"PlayerJoined","type":"event"},{"anonymous":false,"inputs":[{"indexed":true,"internalType":"uint256","name":"roundId","type":"uint256"},{"indexed":true,"internalType":"address","name":"player","type":"address"},{"indexed":false,"internalType":"uint256","name":"amount","type":"uint256"},{"indexed":false,"internalType":"string","name":"reason","type":"string"}],"name":"RefundProcessed","type":"event"},{"anonymous":false,"inputs":[{"indexed":true,"internalType":"uint256","name":"roundId","type":"uint256"},{"indexed":false,"internalType":"string","name":"serverSeed","type":"string"},{"indexed":false,"internalType":"string","name":"clientSeed","type":"string"},{"indexed":false,"internalType":"uint256","name":"nonce","type":"uint256"}],"name":"SeedRevealed","type":"event"},{"anonymous":false,"inputs":[{"indexed":true,"internalType":"address","name":"player","type":"address"},{"indexed":false,"internalType":"uint256","name":"betAmount","type":"uint256"},{"indexed":false,"internalType":"uint8","name":"cardIndex","type":"uint8"},{"indexed":false,"internalType":"uint256","name":"roundId","type":"uint256"}],"name":"SoloPlayed","type":"event"},{"anonymous":false,"inputs":[{"indexed":false,"internalType":"address","name":"account","type":"address"}],"name":"Unpaused","type":"event"},{"anonymous":false,"inputs":[{"indexed":true,"internalType":"uint256","name":"roundId","type":"uint256"},{"indexed":true,"internalType":"uint256","name":"vrfRequestId","type":"uint256"},{"indexed":true,"internalType":"address","name":"requester","type":"address"}],"name":"VRFRequested","type":"event"},{"anonymous":false,"inputs":[{"indexed":true,"internalType":"uint256","name":"roundId","type":"uint256"},{"indexed":true,"internalType":"uint256","name":"vrfRequestId","type":"uint256"}],"name":"VRFTimeoutTriggered","type":"event"},{"anonymous":false,"inputs":[{"indexed":true,"internalType":"uint256","name":"roundId","type":"uint256"},{"indexed":true,"internalType":"address","name":"winner","type":"address"},{"indexed":false,"internalType":"uint256","name":"payout","type":"uint256"},{"indexed":false,"internalType":"string","name":"reason","type":"string"}],"name":"WinnerPaid","type":"event"},{"inputs":[],"name":"acceptOwnership","outputs":[],"stateMutability":"nonpayable","type":"function"},{"inputs":[{"internalType":"address","name":"player","type":"address"}],"name":"applyCooldown","outputs":[],"stateMutability":"nonpayable","type":"function"},{"inputs":[],"name":"arenaCount","outputs":[{"internalType":"uint256","name":"","type":"uint256"}],"stateMutability":"view","type":"function"},{"inputs":[{"internalType":"uint256","name":"","type":"uint256"}],"name":"arenas","outputs":[{"internalType":"uint256","name":"arenaId","type":"uint256"},{"internalType":"uint256","name":"betAmount","type":"uint256"},{"internalType":"uint8","name":"maxPlayers","type":"uint8"},{"internalType":"uint8","name":"playerCount","type":"uint8"},{"internalType":"bool","name":"settled","type":"bool"},{"internalType":"address","name":"winner","type":"address"},{"internalType":"uint256","name":"createdAt","type":"uint256"}],"stateMutability":"view","type":"function"},{"inputs":[{"internalType":"address","name":"player","type":"address"}],"name":"ban","outputs":[],"stateMutability":"nonpayable","type":"function"},{"inputs":[{"internalType":"address","name":"","type":"address"}],"name":"blacklist","outputs":[{"internalType":"bool","name":"","type":"bool"}],"stateMutability":"view","type":"function"},{"inputs":[{"internalType":"uint256","name":"roundId","type":"uint256"}],"name":"checkVRFTimeout","outputs":[],"stateMutability":"nonpayable","type":"function"},{"inputs":[],"name":"cooldownDuration","outputs":[{"internalType":"uint256","name":"","type":"uint256"}],"stateMutability":"view","type":"function"},{"inputs":[{"internalType":"uint256","name":"betAmount","type":"uint256"},{"internalType":"uint8","name":"maxPlayers","type":"uint8"}],"name":"createArena","outputs":[{"internalType":"uint256","name":"arenaId","type":"uint256"}],"stateMutability":"nonpayable","type":"function"},{"inputs":[{"internalType":"address","name":"","type":"address"}],"name":"dailyBetTotal","outputs":[{"internalType":"uint256","name":"","type":"uint256"}],"stateMutability":"view","type":"function"},{"inputs":[{"internalType":"uint256","name":"arenaId","type":"uint256"}],"name":"getArena","outputs":[{"internalType":"uint256","name":"","type":"uint256"},{"internalType":"uint256","name":"","type":"uint256"},{"internalType":"uint8","name":"","type":"uint8"},{"internalType":"uint8","name":"","type":"uint8"},{"internalType":"bool","name":"","type":"bool"},{"internalType":"address","name":"","type":"address"},{"internalType":"uint256","name":"","type":"uint256"},{"internalType":"address[]","name":"","type":"address[]"}],"stateMutability":"view","type":"function"},{"inputs":[{"internalType":"uint256","name":"roundId","type":"uint256"}],"name":"getCommitHash","outputs":[{"internalType":"bytes32","name":"","type":"bytes32"}],"stateMutability":"view","type":"function"},{"inputs":[{"internalType":"address","name":"player","type":"address"}],"name":"getPlayerStats","outputs":[{"components":[{"internalType":"uint256","name":"totalWonUsdm","type":"uint256"},{"internalType":"uint256","name":"totalPlayed","type":"uint256"},{"internalType":"uint256","name":"dailyBetTotal","type":"uint256"},{"internalType":"uint256","name":"lastBetDate","type":"uint256"},{"internalType":"string","name":"rank","type":"string"},{"internalType":"bool","name":"isBanned","type":"bool"},{"internalType":"uint256","name":"recentLosses","type":"uint256"},{"internalType":"uint256","name":"lastLossTime","type":"uint256"}],"internalType":"struct Xolat.PlayerStats","name":"","type":"tuple"}],"stateMutability":"view","type":"function"},{"inputs":[{"internalType":"uint256","name":"roundId","type":"uint256"}],"name":"getRound","outputs":[{"components":[{"internalType":"uint256","name":"roundId","type":"uint256"},{"internalType":"string","name":"roundType","type":"string"},{"internalType":"address","name":"player","type":"address"},{"internalType":"uint256","name":"arenaId","type":"uint256"},{"internalType":"bytes32","name":"commitHash","type":"bytes32"},{"internalType":"string","name":"serverSeed","type":"string"},{"internalType":"string","name":"clientSeed","type":"string"},{"internalType":"uint256","name":"nonce","type":"uint256"},{"internalType":"bytes32","name":"vrfRandom","type":"bytes32"},{"internalType":"uint256[]","name":"numbers","type":"uint256[]"},{"internalType":"address","name":"winnerAddress","type":"address"},{"internalType":"uint256","name":"potUsdm","type":"uint256"},{"internalType":"string","name":"txHash","type":"string"},{"internalType":"uint256","name":"vrfRequestId","type":"uint256"},{"internalType":"string","name":"status","type":"string"},{"internalType":"uint256","name":"createdAt","type":"uint256"}],"internalType":"struct Xolat.Round","name":"","type":"tuple"}],"stateMutability":"view","type":"function"},{"inputs":[{"internalType":"uint256","name":"roundId","type":"uint256"}],"name":"getVRFRandom","outputs":[{"internalType":"bytes32","name":"","type":"bytes32"}],"stateMutability":"view","type":"function"},{"inputs":[{"internalType":"uint256","name":"requestId","type":"uint256"}],"name":"getVRFRequest","outputs":[{"components":[{"internalType":"uint256","name":"requestId","type":"uint256"},{"internalType":"uint256","name":"roundId","type":"uint256"},{"internalType":"uint256","name":"requestedAt","type":"uint256"},{"internalType":"bool","name":"fulfilled","type":"bool"},{"internalType":"bytes32","name":"vrfRandom","type":"bytes32"}],"internalType":"struct Xolat.VRFRequest","name":"","type":"tuple"}],"stateMutability":"view","type":"function"},{"inputs":[{"internalType":"address","name":"player","type":"address"}],"name":"isPlayerBanned","outputs":[{"internalType":"bool","name":"","type":"bool"}],"stateMutability":"view","type":"function"},{"inputs":[{"internalType":"uint256","name":"arenaId","type":"uint256"}],"name":"joinArena","outputs":[],"stateMutability":"nonpayable","type":"function"},{"inputs":[],"name":"keyHash","outputs":[{"internalType":"bytes32","name":"","type":"bytes32"}],"stateMutability":"view","type":"function"},{"inputs":[],"name":"lossesBeforeCooldown","outputs":[{"internalType":"uint256","name":"","type":"uint256"}],"stateMutability":"view","type":"function"},{"inputs":[],"name":"maxBetPerDay","outputs":[{"internalType":"uint256","name":"","type":"uint256"}],"stateMutability":"view","type":"function"},{"inputs":[],"name":"maxBetPerTx","outputs":[{"internalType":"uint256","name":"","type":"uint256"}],"stateMutability":"view","type":"function"},{"inputs":[],"name":"owner","outputs":[{"internalType":"address","name":"","type":"address"}],"stateMutability":"view","type":"function"},{"inputs":[],"name":"pause","outputs":[],"stateMutability":"nonpayable","type":"function"},{"inputs":[],"name":"paused","outputs":[{"internalType":"bool","name":"","type":"bool"}],"stateMutability":"view","type":"function"},{"inputs":[{"internalType":"uint256","name":"arenaId","type":"uint256"},{"internalType":"uint8","name":"cardIndex","type":"uint8"}],"name":"pickCard","outputs":[],"stateMutability":"nonpayable","type":"function"},{"inputs":[{"internalType":"uint256","name":"gameId","type":"uint256"},{"internalType":"uint8","name":"cardIndex","type":"uint8"}],"name":"pickSoloCard","outputs":[],"stateMutability":"nonpayable","type":"function"},{"inputs":[{"internalType":"address","name":"","type":"address"}],"name":"playerStats","outputs":[{"internalType":"uint256","name":"totalWonUsdm","type":"uint256"},{"internalType":"uint256","name":"totalPlayed","type":"uint256"},{"internalType":"uint256","name":"dailyBetTotal","type":"uint256"},{"internalType":"uint256","name":"lastBetDate","type":"uint256"},{"internalType":"string","name":"rank","type":"string"},{"internalType":"bool","name":"isBanned","type":"bool"},{"internalType":"uint256","name":"recentLosses","type":"uint256"},{"internalType":"uint256","name":"lastLossTime","type":"uint256"}],"stateMutability":"view","type":"function"},{"inputs":[{"internalType":"uint256","name":"requestId","type":"uint256"},{"internalType":"uint256[]","name":"randomWords","type":"uint256[]"}],"name":"rawFulfillRandomWords","outputs":[],"stateMutability":"nonpayable","type":"function"},{"inputs":[{"internalType":"uint256","name":"arenaId","type":"uint256"}],"name":"refundAllArena","outputs":[],"stateMutability":"nonpayable","type":"function"},{"inputs":[{"internalType":"uint256","name":"roundId","type":"uint256"},{"internalType":"string","name":"serverSeed","type":"string"},{"internalType":"string","name":"clientSeed","type":"string"},{"internalType":"uint256","name":"nonce","type":"uint256"}],"name":"revealSeeds","outputs":[],"stateMutability":"nonpayable","type":"function"},{"inputs":[{"internalType":"uint256","name":"roundId","type":"uint256"}],"name":"roundVrfMap","outputs":[{"internalType":"uint256","name":"vrfRequestId","type":"uint256"}],"stateMutability":"view","type":"function"},{"inputs":[{"internalType":"uint256","name":"","type":"uint256"}],"name":"rounds","outputs":[{"internalType":"uint256","name":"roundId","type":"uint256"},{"internalType":"string","name":"roundType","type":"string"},{"internalType":"address","name":"player","type":"address"},{"internalType":"uint256","name":"arenaId","type":"uint256"},{"internalType":"bytes32","name":"commitHash","type":"bytes32"},{"internalType":"string","name":"serverSeed","type":"string"},{"internalType":"string","name":"clientSeed","type":"string"},{"internalType":"uint256","name":"nonce","type":"uint256"},{"internalType":"bytes32","name":"vrfRandom","type":"bytes32"},{"internalType":"address","name":"winnerAddress","type":"address"},{"internalType":"uint256","name":"potUsdm","type":"uint256"},{"internalType":"string","name":"txHash","type":"string"},{"internalType":"uint256","name":"vrfRequestId","type":"uint256"},{"internalType":"string","name":"status","type":"string"},{"internalType":"uint256","name":"createdAt","type":"uint256"}],"stateMutability":"view","type":"function"},{"inputs":[],"name":"s_subscriptionId","outputs":[{"internalType":"uint256","name":"","type":"uint256"}],"stateMutability":"view","type":"function"},{"inputs":[],"name":"s_vrfCoordinator","outputs":[{"internalType":"contract IVRFCoordinatorV2Plus","name":"","type":"address"}],"stateMutability":"view","type":"function"},{"inputs":[{"internalType":"uint256","name":"duration","type":"uint256"},{"internalType":"uint256","name":"losses","type":"uint256"}],"name":"setCooldownParams","outputs":[],"stateMutability":"nonpayable","type":"function"},{"inputs":[{"internalType":"address","name":"_vrfCoordinator","type":"address"}],"name":"setCoordinator","outputs":[],"stateMutability":"nonpayable","type":"function"},{"inputs":[{"internalType":"uint256","name":"perTx","type":"uint256"},{"internalType":"uint256","name":"perDay","type":"uint256"}],"name":"setMaxBet","outputs":[],"stateMutability":"nonpayable","type":"function"},{"inputs":[{"internalType":"uint256","name":"timeoutSeconds","type":"uint256"}],"name":"setVRFTimeout","outputs":[],"stateMutability":"nonpayable","type":"function"},{"inputs":[{"internalType":"uint256","name":"roundId","type":"uint256"},{"internalType":"address","name":"winner","type":"address"}],"name":"settleRound","outputs":[],"stateMutability":"nonpayable","type":"function"},{"inputs":[{"internalType":"uint256","name":"betAmount","type":"uint256"}],"name":"startSoloGame","outputs":[{"internalType":"uint256","name":"roundId","type":"uint256"}],"stateMutability":"nonpayable","type":"function"},{"inputs":[{"internalType":"address","name":"to","type":"address"}],"name":"transferOwnership","outputs":[],"stateMutability":"nonpayable","type":"function"},{"inputs":[{"internalType":"address","name":"player","type":"address"}],"name":"unban","outputs":[],"stateMutability":"nonpayable","type":"function"},{"inputs":[],"name":"unpause","outputs":[],"stateMutability":"nonpayable","type":"function"},{"inputs":[],"name":"usdm","outputs":[{"internalType":"contract IERC20","name":"","type":"address"}],"stateMutability":"view","type":"function"},{"inputs":[],"name":"vrfRequestTimeout","outputs":[{"internalType":"uint256","name":"","type":"uint256"}],"stateMutability":"view","type":"function"},{"inputs":[{"internalType":"uint256","name":"requestId","type":"uint256"}],"name":"vrfRequests","outputs":[{"internalType":"uint256","name":"requestId","type":"uint256"},{"internalType":"uint256","name":"roundId","type":"uint256"},{"internalType":"uint256","name":"requestedAt","type":"uint256"},{"internalType":"bool","name":"fulfilled","type":"bool"},{"internalType":"bytes32","name":"vrfRandom","type":"bytes32"}],"stateMutability":"view","type":"function"}],"evm":{"bytecode":{"linkReferences":{},"object":"60e0346200029957601f62003cf738819003918201601f191683019291906001600160401b038411838510176200029e57816080928492604096875283398101031262000299576200005181620002b4565b906200006060208201620002b4565b6060848301519201519260017f9b779b17422d0df92223018b32b4d1fa46e071723d6817e2486d003becc55f00553315620002555760008054610100600160a81b0319163360081b610100600160a81b03161790556001600160a01b0391821680156200024457600280546001600160a01b0319169190911790556801158e460913d0000060035568056bc75e2d63100000600455610e10600655600560075561012c60085516801562000200578115620001ca578215620001865760805260c05260a05251613a2d9081620002ca823960805181818161056901528181610f590152818161119201528181611453015281816133720152818161344b0152613819015260a0518181816107e20152611cac015260c0518181816107b801526122a50152f35b835162461bcd60e51b815260206004820152601760248201527f696e76616c696420737562736372697074696f6e2049440000000000000000006044820152606490fd5b835162461bcd60e51b815260206004820152600f60248201526e0d2dcecc2d8d2c840d6caf290c2e6d608b1b6044820152606490fd5b835162461bcd60e51b815260206004820152601460248201527f696e76616c6964205553444d20616464726573730000000000000000000000006044820152606490fd5b855163d92e233d60e01b8152600490fd5b845162461bcd60e51b815260206004820152601860248201527f43616e6e6f7420736574206f776e657220746f207a65726f00000000000000006044820152606490fd5b600080fd5b634e487b7160e01b600052604160045260246000fd5b51906001600160a01b0382168203620002995756fe608080604052600436101561001357600080fd5b60003560e01c9081630fb58b0914612c76575080631a1d925214612c195780631a8425b414612b115780631fe543e3146128275780632bbf12741461278c578063352693151461276e5780633c580d5d1461270b5780633f4ba83a146126a1578063410ddaca1461255d5780634fd66eae1461242057806351a667ca146122eb5780635c975abb146122c857806361728f391461228d57806365c1c6301461226f57806366951131146122355780636e3288a214610224578063712fb12114611fc657806374b0693814611fa8578063794687d714611f8a57806379ba509714611ec65780638456cb5914611e6c57806384f4319c14611def578063858d9da214611ccf5780638ac0002114611c945780638c65c81f14611af85780638da5cb5b14611acb5780638ea9811714611a015780638f1327c0146116c757806392d53a67146115af5780639409d75c14611406578063951b60a41461138b57806397c3ccd81461130a5780639918965f146112ec5780639b795a00146112ce5780639d997b8214610daa5780639eccacf614610d81578063b9f1455714610d29578063c03daa4d14610c62578063c1e582ba14610bae578063cdafbbb614610afa578063ed28b379146105c7578063edfe721614610598578063ee138d0f14610553578063f2fde38b14610498578063f6b3a00a146102a0578063f83674bc146102685763f9f92be41461022457600080fd5b34610263576020366003190112610263576001600160a01b03610245612c9e565b16600052600d602052602060ff604060002054166040519015158152f35b600080fd5b346102635760203660031901126102635761028161370c565b61028c600435613161565b60016000805160206139d883398151915255005b346102635760208060031936011261026357600435906102be6136ee565b6102c661370c565b33600052600d815260ff906102e2826040600020541615612ecb565b82600052600b8152604060002060028101908154848160081c16801515908161048c575b50156104535760101c841661041657600060048201938454915b8281106103b65750505060016103389101543361373c565b8054838160081c169384146103a05761ff006001610365950160081b169061ff0019161790553390612f7e565b33907f87969bc7faf902221a147b95ceba76e011c5efb0339a0a8ee7a2bb82d9cfbbd6600080a360016000805160206139d883398151915255005b634e487b7160e01b600052601160045260246000fd5b6103c08187612f50565b905460039190911b1c6001600160a01b031633146103e057600101610320565b60405162461bcd60e51b815260048101839052600e60248201526d185b1c9958591e481a9bda5b995960921b6044820152606490fd5b60405162461bcd60e51b8152600481018490526015602482015274185c995b9848185b1c9958591e481cd95d1d1b1959605a1b6044820152606490fd5b60405162461bcd60e51b81526004810185905260116024820152706172656e6120756e617661696c61626c6560781b6044820152606490fd5b90508582161187610306565b34610263576020366003190112610263576104b1612c9e565b6104b9613699565b6001600160a01b039081169033821461050e57816001600160601b0360a01b600154161760015560005460081c167fed8889f560326eb138920d842192f0eb3dd22b4f139c87a2c57538e05bae1278600080a3005b60405162461bcd60e51b815260206004820152601760248201527f43616e6e6f74207472616e7366657220746f2073656c660000000000000000006044820152606490fd5b34610263576000366003190112610263576040517f00000000000000000000000000000000000000000000000000000000000000006001600160a01b03168152602090f35b3461026357602036600319011261026357600435600052600f6020526020600460406000200154604051908152f35b34610263576105d536612cb4565b6105dd6136ee565b3360005260ff602091600d83526105fb826040600020541615612ecb565b16906002821015610ac75782600052600f815260406000209060018060a01b0392338460028501541603610a9257600e83019260405193838501848152856106466040820184612d7c565b039561065a601f1997888101835282612e84565b5190206040518581019061067d8161067184612fb9565b03898101835282612e84565b51902014159081610a1d575b50156109eb57600b015490604051918252828201528460408201527f74e6cd5d5d8fda41d1dfe0a2b03c42d613de1e32c1758c97c3ce0397579608f160603392a283600052600f81526040600020926106e484541515612fdd565b600e84019260405161071084820192858452826107046040820189612d7c565b03908101835282612e84565b51902060405183810190848252600760408201526618dc99585d195960ca1b60608201526060815261074181612e68565b519020036109b05760025416916040518281019067ffffffffffffffff918181108382111761099a57604052600081526040519063125fa26760e31b8583015251151560248201526024815260608101948186108387111761099a5761012082019283118684101761099a5761ffff9585936040527f00000000000000000000000000000000000000000000000000000000000000008152600060808401917f0000000000000000000000000000000000000000000000000000000000000000835261087f60a08601956003875260c0810162030d40815260e08201906001825261010083019283526040519c8d998a988997634d8e1c2f60e11b89528d60048a015251602489015251604488015251166064860152519063ffffffff8092166084860152511660a48401525160c060c484015260e4830190612cd4565b03925af192831561098e5760009361095e575b5082600d600a949501556108af6108a98254612d42565b82613032565b60186b1d9c9994995c5d595cdd195960a21b0190556040516108d081612e4c565b8381526004828201868152604083014281526060840190600082526080850192600084528860005260098752604060002095518655516001860155516002850155600384019051151560ff801983541691161790555191015583600052528060406000205533917f880843155b7746c27070546db058be7d284e0b3dfa715945eeaf2cc08a896518600080a4005b92508183813d8311610987575b6109758183612e84565b8101031261026357915191600d610892565b503d61096b565b6040513d6000823e3d90fd5b634e487b7160e01b600052604160045260246000fd5b60405162461bcd60e51b8152600481018390526013602482015272696e76616c696420726f756e6420737461746560681b6044820152606490fd5b60405162461bcd60e51b815260048101849052600a60248201526919d85b5948195b99195960b21b6044820152606490fd5b9050604051610a4681610a3a878201948886526040830190612d7c565b03878101835282612e84565b51902060405184810190610a8781610a7b846060906020815260086020820152671c99599d5b99195960c21b60408201520190565b03888101835282612e84565b519020141587610689565b60405162461bcd60e51b815260048101839052600d60248201526c6e6f7420796f75722067616d6560981b6044820152606490fd5b6064906040519062461bcd60e51b82526004820152600c60248201526b1a5b9d985b1a590818d85c9960a21b6044820152fd5b34610263576020366003190112610263576001600160a01b03610b1b612c9e565b16600052600e60205260406000208054600182015490600283015492600381015490610b98604051610b5b81610b548160048701612d7c565b0382612e84565b60ff600584015416946007600685015494015494604051988998610100938a5260208a015260408901526060880152806080880152860190612cd4565b92151560a085015260c084015260e08301520390f35b346102635760203660031901126102635760006080604051610bcf81612e4c565b8281528260208201528260408201528260608201520152600435600052600960205260a06040600020604051610c0481612e4c565b815491828252600181015460208301908152600282015490604084019182526080600460ff60038601541694606087019515158652015494019384526040519485525160208501525160408401525115156060830152516080820152f35b3461026357610c7036612ea6565b90610c79613699565b80151580610d20575b15610cdb57808210610c9657600355600455005b60405162461bcd60e51b815260206004820152601f60248201527f6461696c79206c696d6974206d757374206265203e3d207478206c696d6974006044820152606490fd5b60405162461bcd60e51b815260206004820152601b60248201527f626574206c696d697473206d75737420626520706f73697469766500000000006044820152606490fd5b50811515610c82565b3461026357602036600319011261026357610d42612c9e565b610d4a613699565b60018060a01b0316600052600d602052604060002060ff1990818154169055600e6020526005604060002001908154169055600080f35b34610263576000366003190112610263576002546040516001600160a01b039091168152602090f35b34610263576040366003190112610263576001600160a01b0360248035828116926004359284830361026357610dde613699565b610de661370c565b83600052602091600f83526040600020610e0281541515612fdd565b600e81016040519085820186815282610e1e6040820184612d7c565b0392610e32601f1994858101835282612e84565b51902060405187810190610e7381610e67846060906020815260086020820152671c995d99585b195960c21b60408201520190565b03868101835282612e84565b5190200361129557881561126057600a8301896001600160601b0360a01b825416179055610ea46108a98254612d42565b60126818dbdb5c1b195d195960ba1b019055604051610ed486820192878452826107046040820160018801612d7c565b5190206040518581019086825260056040820152646172656e6160d81b606082015260608152610f0381612e68565b5190200361113f57600b015490605f8202828104605f148315171561112a57606490049485830392831161112a5760405163a9059cbb60e01b8082526001600160a01b03929092166004820152602481018790527f00000000000000000000000000000000000000000000000000000000000000008316929086816044816000885af190811561098e5760009161110d575b50156110d0576000805460405193845260081c919091166001600160a01b03166004830152602482019390935291849183918290816044810103925af190811561098e576000916110a3575b501561106057507f76e3932ab627fbf797df82027f96467d2db24b01f1863446b10447eb72d64cf29160406080925b86600052600e815281600020611027848254613154565b90558151928352820152600a6040820152691cd95d1d1b195b595b9d60b21b6060820152a360016000805160206139d883398151915255005b9060196064926040519262461bcd60e51b845260048401528201527f6f776e657220666565207472616e73666572206661696c6564000000000000006044820152fd5b6110c39150833d85116110c9575b6110bb8183612e84565b810190613100565b86610fe1565b503d6110b1565b60405162461bcd60e51b815260048101879052601681870152751dda5b9b995c881d1c985b9cd9995c8819985a5b195960521b6044820152606490fd5b6111249150873d89116110c9576110bb8183612e84565b8a610f95565b83634e487b7160e01b60005260116004526000fd5b600b90949194015460c381029080820460c3149015171561124b5760405163a9059cbb60e01b81526001600160a01b039290921660048301526064900460248201819052938390829060449082906000907f0000000000000000000000000000000000000000000000000000000000000000165af190811561098e5760009161122e575b50156111f657507f76e3932ab627fbf797df82027f96467d2db24b01f1863446b10447eb72d64cf2916040608092611010565b9060126064926040519262461bcd60e51b84526004840152820152711cdbdb1bc81c185e5bdd5d0819985a5b195960721b6044820152fd5b6112459150833d85116110c9576110bb8183612e84565b866111c3565b82634e487b7160e01b60005260116004526000fd5b60405162461bcd60e51b815260048101879052600e818701526d34b73b30b634b2103bb4b73732b960911b6044820152606490fd5b60405162461bcd60e51b815260048101879052601281870152711c9bdd5b99081b9bdd081c995d99585b195960721b6044820152606490fd5b34610263576000366003190112610263576020600454604051908152f35b34610263576000366003190112610263576020600354604051908152f35b3461026357602036600319011261026357611323612c9e565b61132b613699565b60018060a01b031680600052600d602052604060002060ff1990600182825416179055600e60205260016005604060002001918254161790557fe9668cca25138ad3c67ec987cb4843e582d8b30a9b47338c21b2c18ade516454600080a2005b346102635761139936612ea6565b906113a2613699565b801515806113fd575b156113b857600655600755005b60405162461bcd60e51b815260206004820152601760248201527f706172616d73206d75737420626520706f7369746976650000000000000000006044820152606490fd5b508115156113ab565b346102635760208060031936011261026357611420613699565b61142861370c565b600435600052600b81526040600020611443815415156130c2565b6000916001906001600160a01b037f0000000000000000000000000000000000000000000000000000000000000000811691908484019060048601855b6114ac575b60028701805462ff000019166201000017905560016000805160206139d883398151915255005b80969596548810156115a75787826114c961150598999a84612f50565b90549060031b1c1690858554604051809a819263a9059cbb60e01b8352866004840160209093929193604081019460018060a01b031681520152565b038160008b5af191821561098e576115298b99938a9460009161158a575b50613118565b60007f9b4b9fe42e556d768a938a82696607b338f22ed4a51cd053ce2559efc1616a5a6080885460405190815260408b8201526016604082015275195b595c99d95b98de48185c995b98481c99599d5b9960521b6060820152a30197611480565b6115a19150893d8b116110c9576110bb8183612e84565b8d611523565b859650611485565b34610263576020366003190112610263576004356115cb6136ee565b6115d361370c565b33600052600d6020526115ee60ff6040600020541615612ecb565b6115f9811515612f0d565b611603813361373c565b6000194301904382116103a057600e602092604051848101914283523360601b60408301524060548201526054815261163b81612e68565b5190209182600052600f8452604060002090838255600182016116616108a98254612d42565b600863736f6c6f60e01b0190556002820180546001600160a01b03191633179055600b82015542600f82015501805461169d906108a990612d42565b600e6618dc99585d195960ca1b01905560016000805160206139d883398151915255604051908152f35b346102635760203660031901126102635760006101e06040516116e981612e2f565b82815260606020820152826040820152826060820152826080820152606060a0820152606060c08201528260e082015282610100820152606061012082015282610140820152826101608201526060610180820152826101a082015260606101c08201520152600435600052600f602052604060002060405161176b81612e2f565b8154815260405161178381610b548160018701612d7c565b602082015260028201546001600160a01b03166040808301919091526003830154606083015260048301546080830152516117c581610b548160058701612d7c565b60a08201526040516117de81610b548160068701612d7c565b60c0820152600782015460e082015260088201546101008201526009820191604051806020855491828152019460005260206000209060005b8181106119eb5750505061183081600f94950382612e84565b610120840152600a8101546001600160a01b0316610140840152600b81015461016084015260405161186981610b5481600c8601612d7c565b610180840152600d8101546101a084015260405161188e81610b5481600e8601612d7c565b6101c084015201546101e0820152604051602081528151602082015261191d6119076118cb60208501516102006040860152610220850190612cd4565b60018060a01b03604086015116606085015260608501516080850152608085015160a085015260a0850151601f198583030160c0860152612cd4565b60c0840151838203601f190160e0850152612cd4565b9160e081015161010083015261010081015161012083015261012081015192601f19838203016101408401526020808551928381520194019060005b8181106119d5575050506101e06119c86119a6849560018060a01b0361014086015116610160870152610160850151610180870152610180850151601f19878303016101a0880152612cd4565b6101a08401516101c08601526101c0840151601f198683030184870152612cd4565b9101516102008301520390f35b8251865260209586019590920191600101611959565b8254875260209096019560019283019201611817565b3461026357602036600319011261026357611a1a612c9e565b6000546001600160a01b03919060081c82163381141580611abd575b611a955750168015611a83576020817fd1a6a14209a385a964d036e404cb5cfb71f4000cdb03c9366292430787261be6926001600160601b0360a01b6002541617600255604051908152a1005b60405163d92e233d60e01b8152600490fd5b60649083600254166040519163061db9c160e01b835233600484015260248301526044820152fd5b508260025416331415611a36565b346102635760003660031901126102635760005460405160089190911c6001600160a01b03168152602090f35b3461026357602036600319011261026357600435600052600f60205260406000208054906040519081806001830190611b3091612d7c565b03611b3b9083612e84565b60028101546003820154600483015460405191939290916001600160a01b03918216919080611b6d8160058801612d7c565b03611b789082612e84565b60405180611b898160068901612d7c565b03611b949082612e84565b600786015492600887015490600a8801541691600b88015493604051968780600c8c0190611bc191612d7c565b03611bcc9089612e84565b600d8a0154986040519a8b80600e830190611be691612d7c565b03611bf1908d612e84565b600f01549b6040519e8f9e8f916101e09083528060208401528201611c1591612cd4565b9360408201526060015260808d01528b810360a08d0152611c3591612cd4565b8a810360c08c0152611c4691612cd4565b9360e08a0152610100890152610120880152610140870152858103610160870152611c7091612cd4565b906101808501528381036101a0850152611c8991612cd4565b906101c08301520390f35b346102635760003660031901126102635760206040517f00000000000000000000000000000000000000000000000000000000000000008152f35b3461026357611cdd36612cb4565b90611ce66136ee565b3360005260ff602092600d8452611d04826040600020541615612ecb565b16916004831015611db65781600052600b8152604060002060ff6002820154611d33828260081c1615156130c2565b60101c16611d81579060057f66cee2873c9d4f051647de1b983be68fc0860d323d4ff6594c7d622ca213bc3f923360005201815260406000208460ff198254161790556040519384523393a3005b60405162461bcd60e51b815260048101839052600d60248201526c185c995b98481cd95d1d1b1959609a1b6044820152606490fd5b6064906040519062461bcd60e51b8252600482015260126024820152710d2dcecc2d8d2c840c6c2e4c840d2dcc8caf60731b6044820152fd5b3461026357602036600319011261026357600435600052600b60205260e060406000208054906001810154906003600282015491015491604051938452602084015260ff8116604084015260ff8160081c16606084015260ff8160101c161515608084015260018060a01b039060181c1660a083015260c0820152f35b3461026357600036600319011261026357611e85613699565b611e8d6136ee565b600160ff1960005416176000557f62e78cea01bee320cd4e420270b5ea74000d11b0c9f74754ebdbfc544b05a2586020604051338152a1005b34610263576000366003190112610263576001546001600160a01b038082163303611f4c5760008054610100600160a81b0319811633600881811b610100600160a81b03169290921784556001600160a01b03199095166001551c91909116907f8be0079c531659141344cd1fd0a4f28419497f9722a3daafe3b4186f6b6457e09080a3005b60405162461bcd60e51b815260206004820152601660248201527526bab9ba10313290383937b837b9b2b21037bbb732b960511b6044820152606490fd5b34610263576000366003190112610263576020600854604051908152f35b34610263576000366003190112610263576020600554604051908152f35b346102635760803660031901126102635767ffffffffffffffff60043560243582811161026357611ffb903690600401612d14565b60443584811161026357612013903690600401612d14565b6064359161201f613699565b85600052602096600f885260406000209061203c82541515612fdd565b6005820181871161099a5761205b876120558354612d42565b8361305c565b866000601f82116001146121ce576000916121c3575b508760011b906000198960031b1c19161790555b6006820190841161099a5761209e846120558354612d42565b6000601f851160011461213257600785937f431e05890b19757a3e2c8fcc029f9cba75796d3f867432c8aca4908a867c2a129a9b959361211c978994600091612127575b508660011b906000198860031b1c19161790555b015561210f6040519788976060895260608901916130a1565b92868403908701526130a1565b9060408301520390a2005b90508501358e6120e2565b601f19851690826000528a6000209160005b8181106121ac5750937f431e05890b19757a3e2c8fcc029f9cba75796d3f867432c8aca4908a867c2a129a9b959388936007938961211c9a9810612192575b5050600186811b0190556120f6565b860135600019600389901b60f8161c191690558d80612183565b91928c60018192868a013581550194019201612144565b90508801358b612071565b60008381528c812092508990601f198216908e5b8d83831061221c5750505010612202575b5050600187811b019055612085565b89013560001960038a901b60f8161c191690558a806121f3565b8501358655600190950194938401938c9350018e6121e2565b34610263576020366003190112610263576001600160a01b03612256612c9e565b16600052600c6020526020604060002054604051908152f35b34610263576000366003190112610263576020600754604051908152f35b346102635760003660031901126102635760206040517f00000000000000000000000000000000000000000000000000000000000000008152f35b3461026357600036600319011261026357602060ff600054166040519015158152f35b346102635760208060031936011261026357600435600052600f81526040600020600e8101604051838101848152816123276040820185612d7c565b039161233b601f1993848101835282612e84565b5190206040518581019061237c81612370846060906020815260086020820152671c995d99585b195960c21b60408201520190565b03858101835282612e84565b519020149182156123d3575b50501561239b5760080154604051908152f35b60405162461bcd60e51b815260048101839052601060248201526f1d9c99881b9bdd081c995d99585b195960821b6044820152606490fd5b9091506040516123fd816123f1878201948886526040830190612d7c565b03848101835282612e84565b51902090604051612415858201928261070485612fb9565b519020148380612388565b34610263576020806003193601126102635761243a612c9e565b600060e060405161244a81612e12565b8281528285820152826040820152826060820152606060808201528260a08201528260c0820152015260018060a01b0316600052600e815260406000206040519061249482612e12565b8054825260018101549083830191825260028101549160408401928352600382015460608501908152604051906124d9826124d28160048801612d7c565b0383612e84565b6080860191825260ff6005850154169460a087019515158652600760068601549560c0890196875201549360e08801948552604051988998818a5251908901525160408801525160608701525160808601525191612545610100938460a0880152610120870190612cd4565b9351151560c08601525160e085015251908301520390f35b346102635760ff61256d36612cb4565b6125789291926136ee565b61258061370c565b33600052600d60205261259a826040600020541615612ecb565b16600281101580612696575b1561265a57816125b96020931515612f0d565b6125c3813361373c565b6125ce600554612ebc565b918260055582600052600b845261260f6040600020848155836001820155600281016101008461ffff19835416171790554260038201556004339101612f7e565b60405191825283820152817fa2bbd44031e4a29e8a7b02904c750b86ee4b539b515b912b6312f23f7a12de8f60403393a360016000805160206139d883398151915255604051908152f35b60405162461bcd60e51b81526020600482015260146024820152731a5b9d985b1a59081c1b185e595c8818dbdd5b9d60621b6044820152606490fd5b5060068111156125a6565b34610263576000366003190112610263576126ba613699565b60005460ff8116156126f95760ff19166000557f5db9ee0a495bf2e6ff9c91a7834c1ba4fdd244a5e8aa4e537bd38aeae4b073aa6020604051338152a1005b604051638dfc202b60e01b8152600490fd5b3461026357602036600319011261026357600435612727613699565b603c81111561273557600855005b60405162461bcd60e51b81526020600482015260116024820152701d1a5b595bdd5d081d1bdbc81cda1bdc9d607a1b6044820152606490fd5b34610263576000366003190112610263576020600654604051908152f35b34610263576020366003190112610263576127a5612c9e565b6127ad613699565b6001600160a01b03166000818152600e6020526040902060060180546127d290612ebc565b905580600052600e6020526040600020600681015460075411156127f257005b6007429101557f2cab723428c7ee886be3d0fb35d9aa30beab5acc2016ea5dcadd2d6b9eec81e56020600654604051908152a2005b34610263576040366003190112610263576024803567ffffffffffffffff918282116102635736602383011215610263578160040135918383116102635760059236838260051b84010111610263576002546001600160a01b031633819003612af4575015612abe576004356000526020916009835260406000209360019081860154968715612a865787600052600f8652600384604060002096013597886004820155018360ff19825416179055866008860155600e85016128ed6108a98254612d42565b6010671c995d99585b195960c21b0190556040519361290b85612e4c565b6004855286850192608036853760005b60048110612a3757505060098601908551928311612a2357600160401b8311612a2357508054828255808310612a06575b5082949394906000528660002060005b8381106129f55750505050604051918583019360608401918886526040808601525180925260808401929160005b8181106129e2578a7f58a43d5247c1af3b01d1d9c8620957f98ef83ec27df9119bfb0ec2ab8e88cbe1604060048d8d8d8d8d6129cf818f03601f198101835282612e84565b51902093849101558351928352820152a2005b835185529388019392880192820161298a565b82518282015591880191860161295c565b612a1d90826000528389600020918201910161301b565b8961294c565b634e487b7160e01b60009081526041600452fd5b8060061b8181046040148215171561112a578a6064911c0686810180911161112a578751821015612a715781831b88018a0152850161291b565b83634e487b7160e01b60005260326004526000fd5b60405162461bcd60e51b815260048101879052601181860152701c995c5d595cdd081b9bdd08199bdd5b99607a1b6044820152606490fd5b60405162461bcd60e51b815260206004820152600f818401526e6e6f2072616e646f6d20776f72647360881b6044820152606490fd5b836044916040519163073e64fd60e21b8352336004840152820152fd5b346102635760208060031936011261026357600435600052600b815260406000209081549160019060018101549360028201549360018060a01b0392600460038201549101966040519182848a54918281520190819a600052856000209060005b818110612c045750505083612b88910384612e84565b856040519861010093848b01978b52868b015260ff811660408b015260ff8160081c1660608b015260ff8160101c16151560808b015260181c1660a089015260c088015260e087015251809252610120850195926000905b838210612bed5786880387f35b845181168852968201969382019390850190612be0565b82548a16845292870192918a01918a01612b72565b3461026357602036600319011261026357600435600052600960205260a060406000208054906001810154906002810154600460ff6003840154169201549260405194855260208501526040840152151560608301526080820152f35b3461026357602036600319011261026357602090600435600052600a82526040600020548152f35b600435906001600160a01b038216820361026357565b6040906003190112610263576004359060243560ff811681036102635790565b919082519283825260005b848110612d00575050826000602080949584010152601f8019910116010190565b602081830181015184830182015201612cdf565b9181601f840112156102635782359167ffffffffffffffff8311610263576020838186019501011161026357565b90600182811c92168015612d72575b6020831014612d5c57565b634e487b7160e01b600052602260045260246000fd5b91607f1691612d51565b805460009392612d8b82612d42565b91828252602093600191600181169081600014612df35750600114612db2575b5050505050565b90939495506000929192528360002092846000945b838610612ddf57505050500101903880808080612dab565b805485870183015294019385908201612dc7565b60ff19168685015250505090151560051b010191503880808080612dab565b610100810190811067ffffffffffffffff82111761099a57604052565b610200810190811067ffffffffffffffff82111761099a57604052565b60a0810190811067ffffffffffffffff82111761099a57604052565b6080810190811067ffffffffffffffff82111761099a57604052565b90601f8019910116810190811067ffffffffffffffff82111761099a57604052565b6040906003190112610263576004359060243590565b60001981146103a05760010190565b15612ed257565b60405162461bcd60e51b81526020600482015260136024820152721859191c995cdcc8189b1858dadb1a5cdd1959606a1b6044820152606490fd5b15612f1457565b60405162461bcd60e51b8152602060048201526014602482015273626574206d75737420626520706f73697469766560601b6044820152606490fd5b8054821015612f685760005260206000200190600090565b634e487b7160e01b600052603260045260246000fd5b8054600160401b81101561099a57612f9b91600182018155612f50565b60018060a09493941b038084549260031b9316831b921b1916179055565b60609060208152600960208201526818dbdb5c1b195d195960ba1b60408201520190565b15612fe457565b60405162461bcd60e51b815260206004820152600f60248201526e1c9bdd5b99081b9bdd08199bdd5b99608a1b6044820152606490fd5b818110613026575050565b6000815560010161301b565b90601f811161303f575050565b61305a91600052601f6020600020910160051c81019061301b565b565b9190601f811161306b57505050565b61305a926000526020600020906020601f840160051c83019310613097575b601f0160051c019061301b565b909150819061308a565b908060209392818452848401376000828201840152601f01601f1916010190565b156130c957565b60405162461bcd60e51b815260206004820152600f60248201526e185c995b98481b9bdd08199bdd5b99608a1b6044820152606490fd5b90816020910312610263575180151581036102635790565b1561311f57565b60405162461bcd60e51b815260206004820152600d60248201526c1c99599d5b990819985a5b1959609a1b6044820152606490fd5b919082018092116103a057565b6000908082526020600f815260408084209361317f85541515612fdd565b81519483860184815286613198858201600e8501612d7c565b03966131ac601f1998898101835282612e84565b519020835185810190868252600c868201526b1d9c9994995c5d595cdd195960a21b6060820152606081526131e081612e68565b5190200361369157600d015490818152600984526132076002848320015460085490613154565b421061365757825191857fdf4fa4b5f40c646499e1c9b34912e1223a521117b0c53905d4c0ea7b16f0fb4e8380a382820182811067ffffffffffffffff821117613643578352600b82526a159491881d1a5b595bdd5d60aa1b84830152848152600f84528281209561327b87541515612fdd565b600e87018451868101908782526132988161237089820186612d7c565b5190208551878101906132ae81610e6784612fb9565b5190201415806135eb575b156135b7576132cb6108a98254612d42565b6010671c99599d5b99195960c21b01905560019084516132fc87820192888452826107048c60018b84019101612d7c565b51902084519086820187815260049260048882015263736f6c6f60e01b60608201526060815261332b81612e68565b5190200361341b575050600286018054600b9097018054855163a9059cbb60e01b81526001600160a01b03998a1660048201526024810191909152909792908681604481857f000000000000000000000000000000000000000000000000000000000000000089165af1918215613410576133ee94927f9b4b9fe42e556d768a938a82696607b338f22ed4a51cd053ce2559efc1616a5a98979694926133d692916133f35750613118565b54169654928080519586958652850152830190612cd4565b0390a3565b61340a9150883d8a116110c9576110bb8183612e84565b38611523565b8651903d90823e3d90fd5b6003808901548452600b808852868520949a9993989301969295929492936001600160a01b03926004909101908b7f000000000000000000000000000000000000000000000000000000000000000085168b5b613483575b5050505050505050505050509050565b8d845411156135b2576134d4898f61349c899188612f50565b905490891b1c168d54908b51938492839263a9059cbb60e01b845289840160209093929193604081019460018060a01b031681520152565b038186865af19081156135a857839161358b575b5015613552578b8e819e9f8c7f9b4b9fe42e556d768a938a82696607b338f22ed4a51cd053ce2559efc1616a5a8f928d8f918e8e8e61352b8f9461354795612f50565b9054911b1c169654928080519586958652850152830190612cd4565b0390a3019d9c61346e565b875162461bcd60e51b81528084018a90526013602482015272185c995b98481c99599d5b990819985a5b1959606a1b6044820152606490fd5b6135a291508a3d8c116110c9576110bb8183612e84565b386134e8565b89513d85823e3d90fd5b613473565b845162461bcd60e51b815260048101879052600d60248201526c18d85b9b9bdd081c99599d5b99609a1b6044820152606490fd5b508451868101908782526136058161237089820186612d7c565b51902085518781019061363981610e67846060906020815260086020820152671c99599d5b99195960c21b60408201520190565b51902014156132b9565b634e487b7160e01b82526041600452602482fd5b825162461bcd60e51b81526004810185905260136024820152721d1a5b595bdd5d081b9bdd081c995858da1959606a1b6044820152606490fd5b505050505050565b60005460081c6001600160a01b031633036136b057565b60405162461bcd60e51b815260206004820152601660248201527527b7363c9031b0b63630b1363290313c9037bbb732b960511b6044820152606490fd5b60ff600054166136fa57565b60405163d93c066560e01b8152600490fd5b6000805160206139d8833981519152600281541461372a5760029055565b604051633ee5aeb560e01b8152600490fd5b60018060a01b0380911690600090828252602093600d855260409360ff858520541661399e5781151580613992575b1561395957620151804204818552600e875260038686200154811161393f575b50600c865261379d8286862054613154565b6004541061390457908186928552600e8352858520600681015460075411156138af575b50806064918652600c84528686206137da848254613154565b9055808652600e84526001878720016137f38154612ebc565b905585875195869485936323b872dd60e01b8552600485015230602485015260448401527f0000000000000000000000000000000000000000000000000000000000000000165af19182156138a45791613887575b5015613852575050565b60649250519062461bcd60e51b82526004820152600f60248201526e1d1c985b9cd9995c8819985a5b1959608a1b6044820152fd5b61389e9150833d85116110c9576110bb8183612e84565b38613848565b8351903d90823e3d90fd5b6138c3919293506007015460065490613154565b42106138d257908591386137c1565b845162461bcd60e51b815260048101879052600b60248201526a34b71031b7b7b63237bbb760a91b6044820152606490fd5b845162461bcd60e51b815260048101879052601460248201527319185a5b1e481b1a5b5a5d08195e18d95959195960621b6044820152606490fd5b600c87528486812055600e8752600386862001553861378b565b845162461bcd60e51b8152600481018790526012602482015271626574206f757473696465206c696d69747360701b6044820152606490fd5b5060035482111561376b565b845162461bcd60e51b81526004810187905260126024820152711c1b185e595c88189b1858dadb1a5cdd195960721b6044820152606490fdfe9b779b17422d0df92223018b32b4d1fa46e071723d6817e2486d003becc55f00a2646970667358221220d39eaa88e0ef97dd469d2c9b4716e7cfef0c51bf3db5f6669842bd49b2410ace64736f6c63430008180033","opcodes":"PUSH1 0xE0 CALLVALUE PUSH3 0x299 JUMPI PUSH1 0x1F PUSH3 0x3CF7 CODESIZE DUP2 SWAP1 SUB SWAP2 DUP3 ADD PUSH1 0x1F NOT AND DUP4 ADD SWAP3 SWAP2 SWAP1 PUSH1 0x1 PUSH1 0x1 PUSH1 0x40 SHL SUB DUP5 GT DUP4 DUP6 LT OR PUSH3 0x29E JUMPI DUP2 PUSH1 0x80 SWAP3 DUP5 SWAP3 PUSH1 0x40 SWAP7 DUP8 MSTORE DUP4 CODECOPY DUP2 ADD SUB SLT PUSH3 0x299 JUMPI PUSH3 0x51 DUP2 PUSH3 0x2B4 JUMP JUMPDEST SWAP1 PUSH3 0x60 PUSH1 0x20 DUP3 ADD PUSH3 0x2B4 JUMP JUMPDEST PUSH1 0x60 DUP5 DUP4 ADD MLOAD SWAP3 ADD MLOAD SWAP3 PUSH1 0x1 PUSH32 0x9B779B17422D0DF92223018B32B4D1FA46E071723D6817E2486D003BECC55F00 SSTORE CALLER ISZERO PUSH3 0x255 JUMPI PUSH1 0x0 DUP1 SLOAD PUSH2 0x100 PUSH1 0x1 PUSH1 0xA8 SHL SUB NOT AND CALLER PUSH1 0x8 SHL PUSH2 0x100 PUSH1 0x1 PUSH1 0xA8 SHL SUB AND OR SWAP1 SSTORE PUSH1 0x1 PUSH1 0x1 PUSH1 0xA0 SHL SUB SWAP2 DUP3 AND DUP1 ISZERO PUSH3 0x244 JUMPI PUSH1 0x2 DUP1 SLOAD PUSH1 0x1 PUSH1 0x1 PUSH1 0xA0 SHL SUB NOT AND SWAP2 SWAP1 SWAP2 OR SWAP1 SSTORE PUSH9 0x1158E460913D00000 PUSH1 0x3 SSTORE PUSH9 0x56BC75E2D63100000 PUSH1 0x4 SSTORE PUSH2 0xE10 PUSH1 0x6 SSTORE PUSH1 0x5 PUSH1 0x7 SSTORE PUSH2 0x12C PUSH1 0x8 SSTORE AND DUP1 ISZERO PUSH3 0x200 JUMPI DUP2 ISZERO PUSH3 0x1CA JUMPI DUP3 ISZERO PUSH3 0x186 JUMPI PUSH1 0x80 MSTORE PUSH1 0xC0 MSTORE PUSH1 0xA0 MSTORE MLOAD PUSH2 0x3A2D SWAP1 DUP2 PUSH3 0x2CA DUP3 CODECOPY PUSH1 0x80 MLOAD DUP2 DUP2 DUP2 PUSH2 0x569 ADD MSTORE DUP2 DUP2 PUSH2 0xF59 ADD MSTORE DUP2 DUP2 PUSH2 0x1192 ADD MSTORE DUP2 DUP2 PUSH2 0x1453 ADD MSTORE DUP2 DUP2 PUSH2 0x3372 ADD MSTORE DUP2 DUP2 PUSH2 0x344B ADD MSTORE PUSH2 0x3819 ADD MSTORE PUSH1 0xA0 MLOAD DUP2 DUP2 DUP2 PUSH2 0x7E2 ADD MSTORE PUSH2 0x1CAC ADD MSTORE PUSH1 0xC0 MLOAD DUP2 DUP2 DUP2 PUSH2 0x7B8 ADD MSTORE PUSH2 0x22A5 ADD MSTORE RETURN JUMPDEST DUP4 MLOAD PUSH3 0x461BCD PUSH1 0xE5 SHL DUP2 MSTORE PUSH1 0x20 PUSH1 0x4 DUP3 ADD MSTORE PUSH1 0x17 PUSH1 0x24 DUP3 ADD MSTORE PUSH32 0x696E76616C696420737562736372697074696F6E204944000000000000000000 PUSH1 0x44 DUP3 ADD MSTORE PUSH1 0x64 SWAP1 REVERT JUMPDEST DUP4 MLOAD PUSH3 0x461BCD PUSH1 0xE5 SHL DUP2 MSTORE PUSH1 0x20 PUSH1 0x4 DUP3 ADD MSTORE PUSH1 0xF PUSH1 0x24 DUP3 ADD MSTORE PUSH15 0xD2DCECC2D8D2C840D6CAF290C2E6D PUSH1 0x8B SHL PUSH1 0x44 DUP3 ADD MSTORE PUSH1 0x64 SWAP1 REVERT JUMPDEST DUP4 MLOAD PUSH3 0x461BCD PUSH1 0xE5 SHL DUP2 MSTORE PUSH1 0x20 PUSH1 0x4 DUP3 ADD MSTORE PUSH1 0x14 PUSH1 0x24 DUP3 ADD MSTORE PUSH32 0x696E76616C6964205553444D2061646472657373000000000000000000000000 PUSH1 0x44 DUP3 ADD MSTORE PUSH1 0x64 SWAP1 REVERT JUMPDEST DUP6 MLOAD PUSH4 0xD92E233D PUSH1 0xE0 SHL DUP2 MSTORE PUSH1 0x4 SWAP1 REVERT JUMPDEST DUP5 MLOAD PUSH3 0x461BCD PUSH1 0xE5 SHL DUP2 MSTORE PUSH1 0x20 PUSH1 0x4 DUP3 ADD MSTORE PUSH1 0x18 PUSH1 0x24 DUP3 ADD MSTORE PUSH32 0x43616E6E6F7420736574206F776E657220746F207A65726F0000000000000000 PUSH1 0x44 DUP3 ADD MSTORE PUSH1 0x64 SWAP1 REVERT JUMPDEST PUSH1 0x0 DUP1 REVERT JUMPDEST PUSH4 0x4E487B71 PUSH1 0xE0 SHL PUSH1 0x0 MSTORE PUSH1 0x41 PUSH1 0x4 MSTORE PUSH1 0x24 PUSH1 0x0 REVERT JUMPDEST MLOAD SWAP1 PUSH1 0x1 PUSH1 0x1 PUSH1 0xA0 SHL SUB DUP3 AND DUP3 SUB PUSH3 0x299 JUMPI JUMP INVALID PUSH1 0x80 DUP1 PUSH1 0x40 MSTORE PUSH1 0x4 CALLDATASIZE LT ISZERO PUSH2 0x13 JUMPI PUSH1 0x0 DUP1 REVERT JUMPDEST PUSH1 0x0 CALLDATALOAD PUSH1 0xE0 SHR SWAP1 DUP2 PUSH4 0xFB58B09 EQ PUSH2 0x2C76 JUMPI POP DUP1 PUSH4 0x1A1D9252 EQ PUSH2 0x2C19 JUMPI DUP1 PUSH4 0x1A8425B4 EQ PUSH2 0x2B11 JUMPI DUP1 PUSH4 0x1FE543E3 EQ PUSH2 0x2827 JUMPI DUP1 PUSH4 0x2BBF1274 EQ PUSH2 0x278C JUMPI DUP1 PUSH4 0x35269315 EQ PUSH2 0x276E JUMPI DUP1 PUSH4 0x3C580D5D EQ PUSH2 0x270B JUMPI DUP1 PUSH4 0x3F4BA83A EQ PUSH2 0x26A1 JUMPI DUP1 PUSH4 0x410DDACA EQ PUSH2 0x255D JUMPI DUP1 PUSH4 0x4FD66EAE EQ PUSH2 0x2420 JUMPI DUP1 PUSH4 0x51A667CA EQ PUSH2 0x22EB JUMPI DUP1 PUSH4 0x5C975ABB EQ PUSH2 0x22C8 JUMPI DUP1 PUSH4 0x61728F39 EQ PUSH2 0x228D JUMPI DUP1 PUSH4 0x65C1C630 EQ PUSH2 0x226F JUMPI DUP1 PUSH4 0x66951131 EQ PUSH2 0x2235 JUMPI DUP1 PUSH4 0x6E3288A2 EQ PUSH2 0x224 JUMPI DUP1 PUSH4 0x712FB121 EQ PUSH2 0x1FC6 JUMPI DUP1 PUSH4 0x74B06938 EQ PUSH2 0x1FA8 JUMPI DUP1 PUSH4 0x794687D7 EQ PUSH2 0x1F8A JUMPI DUP1 PUSH4 0x79BA5097 EQ PUSH2 0x1EC6 JUMPI DUP1 PUSH4 0x8456CB59 EQ PUSH2 0x1E6C JUMPI DUP1 PUSH4 0x84F4319C EQ PUSH2 0x1DEF JUMPI DUP1 PUSH4 0x858D9DA2 EQ PUSH2 0x1CCF JUMPI DUP1 PUSH4 0x8AC00021 EQ PUSH2 0x1C94 JUMPI DUP1 PUSH4 0x8C65C81F EQ PUSH2 0x1AF8 JUMPI DUP1 PUSH4 0x8DA5CB5B EQ PUSH2 0x1ACB JUMPI DUP1 PUSH4 0x8EA98117 EQ PUSH2 0x1A01 JUMPI DUP1 PUSH4 0x8F1327C0 EQ PUSH2 0x16C7 JUMPI DUP1 PUSH4 0x92D53A67 EQ PUSH2 0x15AF JUMPI DUP1 PUSH4 0x9409D75C EQ PUSH2 0x1406 JUMPI DUP1 PUSH4 0x951B60A4 EQ PUSH2 0x138B JUMPI DUP1 PUSH4 0x97C3CCD8 EQ PUSH2 0x130A JUMPI DUP1 PUSH4 0x9918965F EQ PUSH2 0x12EC JUMPI DUP1 PUSH4 0x9B795A00 EQ PUSH2 0x12CE JUMPI DUP1 PUSH4 0x9D997B82 EQ PUSH2 0xDAA JUMPI DUP1 PUSH4 0x9ECCACF6 EQ PUSH2 0xD81 JUMPI DUP1 PUSH4 0xB9F14557 EQ PUSH2 0xD29 JUMPI DUP1 PUSH4 0xC03DAA4D EQ PUSH2 0xC62 JUMPI DUP1 PUSH4 0xC1E582BA EQ PUSH2 0xBAE JUMPI DUP1 PUSH4 0xCDAFBBB6 EQ PUSH2 0xAFA JUMPI DUP1 PUSH4 0xED28B379 EQ PUSH2 0x5C7 JUMPI DUP1 PUSH4 0xEDFE7216 EQ PUSH2 0x598 JUMPI DUP1 PUSH4 0xEE138D0F EQ PUSH2 0x553 JUMPI DUP1 PUSH4 0xF2FDE38B EQ PUSH2 0x498 JUMPI DUP1 PUSH4 0xF6B3A00A EQ PUSH2 0x2A0 JUMPI DUP1 PUSH4 0xF83674BC EQ PUSH2 0x268 JUMPI PUSH4 0xF9F92BE4 EQ PUSH2 0x224 JUMPI PUSH1 0x0 DUP1 REVERT JUMPDEST CALLVALUE PUSH2 0x263 JUMPI PUSH1 0x20 CALLDATASIZE PUSH1 0x3 NOT ADD SLT PUSH2 0x263 JUMPI PUSH1 0x1 PUSH1 0x1 PUSH1 0xA0 SHL SUB PUSH2 0x245 PUSH2 0x2C9E JUMP JUMPDEST AND PUSH1 0x0 MSTORE PUSH1 0xD PUSH1 0x20 MSTORE PUSH1 0x20 PUSH1 0xFF PUSH1 0x40 PUSH1 0x0 KECCAK256 SLOAD AND PUSH1 0x40 MLOAD SWAP1 ISZERO ISZERO DUP2 MSTORE RETURN JUMPDEST PUSH1 0x0 DUP1 REVERT JUMPDEST CALLVALUE PUSH2 0x263 JUMPI PUSH1 0x20 CALLDATASIZE PUSH1 0x3 NOT ADD SLT PUSH2 0x263 JUMPI PUSH2 0x281 PUSH2 0x370C JUMP JUMPDEST PUSH2 0x28C PUSH1 0x4 CALLDATALOAD PUSH2 0x3161 JUMP JUMPDEST PUSH1 0x1 PUSH1 0x0 DUP1 MLOAD PUSH1 0x20 PUSH2 0x39D8 DUP4 CODECOPY DUP2 MLOAD SWAP2 MSTORE SSTORE STOP JUMPDEST CALLVALUE PUSH2 0x263 JUMPI PUSH1 0x20 DUP1 PUSH1 0x3 NOT CALLDATASIZE ADD SLT PUSH2 0x263 JUMPI PUSH1 0x4 CALLDATALOAD SWAP1 PUSH2 0x2BE PUSH2 0x36EE JUMP JUMPDEST PUSH2 0x2C6 PUSH2 0x370C JUMP JUMPDEST CALLER PUSH1 0x0 MSTORE PUSH1 0xD DUP2 MSTORE PUSH1 0xFF SWAP1 PUSH2 0x2E2 DUP3 PUSH1 0x40 PUSH1 0x0 KECCAK256 SLOAD AND ISZERO PUSH2 0x2ECB JUMP JUMPDEST DUP3 PUSH1 0x0 MSTORE PUSH1 0xB DUP2 MSTORE PUSH1 0x40 PUSH1 0x0 KECCAK256 PUSH1 0x2 DUP2 ADD SWAP1 DUP2 SLOAD DUP5 DUP2 PUSH1 0x8 SHR AND DUP1 ISZERO ISZERO SWAP1 DUP2 PUSH2 0x48C JUMPI JUMPDEST POP ISZERO PUSH2 0x453 JUMPI PUSH1 0x10 SHR DUP5 AND PUSH2 0x416 JUMPI PUSH1 0x0 PUSH1 0x4 DUP3 ADD SWAP4 DUP5 SLOAD SWAP2 JUMPDEST DUP3 DUP2 LT PUSH2 0x3B6 JUMPI POP POP POP PUSH1 0x1 PUSH2 0x338 SWAP2 ADD SLOAD CALLER PUSH2 0x373C JUMP JUMPDEST DUP1 SLOAD DUP4 DUP2 PUSH1 0x8 SHR AND SWAP4 DUP5 EQ PUSH2 0x3A0 JUMPI PUSH2 0xFF00 PUSH1 0x1 PUSH2 0x365 SWAP6 ADD PUSH1 0x8 SHL AND SWAP1 PUSH2 0xFF00 NOT AND OR SWAP1 SSTORE CALLER SWAP1 PUSH2 0x2F7E JUMP JUMPDEST CALLER SWAP1 PUSH32 0x87969BC7FAF902221A147B95CEBA76E011C5EFB0339A0A8EE7A2BB82D9CFBBD6 PUSH1 0x0 DUP1 LOG3 PUSH1 0x1 PUSH1 0x0 DUP1 MLOAD PUSH1 0x20 PUSH2 0x39D8 DUP4 CODECOPY DUP2 MLOAD SWAP2 MSTORE SSTORE STOP JUMPDEST PUSH4 0x4E487B71 PUSH1 0xE0 SHL PUSH1 0x0 MSTORE PUSH1 0x11 PUSH1 0x4 MSTORE PUSH1 0x24 PUSH1 0x0 REVERT JUMPDEST PUSH2 0x3C0 DUP2 DUP8 PUSH2 0x2F50 JUMP JUMPDEST SWAP1 SLOAD PUSH1 0x3 SWAP2 SWAP1 SWAP2 SHL SHR PUSH1 0x1 PUSH1 0x1 PUSH1 0xA0 SHL SUB AND CALLER EQ PUSH2 0x3E0 JUMPI PUSH1 0x1 ADD PUSH2 0x320 JUMP JUMPDEST PUSH1 0x40 MLOAD PUSH3 0x461BCD PUSH1 0xE5 SHL DUP2 MSTORE PUSH1 0x4 DUP2 ADD DUP4 SWAP1 MSTORE PUSH1 0xE PUSH1 0x24 DUP3 ADD MSTORE PUSH14 0x185B1C9958591E481A9BDA5B9959 PUSH1 0x92 SHL PUSH1 0x44 DUP3 ADD MSTORE PUSH1 0x64 SWAP1 REVERT JUMPDEST PUSH1 0x40 MLOAD PUSH3 0x461BCD PUSH1 0xE5 SHL DUP2 MSTORE PUSH1 0x4 DUP2 ADD DUP5 SWAP1 MSTORE PUSH1 0x15 PUSH1 0x24 DUP3 ADD MSTORE PUSH21 0x185C995B9848185B1C9958591E481CD95D1D1B1959 PUSH1 0x5A SHL PUSH1 0x44 DUP3 ADD MSTORE PUSH1 0x64 SWAP1 REVERT JUMPDEST PUSH1 0x40 MLOAD PUSH3 0x461BCD PUSH1 0xE5 SHL DUP2 MSTORE PUSH1 0x4 DUP2 ADD DUP6 SWAP1 MSTORE PUSH1 0x11 PUSH1 0x24 DUP3 ADD MSTORE PUSH17 0x6172656E6120756E617661696C61626C65 PUSH1 0x78 SHL PUSH1 0x44 DUP3 ADD MSTORE PUSH1 0x64 SWAP1 REVERT JUMPDEST SWAP1 POP DUP6 DUP3 AND GT DUP8 PUSH2 0x306 JUMP JUMPDEST CALLVALUE PUSH2 0x263 JUMPI PUSH1 0x20 CALLDATASIZE PUSH1 0x3 NOT ADD SLT PUSH2 0x263 JUMPI PUSH2 0x4B1 PUSH2 0x2C9E JUMP JUMPDEST PUSH2 0x4B9 PUSH2 0x3699 JUMP JUMPDEST PUSH1 0x1 PUSH1 0x1 PUSH1 0xA0 SHL SUB SWAP1 DUP2 AND SWAP1 CALLER DUP3 EQ PUSH2 0x50E JUMPI DUP2 PUSH1 0x1 PUSH1 0x1 PUSH1 0x60 SHL SUB PUSH1 0xA0 SHL PUSH1 0x1 SLOAD AND OR PUSH1 0x1 SSTORE PUSH1 0x0 SLOAD PUSH1 0x8 SHR AND PUSH32 0xED8889F560326EB138920D842192F0EB3DD22B4F139C87A2C57538E05BAE1278 PUSH1 0x0 DUP1 LOG3 STOP JUMPDEST PUSH1 0x40 MLOAD PUSH3 0x461BCD PUSH1 0xE5 SHL DUP2 MSTORE PUSH1 0x20 PUSH1 0x4 DUP3 ADD MSTORE PUSH1 0x17 PUSH1 0x24 DUP3 ADD MSTORE PUSH32 0x43616E6E6F74207472616E7366657220746F2073656C66000000000000000000 PUSH1 0x44 DUP3 ADD MSTORE PUSH1 0x64 SWAP1 REVERT JUMPDEST CALLVALUE PUSH2 0x263 JUMPI PUSH1 0x0 CALLDATASIZE PUSH1 0x3 NOT ADD SLT PUSH2 0x263 JUMPI PUSH1 0x40 MLOAD PUSH32 0x0 PUSH1 0x1 PUSH1 0x1 PUSH1 0xA0 SHL SUB AND DUP2 MSTORE PUSH1 0x20 SWAP1 RETURN JUMPDEST CALLVALUE PUSH2 0x263 JUMPI PUSH1 0x20 CALLDATASIZE PUSH1 0x3 NOT ADD SLT PUSH2 0x263 JUMPI PUSH1 0x4 CALLDATALOAD PUSH1 0x0 MSTORE PUSH1 0xF PUSH1 0x20 MSTORE PUSH1 0x20 PUSH1 0x4 PUSH1 0x40 PUSH1 0x0 KECCAK256 ADD SLOAD PUSH1 0x40 MLOAD SWAP1 DUP2 MSTORE RETURN JUMPDEST CALLVALUE PUSH2 0x263 JUMPI PUSH2 0x5D5 CALLDATASIZE PUSH2 0x2CB4 JUMP JUMPDEST PUSH2 0x5DD PUSH2 0x36EE JUMP JUMPDEST CALLER PUSH1 0x0 MSTORE PUSH1 0xFF PUSH1 0x20 SWAP2 PUSH1 0xD DUP4 MSTORE PUSH2 0x5FB DUP3 PUSH1 0x40 PUSH1 0x0 KECCAK256 SLOAD AND ISZERO PUSH2 0x2ECB JUMP JUMPDEST AND SWAP1 PUSH1 0x2 DUP3 LT ISZERO PUSH2 0xAC7 JUMPI DUP3 PUSH1 0x0 MSTORE PUSH1 0xF DUP2 MSTORE PUSH1 0x40 PUSH1 0x0 KECCAK256 SWAP1 PUSH1 0x1 DUP1 PUSH1 0xA0 SHL SUB SWAP3 CALLER DUP5 PUSH1 0x2 DUP6 ADD SLOAD AND SUB PUSH2 0xA92 JUMPI PUSH1 0xE DUP4 ADD SWAP3 PUSH1 0x40 MLOAD SWAP4 DUP4 DUP6 ADD DUP5 DUP2 MSTORE DUP6 PUSH2 0x646 PUSH1 0x40 DUP3 ADD DUP5 PUSH2 0x2D7C JUMP JUMPDEST SUB SWAP6 PUSH2 0x65A PUSH1 0x1F NOT SWAP8 DUP9 DUP2 ADD DUP4 MSTORE DUP3 PUSH2 0x2E84 JUMP JUMPDEST MLOAD SWAP1 KECCAK256 PUSH1 0x40 MLOAD DUP6 DUP2 ADD SWAP1 PUSH2 0x67D DUP2 PUSH2 0x671 DUP5 PUSH2 0x2FB9 JUMP JUMPDEST SUB DUP10 DUP2 ADD DUP4 MSTORE DUP3 PUSH2 0x2E84 JUMP JUMPDEST MLOAD SWAP1 KECCAK256 EQ ISZERO SWAP1 DUP2 PUSH2 0xA1D JUMPI JUMPDEST POP ISZERO PUSH2 0x9EB JUMPI PUSH1 0xB ADD SLOAD SWAP1 PUSH1 0x40 MLOAD SWAP2 DUP3 MSTORE DUP3 DUP3 ADD MSTORE DUP5 PUSH1 0x40 DUP3 ADD MSTORE PUSH32 0x74E6CD5D5D8FDA41D1DFE0A2B03C42D613DE1E32C1758C97C3CE0397579608F1 PUSH1 0x60 CALLER SWAP3 LOG2 DUP4 PUSH1 0x0 MSTORE PUSH1 0xF DUP2 MSTORE PUSH1 0x40 PUSH1 0x0 KECCAK256 SWAP3 PUSH2 0x6E4 DUP5 SLOAD ISZERO ISZERO PUSH2 0x2FDD JUMP JUMPDEST PUSH1 0xE DUP5 ADD SWAP3 PUSH1 0x40 MLOAD PUSH2 0x710 DUP5 DUP3 ADD SWAP3 DUP6 DUP5 MSTORE DUP3 PUSH2 0x704 PUSH1 0x40 DUP3 ADD DUP10 PUSH2 0x2D7C JUMP JUMPDEST SUB SWAP1 DUP2 ADD DUP4 MSTORE DUP3 PUSH2 0x2E84 JUMP JUMPDEST MLOAD SWAP1 KECCAK256 PUSH1 0x40 MLOAD DUP4 DUP2 ADD SWAP1 DUP5 DUP3 MSTORE PUSH1 0x7 PUSH1 0x40 DUP3 ADD MSTORE PUSH7 0x18DC99585D1959 PUSH1 0xCA SHL PUSH1 0x60 DUP3 ADD MSTORE PUSH1 0x60 DUP2 MSTORE PUSH2 0x741 DUP2 PUSH2 0x2E68 JUMP JUMPDEST MLOAD SWAP1 KECCAK256 SUB PUSH2 0x9B0 JUMPI PUSH1 0x2 SLOAD AND SWAP2 PUSH1 0x40 MLOAD DUP3 DUP2 ADD SWAP1 PUSH8 0xFFFFFFFFFFFFFFFF SWAP2 DUP2 DUP2 LT DUP4 DUP3 GT OR PUSH2 0x99A JUMPI PUSH1 0x40 MSTORE PUSH1 0x0 DUP2 MSTORE PUSH1 0x40 MLOAD SWAP1 PUSH4 0x125FA267 PUSH1 0xE3 SHL DUP6 DUP4 ADD MSTORE MLOAD ISZERO ISZERO PUSH1 0x24 DUP3 ADD MSTORE PUSH1 0x24 DUP2 MSTORE PUSH1 0x60 DUP2 ADD SWAP5 DUP2 DUP7 LT DUP4 DUP8 GT OR PUSH2 0x99A JUMPI PUSH2 0x120 DUP3 ADD SWAP3 DUP4 GT DUP7 DUP5 LT OR PUSH2 0x99A JUMPI PUSH2 0xFFFF SWAP6 DUP6 SWAP4 PUSH1 0x40 MSTORE PUSH32 0x0 DUP2 MSTORE PUSH1 0x0 PUSH1 0x80 DUP5 ADD SWAP2 PUSH32 0x0 DUP4 MSTORE PUSH2 0x87F PUSH1 0xA0 DUP7 ADD SWAP6 PUSH1 0x3 DUP8 MSTORE PUSH1 0xC0 DUP2 ADD PUSH3 0x30D40 DUP2 MSTORE PUSH1 0xE0 DUP3 ADD SWAP1 PUSH1 0x1 DUP3 MSTORE PUSH2 0x100 DUP4 ADD SWAP3 DUP4 MSTORE PUSH1 0x40 MLOAD SWAP13 DUP14 SWAP10 DUP11 SWAP9 DUP10 SWAP8 PUSH4 0x4D8E1C2F PUSH1 0xE1 SHL DUP10 MSTORE DUP14 PUSH1 0x4 DUP11 ADD MSTORE MLOAD PUSH1 0x24 DUP10 ADD MSTORE MLOAD PUSH1 0x44 DUP9 ADD MSTORE MLOAD AND PUSH1 0x64 DUP7 ADD MSTORE MLOAD SWAP1 PUSH4 0xFFFFFFFF DUP1 SWAP3 AND PUSH1 0x84 DUP7 ADD MSTORE MLOAD AND PUSH1 0xA4 DUP5 ADD MSTORE MLOAD PUSH1 0xC0 PUSH1 0xC4 DUP5 ADD MSTORE PUSH1 0xE4 DUP4 ADD SWAP1 PUSH2 0x2CD4 JUMP JUMPDEST SUB SWAP3 GAS CALL SWAP3 DUP4 ISZERO PUSH2 0x98E JUMPI PUSH1 0x0 SWAP4 PUSH2 0x95E JUMPI JUMPDEST POP DUP3 PUSH1 0xD PUSH1 0xA SWAP5 SWAP6 ADD SSTORE PUSH2 0x8AF PUSH2 0x8A9 DUP3 SLOAD PUSH2 0x2D42 JUMP JUMPDEST DUP3 PUSH2 0x3032 JUMP JUMPDEST PUSH1 0x18 PUSH12 0x1D9C9994995C5D595CDD1959 PUSH1 0xA2 SHL ADD SWAP1 SSTORE PUSH1 0x40 MLOAD PUSH2 0x8D0 DUP2 PUSH2 0x2E4C JUMP JUMPDEST DUP4 DUP2 MSTORE PUSH1 0x4 DUP3 DUP3 ADD DUP7 DUP2 MSTORE PUSH1 0x40 DUP4 ADD TIMESTAMP DUP2 MSTORE PUSH1 0x60 DUP5 ADD SWAP1 PUSH1 0x0 DUP3 MSTORE PUSH1 0x80 DUP6 ADD SWAP3 PUSH1 0x0 DUP5 MSTORE DUP9 PUSH1 0x0 MSTORE PUSH1 0x9 DUP8 MSTORE PUSH1 0x40 PUSH1 0x0 KECCAK256 SWAP6 MLOAD DUP7 SSTORE MLOAD PUSH1 0x1 DUP7 ADD SSTORE MLOAD PUSH1 0x2 DUP6 ADD SSTORE PUSH1 0x3 DUP5 ADD SWAP1 MLOAD ISZERO ISZERO PUSH1 0xFF DUP1 NOT DUP4 SLOAD AND SWAP2 AND OR SWAP1 SSTORE MLOAD SWAP2 ADD SSTORE DUP4 PUSH1 0x0 MSTORE MSTORE DUP1 PUSH1 0x40 PUSH1 0x0 KECCAK256 SSTORE CALLER SWAP2 PUSH32 0x880843155B7746C27070546DB058BE7D284E0B3DFA715945EEAF2CC08A896518 PUSH1 0x0 DUP1 LOG4 STOP JUMPDEST SWAP3 POP DUP2 DUP4 DUP2 RETURNDATASIZE DUP4 GT PUSH2 0x987 JUMPI JUMPDEST PUSH2 0x975 DUP2 DUP4 PUSH2 0x2E84 JUMP JUMPDEST DUP2 ADD SUB SLT PUSH2 0x263 JUMPI SWAP2 MLOAD SWAP2 PUSH1 0xD PUSH2 0x892 JUMP JUMPDEST POP RETURNDATASIZE PUSH2 0x96B JUMP JUMPDEST PUSH1 0x40 MLOAD RETURNDATASIZE PUSH1 0x0 DUP3 RETURNDATACOPY RETURNDATASIZE SWAP1 REVERT JUMPDEST PUSH4 0x4E487B71 PUSH1 0xE0 SHL PUSH1 0x0 MSTORE PUSH1 0x41 PUSH1 0x4 MSTORE PUSH1 0x24 PUSH1 0x0 REVERT JUMPDEST PUSH1 0x40 MLOAD PUSH3 0x461BCD PUSH1 0xE5 SHL DUP2 MSTORE PUSH1 0x4 DUP2 ADD DUP4 SWAP1 MSTORE PUSH1 0x13 PUSH1 0x24 DUP3 ADD MSTORE PUSH19 0x696E76616C696420726F756E64207374617465 PUSH1 0x68 SHL PUSH1 0x44 DUP3 ADD MSTORE PUSH1 0x64 SWAP1 REVERT JUMPDEST PUSH1 0x40 MLOAD PUSH3 0x461BCD PUSH1 0xE5 SHL DUP2 MSTORE PUSH1 0x4 DUP2 ADD DUP5 SWAP1 MSTORE PUSH1 0xA PUSH1 0x24 DUP3 ADD MSTORE PUSH10 0x19D85B5948195B991959 PUSH1 0xB2 SHL PUSH1 0x44 DUP3 ADD MSTORE PUSH1 0x64 SWAP1 REVERT JUMPDEST SWAP1 POP PUSH1 0x40 MLOAD PUSH2 0xA46 DUP2 PUSH2 0xA3A DUP8 DUP3 ADD SWAP5 DUP9 DUP7 MSTORE PUSH1 0x40 DUP4 ADD SWAP1 PUSH2 0x2D7C JUMP JUMPDEST SUB DUP8 DUP2 ADD DUP4 MSTORE DUP3 PUSH2 0x2E84 JUMP JUMPDEST MLOAD SWAP1 KECCAK256 PUSH1 0x40 MLOAD DUP5 DUP2 ADD SWAP1 PUSH2 0xA87 DUP2 PUSH2 0xA7B DUP5 PUSH1 0x60 SWAP1 PUSH1 0x20 DUP2 MSTORE PUSH1 0x8 PUSH1 0x20 DUP3 ADD MSTORE PUSH8 0x1C99599D5B991959 PUSH1 0xC2 SHL PUSH1 0x40 DUP3 ADD MSTORE ADD SWAP1 JUMP JUMPDEST SUB DUP9 DUP2 ADD DUP4 MSTORE DUP3 PUSH2 0x2E84 JUMP JUMPDEST MLOAD SWAP1 KECCAK256 EQ ISZERO DUP8 PUSH2 0x689 JUMP JUMPDEST PUSH1 0x40 MLOAD PUSH3 0x461BCD PUSH1 0xE5 SHL DUP2 MSTORE PUSH1 0x4 DUP2 ADD DUP4 SWAP1 MSTORE PUSH1 0xD PUSH1 0x24 DUP3 ADD MSTORE PUSH13 0x6E6F7420796F75722067616D65 PUSH1 0x98 SHL PUSH1 0x44 DUP3 ADD MSTORE PUSH1 0x64 SWAP1 REVERT JUMPDEST PUSH1 0x64 SWAP1 PUSH1 0x40 MLOAD SWAP1 PUSH3 0x461BCD PUSH1 0xE5 SHL DUP3 MSTORE PUSH1 0x4 DUP3 ADD MSTORE PUSH1 0xC PUSH1 0x24 DUP3 ADD MSTORE PUSH12 0x1A5B9D985B1A590818D85C99 PUSH1 0xA2 SHL PUSH1 0x44 DUP3 ADD MSTORE REVERT JUMPDEST CALLVALUE PUSH2 0x263 JUMPI PUSH1 0x20 CALLDATASIZE PUSH1 0x3 NOT ADD SLT PUSH2 0x263 JUMPI PUSH1 0x1 PUSH1 0x1 PUSH1 0xA0 SHL SUB PUSH2 0xB1B PUSH2 0x2C9E JUMP JUMPDEST AND PUSH1 0x0 MSTORE PUSH1 0xE PUSH1 0x20 MSTORE PUSH1 0x40 PUSH1 0x0 KECCAK256 DUP1 SLOAD PUSH1 0x1 DUP3 ADD SLOAD SWAP1 PUSH1 0x2 DUP4 ADD SLOAD SWAP3 PUSH1 0x3 DUP2 ADD SLOAD SWAP1 PUSH2 0xB98 PUSH1 0x40 MLOAD PUSH2 0xB5B DUP2 PUSH2 0xB54 DUP2 PUSH1 0x4 DUP8 ADD PUSH2 0x2D7C JUMP JUMPDEST SUB DUP3 PUSH2 0x2E84 JUMP JUMPDEST PUSH1 0xFF PUSH1 0x5 DUP5 ADD SLOAD AND SWAP5 PUSH1 0x7 PUSH1 0x6 DUP6 ADD SLOAD SWAP5 ADD SLOAD SWAP5 PUSH1 0x40 MLOAD SWAP9 DUP10 SWAP9 PUSH2 0x100 SWAP4 DUP11 MSTORE PUSH1 0x20 DUP11 ADD MSTORE PUSH1 0x40 DUP10 ADD MSTORE PUSH1 0x60 DUP9 ADD MSTORE DUP1 PUSH1 0x80 DUP9 ADD MSTORE DUP7 ADD SWAP1 PUSH2 0x2CD4 JUMP JUMPDEST SWAP3 ISZERO ISZERO PUSH1 0xA0 DUP6 ADD MSTORE PUSH1 0xC0 DUP5 ADD MSTORE PUSH1 0xE0 DUP4 ADD MSTORE SUB SWAP1 RETURN JUMPDEST CALLVALUE PUSH2 0x263 JUMPI PUSH1 0x20 CALLDATASIZE PUSH1 0x3 NOT ADD SLT PUSH2 0x263 JUMPI PUSH1 0x0 PUSH1 0x80 PUSH1 0x40 MLOAD PUSH2 0xBCF DUP2 PUSH2 0x2E4C JUMP JUMPDEST DUP3 DUP2 MSTORE DUP3 PUSH1 0x20 DUP3 ADD MSTORE DUP3 PUSH1 0x40 DUP3 ADD MSTORE DUP3 PUSH1 0x60 DUP3 ADD MSTORE ADD MSTORE PUSH1 0x4 CALLDATALOAD PUSH1 0x0 MSTORE PUSH1 0x9 PUSH1 0x20 MSTORE PUSH1 0xA0 PUSH1 0x40 PUSH1 0x0 KECCAK256 PUSH1 0x40 MLOAD PUSH2 0xC04 DUP2 PUSH2 0x2E4C JUMP JUMPDEST DUP2 SLOAD SWAP2 DUP3 DUP3 MSTORE PUSH1 0x1 DUP2 ADD SLOAD PUSH1 0x20 DUP4 ADD SWAP1 DUP2 MSTORE PUSH1 0x2 DUP3 ADD SLOAD SWAP1 PUSH1 0x40 DUP5 ADD SWAP2 DUP3 MSTORE PUSH1 0x80 PUSH1 0x4 PUSH1 0xFF PUSH1 0x3 DUP7 ADD SLOAD AND SWAP5 PUSH1 0x60 DUP8 ADD SWAP6 ISZERO ISZERO DUP7 MSTORE ADD SLOAD SWAP5 ADD SWAP4 DUP5 MSTORE PUSH1 0x40 MLOAD SWAP5 DUP6 MSTORE MLOAD PUSH1 0x20 DUP6 ADD MSTORE MLOAD PUSH1 0x40 DUP5 ADD MSTORE MLOAD ISZERO ISZERO PUSH1 0x60 DUP4 ADD MSTORE MLOAD PUSH1 0x80 DUP3 ADD MSTORE RETURN JUMPDEST CALLVALUE PUSH2 0x263 JUMPI PUSH2 0xC70 CALLDATASIZE PUSH2 0x2EA6 JUMP JUMPDEST SWAP1 PUSH2 0xC79 PUSH2 0x3699 JUMP JUMPDEST DUP1 ISZERO ISZERO DUP1 PUSH2 0xD20 JUMPI JUMPDEST ISZERO PUSH2 0xCDB JUMPI DUP1 DUP3 LT PUSH2 0xC96 JUMPI PUSH1 0x3 SSTORE PUSH1 0x4 SSTORE STOP JUMPDEST PUSH1 0x40 MLOAD PUSH3 0x461BCD PUSH1 0xE5 SHL DUP2 MSTORE PUSH1 0x20 PUSH1 0x4 DUP3 ADD MSTORE PUSH1 0x1F PUSH1 0x24 DUP3 ADD MSTORE PUSH32 0x6461696C79206C696D6974206D757374206265203E3D207478206C696D697400 PUSH1 0x44 DUP3 ADD MSTORE PUSH1 0x64 SWAP1 REVERT JUMPDEST PUSH1 0x40 MLOAD PUSH3 0x461BCD PUSH1 0xE5 SHL DUP2 MSTORE PUSH1 0x20 PUSH1 0x4 DUP3 ADD MSTORE PUSH1 0x1B PUSH1 0x24 DUP3 ADD MSTORE PUSH32 0x626574206C696D697473206D75737420626520706F7369746976650000000000 PUSH1 0x44 DUP3 ADD MSTORE PUSH1 0x64 SWAP1 REVERT JUMPDEST POP DUP2 ISZERO ISZERO PUSH2 0xC82 JUMP JUMPDEST CALLVALUE PUSH2 0x263 JUMPI PUSH1 0x20 CALLDATASIZE PUSH1 0x3 NOT ADD SLT PUSH2 0x263 JUMPI PUSH2 0xD42 PUSH2 0x2C9E JUMP JUMPDEST PUSH2 0xD4A PUSH2 0x3699 JUMP JUMPDEST PUSH1 0x1 DUP1 PUSH1 0xA0 SHL SUB AND PUSH1 0x0 MSTORE PUSH1 0xD PUSH1 0x20 MSTORE PUSH1 0x40 PUSH1 0x0 KECCAK256 PUSH1 0xFF NOT SWAP1 DUP2 DUP2 SLOAD AND SWAP1 SSTORE PUSH1 0xE PUSH1 0x20 MSTORE PUSH1 0x5 PUSH1 0x40 PUSH1 0x0 KECCAK256 ADD SWAP1 DUP2 SLOAD AND SWAP1 SSTORE PUSH1 0x0 DUP1 RETURN JUMPDEST CALLVALUE PUSH2 0x263 JUMPI PUSH1 0x0 CALLDATASIZE PUSH1 0x3 NOT ADD SLT PUSH2 0x263 JUMPI PUSH1 0x2 SLOAD PUSH1 0x40 MLOAD PUSH1 0x1 PUSH1 0x1 PUSH1 0xA0 SHL SUB SWAP1 SWAP2 AND DUP2 MSTORE PUSH1 0x20 SWAP1 RETURN JUMPDEST CALLVALUE PUSH2 0x263 JUMPI PUSH1 0x40 CALLDATASIZE PUSH1 0x3 NOT ADD SLT PUSH2 0x263 JUMPI PUSH1 0x1 PUSH1 0x1 PUSH1 0xA0 SHL SUB PUSH1 0x24 DUP1 CALLDATALOAD DUP3 DUP2 AND SWAP3 PUSH1 0x4 CALLDATALOAD SWAP3 DUP5 DUP4 SUB PUSH2 0x263 JUMPI PUSH2 0xDDE PUSH2 0x3699 JUMP JUMPDEST PUSH2 0xDE6 PUSH2 0x370C JUMP JUMPDEST DUP4 PUSH1 0x0 MSTORE PUSH1 0x20 SWAP2 PUSH1 0xF DUP4 MSTORE PUSH1 0x40 PUSH1 0x0 KECCAK256 PUSH2 0xE02 DUP2 SLOAD ISZERO ISZERO PUSH2 0x2FDD JUMP JUMPDEST PUSH1 0xE DUP2 ADD PUSH1 0x40 MLOAD SWAP1 DUP6 DUP3 ADD DUP7 DUP2 MSTORE DUP3 PUSH2 0xE1E PUSH1 0x40 DUP3 ADD DUP5 PUSH2 0x2D7C JUMP JUMPDEST SUB SWAP3 PUSH2 0xE32 PUSH1 0x1F NOT SWAP5 DUP6 DUP2 ADD DUP4 MSTORE DUP3 PUSH2 0x2E84 JUMP JUMPDEST MLOAD SWAP1 KECCAK256 PUSH1 0x40 MLOAD DUP8 DUP2 ADD SWAP1 PUSH2 0xE73 DUP2 PUSH2 0xE67 DUP5 PUSH1 0x60 SWAP1 PUSH1 0x20 DUP2 MSTORE PUSH1 0x8 PUSH1 0x20 DUP3 ADD MSTORE PUSH8 0x1C995D99585B1959 PUSH1 0xC2 SHL PUSH1 0x40 DUP3 ADD MSTORE ADD SWAP1 JUMP JUMPDEST SUB DUP7 DUP2 ADD DUP4 MSTORE DUP3 PUSH2 0x2E84 JUMP JUMPDEST MLOAD SWAP1 KECCAK256 SUB PUSH2 0x1295 JUMPI DUP9 ISZERO PUSH2 0x1260 JUMPI PUSH1 0xA DUP4 ADD DUP10 PUSH1 0x1 PUSH1 0x1 PUSH1 0x60 SHL SUB PUSH1 0xA0 SHL DUP3 SLOAD AND OR SWAP1 SSTORE PUSH2 0xEA4 PUSH2 0x8A9 DUP3 SLOAD PUSH2 0x2D42 JUMP JUMPDEST PUSH1 0x12 PUSH9 0x18DBDB5C1B195D1959 PUSH1 0xBA SHL ADD SWAP1 SSTORE PUSH1 0x40 MLOAD PUSH2 0xED4 DUP7 DUP3 ADD SWAP3 DUP8 DUP5 MSTORE DUP3 PUSH2 0x704 PUSH1 0x40 DUP3 ADD PUSH1 0x1 DUP9 ADD PUSH2 0x2D7C JUMP JUMPDEST MLOAD SWAP1 KECCAK256 PUSH1 0x40 MLOAD DUP6 DUP2 ADD SWAP1 DUP7 DUP3 MSTORE PUSH1 0x5 PUSH1 0x40 DUP3 ADD MSTORE PUSH5 0x6172656E61 PUSH1 0xD8 SHL PUSH1 0x60 DUP3 ADD MSTORE PUSH1 0x60 DUP2 MSTORE PUSH2 0xF03 DUP2 PUSH2 0x2E68 JUMP JUMPDEST MLOAD SWAP1 KECCAK256 SUB PUSH2 0x113F JUMPI PUSH1 0xB ADD SLOAD SWAP1 PUSH1 0x5F DUP3 MUL DUP3 DUP2 DIV PUSH1 0x5F EQ DUP4 ISZERO OR ISZERO PUSH2 0x112A JUMPI PUSH1 0x64 SWAP1 DIV SWAP5 DUP6 DUP4 SUB SWAP3 DUP4 GT PUSH2 0x112A JUMPI PUSH1 0x40 MLOAD PUSH4 0xA9059CBB PUSH1 0xE0 SHL DUP1 DUP3 MSTORE PUSH1 0x1 PUSH1 0x1 PUSH1 0xA0 SHL SUB SWAP3 SWAP1 SWAP3 AND PUSH1 0x4 DUP3 ADD MSTORE PUSH1 0x24 DUP2 ADD DUP8 SWAP1 MSTORE PUSH32 0x0 DUP4 AND SWAP3 SWAP1 DUP7 DUP2 PUSH1 0x44 DUP2 PUSH1 0x0 DUP9 GAS CALL SWAP1 DUP2 ISZERO PUSH2 0x98E JUMPI PUSH1 0x0 SWAP2 PUSH2 0x110D JUMPI JUMPDEST POP ISZERO PUSH2 0x10D0 JUMPI PUSH1 0x0 DUP1 SLOAD PUSH1 0x40 MLOAD SWAP4 DUP5 MSTORE PUSH1 0x8 SHR SWAP2 SWAP1 SWAP2 AND PUSH1 0x1 PUSH1 0x1 PUSH1 0xA0 SHL SUB AND PUSH1 0x4 DUP4 ADD MSTORE PUSH1 0x24 DUP3 ADD SWAP4 SWAP1 SWAP4 MSTORE SWAP2 DUP5 SWAP2 DUP4 SWAP2 DUP3 SWAP1 DUP2 PUSH1 0x44 DUP2 ADD SUB SWAP3 GAS CALL SWAP1 DUP2 ISZERO PUSH2 0x98E JUMPI PUSH1 0x0 SWAP2 PUSH2 0x10A3 JUMPI JUMPDEST POP ISZERO PUSH2 0x1060 JUMPI POP PUSH32 0x76E3932AB627FBF797DF82027F96467D2DB24B01F1863446B10447EB72D64CF2 SWAP2 PUSH1 0x40 PUSH1 0x80 SWAP3 JUMPDEST DUP7 PUSH1 0x0 MSTORE PUSH1 0xE DUP2 MSTORE DUP2 PUSH1 0x0 KECCAK256 PUSH2 0x1027 DUP5 DUP3 SLOAD PUSH2 0x3154 JUMP JUMPDEST SWAP1 SSTORE DUP2 MLOAD SWAP3 DUP4 MSTORE DUP3 ADD MSTORE PUSH1 0xA PUSH1 0x40 DUP3 ADD MSTORE PUSH10 0x1CD95D1D1B195B595B9D PUSH1 0xB2 SHL PUSH1 0x60 DUP3 ADD MSTORE LOG3 PUSH1 0x1 PUSH1 0x0 DUP1 MLOAD PUSH1 0x20 PUSH2 0x39D8 DUP4 CODECOPY DUP2 MLOAD SWAP2 MSTORE SSTORE STOP JUMPDEST SWAP1 PUSH1 0x19 PUSH1 0x64 SWAP3 PUSH1 0x40 MLOAD SWAP3 PUSH3 0x461BCD PUSH1 0xE5 SHL DUP5 MSTORE PUSH1 0x4 DUP5 ADD MSTORE DUP3 ADD MSTORE PUSH32 0x6F776E657220666565207472616E73666572206661696C656400000000000000 PUSH1 0x44 DUP3 ADD MSTORE REVERT JUMPDEST PUSH2 0x10C3 SWAP2 POP DUP4 RETURNDATASIZE DUP6 GT PUSH2 0x10C9 JUMPI JUMPDEST PUSH2 0x10BB DUP2 DUP4 PUSH2 0x2E84 JUMP JUMPDEST DUP2 ADD SWAP1 PUSH2 0x3100 JUMP JUMPDEST DUP7 PUSH2 0xFE1 JUMP JUMPDEST POP RETURNDATASIZE PUSH2 0x10B1 JUMP JUMPDEST PUSH1 0x40 MLOAD PUSH3 0x461BCD PUSH1 0xE5 SHL DUP2 MSTORE PUSH1 0x4 DUP2 ADD DUP8 SWAP1 MSTORE PUSH1 0x16 DUP2 DUP8 ADD MSTORE PUSH22 0x1DDA5B9B995C881D1C985B9CD9995C8819985A5B1959 PUSH1 0x52 SHL PUSH1 0x44 DUP3 ADD MSTORE PUSH1 0x64 SWAP1 REVERT JUMPDEST PUSH2 0x1124 SWAP2 POP DUP8 RETURNDATASIZE DUP10 GT PUSH2 0x10C9 JUMPI PUSH2 0x10BB DUP2 DUP4 PUSH2 0x2E84 JUMP JUMPDEST DUP11 PUSH2 0xF95 JUMP JUMPDEST DUP4 PUSH4 0x4E487B71 PUSH1 0xE0 SHL PUSH1 0x0 MSTORE PUSH1 0x11 PUSH1 0x4 MSTORE PUSH1 0x0 REVERT JUMPDEST PUSH1 0xB SWAP1 SWAP5 SWAP2 SWAP5 ADD SLOAD PUSH1 0xC3 DUP2 MUL SWAP1 DUP1 DUP3 DIV PUSH1 0xC3 EQ SWAP1 ISZERO OR ISZERO PUSH2 0x124B JUMPI PUSH1 0x40 MLOAD PUSH4 0xA9059CBB PUSH1 0xE0 SHL DUP2 MSTORE PUSH1 0x1 PUSH1 0x1 PUSH1 0xA0 SHL SUB SWAP3 SWAP1 SWAP3 AND PUSH1 0x4 DUP4 ADD MSTORE PUSH1 0x64 SWAP1 DIV PUSH1 0x24 DUP3 ADD DUP2 SWAP1 MSTORE SWAP4 DUP4 SWAP1 DUP3 SWAP1 PUSH1 0x44 SWAP1 DUP3 SWAP1 PUSH1 0x0 SWAP1 PUSH32 0x0 AND GAS CALL SWAP1 DUP2 ISZERO PUSH2 0x98E JUMPI PUSH1 0x0 SWAP2 PUSH2 0x122E JUMPI JUMPDEST POP ISZERO PUSH2 0x11F6 JUMPI POP PUSH32 0x76E3932AB627FBF797DF82027F96467D2DB24B01F1863446B10447EB72D64CF2 SWAP2 PUSH1 0x40 PUSH1 0x80 SWAP3 PUSH2 0x1010 JUMP JUMPDEST SWAP1 PUSH1 0x12 PUSH1 0x64 SWAP3 PUSH1 0x40 MLOAD SWAP3 PUSH3 0x461BCD PUSH1 0xE5 SHL DUP5 MSTORE PUSH1 0x4 DUP5 ADD MSTORE DUP3 ADD MSTORE PUSH18 0x1CDBDB1BC81C185E5BDD5D0819985A5B1959 PUSH1 0x72 SHL PUSH1 0x44 DUP3 ADD MSTORE REVERT JUMPDEST PUSH2 0x1245 SWAP2 POP DUP4 RETURNDATASIZE DUP6 GT PUSH2 0x10C9 JUMPI PUSH2 0x10BB DUP2 DUP4 PUSH2 0x2E84 JUMP JUMPDEST DUP7 PUSH2 0x11C3 JUMP JUMPDEST DUP3 PUSH4 0x4E487B71 PUSH1 0xE0 SHL PUSH1 0x0 MSTORE PUSH1 0x11 PUSH1 0x4 MSTORE PUSH1 0x0 REVERT JUMPDEST PUSH1 0x40 MLOAD PUSH3 0x461BCD PUSH1 0xE5 SHL DUP2 MSTORE PUSH1 0x4 DUP2 ADD DUP8 SWAP1 MSTORE PUSH1 0xE DUP2 DUP8 ADD MSTORE PUSH14 0x34B73B30B634B2103BB4B73732B9 PUSH1 0x91 SHL PUSH1 0x44 DUP3 ADD MSTORE PUSH1 0x64 SWAP1 REVERT JUMPDEST PUSH1 0x40 MLOAD PUSH3 0x461BCD PUSH1 0xE5 SHL DUP2 MSTORE PUSH1 0x4 DUP2 ADD DUP8 SWAP1 MSTORE PUSH1 0x12 DUP2 DUP8 ADD MSTORE PUSH18 0x1C9BDD5B99081B9BDD081C995D99585B1959 PUSH1 0x72 SHL PUSH1 0x44 DUP3 ADD MSTORE PUSH1 0x64 SWAP1 REVERT JUMPDEST CALLVALUE PUSH2 0x263 JUMPI PUSH1 0x0 CALLDATASIZE PUSH1 0x3 NOT ADD SLT PUSH2 0x263 JUMPI PUSH1 0x20 PUSH1 0x4 SLOAD PUSH1 0x40 MLOAD SWAP1 DUP2 MSTORE RETURN JUMPDEST CALLVALUE PUSH2 0x263 JUMPI PUSH1 0x0 CALLDATASIZE PUSH1 0x3 NOT ADD SLT PUSH2 0x263 JUMPI PUSH1 0x20 PUSH1 0x3 SLOAD PUSH1 0x40 MLOAD SWAP1 DUP2 MSTORE RETURN JUMPDEST CALLVALUE PUSH2 0x263 JUMPI PUSH1 0x20 CALLDATASIZE PUSH1 0x3 NOT ADD SLT PUSH2 0x263 JUMPI PUSH2 0x1323 PUSH2 0x2C9E JUMP JUMPDEST PUSH2 0x132B PUSH2 0x3699 JUMP JUMPDEST PUSH1 0x1 DUP1 PUSH1 0xA0 SHL SUB AND DUP1 PUSH1 0x0 MSTORE PUSH1 0xD PUSH1 0x20 MSTORE PUSH1 0x40 PUSH1 0x0 KECCAK256 PUSH1 0xFF NOT SWAP1 PUSH1 0x1 DUP3 DUP3 SLOAD AND OR SWAP1 SSTORE PUSH1 0xE PUSH1 0x20 MSTORE PUSH1 0x1 PUSH1 0x5 PUSH1 0x40 PUSH1 0x0 KECCAK256 ADD SWAP2 DUP3 SLOAD AND OR SWAP1 SSTORE PUSH32 0xE9668CCA25138AD3C67EC987CB4843E582D8B30A9B47338C21B2C18ADE516454 PUSH1 0x0 DUP1 LOG2 STOP JUMPDEST CALLVALUE PUSH2 0x263 JUMPI PUSH2 0x1399 CALLDATASIZE PUSH2 0x2EA6 JUMP JUMPDEST SWAP1 PUSH2 0x13A2 PUSH2 0x3699 JUMP JUMPDEST DUP1 ISZERO ISZERO DUP1 PUSH2 0x13FD JUMPI JUMPDEST ISZERO PUSH2 0x13B8 JUMPI PUSH1 0x6 SSTORE PUSH1 0x7 SSTORE STOP JUMPDEST PUSH1 0x40 MLOAD PUSH3 0x461BCD PUSH1 0xE5 SHL DUP2 MSTORE PUSH1 0x20 PUSH1 0x4 DUP3 ADD MSTORE PUSH1 0x17 PUSH1 0x24 DUP3 ADD MSTORE PUSH32 0x706172616D73206D75737420626520706F736974697665000000000000000000 PUSH1 0x44 DUP3 ADD MSTORE PUSH1 0x64 SWAP1 REVERT JUMPDEST POP DUP2 ISZERO ISZERO PUSH2 0x13AB JUMP JUMPDEST CALLVALUE PUSH2 0x263 JUMPI PUSH1 0x20 DUP1 PUSH1 0x3 NOT CALLDATASIZE ADD SLT PUSH2 0x263 JUMPI PUSH2 0x1420 PUSH2 0x3699 JUMP JUMPDEST PUSH2 0x1428 PUSH2 0x370C JUMP JUMPDEST PUSH1 0x4 CALLDATALOAD PUSH1 0x0 MSTORE PUSH1 0xB DUP2 MSTORE PUSH1 0x40 PUSH1 0x0 KECCAK256 PUSH2 0x1443 DUP2 SLOAD ISZERO ISZERO PUSH2 0x30C2 JUMP JUMPDEST PUSH1 0x0 SWAP2 PUSH1 0x1 SWAP1 PUSH1 0x1 PUSH1 0x1 PUSH1 0xA0 SHL SUB PUSH32 0x0 DUP2 AND SWAP2 SWAP1 DUP5 DUP5 ADD SWAP1 PUSH1 0x4 DUP7 ADD DUP6 JUMPDEST PUSH2 0x14AC JUMPI JUMPDEST PUSH1 0x2 DUP8 ADD DUP1 SLOAD PUSH3 0xFF0000 NOT AND PUSH3 0x10000 OR SWAP1 SSTORE PUSH1 0x1 PUSH1 0x0 DUP1 MLOAD PUSH1 0x20 PUSH2 0x39D8 DUP4 CODECOPY DUP2 MLOAD SWAP2 MSTORE SSTORE STOP JUMPDEST DUP1 SWAP7 SWAP6 SWAP7 SLOAD DUP9 LT ISZERO PUSH2 0x15A7 JUMPI DUP8 DUP3 PUSH2 0x14C9 PUSH2 0x1505 SWAP9 SWAP10 SWAP11 DUP5 PUSH2 0x2F50 JUMP JUMPDEST SWAP1 SLOAD SWAP1 PUSH1 0x3 SHL SHR AND SWAP1 DUP6 DUP6 SLOAD PUSH1 0x40 MLOAD DUP1 SWAP11 DUP2 SWAP3 PUSH4 0xA9059CBB PUSH1 0xE0 SHL DUP4 MSTORE DUP7 PUSH1 0x4 DUP5 ADD PUSH1 0x20 SWAP1 SWAP4 SWAP3 SWAP2 SWAP4 PUSH1 0x40 DUP2 ADD SWAP5 PUSH1 0x1 DUP1 PUSH1 0xA0 SHL SUB AND DUP2 MSTORE ADD MSTORE JUMP JUMPDEST SUB DUP2 PUSH1 0x0 DUP12 GAS CALL SWAP2 DUP3 ISZERO PUSH2 0x98E JUMPI PUSH2 0x1529 DUP12 SWAP10 SWAP4 DUP11 SWAP5 PUSH1 0x0 SWAP2 PUSH2 0x158A JUMPI JUMPDEST POP PUSH2 0x3118 JUMP JUMPDEST PUSH1 0x0 PUSH32 0x9B4B9FE42E556D768A938A82696607B338F22ED4A51CD053CE2559EFC1616A5A PUSH1 0x80 DUP9 SLOAD PUSH1 0x40 MLOAD SWAP1 DUP2 MSTORE PUSH1 0x40 DUP12 DUP3 ADD MSTORE PUSH1 0x16 PUSH1 0x40 DUP3 ADD MSTORE PUSH22 0x195B595C99D95B98DE48185C995B98481C99599D5B99 PUSH1 0x52 SHL PUSH1 0x60 DUP3 ADD MSTORE LOG3 ADD SWAP8 PUSH2 0x1480 JUMP JUMPDEST PUSH2 0x15A1 SWAP2 POP DUP10 RETURNDATASIZE DUP12 GT PUSH2 0x10C9 JUMPI PUSH2 0x10BB DUP2 DUP4 PUSH2 0x2E84 JUMP JUMPDEST DUP14 PUSH2 0x1523 JUMP JUMPDEST DUP6 SWAP7 POP PUSH2 0x1485 JUMP JUMPDEST CALLVALUE PUSH2 0x263 JUMPI PUSH1 0x20 CALLDATASIZE PUSH1 0x3 NOT ADD SLT PUSH2 0x263 JUMPI PUSH1 0x4 CALLDATALOAD PUSH2 0x15CB PUSH2 0x36EE JUMP JUMPDEST PUSH2 0x15D3 PUSH2 0x370C JUMP JUMPDEST CALLER PUSH1 0x0 MSTORE PUSH1 0xD PUSH1 0x20 MSTORE PUSH2 0x15EE PUSH1 0xFF PUSH1 0x40 PUSH1 0x0 KECCAK256 SLOAD AND ISZERO PUSH2 0x2ECB JUMP JUMPDEST PUSH2 0x15F9 DUP2 ISZERO ISZERO PUSH2 0x2F0D JUMP JUMPDEST PUSH2 0x1603 DUP2 CALLER PUSH2 0x373C JUMP JUMPDEST PUSH1 0x0 NOT NUMBER ADD SWAP1 NUMBER DUP3 GT PUSH2 0x3A0 JUMPI PUSH1 0xE PUSH1 0x20 SWAP3 PUSH1 0x40 MLOAD DUP5 DUP2 ADD SWAP2 TIMESTAMP DUP4 MSTORE CALLER PUSH1 0x60 SHL PUSH1 0x40 DUP4 ADD MSTORE BLOCKHASH PUSH1 0x54 DUP3 ADD MSTORE PUSH1 0x54 DUP2 MSTORE PUSH2 0x163B DUP2 PUSH2 0x2E68 JUMP JUMPDEST MLOAD SWAP1 KECCAK256 SWAP2 DUP3 PUSH1 0x0 MSTORE PUSH1 0xF DUP5 MSTORE PUSH1 0x40 PUSH1 0x0 KECCAK256 SWAP1 DUP4 DUP3 SSTORE PUSH1 0x1 DUP3 ADD PUSH2 0x1661 PUSH2 0x8A9 DUP3 SLOAD PUSH2 0x2D42 JUMP JUMPDEST PUSH1 0x8 PUSH4 0x736F6C6F PUSH1 0xE0 SHL ADD SWAP1 SSTORE PUSH1 0x2 DUP3 ADD DUP1 SLOAD PUSH1 0x1 PUSH1 0x1 PUSH1 0xA0 SHL SUB NOT AND CALLER OR SWAP1 SSTORE PUSH1 0xB DUP3 ADD SSTORE TIMESTAMP PUSH1 0xF DUP3 ADD SSTORE ADD DUP1 SLOAD PUSH2 0x169D SWAP1 PUSH2 0x8A9 SWAP1 PUSH2 0x2D42 JUMP JUMPDEST PUSH1 0xE PUSH7 0x18DC99585D1959 PUSH1 0xCA SHL ADD SWAP1 SSTORE PUSH1 0x1 PUSH1 0x0 DUP1 MLOAD PUSH1 0x20 PUSH2 0x39D8 DUP4 CODECOPY DUP2 MLOAD SWAP2 MSTORE SSTORE PUSH1 0x40 MLOAD SWAP1 DUP2 MSTORE RETURN JUMPDEST CALLVALUE PUSH2 0x263 JUMPI PUSH1 0x20 CALLDATASIZE PUSH1 0x3 NOT ADD SLT PUSH2 0x263 JUMPI PUSH1 0x0 PUSH2 0x1E0 PUSH1 0x40 MLOAD PUSH2 0x16E9 DUP2 PUSH2 0x2E2F JUMP JUMPDEST DUP3 DUP2 MSTORE PUSH1 0x60 PUSH1 0x20 DUP3 ADD MSTORE DUP3 PUSH1 0x40 DUP3 ADD MSTORE DUP3 PUSH1 0x60 DUP3 ADD MSTORE DUP3 PUSH1 0x80 DUP3 ADD MSTORE PUSH1 0x60 PUSH1 0xA0 DUP3 ADD MSTORE PUSH1 0x60 PUSH1 0xC0 DUP3 ADD MSTORE DUP3 PUSH1 0xE0 DUP3 ADD MSTORE DUP3 PUSH2 0x100 DUP3 ADD MSTORE PUSH1 0x60 PUSH2 0x120 DUP3 ADD MSTORE DUP3 PUSH2 0x140 DUP3 ADD MSTORE DUP3 PUSH2 0x160 DUP3 ADD MSTORE PUSH1 0x60 PUSH2 0x180 DUP3 ADD MSTORE DUP3 PUSH2 0x1A0 DUP3 ADD MSTORE PUSH1 0x60 PUSH2 0x1C0 DUP3 ADD MSTORE ADD MSTORE PUSH1 0x4 CALLDATALOAD PUSH1 0x0 MSTORE PUSH1 0xF PUSH1 0x20 MSTORE PUSH1 0x40 PUSH1 0x0 KECCAK256 PUSH1 0x40 MLOAD PUSH2 0x176B DUP2 PUSH2 0x2E2F JUMP JUMPDEST DUP2 SLOAD DUP2 MSTORE PUSH1 0x40 MLOAD PUSH2 0x1783 DUP2 PUSH2 0xB54 DUP2 PUSH1 0x1 DUP8 ADD PUSH2 0x2D7C JUMP JUMPDEST PUSH1 0x20 DUP3 ADD MSTORE PUSH1 0x2 DUP3 ADD SLOAD PUSH1 0x1 PUSH1 0x1 PUSH1 0xA0 SHL SUB AND PUSH1 0x40 DUP1 DUP4 ADD SWAP2 SWAP1 SWAP2 MSTORE PUSH1 0x3 DUP4 ADD SLOAD PUSH1 0x60 DUP4 ADD MSTORE PUSH1 0x4 DUP4 ADD SLOAD PUSH1 0x80 DUP4 ADD MSTORE MLOAD PUSH2 0x17C5 DUP2 PUSH2 0xB54 DUP2 PUSH1 0x5 DUP8 ADD PUSH2 0x2D7C JUMP JUMPDEST PUSH1 0xA0 DUP3 ADD MSTORE PUSH1 0x40 MLOAD PUSH2 0x17DE DUP2 PUSH2 0xB54 DUP2 PUSH1 0x6 DUP8 ADD PUSH2 0x2D7C JUMP JUMPDEST PUSH1 0xC0 DUP3 ADD MSTORE PUSH1 0x7 DUP3 ADD SLOAD PUSH1 0xE0 DUP3 ADD MSTORE PUSH1 0x8 DUP3 ADD SLOAD PUSH2 0x100 DUP3 ADD MSTORE PUSH1 0x9 DUP3 ADD SWAP2 PUSH1 0x40 MLOAD DUP1 PUSH1 0x20 DUP6 SLOAD SWAP2 DUP3 DUP2 MSTORE ADD SWAP5 PUSH1 0x0 MSTORE PUSH1 0x20 PUSH1 0x0 KECCAK256 SWAP1 PUSH1 0x0 JUMPDEST DUP2 DUP2 LT PUSH2 0x19EB JUMPI POP POP POP PUSH2 0x1830 DUP2 PUSH1 0xF SWAP5 SWAP6 SUB DUP3 PUSH2 0x2E84 JUMP JUMPDEST PUSH2 0x120 DUP5 ADD MSTORE PUSH1 0xA DUP2 ADD SLOAD PUSH1 0x1 PUSH1 0x1 PUSH1 0xA0 SHL SUB AND PUSH2 0x140 DUP5 ADD MSTORE PUSH1 0xB DUP2 ADD SLOAD PUSH2 0x160 DUP5 ADD MSTORE PUSH1 0x40 MLOAD PUSH2 0x1869 DUP2 PUSH2 0xB54 DUP2 PUSH1 0xC DUP7 ADD PUSH2 0x2D7C JUMP JUMPDEST PUSH2 0x180 DUP5 ADD MSTORE PUSH1 0xD DUP2 ADD SLOAD PUSH2 0x1A0 DUP5 ADD MSTORE PUSH1 0x40 MLOAD PUSH2 0x188E DUP2 PUSH2 0xB54 DUP2 PUSH1 0xE DUP7 ADD PUSH2 0x2D7C JUMP JUMPDEST PUSH2 0x1C0 DUP5 ADD MSTORE ADD SLOAD PUSH2 0x1E0 DUP3 ADD MSTORE PUSH1 0x40 MLOAD PUSH1 0x20 DUP2 MSTORE DUP2 MLOAD PUSH1 0x20 DUP3 ADD MSTORE PUSH2 0x191D PUSH2 0x1907 PUSH2 0x18CB PUSH1 0x20 DUP6 ADD MLOAD PUSH2 0x200 PUSH1 0x40 DUP7 ADD MSTORE PUSH2 0x220 DUP6 ADD SWAP1 PUSH2 0x2CD4 JUMP JUMPDEST PUSH1 0x1 DUP1 PUSH1 0xA0 SHL SUB PUSH1 0x40 DUP7 ADD MLOAD AND PUSH1 0x60 DUP6 ADD MSTORE PUSH1 0x60 DUP6 ADD MLOAD PUSH1 0x80 DUP6 ADD MSTORE PUSH1 0x80 DUP6 ADD MLOAD PUSH1 0xA0 DUP6 ADD MSTORE PUSH1 0xA0 DUP6 ADD MLOAD PUSH1 0x1F NOT DUP6 DUP4 SUB ADD PUSH1 0xC0 DUP7 ADD MSTORE PUSH2 0x2CD4 JUMP JUMPDEST PUSH1 0xC0 DUP5 ADD MLOAD DUP4 DUP3 SUB PUSH1 0x1F NOT ADD PUSH1 0xE0 DUP6 ADD MSTORE PUSH2 0x2CD4 JUMP JUMPDEST SWAP2 PUSH1 0xE0 DUP2 ADD MLOAD PUSH2 0x100 DUP4 ADD MSTORE PUSH2 0x100 DUP2 ADD MLOAD PUSH2 0x120 DUP4 ADD MSTORE PUSH2 0x120 DUP2 ADD MLOAD SWAP3 PUSH1 0x1F NOT DUP4 DUP3 SUB ADD PUSH2 0x140 DUP5 ADD MSTORE PUSH1 0x20 DUP1 DUP6 MLOAD SWAP3 DUP4 DUP2 MSTORE ADD SWAP5 ADD SWAP1 PUSH1 0x0 JUMPDEST DUP2 DUP2 LT PUSH2 0x19D5 JUMPI POP POP POP PUSH2 0x1E0 PUSH2 0x19C8 PUSH2 0x19A6 DUP5 SWAP6 PUSH1 0x1 DUP1 PUSH1 0xA0 SHL SUB PUSH2 0x140 DUP7 ADD MLOAD AND PUSH2 0x160 DUP8 ADD MSTORE PUSH2 0x160 DUP6 ADD MLOAD PUSH2 0x180 DUP8 ADD MSTORE PUSH2 0x180 DUP6 ADD MLOAD PUSH1 0x1F NOT DUP8 DUP4 SUB ADD PUSH2 0x1A0 DUP9 ADD MSTORE PUSH2 0x2CD4 JUMP JUMPDEST PUSH2 0x1A0 DUP5 ADD MLOAD PUSH2 0x1C0 DUP7 ADD MSTORE PUSH2 0x1C0 DUP5 ADD MLOAD PUSH1 0x1F NOT DUP7 DUP4 SUB ADD DUP5 DUP8 ADD MSTORE PUSH2 0x2CD4 JUMP JUMPDEST SWAP2 ADD MLOAD PUSH2 0x200 DUP4 ADD MSTORE SUB SWAP1 RETURN JUMPDEST DUP3 MLOAD DUP7 MSTORE PUSH1 0x20 SWAP6 DUP7 ADD SWAP6 SWAP1 SWAP3 ADD SWAP2 PUSH1 0x1 ADD PUSH2 0x1959 JUMP JUMPDEST DUP3 SLOAD DUP8 MSTORE PUSH1 0x20 SWAP1 SWAP7 ADD SWAP6 PUSH1 0x1 SWAP3 DUP4 ADD SWAP3 ADD PUSH2 0x1817 JUMP JUMPDEST CALLVALUE PUSH2 0x263 JUMPI PUSH1 0x20 CALLDATASIZE PUSH1 0x3 NOT ADD SLT PUSH2 0x263 JUMPI PUSH2 0x1A1A PUSH2 0x2C9E JUMP JUMPDEST PUSH1 0x0 SLOAD PUSH1 0x1 PUSH1 0x1 PUSH1 0xA0 SHL SUB SWAP2 SWAP1 PUSH1 0x8 SHR DUP3 AND CALLER DUP2 EQ ISZERO DUP1 PUSH2 0x1ABD JUMPI JUMPDEST PUSH2 0x1A95 JUMPI POP AND DUP1 ISZERO PUSH2 0x1A83 JUMPI PUSH1 0x20 DUP2 PUSH32 0xD1A6A14209A385A964D036E404CB5CFB71F4000CDB03C9366292430787261BE6 SWAP3 PUSH1 0x1 PUSH1 0x1 PUSH1 0x60 SHL SUB PUSH1 0xA0 SHL PUSH1 0x2 SLOAD AND OR PUSH1 0x2 SSTORE PUSH1 0x40 MLOAD SWAP1 DUP2 MSTORE LOG1 STOP JUMPDEST PUSH1 0x40 MLOAD PUSH4 0xD92E233D PUSH1 0xE0 SHL DUP2 MSTORE PUSH1 0x4 SWAP1 REVERT JUMPDEST PUSH1 0x64 SWAP1 DUP4 PUSH1 0x2 SLOAD AND PUSH1 0x40 MLOAD SWAP2 PUSH4 0x61DB9C1 PUSH1 0xE0 SHL DUP4 MSTORE CALLER PUSH1 0x4 DUP5 ADD MSTORE PUSH1 0x24 DUP4 ADD MSTORE PUSH1 0x44 DUP3 ADD MSTORE REVERT JUMPDEST POP DUP3 PUSH1 0x2 SLOAD AND CALLER EQ ISZERO PUSH2 0x1A36 JUMP JUMPDEST CALLVALUE PUSH2 0x263 JUMPI PUSH1 0x0 CALLDATASIZE PUSH1 0x3 NOT ADD SLT PUSH2 0x263 JUMPI PUSH1 0x0 SLOAD PUSH1 0x40 MLOAD PUSH1 0x8 SWAP2 SWAP1 SWAP2 SHR PUSH1 0x1 PUSH1 0x1 PUSH1 0xA0 SHL SUB AND DUP2 MSTORE PUSH1 0x20 SWAP1 RETURN JUMPDEST CALLVALUE PUSH2 0x263 JUMPI PUSH1 0x20 CALLDATASIZE PUSH1 0x3 NOT ADD SLT PUSH2 0x263 JUMPI PUSH1 0x4 CALLDATALOAD PUSH1 0x0 MSTORE PUSH1 0xF PUSH1 0x20 MSTORE PUSH1 0x40 PUSH1 0x0 KECCAK256 DUP1 SLOAD SWAP1 PUSH1 0x40 MLOAD SWAP1 DUP2 DUP1 PUSH1 0x1 DUP4 ADD SWAP1 PUSH2 0x1B30 SWAP2 PUSH2 0x2D7C JUMP JUMPDEST SUB PUSH2 0x1B3B SWAP1 DUP4 PUSH2 0x2E84 JUMP JUMPDEST PUSH1 0x2 DUP2 ADD SLOAD PUSH1 0x3 DUP3 ADD SLOAD PUSH1 0x4 DUP4 ADD SLOAD PUSH1 0x40 MLOAD SWAP2 SWAP4 SWAP3 SWAP1 SWAP2 PUSH1 0x1 PUSH1 0x1 PUSH1 0xA0 SHL SUB SWAP2 DUP3 AND SWAP2 SWAP1 DUP1 PUSH2 0x1B6D DUP2 PUSH1 0x5 DUP9 ADD PUSH2 0x2D7C JUMP JUMPDEST SUB PUSH2 0x1B78 SWAP1 DUP3 PUSH2 0x2E84 JUMP JUMPDEST PUSH1 0x40 MLOAD DUP1 PUSH2 0x1B89 DUP2 PUSH1 0x6 DUP10 ADD PUSH2 0x2D7C JUMP JUMPDEST SUB PUSH2 0x1B94 SWAP1 DUP3 PUSH2 0x2E84 JUMP JUMPDEST PUSH1 0x7 DUP7 ADD SLOAD SWAP3 PUSH1 0x8 DUP8 ADD SLOAD SWAP1 PUSH1 0xA DUP9 ADD SLOAD AND SWAP2 PUSH1 0xB DUP9 ADD SLOAD SWAP4 PUSH1 0x40 MLOAD SWAP7 DUP8 DUP1 PUSH1 0xC DUP13 ADD SWAP1 PUSH2 0x1BC1 SWAP2 PUSH2 0x2D7C JUMP JUMPDEST SUB PUSH2 0x1BCC SWAP1 DUP10 PUSH2 0x2E84 JUMP JUMPDEST PUSH1 0xD DUP11 ADD SLOAD SWAP9 PUSH1 0x40 MLOAD SWAP11 DUP12 DUP1 PUSH1 0xE DUP4 ADD SWAP1 PUSH2 0x1BE6 SWAP2 PUSH2 0x2D7C JUMP JUMPDEST SUB PUSH2 0x1BF1 SWAP1 DUP14 PUSH2 0x2E84 JUMP JUMPDEST PUSH1 0xF ADD SLOAD SWAP12 PUSH1 0x40 MLOAD SWAP15 DUP16 SWAP15 DUP16 SWAP2 PUSH2 0x1E0 SWAP1 DUP4 MSTORE DUP1 PUSH1 0x20 DUP5 ADD MSTORE DUP3 ADD PUSH2 0x1C15 SWAP2 PUSH2 0x2CD4 JUMP JUMPDEST SWAP4 PUSH1 0x40 DUP3 ADD MSTORE PUSH1 0x60 ADD MSTORE PUSH1 0x80 DUP14 ADD MSTORE DUP12 DUP2 SUB PUSH1 0xA0 DUP14 ADD MSTORE PUSH2 0x1C35 SWAP2 PUSH2 0x2CD4 JUMP JUMPDEST DUP11 DUP2 SUB PUSH1 0xC0 DUP13 ADD MSTORE PUSH2 0x1C46 SWAP2 PUSH2 0x2CD4 JUMP JUMPDEST SWAP4 PUSH1 0xE0 DUP11 ADD MSTORE PUSH2 0x100 DUP10 ADD MSTORE PUSH2 0x120 DUP9 ADD MSTORE PUSH2 0x140 DUP8 ADD MSTORE DUP6 DUP2 SUB PUSH2 0x160 DUP8 ADD MSTORE PUSH2 0x1C70 SWAP2 PUSH2 0x2CD4 JUMP JUMPDEST SWAP1 PUSH2 0x180 DUP6 ADD MSTORE DUP4 DUP2 SUB PUSH2 0x1A0 DUP6 ADD MSTORE PUSH2 0x1C89 SWAP2 PUSH2 0x2CD4 JUMP JUMPDEST SWAP1 PUSH2 0x1C0 DUP4 ADD MSTORE SUB SWAP1 RETURN JUMPDEST CALLVALUE PUSH2 0x263 JUMPI PUSH1 0x0 CALLDATASIZE PUSH1 0x3 NOT ADD SLT PUSH2 0x263 JUMPI PUSH1 0x20 PUSH1 0x40 MLOAD PUSH32 0x0 DUP2 MSTORE RETURN JUMPDEST CALLVALUE PUSH2 0x263 JUMPI PUSH2 0x1CDD CALLDATASIZE PUSH2 0x2CB4 JUMP JUMPDEST SWAP1 PUSH2 0x1CE6 PUSH2 0x36EE JUMP JUMPDEST CALLER PUSH1 0x0 MSTORE PUSH1 0xFF PUSH1 0x20 SWAP3 PUSH1 0xD DUP5 MSTORE PUSH2 0x1D04 DUP3 PUSH1 0x40 PUSH1 0x0 KECCAK256 SLOAD AND ISZERO PUSH2 0x2ECB JUMP JUMPDEST AND SWAP2 PUSH1 0x4 DUP4 LT ISZERO PUSH2 0x1DB6 JUMPI DUP2 PUSH1 0x0 MSTORE PUSH1 0xB DUP2 MSTORE PUSH1 0x40 PUSH1 0x0 KECCAK256 PUSH1 0xFF PUSH1 0x2 DUP3 ADD SLOAD PUSH2 0x1D33 DUP3 DUP3 PUSH1 0x8 SHR AND ISZERO ISZERO PUSH2 0x30C2 JUMP JUMPDEST PUSH1 0x10 SHR AND PUSH2 0x1D81 JUMPI SWAP1 PUSH1 0x5 PUSH32 0x66CEE2873C9D4F051647DE1B983BE68FC0860D323D4FF6594C7D622CA213BC3F SWAP3 CALLER PUSH1 0x0 MSTORE ADD DUP2 MSTORE PUSH1 0x40 PUSH1 0x0 KECCAK256 DUP5 PUSH1 0xFF NOT DUP3 SLOAD AND OR SWAP1 SSTORE PUSH1 0x40 MLOAD SWAP4 DUP5 MSTORE CALLER SWAP4 LOG3 STOP JUMPDEST PUSH1 0x40 MLOAD PUSH3 0x461BCD PUSH1 0xE5 SHL DUP2 MSTORE PUSH1 0x4 DUP2 ADD DUP4 SWAP1 MSTORE PUSH1 0xD PUSH1 0x24 DUP3 ADD MSTORE PUSH13 0x185C995B98481CD95D1D1B1959 PUSH1 0x9A SHL PUSH1 0x44 DUP3 ADD MSTORE PUSH1 0x64 SWAP1 REVERT JUMPDEST PUSH1 0x64 SWAP1 PUSH1 0x40 MLOAD SWAP1 PUSH3 0x461BCD PUSH1 0xE5 SHL DUP3 MSTORE PUSH1 0x4 DUP3 ADD MSTORE PUSH1 0x12 PUSH1 0x24 DUP3 ADD MSTORE PUSH18 0xD2DCECC2D8D2C840C6C2E4C840D2DCC8CAF PUSH1 0x73 SHL PUSH1 0x44 DUP3 ADD MSTORE REVERT JUMPDEST CALLVALUE PUSH2 0x263 JUMPI PUSH1 0x20 CALLDATASIZE PUSH1 0x3 NOT ADD SLT PUSH2 0x263 JUMPI PUSH1 0x4 CALLDATALOAD PUSH1 0x0 MSTORE PUSH1 0xB PUSH1 0x20 MSTORE PUSH1 0xE0 PUSH1 0x40 PUSH1 0x0 KECCAK256 DUP1 SLOAD SWAP1 PUSH1 0x1 DUP2 ADD SLOAD SWAP1 PUSH1 0x3 PUSH1 0x2 DUP3 ADD SLOAD SWAP2 ADD SLOAD SWAP2 PUSH1 0x40 MLOAD SWAP4 DUP5 MSTORE PUSH1 0x20 DUP5 ADD MSTORE PUSH1 0xFF DUP2 AND PUSH1 0x40 DUP5 ADD MSTORE PUSH1 0xFF DUP2 PUSH1 0x8 SHR AND PUSH1 0x60 DUP5 ADD MSTORE PUSH1 0xFF DUP2 PUSH1 0x10 SHR AND ISZERO ISZERO PUSH1 0x80 DUP5 ADD MSTORE PUSH1 0x1 DUP1 PUSH1 0xA0 SHL SUB SWAP1 PUSH1 0x18 SHR AND PUSH1 0xA0 DUP4 ADD MSTORE PUSH1 0xC0 DUP3 ADD MSTORE RETURN JUMPDEST CALLVALUE PUSH2 0x263 JUMPI PUSH1 0x0 CALLDATASIZE PUSH1 0x3 NOT ADD SLT PUSH2 0x263 JUMPI PUSH2 0x1E85 PUSH2 0x3699 JUMP JUMPDEST PUSH2 0x1E8D PUSH2 0x36EE JUMP JUMPDEST PUSH1 0x1 PUSH1 0xFF NOT PUSH1 0x0 SLOAD AND OR PUSH1 0x0 SSTORE PUSH32 0x62E78CEA01BEE320CD4E420270B5EA74000D11B0C9F74754EBDBFC544B05A258 PUSH1 0x20 PUSH1 0x40 MLOAD CALLER DUP2 MSTORE LOG1 STOP JUMPDEST CALLVALUE PUSH2 0x263 JUMPI PUSH1 0x0 CALLDATASIZE PUSH1 0x3 NOT ADD SLT PUSH2 0x263 JUMPI PUSH1 0x1 SLOAD PUSH1 0x1 PUSH1 0x1 PUSH1 0xA0 SHL SUB DUP1 DUP3 AND CALLER SUB PUSH2 0x1F4C JUMPI PUSH1 0x0 DUP1 SLOAD PUSH2 0x100 PUSH1 0x1 PUSH1 0xA8 SHL SUB NOT DUP2 AND CALLER PUSH1 0x8 DUP2 DUP2 SHL PUSH2 0x100 PUSH1 0x1 PUSH1 0xA8 SHL SUB AND SWAP3 SWAP1 SWAP3 OR DUP5 SSTORE PUSH1 0x1 PUSH1 0x1 PUSH1 0xA0 SHL SUB NOT SWAP1 SWAP6 AND PUSH1 0x1 SSTORE SHR SWAP2 SWAP1 SWAP2 AND SWAP1 PUSH32 0x8BE0079C531659141344CD1FD0A4F28419497F9722A3DAAFE3B4186F6B6457E0 SWAP1 DUP1 LOG3 STOP JUMPDEST PUSH1 0x40 MLOAD PUSH3 0x461BCD PUSH1 0xE5 SHL DUP2 MSTORE PUSH1 0x20 PUSH1 0x4 DUP3 ADD MSTORE PUSH1 0x16 PUSH1 0x24 DUP3 ADD MSTORE PUSH22 0x26BAB9BA10313290383937B837B9B2B21037BBB732B9 PUSH1 0x51 SHL PUSH1 0x44 DUP3 ADD MSTORE PUSH1 0x64 SWAP1 REVERT JUMPDEST CALLVALUE PUSH2 0x263 JUMPI PUSH1 0x0 CALLDATASIZE PUSH1 0x3 NOT ADD SLT PUSH2 0x263 JUMPI PUSH1 0x20 PUSH1 0x8 SLOAD PUSH1 0x40 MLOAD SWAP1 DUP2 MSTORE RETURN JUMPDEST CALLVALUE PUSH2 0x263 JUMPI PUSH1 0x0 CALLDATASIZE PUSH1 0x3 NOT ADD SLT PUSH2 0x263 JUMPI PUSH1 0x20 PUSH1 0x5 SLOAD PUSH1 0x40 MLOAD SWAP1 DUP2 MSTORE RETURN JUMPDEST CALLVALUE PUSH2 0x263 JUMPI PUSH1 0x80 CALLDATASIZE PUSH1 0x3 NOT ADD SLT PUSH2 0x263 JUMPI PUSH8 0xFFFFFFFFFFFFFFFF PUSH1 0x4 CALLDATALOAD PUSH1 0x24 CALLDATALOAD DUP3 DUP2 GT PUSH2 0x263 JUMPI PUSH2 0x1FFB SWAP1 CALLDATASIZE SWAP1 PUSH1 0x4 ADD PUSH2 0x2D14 JUMP JUMPDEST PUSH1 0x44 CALLDATALOAD DUP5 DUP2 GT PUSH2 0x263 JUMPI PUSH2 0x2013 SWAP1 CALLDATASIZE SWAP1 PUSH1 0x4 ADD PUSH2 0x2D14 JUMP JUMPDEST PUSH1 0x64 CALLDATALOAD SWAP2 PUSH2 0x201F PUSH2 0x3699 JUMP JUMPDEST DUP6 PUSH1 0x0 MSTORE PUSH1 0x20 SWAP7 PUSH1 0xF DUP9 MSTORE PUSH1 0x40 PUSH1 0x0 KECCAK256 SWAP1 PUSH2 0x203C DUP3 SLOAD ISZERO ISZERO PUSH2 0x2FDD JUMP JUMPDEST PUSH1 0x5 DUP3 ADD DUP2 DUP8 GT PUSH2 0x99A JUMPI PUSH2 0x205B DUP8 PUSH2 0x2055 DUP4 SLOAD PUSH2 0x2D42 JUMP JUMPDEST DUP4 PUSH2 0x305C JUMP JUMPDEST DUP7 PUSH1 0x0 PUSH1 0x1F DUP3 GT PUSH1 0x1 EQ PUSH2 0x21CE JUMPI PUSH1 0x0 SWAP2 PUSH2 0x21C3 JUMPI JUMPDEST POP DUP8 PUSH1 0x1 SHL SWAP1 PUSH1 0x0 NOT DUP10 PUSH1 0x3 SHL SHR NOT AND OR SWAP1 SSTORE JUMPDEST PUSH1 0x6 DUP3 ADD SWAP1 DUP5 GT PUSH2 0x99A JUMPI PUSH2 0x209E DUP5 PUSH2 0x2055 DUP4 SLOAD PUSH2 0x2D42 JUMP JUMPDEST PUSH1 0x0 PUSH1 0x1F DUP6 GT PUSH1 0x1 EQ PUSH2 0x2132 JUMPI PUSH1 0x7 DUP6 SWAP4 PUSH32 0x431E05890B19757A3E2C8FCC029F9CBA75796D3F867432C8ACA4908A867C2A12 SWAP11 SWAP12 SWAP6 SWAP4 PUSH2 0x211C SWAP8 DUP10 SWAP5 PUSH1 0x0 SWAP2 PUSH2 0x2127 JUMPI JUMPDEST POP DUP7 PUSH1 0x1 SHL SWAP1 PUSH1 0x0 NOT DUP9 PUSH1 0x3 SHL SHR NOT AND OR SWAP1 SSTORE JUMPDEST ADD SSTORE PUSH2 0x210F PUSH1 0x40 MLOAD SWAP8 DUP9 SWAP8 PUSH1 0x60 DUP10 MSTORE PUSH1 0x60 DUP10 ADD SWAP2 PUSH2 0x30A1 JUMP JUMPDEST SWAP3 DUP7 DUP5 SUB SWAP1 DUP8 ADD MSTORE PUSH2 0x30A1 JUMP JUMPDEST SWAP1 PUSH1 0x40 DUP4 ADD MSTORE SUB SWAP1 LOG2 STOP JUMPDEST SWAP1 POP DUP6 ADD CALLDATALOAD DUP15 PUSH2 0x20E2 JUMP JUMPDEST PUSH1 0x1F NOT DUP6 AND SWAP1 DUP3 PUSH1 0x0 MSTORE DUP11 PUSH1 0x0 KECCAK256 SWAP2 PUSH1 0x0 JUMPDEST DUP2 DUP2 LT PUSH2 0x21AC JUMPI POP SWAP4 PUSH32 0x431E05890B19757A3E2C8FCC029F9CBA75796D3F867432C8ACA4908A867C2A12 SWAP11 SWAP12 SWAP6 SWAP4 DUP9 SWAP4 PUSH1 0x7 SWAP4 DUP10 PUSH2 0x211C SWAP11 SWAP9 LT PUSH2 0x2192 JUMPI JUMPDEST POP POP PUSH1 0x1 DUP7 DUP2 SHL ADD SWAP1 SSTORE PUSH2 0x20F6 JUMP JUMPDEST DUP7 ADD CALLDATALOAD PUSH1 0x0 NOT PUSH1 0x3 DUP10 SWAP1 SHL PUSH1 0xF8 AND SHR NOT AND SWAP1 SSTORE DUP14 DUP1 PUSH2 0x2183 JUMP JUMPDEST SWAP2 SWAP3 DUP13 PUSH1 0x1 DUP2 SWAP3 DUP7 DUP11 ADD CALLDATALOAD DUP2 SSTORE ADD SWAP5 ADD SWAP3 ADD PUSH2 0x2144 JUMP JUMPDEST SWAP1 POP DUP9 ADD CALLDATALOAD DUP12 PUSH2 0x2071 JUMP JUMPDEST PUSH1 0x0 DUP4 DUP2 MSTORE DUP13 DUP2 KECCAK256 SWAP3 POP DUP10 SWAP1 PUSH1 0x1F NOT DUP3 AND SWAP1 DUP15 JUMPDEST DUP14 DUP4 DUP4 LT PUSH2 0x221C JUMPI POP POP POP LT PUSH2 0x2202 JUMPI JUMPDEST POP POP PUSH1 0x1 DUP8 DUP2 SHL ADD SWAP1 SSTORE PUSH2 0x2085 JUMP JUMPDEST DUP10 ADD CALLDATALOAD PUSH1 0x0 NOT PUSH1 0x3 DUP11 SWAP1 SHL PUSH1 0xF8 AND SHR NOT AND SWAP1 SSTORE DUP11 DUP1 PUSH2 0x21F3 JUMP JUMPDEST DUP6 ADD CALLDATALOAD DUP7 SSTORE PUSH1 0x1 SWAP1 SWAP6 ADD SWAP5 SWAP4 DUP5 ADD SWAP4 DUP13 SWAP4 POP ADD DUP15 PUSH2 0x21E2 JUMP JUMPDEST CALLVALUE PUSH2 0x263 JUMPI PUSH1 0x20 CALLDATASIZE PUSH1 0x3 NOT ADD SLT PUSH2 0x263 JUMPI PUSH1 0x1 PUSH1 0x1 PUSH1 0xA0 SHL SUB PUSH2 0x2256 PUSH2 0x2C9E JUMP JUMPDEST AND PUSH1 0x0 MSTORE PUSH1 0xC PUSH1 0x20 MSTORE PUSH1 0x20 PUSH1 0x40 PUSH1 0x0 KECCAK256 SLOAD PUSH1 0x40 MLOAD SWAP1 DUP2 MSTORE RETURN JUMPDEST CALLVALUE PUSH2 0x263 JUMPI PUSH1 0x0 CALLDATASIZE PUSH1 0x3 NOT ADD SLT PUSH2 0x263 JUMPI PUSH1 0x20 PUSH1 0x7 SLOAD PUSH1 0x40 MLOAD SWAP1 DUP2 MSTORE RETURN JUMPDEST CALLVALUE PUSH2 0x263 JUMPI PUSH1 0x0 CALLDATASIZE PUSH1 0x3 NOT ADD SLT PUSH2 0x263 JUMPI PUSH1 0x20 PUSH1 0x40 MLOAD PUSH32 0x0 DUP2 MSTORE RETURN JUMPDEST CALLVALUE PUSH2 0x263 JUMPI PUSH1 0x0 CALLDATASIZE PUSH1 0x3 NOT ADD SLT PUSH2 0x263 JUMPI PUSH1 0x20 PUSH1 0xFF PUSH1 0x0 SLOAD AND PUSH1 0x40 MLOAD SWAP1 ISZERO ISZERO DUP2 MSTORE RETURN JUMPDEST CALLVALUE PUSH2 0x263 JUMPI PUSH1 0x20 DUP1 PUSH1 0x3 NOT CALLDATASIZE ADD SLT PUSH2 0x263 JUMPI PUSH1 0x4 CALLDATALOAD PUSH1 0x0 MSTORE PUSH1 0xF DUP2 MSTORE PUSH1 0x40 PUSH1 0x0 KECCAK256 PUSH1 0xE DUP2 ADD PUSH1 0x40 MLOAD DUP4 DUP2 ADD DUP5 DUP2 MSTORE DUP2 PUSH2 0x2327 PUSH1 0x40 DUP3 ADD DUP6 PUSH2 0x2D7C JUMP JUMPDEST SUB SWAP2 PUSH2 0x233B PUSH1 0x1F NOT SWAP4 DUP5 DUP2 ADD DUP4 MSTORE DUP3 PUSH2 0x2E84 JUMP JUMPDEST MLOAD SWAP1 KECCAK256 PUSH1 0x40 MLOAD DUP6 DUP2 ADD SWAP1 PUSH2 0x237C DUP2 PUSH2 0x2370 DUP5 PUSH1 0x60 SWAP1 PUSH1 0x20 DUP2 MSTORE PUSH1 0x8 PUSH1 0x20 DUP3 ADD MSTORE PUSH8 0x1C995D99585B1959 PUSH1 0xC2 SHL PUSH1 0x40 DUP3 ADD MSTORE ADD SWAP1 JUMP JUMPDEST SUB DUP6 DUP2 ADD DUP4 MSTORE DUP3 PUSH2 0x2E84 JUMP JUMPDEST MLOAD SWAP1 KECCAK256 EQ SWAP2 DUP3 ISZERO PUSH2 0x23D3 JUMPI JUMPDEST POP POP ISZERO PUSH2 0x239B JUMPI PUSH1 0x8 ADD SLOAD PUSH1 0x40 MLOAD SWAP1 DUP2 MSTORE RETURN JUMPDEST PUSH1 0x40 MLOAD PUSH3 0x461BCD PUSH1 0xE5 SHL DUP2 MSTORE PUSH1 0x4 DUP2 ADD DUP4 SWAP1 MSTORE PUSH1 0x10 PUSH1 0x24 DUP3 ADD MSTORE PUSH16 0x1D9C99881B9BDD081C995D99585B1959 PUSH1 0x82 SHL PUSH1 0x44 DUP3 ADD MSTORE PUSH1 0x64 SWAP1 REVERT JUMPDEST SWAP1 SWAP2 POP PUSH1 0x40 MLOAD PUSH2 0x23FD DUP2 PUSH2 0x23F1 DUP8 DUP3 ADD SWAP5 DUP9 DUP7 MSTORE PUSH1 0x40 DUP4 ADD SWAP1 PUSH2 0x2D7C JUMP JUMPDEST SUB DUP5 DUP2 ADD DUP4 MSTORE DUP3 PUSH2 0x2E84 JUMP JUMPDEST MLOAD SWAP1 KECCAK256 SWAP1 PUSH1 0x40 MLOAD PUSH2 0x2415 DUP6 DUP3 ADD SWAP3 DUP3 PUSH2 0x704 DUP6 PUSH2 0x2FB9 JUMP JUMPDEST MLOAD SWAP1 KECCAK256 EQ DUP4 DUP1 PUSH2 0x2388 JUMP JUMPDEST CALLVALUE PUSH2 0x263 JUMPI PUSH1 0x20 DUP1 PUSH1 0x3 NOT CALLDATASIZE ADD SLT PUSH2 0x263 JUMPI PUSH2 0x243A PUSH2 0x2C9E JUMP JUMPDEST PUSH1 0x0 PUSH1 0xE0 PUSH1 0x40 MLOAD PUSH2 0x244A DUP2 PUSH2 0x2E12 JUMP JUMPDEST DUP3 DUP2 MSTORE DUP3 DUP6 DUP3 ADD MSTORE DUP3 PUSH1 0x40 DUP3 ADD MSTORE DUP3 PUSH1 0x60 DUP3 ADD MSTORE PUSH1 0x60 PUSH1 0x80 DUP3 ADD MSTORE DUP3 PUSH1 0xA0 DUP3 ADD MSTORE DUP3 PUSH1 0xC0 DUP3 ADD MSTORE ADD MSTORE PUSH1 0x1 DUP1 PUSH1 0xA0 SHL SUB AND PUSH1 0x0 MSTORE PUSH1 0xE DUP2 MSTORE PUSH1 0x40 PUSH1 0x0 KECCAK256 PUSH1 0x40 MLOAD SWAP1 PUSH2 0x2494 DUP3 PUSH2 0x2E12 JUMP JUMPDEST DUP1 SLOAD DUP3 MSTORE PUSH1 0x1 DUP2 ADD SLOAD SWAP1 DUP4 DUP4 ADD SWAP2 DUP3 MSTORE PUSH1 0x2 DUP2 ADD SLOAD SWAP2 PUSH1 0x40 DUP5 ADD SWAP3 DUP4 MSTORE PUSH1 0x3 DUP3 ADD SLOAD PUSH1 0x60 DUP6 ADD SWAP1 DUP2 MSTORE PUSH1 0x40 MLOAD SWAP1 PUSH2 0x24D9 DUP3 PUSH2 0x24D2 DUP2 PUSH1 0x4 DUP9 ADD PUSH2 0x2D7C JUMP JUMPDEST SUB DUP4 PUSH2 0x2E84 JUMP JUMPDEST PUSH1 0x80 DUP7 ADD SWAP2 DUP3 MSTORE PUSH1 0xFF PUSH1 0x5 DUP6 ADD SLOAD AND SWAP5 PUSH1 0xA0 DUP8 ADD SWAP6 ISZERO ISZERO DUP7 MSTORE PUSH1 0x7 PUSH1 0x6 DUP7 ADD SLOAD SWAP6 PUSH1 0xC0 DUP10 ADD SWAP7 DUP8 MSTORE ADD SLOAD SWAP4 PUSH1 0xE0 DUP9 ADD SWAP5 DUP6 MSTORE PUSH1 0x40 MLOAD SWAP9 DUP10 SWAP9 DUP2 DUP11 MSTORE MLOAD SWAP1 DUP10 ADD MSTORE MLOAD PUSH1 0x40 DUP9 ADD MSTORE MLOAD PUSH1 0x60 DUP8 ADD MSTORE MLOAD PUSH1 0x80 DUP7 ADD MSTORE MLOAD SWAP2 PUSH2 0x2545 PUSH2 0x100 SWAP4 DUP5 PUSH1 0xA0 DUP9 ADD MSTORE PUSH2 0x120 DUP8 ADD SWAP1 PUSH2 0x2CD4 JUMP JUMPDEST SWAP4 MLOAD ISZERO ISZERO PUSH1 0xC0 DUP7 ADD MSTORE MLOAD PUSH1 0xE0 DUP6 ADD MSTORE MLOAD SWAP1 DUP4 ADD MSTORE SUB SWAP1 RETURN JUMPDEST CALLVALUE PUSH2 0x263 JUMPI PUSH1 0xFF PUSH2 0x256D CALLDATASIZE PUSH2 0x2CB4 JUMP JUMPDEST PUSH2 0x2578 SWAP3 SWAP2 SWAP3 PUSH2 0x36EE JUMP JUMPDEST PUSH2 0x2580 PUSH2 0x370C JUMP JUMPDEST CALLER PUSH1 0x0 MSTORE PUSH1 0xD PUSH1 0x20 MSTORE PUSH2 0x259A DUP3 PUSH1 0x40 PUSH1 0x0 KECCAK256 SLOAD AND ISZERO PUSH2 0x2ECB JUMP JUMPDEST AND PUSH1 0x2 DUP2 LT ISZERO DUP1 PUSH2 0x2696 JUMPI JUMPDEST ISZERO PUSH2 0x265A JUMPI DUP2 PUSH2 0x25B9 PUSH1 0x20 SWAP4 ISZERO ISZERO PUSH2 0x2F0D JUMP JUMPDEST PUSH2 0x25C3 DUP2 CALLER PUSH2 0x373C JUMP JUMPDEST PUSH2 0x25CE PUSH1 0x5 SLOAD PUSH2 0x2EBC JUMP JUMPDEST SWAP2 DUP3 PUSH1 0x5 SSTORE DUP3 PUSH1 0x0 MSTORE PUSH1 0xB DUP5 MSTORE PUSH2 0x260F PUSH1 0x40 PUSH1 0x0 KECCAK256 DUP5 DUP2 SSTORE DUP4 PUSH1 0x1 DUP3 ADD SSTORE PUSH1 0x2 DUP2 ADD PUSH2 0x100 DUP5 PUSH2 0xFFFF NOT DUP4 SLOAD AND OR OR SWAP1 SSTORE TIMESTAMP PUSH1 0x3 DUP3 ADD SSTORE PUSH1 0x4 CALLER SWAP2 ADD PUSH2 0x2F7E JUMP JUMPDEST PUSH1 0x40 MLOAD SWAP2 DUP3 MSTORE DUP4 DUP3 ADD MSTORE DUP2 PUSH32 0xA2BBD44031E4A29E8A7B02904C750B86EE4B539B515B912B6312F23F7A12DE8F PUSH1 0x40 CALLER SWAP4 LOG3 PUSH1 0x1 PUSH1 0x0 DUP1 MLOAD PUSH1 0x20 PUSH2 0x39D8 DUP4 CODECOPY DUP2 MLOAD SWAP2 MSTORE SSTORE PUSH1 0x40 MLOAD SWAP1 DUP2 MSTORE RETURN JUMPDEST PUSH1 0x40 MLOAD PUSH3 0x461BCD PUSH1 0xE5 SHL DUP2 MSTORE PUSH1 0x20 PUSH1 0x4 DUP3 ADD MSTORE PUSH1 0x14 PUSH1 0x24 DUP3 ADD MSTORE PUSH20 0x1A5B9D985B1A59081C1B185E595C8818DBDD5B9D PUSH1 0x62 SHL PUSH1 0x44 DUP3 ADD MSTORE PUSH1 0x64 SWAP1 REVERT JUMPDEST POP PUSH1 0x6 DUP2 GT ISZERO PUSH2 0x25A6 JUMP JUMPDEST CALLVALUE PUSH2 0x263 JUMPI PUSH1 0x0 CALLDATASIZE PUSH1 0x3 NOT ADD SLT PUSH2 0x263 JUMPI PUSH2 0x26BA PUSH2 0x3699 JUMP JUMPDEST PUSH1 0x0 SLOAD PUSH1 0xFF DUP2 AND ISZERO PUSH2 0x26F9 JUMPI PUSH1 0xFF NOT AND PUSH1 0x0 SSTORE PUSH32 0x5DB9EE0A495BF2E6FF9C91A7834C1BA4FDD244A5E8AA4E537BD38AEAE4B073AA PUSH1 0x20 PUSH1 0x40 MLOAD CALLER DUP2 MSTORE LOG1 STOP JUMPDEST PUSH1 0x40 MLOAD PUSH4 0x8DFC202B PUSH1 0xE0 SHL DUP2 MSTORE PUSH1 0x4 SWAP1 REVERT JUMPDEST CALLVALUE PUSH2 0x263 JUMPI PUSH1 0x20 CALLDATASIZE PUSH1 0x3 NOT ADD SLT PUSH2 0x263 JUMPI PUSH1 0x4 CALLDATALOAD PUSH2 0x2727 PUSH2 0x3699 JUMP JUMPDEST PUSH1 0x3C DUP2 GT ISZERO PUSH2 0x2735 JUMPI PUSH1 0x8 SSTORE STOP JUMPDEST PUSH1 0x40 MLOAD PUSH3 0x461BCD PUSH1 0xE5 SHL DUP2 MSTORE PUSH1 0x20 PUSH1 0x4 DUP3 ADD MSTORE PUSH1 0x11 PUSH1 0x24 DUP3 ADD MSTORE PUSH17 0x1D1A5B595BDD5D081D1BDBC81CDA1BDC9D PUSH1 0x7A SHL PUSH1 0x44 DUP3 ADD MSTORE PUSH1 0x64 SWAP1 REVERT JUMPDEST CALLVALUE PUSH2 0x263 JUMPI PUSH1 0x0 CALLDATASIZE PUSH1 0x3 NOT ADD SLT PUSH2 0x263 JUMPI PUSH1 0x20 PUSH1 0x6 SLOAD PUSH1 0x40 MLOAD SWAP1 DUP2 MSTORE RETURN JUMPDEST CALLVALUE PUSH2 0x263 JUMPI PUSH1 0x20 CALLDATASIZE PUSH1 0x3 NOT ADD SLT PUSH2 0x263 JUMPI PUSH2 0x27A5 PUSH2 0x2C9E JUMP JUMPDEST PUSH2 0x27AD PUSH2 0x3699 JUMP JUMPDEST PUSH1 0x1 PUSH1 0x1 PUSH1 0xA0 SHL SUB AND PUSH1 0x0 DUP2 DUP2 MSTORE PUSH1 0xE PUSH1 0x20 MSTORE PUSH1 0x40 SWAP1 KECCAK256 PUSH1 0x6 ADD DUP1 SLOAD PUSH2 0x27D2 SWAP1 PUSH2 0x2EBC JUMP JUMPDEST SWAP1 SSTORE DUP1 PUSH1 0x0 MSTORE PUSH1 0xE PUSH1 0x20 MSTORE PUSH1 0x40 PUSH1 0x0 KECCAK256 PUSH1 0x6 DUP2 ADD SLOAD PUSH1 0x7 SLOAD GT ISZERO PUSH2 0x27F2 JUMPI STOP JUMPDEST PUSH1 0x7 TIMESTAMP SWAP2 ADD SSTORE PUSH32 0x2CAB723428C7EE886BE3D0FB35D9AA30BEAB5ACC2016EA5DCADD2D6B9EEC81E5 PUSH1 0x20 PUSH1 0x6 SLOAD PUSH1 0x40 MLOAD SWAP1 DUP2 MSTORE LOG2 STOP JUMPDEST CALLVALUE PUSH2 0x263 JUMPI PUSH1 0x40 CALLDATASIZE PUSH1 0x3 NOT ADD SLT PUSH2 0x263 JUMPI PUSH1 0x24 DUP1 CALLDATALOAD PUSH8 0xFFFFFFFFFFFFFFFF SWAP2 DUP3 DUP3 GT PUSH2 0x263 JUMPI CALLDATASIZE PUSH1 0x23 DUP4 ADD SLT ISZERO PUSH2 0x263 JUMPI DUP2 PUSH1 0x4 ADD CALLDATALOAD SWAP2 DUP4 DUP4 GT PUSH2 0x263 JUMPI PUSH1 0x5 SWAP3 CALLDATASIZE DUP4 DUP3 PUSH1 0x5 SHL DUP5 ADD ADD GT PUSH2 0x263 JUMPI PUSH1 0x2 SLOAD PUSH1 0x1 PUSH1 0x1 PUSH1 0xA0 SHL SUB AND CALLER DUP2 SWAP1 SUB PUSH2 0x2AF4 JUMPI POP ISZERO PUSH2 0x2ABE JUMPI PUSH1 0x4 CALLDATALOAD PUSH1 0x0 MSTORE PUSH1 0x20 SWAP2 PUSH1 0x9 DUP4 MSTORE PUSH1 0x40 PUSH1 0x0 KECCAK256 SWAP4 PUSH1 0x1 SWAP1 DUP2 DUP7 ADD SLOAD SWAP7 DUP8 ISZERO PUSH2 0x2A86 JUMPI DUP8 PUSH1 0x0 MSTORE PUSH1 0xF DUP7 MSTORE PUSH1 0x3 DUP5 PUSH1 0x40 PUSH1 0x0 KECCAK256 SWAP7 ADD CALLDATALOAD SWAP8 DUP9 PUSH1 0x4 DUP3 ADD SSTORE ADD DUP4 PUSH1 0xFF NOT DUP3 SLOAD AND OR SWAP1 SSTORE DUP7 PUSH1 0x8 DUP7 ADD SSTORE PUSH1 0xE DUP6 ADD PUSH2 0x28ED PUSH2 0x8A9 DUP3 SLOAD PUSH2 0x2D42 JUMP JUMPDEST PUSH1 0x10 PUSH8 0x1C995D99585B1959 PUSH1 0xC2 SHL ADD SWAP1 SSTORE PUSH1 0x40 MLOAD SWAP4 PUSH2 0x290B DUP6 PUSH2 0x2E4C JUMP JUMPDEST PUSH1 0x4 DUP6 MSTORE DUP7 DUP6 ADD SWAP3 PUSH1 0x80 CALLDATASIZE DUP6 CALLDATACOPY PUSH1 0x0 JUMPDEST PUSH1 0x4 DUP2 LT PUSH2 0x2A37 JUMPI POP POP PUSH1 0x9 DUP7 ADD SWAP1 DUP6 MLOAD SWAP3 DUP4 GT PUSH2 0x2A23 JUMPI PUSH1 0x1 PUSH1 0x40 SHL DUP4 GT PUSH2 0x2A23 JUMPI POP DUP1 SLOAD DUP3 DUP3 SSTORE DUP1 DUP4 LT PUSH2 0x2A06 JUMPI JUMPDEST POP DUP3 SWAP5 SWAP4 SWAP5 SWAP1 PUSH1 0x0 MSTORE DUP7 PUSH1 0x0 KECCAK256 PUSH1 0x0 JUMPDEST DUP4 DUP2 LT PUSH2 0x29F5 JUMPI POP POP POP POP PUSH1 0x40 MLOAD SWAP2 DUP6 DUP4 ADD SWAP4 PUSH1 0x60 DUP5 ADD SWAP2 DUP9 DUP7 MSTORE PUSH1 0x40 DUP1 DUP7 ADD MSTORE MLOAD DUP1 SWAP3 MSTORE PUSH1 0x80 DUP5 ADD SWAP3 SWAP2 PUSH1 0x0 JUMPDEST DUP2 DUP2 LT PUSH2 0x29E2 JUMPI DUP11 PUSH32 0x58A43D5247C1AF3B01D1D9C8620957F98EF83EC27DF9119BFB0EC2AB8E88CBE1 PUSH1 0x40 PUSH1 0x4 DUP14 DUP14 DUP14 DUP14 DUP14 PUSH2 0x29CF DUP2 DUP16 SUB PUSH1 0x1F NOT DUP2 ADD DUP4 MSTORE DUP3 PUSH2 0x2E84 JUMP JUMPDEST MLOAD SWAP1 KECCAK256 SWAP4 DUP5 SWAP2 ADD SSTORE DUP4 MLOAD SWAP3 DUP4 MSTORE DUP3 ADD MSTORE LOG2 STOP JUMPDEST DUP4 MLOAD DUP6 MSTORE SWAP4 DUP9 ADD SWAP4 SWAP3 DUP9 ADD SWAP3 DUP3 ADD PUSH2 0x298A JUMP JUMPDEST DUP3 MLOAD DUP3 DUP3 ADD SSTORE SWAP2 DUP9 ADD SWAP2 DUP7 ADD PUSH2 0x295C JUMP JUMPDEST PUSH2 0x2A1D SWAP1 DUP3 PUSH1 0x0 MSTORE DUP4 DUP10 PUSH1 0x0 KECCAK256 SWAP2 DUP3 ADD SWAP2 ADD PUSH2 0x301B JUMP JUMPDEST DUP10 PUSH2 0x294C JUMP JUMPDEST PUSH4 0x4E487B71 PUSH1 0xE0 SHL PUSH1 0x0 SWAP1 DUP2 MSTORE PUSH1 0x41 PUSH1 0x4 MSTORE REVERT JUMPDEST DUP1 PUSH1 0x6 SHL DUP2 DUP2 DIV PUSH1 0x40 EQ DUP3 ISZERO OR ISZERO PUSH2 0x112A JUMPI DUP11 PUSH1 0x64 SWAP2 SHR MOD DUP7 DUP2 ADD DUP1 SWAP2 GT PUSH2 0x112A JUMPI DUP8 MLOAD DUP3 LT ISZERO PUSH2 0x2A71 JUMPI DUP2 DUP4 SHL DUP9 ADD DUP11 ADD MSTORE DUP6 ADD PUSH2 0x291B JUMP JUMPDEST DUP4 PUSH4 0x4E487B71 PUSH1 0xE0 SHL PUSH1 0x0 MSTORE PUSH1 0x32 PUSH1 0x4 MSTORE PUSH1 0x0 REVERT JUMPDEST PUSH1 0x40 MLOAD PUSH3 0x461BCD PUSH1 0xE5 SHL DUP2 MSTORE PUSH1 0x4 DUP2 ADD DUP8 SWAP1 MSTORE PUSH1 0x11 DUP2 DUP7 ADD MSTORE PUSH17 0x1C995C5D595CDD081B9BDD08199BDD5B99 PUSH1 0x7A SHL PUSH1 0x44 DUP3 ADD MSTORE PUSH1 0x64 SWAP1 REVERT JUMPDEST PUSH1 0x40 MLOAD PUSH3 0x461BCD PUSH1 0xE5 SHL DUP2 MSTORE PUSH1 0x20 PUSH1 0x4 DUP3 ADD MSTORE PUSH1 0xF DUP2 DUP5 ADD MSTORE PUSH15 0x6E6F2072616E646F6D20776F726473 PUSH1 0x88 SHL PUSH1 0x44 DUP3 ADD MSTORE PUSH1 0x64 SWAP1 REVERT JUMPDEST DUP4 PUSH1 0x44 SWAP2 PUSH1 0x40 MLOAD SWAP2 PUSH4 0x73E64FD PUSH1 0xE2 SHL DUP4 MSTORE CALLER PUSH1 0x4 DUP5 ADD MSTORE DUP3 ADD MSTORE REVERT JUMPDEST CALLVALUE PUSH2 0x263 JUMPI PUSH1 0x20 DUP1 PUSH1 0x3 NOT CALLDATASIZE ADD SLT PUSH2 0x263 JUMPI PUSH1 0x4 CALLDATALOAD PUSH1 0x0 MSTORE PUSH1 0xB DUP2 MSTORE PUSH1 0x40 PUSH1 0x0 KECCAK256 SWAP1 DUP2 SLOAD SWAP2 PUSH1 0x1 SWAP1 PUSH1 0x1 DUP2 ADD SLOAD SWAP4 PUSH1 0x2 DUP3 ADD SLOAD SWAP4 PUSH1 0x1 DUP1 PUSH1 0xA0 SHL SUB SWAP3 PUSH1 0x4 PUSH1 0x3 DUP3 ADD SLOAD SWAP2 ADD SWAP7 PUSH1 0x40 MLOAD SWAP2 DUP3 DUP5 DUP11 SLOAD SWAP2 DUP3 DUP2 MSTORE ADD SWAP1 DUP2 SWAP11 PUSH1 0x0 MSTORE DUP6 PUSH1 0x0 KECCAK256 SWAP1 PUSH1 0x0 JUMPDEST DUP2 DUP2 LT PUSH2 0x2C04 JUMPI POP POP POP DUP4 PUSH2 0x2B88 SWAP2 SUB DUP5 PUSH2 0x2E84 JUMP JUMPDEST DUP6 PUSH1 0x40 MLOAD SWAP9 PUSH2 0x100 SWAP4 DUP5 DUP12 ADD SWAP8 DUP12 MSTORE DUP7 DUP12 ADD MSTORE PUSH1 0xFF DUP2 AND PUSH1 0x40 DUP12 ADD MSTORE PUSH1 0xFF DUP2 PUSH1 0x8 SHR AND PUSH1 0x60 DUP12 ADD MSTORE PUSH1 0xFF DUP2 PUSH1 0x10 SHR AND ISZERO ISZERO PUSH1 0x80 DUP12 ADD MSTORE PUSH1 0x18 SHR AND PUSH1 0xA0 DUP10 ADD MSTORE PUSH1 0xC0 DUP9 ADD MSTORE PUSH1 0xE0 DUP8 ADD MSTORE MLOAD DUP1 SWAP3 MSTORE PUSH2 0x120 DUP6 ADD SWAP6 SWAP3 PUSH1 0x0 SWAP1 JUMPDEST DUP4 DUP3 LT PUSH2 0x2BED JUMPI DUP7 DUP9 SUB DUP8 RETURN JUMPDEST DUP5 MLOAD DUP2 AND DUP9 MSTORE SWAP7 DUP3 ADD SWAP7 SWAP4 DUP3 ADD SWAP4 SWAP1 DUP6 ADD SWAP1 PUSH2 0x2BE0 JUMP JUMPDEST DUP3 SLOAD DUP11 AND DUP5 MSTORE SWAP3 DUP8 ADD SWAP3 SWAP2 DUP11 ADD SWAP2 DUP11 ADD PUSH2 0x2B72 JUMP JUMPDEST CALLVALUE PUSH2 0x263 JUMPI PUSH1 0x20 CALLDATASIZE PUSH1 0x3 NOT ADD SLT PUSH2 0x263 JUMPI PUSH1 0x4 CALLDATALOAD PUSH1 0x0 MSTORE PUSH1 0x9 PUSH1 0x20 MSTORE PUSH1 0xA0 PUSH1 0x40 PUSH1 0x0 KECCAK256 DUP1 SLOAD SWAP1 PUSH1 0x1 DUP2 ADD SLOAD SWAP1 PUSH1 0x2 DUP2 ADD SLOAD PUSH1 0x4 PUSH1 0xFF PUSH1 0x3 DUP5 ADD SLOAD AND SWAP3 ADD SLOAD SWAP3 PUSH1 0x40 MLOAD SWAP5 DUP6 MSTORE PUSH1 0x20 DUP6 ADD MSTORE PUSH1 0x40 DUP5 ADD MSTORE ISZERO ISZERO PUSH1 0x60 DUP4 ADD MSTORE PUSH1 0x80 DUP3 ADD MSTORE RETURN JUMPDEST CALLVALUE PUSH2 0x263 JUMPI PUSH1 0x20 CALLDATASIZE PUSH1 0x3 NOT ADD SLT PUSH2 0x263 JUMPI PUSH1 0x20 SWAP1 PUSH1 0x4 CALLDATALOAD PUSH1 0x0 MSTORE PUSH1 0xA DUP3 MSTORE PUSH1 0x40 PUSH1 0x0 KECCAK256 SLOAD DUP2 MSTORE RETURN JUMPDEST PUSH1 0x4 CALLDATALOAD SWAP1 PUSH1 0x1 PUSH1 0x1 PUSH1 0xA0 SHL SUB DUP3 AND DUP3 SUB PUSH2 0x263 JUMPI JUMP JUMPDEST PUSH1 0x40 SWAP1 PUSH1 0x3 NOT ADD SLT PUSH2 0x263 JUMPI PUSH1 0x4 CALLDATALOAD SWAP1 PUSH1 0x24 CALLDATALOAD PUSH1 0xFF DUP2 AND DUP2 SUB PUSH2 0x263 JUMPI SWAP1 JUMP JUMPDEST SWAP2 SWAP1 DUP3 MLOAD SWAP3 DUP4 DUP3 MSTORE PUSH1 0x0 JUMPDEST DUP5 DUP2 LT PUSH2 0x2D00 JUMPI POP POP DUP3 PUSH1 0x0 PUSH1 0x20 DUP1 SWAP5 SWAP6 DUP5 ADD ADD MSTORE PUSH1 0x1F DUP1 NOT SWAP2 ADD AND ADD ADD SWAP1 JUMP JUMPDEST PUSH1 0x20 DUP2 DUP4 ADD DUP2 ADD MLOAD DUP5 DUP4 ADD DUP3 ADD MSTORE ADD PUSH2 0x2CDF JUMP JUMPDEST SWAP2 DUP2 PUSH1 0x1F DUP5 ADD SLT ISZERO PUSH2 0x263 JUMPI DUP3 CALLDATALOAD SWAP2 PUSH8 0xFFFFFFFFFFFFFFFF DUP4 GT PUSH2 0x263 JUMPI PUSH1 0x20 DUP4 DUP2 DUP7 ADD SWAP6 ADD ADD GT PUSH2 0x263 JUMPI JUMP JUMPDEST SWAP1 PUSH1 0x1 DUP3 DUP2 SHR SWAP3 AND DUP1 ISZERO PUSH2 0x2D72 JUMPI JUMPDEST PUSH1 0x20 DUP4 LT EQ PUSH2 0x2D5C JUMPI JUMP JUMPDEST PUSH4 0x4E487B71 PUSH1 0xE0 SHL PUSH1 0x0 MSTORE PUSH1 0x22 PUSH1 0x4 MSTORE PUSH1 0x24 PUSH1 0x0 REVERT JUMPDEST SWAP2 PUSH1 0x7F AND SWAP2 PUSH2 0x2D51 JUMP JUMPDEST DUP1 SLOAD PUSH1 0x0 SWAP4 SWAP3 PUSH2 0x2D8B DUP3 PUSH2 0x2D42 JUMP JUMPDEST SWAP2 DUP3 DUP3 MSTORE PUSH1 0x20 SWAP4 PUSH1 0x1 SWAP2 PUSH1 0x1 DUP2 AND SWAP1 DUP2 PUSH1 0x0 EQ PUSH2 0x2DF3 JUMPI POP PUSH1 0x1 EQ PUSH2 0x2DB2 JUMPI JUMPDEST POP POP POP POP POP JUMP JUMPDEST SWAP1 SWAP4 SWAP5 SWAP6 POP PUSH1 0x0 SWAP3 SWAP2 SWAP3 MSTORE DUP4 PUSH1 0x0 KECCAK256 SWAP3 DUP5 PUSH1 0x0 SWAP5 JUMPDEST DUP4 DUP7 LT PUSH2 0x2DDF JUMPI POP POP POP POP ADD ADD SWAP1 CODESIZE DUP1 DUP1 DUP1 DUP1 PUSH2 0x2DAB JUMP JUMPDEST DUP1 SLOAD DUP6 DUP8 ADD DUP4 ADD MSTORE SWAP5 ADD SWAP4 DUP6 SWAP1 DUP3 ADD PUSH2 0x2DC7 JUMP JUMPDEST PUSH1 0xFF NOT AND DUP7 DUP6 ADD MSTORE POP POP POP SWAP1 ISZERO ISZERO PUSH1 0x5 SHL ADD ADD SWAP2 POP CODESIZE DUP1 DUP1 DUP1 DUP1 PUSH2 0x2DAB JUMP JUMPDEST PUSH2 0x100 DUP2 ADD SWAP1 DUP2 LT PUSH8 0xFFFFFFFFFFFFFFFF DUP3 GT OR PUSH2 0x99A JUMPI PUSH1 0x40 MSTORE JUMP JUMPDEST PUSH2 0x200 DUP2 ADD SWAP1 DUP2 LT PUSH8 0xFFFFFFFFFFFFFFFF DUP3 GT OR PUSH2 0x99A JUMPI PUSH1 0x40 MSTORE JUMP JUMPDEST PUSH1 0xA0 DUP2 ADD SWAP1 DUP2 LT PUSH8 0xFFFFFFFFFFFFFFFF DUP3 GT OR PUSH2 0x99A JUMPI PUSH1 0x40 MSTORE JUMP JUMPDEST PUSH1 0x80 DUP2 ADD SWAP1 DUP2 LT PUSH8 0xFFFFFFFFFFFFFFFF DUP3 GT OR PUSH2 0x99A JUMPI PUSH1 0x40 MSTORE JUMP JUMPDEST SWAP1 PUSH1 0x1F DUP1 NOT SWAP2 ADD AND DUP2 ADD SWAP1 DUP2 LT PUSH8 0xFFFFFFFFFFFFFFFF DUP3 GT OR PUSH2 0x99A JUMPI PUSH1 0x40 MSTORE JUMP JUMPDEST PUSH1 0x40 SWAP1 PUSH1 0x3 NOT ADD SLT PUSH2 0x263 JUMPI PUSH1 0x4 CALLDATALOAD SWAP1 PUSH1 0x24 CALLDATALOAD SWAP1 JUMP JUMPDEST PUSH1 0x0 NOT DUP2 EQ PUSH2 0x3A0 JUMPI PUSH1 0x1 ADD SWAP1 JUMP JUMPDEST ISZERO PUSH2 0x2ED2 JUMPI JUMP JUMPDEST PUSH1 0x40 MLOAD PUSH3 0x461BCD PUSH1 0xE5 SHL DUP2 MSTORE PUSH1 0x20 PUSH1 0x4 DUP3 ADD MSTORE PUSH1 0x13 PUSH1 0x24 DUP3 ADD MSTORE PUSH19 0x1859191C995CDCC8189B1858DADB1A5CDD1959 PUSH1 0x6A SHL PUSH1 0x44 DUP3 ADD MSTORE PUSH1 0x64 SWAP1 REVERT JUMPDEST ISZERO PUSH2 0x2F14 JUMPI JUMP JUMPDEST PUSH1 0x40 MLOAD PUSH3 0x461BCD PUSH1 0xE5 SHL DUP2 MSTORE PUSH1 0x20 PUSH1 0x4 DUP3 ADD MSTORE PUSH1 0x14 PUSH1 0x24 DUP3 ADD MSTORE PUSH20 0x626574206D75737420626520706F736974697665 PUSH1 0x60 SHL PUSH1 0x44 DUP3 ADD MSTORE PUSH1 0x64 SWAP1 REVERT JUMPDEST DUP1 SLOAD DUP3 LT ISZERO PUSH2 0x2F68 JUMPI PUSH1 0x0 MSTORE PUSH1 0x20 PUSH1 0x0 KECCAK256 ADD SWAP1 PUSH1 0x0 SWAP1 JUMP JUMPDEST PUSH4 0x4E487B71 PUSH1 0xE0 SHL PUSH1 0x0 MSTORE PUSH1 0x32 PUSH1 0x4 MSTORE PUSH1 0x24 PUSH1 0x0 REVERT JUMPDEST DUP1 SLOAD PUSH1 0x1 PUSH1 0x40 SHL DUP2 LT ISZERO PUSH2 0x99A JUMPI PUSH2 0x2F9B SWAP2 PUSH1 0x1 DUP3 ADD DUP2 SSTORE PUSH2 0x2F50 JUMP JUMPDEST PUSH1 0x1 DUP1 PUSH1 0xA0 SWAP5 SWAP4 SWAP5 SHL SUB DUP1 DUP5 SLOAD SWAP3 PUSH1 0x3 SHL SWAP4 AND DUP4 SHL SWAP3 SHL NOT AND OR SWAP1 SSTORE JUMP JUMPDEST PUSH1 0x60 SWAP1 PUSH1 0x20 DUP2 MSTORE PUSH1 0x9 PUSH1 0x20 DUP3 ADD MSTORE PUSH9 0x18DBDB5C1B195D1959 PUSH1 0xBA SHL PUSH1 0x40 DUP3 ADD MSTORE ADD SWAP1 JUMP JUMPDEST ISZERO PUSH2 0x2FE4 JUMPI JUMP JUMPDEST PUSH1 0x40 MLOAD PUSH3 0x461BCD PUSH1 0xE5 SHL DUP2 MSTORE PUSH1 0x20 PUSH1 0x4 DUP3 ADD MSTORE PUSH1 0xF PUSH1 0x24 DUP3 ADD MSTORE PUSH15 0x1C9BDD5B99081B9BDD08199BDD5B99 PUSH1 0x8A SHL PUSH1 0x44 DUP3 ADD MSTORE PUSH1 0x64 SWAP1 REVERT JUMPDEST DUP2 DUP2 LT PUSH2 0x3026 JUMPI POP POP JUMP JUMPDEST PUSH1 0x0 DUP2 SSTORE PUSH1 0x1 ADD PUSH2 0x301B JUMP JUMPDEST SWAP1 PUSH1 0x1F DUP2 GT PUSH2 0x303F JUMPI POP POP JUMP JUMPDEST PUSH2 0x305A SWAP2 PUSH1 0x0 MSTORE PUSH1 0x1F PUSH1 0x20 PUSH1 0x0 KECCAK256 SWAP2 ADD PUSH1 0x5 SHR DUP2 ADD SWAP1 PUSH2 0x301B JUMP JUMPDEST JUMP JUMPDEST SWAP2 SWAP1 PUSH1 0x1F DUP2 GT PUSH2 0x306B JUMPI POP POP POP JUMP JUMPDEST PUSH2 0x305A SWAP3 PUSH1 0x0 MSTORE PUSH1 0x20 PUSH1 0x0 KECCAK256 SWAP1 PUSH1 0x20 PUSH1 0x1F DUP5 ADD PUSH1 0x5 SHR DUP4 ADD SWAP4 LT PUSH2 0x3097 JUMPI JUMPDEST PUSH1 0x1F ADD PUSH1 0x5 SHR ADD SWAP1 PUSH2 0x301B JUMP JUMPDEST SWAP1 SWAP2 POP DUP2 SWAP1 PUSH2 0x308A JUMP JUMPDEST SWAP1 DUP1 PUSH1 0x20 SWAP4 SWAP3 DUP2 DUP5 MSTORE DUP5 DUP5 ADD CALLDATACOPY PUSH1 0x0 DUP3 DUP3 ADD DUP5 ADD MSTORE PUSH1 0x1F ADD PUSH1 0x1F NOT AND ADD ADD SWAP1 JUMP JUMPDEST ISZERO PUSH2 0x30C9 JUMPI JUMP JUMPDEST PUSH1 0x40 MLOAD PUSH3 0x461BCD PUSH1 0xE5 SHL DUP2 MSTORE PUSH1 0x20 PUSH1 0x4 DUP3 ADD MSTORE PUSH1 0xF PUSH1 0x24 DUP3 ADD MSTORE PUSH15 0x185C995B98481B9BDD08199BDD5B99 PUSH1 0x8A SHL PUSH1 0x44 DUP3 ADD MSTORE PUSH1 0x64 SWAP1 REVERT JUMPDEST SWAP1 DUP2 PUSH1 0x20 SWAP2 SUB SLT PUSH2 0x263 JUMPI MLOAD DUP1 ISZERO ISZERO DUP2 SUB PUSH2 0x263 JUMPI SWAP1 JUMP JUMPDEST ISZERO PUSH2 0x311F JUMPI JUMP JUMPDEST PUSH1 0x40 MLOAD PUSH3 0x461BCD PUSH1 0xE5 SHL DUP2 MSTORE PUSH1 0x20 PUSH1 0x4 DUP3 ADD MSTORE PUSH1 0xD PUSH1 0x24 DUP3 ADD MSTORE PUSH13 0x1C99599D5B990819985A5B1959 PUSH1 0x9A SHL PUSH1 0x44 DUP3 ADD MSTORE PUSH1 0x64 SWAP1 REVERT JUMPDEST SWAP2 SWAP1 DUP3 ADD DUP1 SWAP3 GT PUSH2 0x3A0 JUMPI JUMP JUMPDEST PUSH1 0x0 SWAP1 DUP1 DUP3 MSTORE PUSH1 0x20 PUSH1 0xF DUP2 MSTORE PUSH1 0x40 DUP1 DUP5 KECCAK256 SWAP4 PUSH2 0x317F DUP6 SLOAD ISZERO ISZERO PUSH2 0x2FDD JUMP JUMPDEST DUP2 MLOAD SWAP5 DUP4 DUP7 ADD DUP5 DUP2 MSTORE DUP7 PUSH2 0x3198 DUP6 DUP3 ADD PUSH1 0xE DUP6 ADD PUSH2 0x2D7C JUMP JUMPDEST SUB SWAP7 PUSH2 0x31AC PUSH1 0x1F NOT SWAP9 DUP10 DUP2 ADD DUP4 MSTORE DUP3 PUSH2 0x2E84 JUMP JUMPDEST MLOAD SWAP1 KECCAK256 DUP4 MLOAD DUP6 DUP2 ADD SWAP1 DUP7 DUP3 MSTORE PUSH1 0xC DUP7 DUP3 ADD MSTORE PUSH12 0x1D9C9994995C5D595CDD1959 PUSH1 0xA2 SHL PUSH1 0x60 DUP3 ADD MSTORE PUSH1 0x60 DUP2 MSTORE PUSH2 0x31E0 DUP2 PUSH2 0x2E68 JUMP JUMPDEST MLOAD SWAP1 KECCAK256 SUB PUSH2 0x3691 JUMPI PUSH1 0xD ADD SLOAD SWAP1 DUP2 DUP2 MSTORE PUSH1 0x9 DUP5 MSTORE PUSH2 0x3207 PUSH1 0x2 DUP5 DUP4 KECCAK256 ADD SLOAD PUSH1 0x8 SLOAD SWAP1 PUSH2 0x3154 JUMP JUMPDEST TIMESTAMP LT PUSH2 0x3657 JUMPI DUP3 MLOAD SWAP2 DUP6 PUSH32 0xDF4FA4B5F40C646499E1C9B34912E1223A521117B0C53905D4C0EA7B16F0FB4E DUP4 DUP1 LOG3 DUP3 DUP3 ADD DUP3 DUP2 LT PUSH8 0xFFFFFFFFFFFFFFFF DUP3 GT OR PUSH2 0x3643 JUMPI DUP4 MSTORE PUSH1 0xB DUP3 MSTORE PUSH11 0x159491881D1A5B595BDD5D PUSH1 0xAA SHL DUP5 DUP4 ADD MSTORE DUP5 DUP2 MSTORE PUSH1 0xF DUP5 MSTORE DUP3 DUP2 KECCAK256 SWAP6 PUSH2 0x327B DUP8 SLOAD ISZERO ISZERO PUSH2 0x2FDD JUMP JUMPDEST PUSH1 0xE DUP8 ADD DUP5 MLOAD DUP7 DUP2 ADD SWAP1 DUP8 DUP3 MSTORE PUSH2 0x3298 DUP2 PUSH2 0x2370 DUP10 DUP3 ADD DUP7 PUSH2 0x2D7C JUMP JUMPDEST MLOAD SWAP1 KECCAK256 DUP6 MLOAD DUP8 DUP2 ADD SWAP1 PUSH2 0x32AE DUP2 PUSH2 0xE67 DUP5 PUSH2 0x2FB9 JUMP JUMPDEST MLOAD SWAP1 KECCAK256 EQ ISZERO DUP1 PUSH2 0x35EB JUMPI JUMPDEST ISZERO PUSH2 0x35B7 JUMPI PUSH2 0x32CB PUSH2 0x8A9 DUP3 SLOAD PUSH2 0x2D42 JUMP JUMPDEST PUSH1 0x10 PUSH8 0x1C99599D5B991959 PUSH1 0xC2 SHL ADD SWAP1 SSTORE PUSH1 0x1 SWAP1 DUP5 MLOAD PUSH2 0x32FC DUP8 DUP3 ADD SWAP3 DUP9 DUP5 MSTORE DUP3 PUSH2 0x704 DUP13 PUSH1 0x1 DUP12 DUP5 ADD SWAP2 ADD PUSH2 0x2D7C JUMP JUMPDEST MLOAD SWAP1 KECCAK256 DUP5 MLOAD SWAP1 DUP7 DUP3 ADD DUP8 DUP2 MSTORE PUSH1 0x4 SWAP3 PUSH1 0x4 DUP9 DUP3 ADD MSTORE PUSH4 0x736F6C6F PUSH1 0xE0 SHL PUSH1 0x60 DUP3 ADD MSTORE PUSH1 0x60 DUP2 MSTORE PUSH2 0x332B DUP2 PUSH2 0x2E68 JUMP JUMPDEST MLOAD SWAP1 KECCAK256 SUB PUSH2 0x341B JUMPI POP POP PUSH1 0x2 DUP7 ADD DUP1 SLOAD PUSH1 0xB SWAP1 SWAP8 ADD DUP1 SLOAD DUP6 MLOAD PUSH4 0xA9059CBB PUSH1 0xE0 SHL DUP2 MSTORE PUSH1 0x1 PUSH1 0x1 PUSH1 0xA0 SHL SUB SWAP10 DUP11 AND PUSH1 0x4 DUP3 ADD MSTORE PUSH1 0x24 DUP2 ADD SWAP2 SWAP1 SWAP2 MSTORE SWAP1 SWAP8 SWAP3 SWAP1 DUP7 DUP2 PUSH1 0x44 DUP2 DUP6 PUSH32 0x0 DUP10 AND GAS CALL SWAP2 DUP3 ISZERO PUSH2 0x3410 JUMPI PUSH2 0x33EE SWAP5 SWAP3 PUSH32 0x9B4B9FE42E556D768A938A82696607B338F22ED4A51CD053CE2559EFC1616A5A SWAP9 SWAP8 SWAP7 SWAP5 SWAP3 PUSH2 0x33D6 SWAP3 SWAP2 PUSH2 0x33F3 JUMPI POP PUSH2 0x3118 JUMP JUMPDEST SLOAD AND SWAP7 SLOAD SWAP3 DUP1 DUP1 MLOAD SWAP6 DUP7 SWAP6 DUP7 MSTORE DUP6 ADD MSTORE DUP4 ADD SWAP1 PUSH2 0x2CD4 JUMP JUMPDEST SUB SWAP1 LOG3 JUMP JUMPDEST PUSH2 0x340A SWAP2 POP DUP9 RETURNDATASIZE DUP11 GT PUSH2 0x10C9 JUMPI PUSH2 0x10BB DUP2 DUP4 PUSH2 0x2E84 JUMP JUMPDEST CODESIZE PUSH2 0x1523 JUMP JUMPDEST DUP7 MLOAD SWAP1 RETURNDATASIZE SWAP1 DUP3 RETURNDATACOPY RETURNDATASIZE SWAP1 REVERT JUMPDEST PUSH1 0x3 DUP1 DUP10 ADD SLOAD DUP5 MSTORE PUSH1 0xB DUP1 DUP9 MSTORE DUP7 DUP6 KECCAK256 SWAP5 SWAP11 SWAP10 SWAP4 SWAP9 SWAP4 ADD SWAP7 SWAP3 SWAP6 SWAP3 SWAP5 SWAP3 SWAP4 PUSH1 0x1 PUSH1 0x1 PUSH1 0xA0 SHL SUB SWAP3 PUSH1 0x4 SWAP1 SWAP2 ADD SWAP1 DUP12 PUSH32 0x0 DUP6 AND DUP12 JUMPDEST PUSH2 0x3483 JUMPI JUMPDEST POP POP POP POP POP POP POP POP POP POP POP POP SWAP1 POP JUMP JUMPDEST DUP14 DUP5 SLOAD GT ISZERO PUSH2 0x35B2 JUMPI PUSH2 0x34D4 DUP10 DUP16 PUSH2 0x349C DUP10 SWAP2 DUP9 PUSH2 0x2F50 JUMP JUMPDEST SWAP1 SLOAD SWAP1 DUP10 SHL SHR AND DUP14 SLOAD SWAP1 DUP12 MLOAD SWAP4 DUP5 SWAP3 DUP4 SWAP3 PUSH4 0xA9059CBB PUSH1 0xE0 SHL DUP5 MSTORE DUP10 DUP5 ADD PUSH1 0x20 SWAP1 SWAP4 SWAP3 SWAP2 SWAP4 PUSH1 0x40 DUP2 ADD SWAP5 PUSH1 0x1 DUP1 PUSH1 0xA0 SHL SUB AND DUP2 MSTORE ADD MSTORE JUMP JUMPDEST SUB DUP2 DUP7 DUP7 GAS CALL SWAP1 DUP2 ISZERO PUSH2 0x35A8 JUMPI DUP4 SWAP2 PUSH2 0x358B JUMPI JUMPDEST POP ISZERO PUSH2 0x3552 JUMPI DUP12 DUP15 DUP2 SWAP15 SWAP16 DUP13 PUSH32 0x9B4B9FE42E556D768A938A82696607B338F22ED4A51CD053CE2559EFC1616A5A DUP16 SWAP3 DUP14 DUP16 SWAP2 DUP15 DUP15 DUP15 PUSH2 0x352B DUP16 SWAP5 PUSH2 0x3547 SWAP6 PUSH2 0x2F50 JUMP JUMPDEST SWAP1 SLOAD SWAP2 SHL SHR AND SWAP7 SLOAD SWAP3 DUP1 DUP1 MLOAD SWAP6 DUP7 SWAP6 DUP7 MSTORE DUP6 ADD MSTORE DUP4 ADD SWAP1 PUSH2 0x2CD4 JUMP JUMPDEST SUB SWAP1 LOG3 ADD SWAP14 SWAP13 PUSH2 0x346E JUMP JUMPDEST DUP8 MLOAD PUSH3 0x461BCD PUSH1 0xE5 SHL DUP2 MSTORE DUP1 DUP5 ADD DUP11 SWAP1 MSTORE PUSH1 0x13 PUSH1 0x24 DUP3 ADD MSTORE PUSH19 0x185C995B98481C99599D5B990819985A5B1959 PUSH1 0x6A SHL PUSH1 0x44 DUP3 ADD MSTORE PUSH1 0x64 SWAP1 REVERT JUMPDEST PUSH2 0x35A2 SWAP2 POP DUP11 RETURNDATASIZE DUP13 GT PUSH2 0x10C9 JUMPI PUSH2 0x10BB DUP2 DUP4 PUSH2 0x2E84 JUMP JUMPDEST CODESIZE PUSH2 0x34E8 JUMP JUMPDEST DUP10 MLOAD RETURNDATASIZE DUP6 DUP3 RETURNDATACOPY RETURNDATASIZE SWAP1 REVERT JUMPDEST PUSH2 0x3473 JUMP JUMPDEST DUP5 MLOAD PUSH3 0x461BCD PUSH1 0xE5 SHL DUP2 MSTORE PUSH1 0x4 DUP2 ADD DUP8 SWAP1 MSTORE PUSH1 0xD PUSH1 0x24 DUP3 ADD MSTORE PUSH13 0x18D85B9B9BDD081C99599D5B99 PUSH1 0x9A SHL PUSH1 0x44 DUP3 ADD MSTORE PUSH1 0x64 SWAP1 REVERT JUMPDEST POP DUP5 MLOAD DUP7 DUP2 ADD SWAP1 DUP8 DUP3 MSTORE PUSH2 0x3605 DUP2 PUSH2 0x2370 DUP10 DUP3 ADD DUP7 PUSH2 0x2D7C JUMP JUMPDEST MLOAD SWAP1 KECCAK256 DUP6 MLOAD DUP8 DUP2 ADD SWAP1 PUSH2 0x3639 DUP2 PUSH2 0xE67 DUP5 PUSH1 0x60 SWAP1 PUSH1 0x20 DUP2 MSTORE PUSH1 0x8 PUSH1 0x20 DUP3 ADD MSTORE PUSH8 0x1C99599D5B991959 PUSH1 0xC2 SHL PUSH1 0x40 DUP3 ADD MSTORE ADD SWAP1 JUMP JUMPDEST MLOAD SWAP1 KECCAK256 EQ ISZERO PUSH2 0x32B9 JUMP JUMPDEST PUSH4 0x4E487B71 PUSH1 0xE0 SHL DUP3 MSTORE PUSH1 0x41 PUSH1 0x4 MSTORE PUSH1 0x24 DUP3 REVERT JUMPDEST DUP3 MLOAD PUSH3 0x461BCD PUSH1 0xE5 SHL DUP2 MSTORE PUSH1 0x4 DUP2 ADD DUP6 SWAP1 MSTORE PUSH1 0x13 PUSH1 0x24 DUP3 ADD MSTORE PUSH19 0x1D1A5B595BDD5D081B9BDD081C995858DA1959 PUSH1 0x6A SHL PUSH1 0x44 DUP3 ADD MSTORE PUSH1 0x64 SWAP1 REVERT JUMPDEST POP POP POP POP POP POP JUMP JUMPDEST PUSH1 0x0 SLOAD PUSH1 0x8 SHR PUSH1 0x1 PUSH1 0x1 PUSH1 0xA0 SHL SUB AND CALLER SUB PUSH2 0x36B0 JUMPI JUMP JUMPDEST PUSH1 0x40 MLOAD PUSH3 0x461BCD PUSH1 0xE5 SHL DUP2 MSTORE PUSH1 0x20 PUSH1 0x4 DUP3 ADD MSTORE PUSH1 0x16 PUSH1 0x24 DUP3 ADD MSTORE PUSH22 0x27B7363C9031B0B63630B1363290313C9037BBB732B9 PUSH1 0x51 SHL PUSH1 0x44 DUP3 ADD MSTORE PUSH1 0x64 SWAP1 REVERT JUMPDEST PUSH1 0xFF PUSH1 0x0 SLOAD AND PUSH2 0x36FA JUMPI JUMP JUMPDEST PUSH1 0x40 MLOAD PUSH4 0xD93C0665 PUSH1 0xE0 SHL DUP2 MSTORE PUSH1 0x4 SWAP1 REVERT JUMPDEST PUSH1 0x0 DUP1 MLOAD PUSH1 0x20 PUSH2 0x39D8 DUP4 CODECOPY DUP2 MLOAD SWAP2 MSTORE PUSH1 0x2 DUP2 SLOAD EQ PUSH2 0x372A JUMPI PUSH1 0x2 SWAP1 SSTORE JUMP JUMPDEST PUSH1 0x40 MLOAD PUSH4 0x3EE5AEB5 PUSH1 0xE0 SHL DUP2 MSTORE PUSH1 0x4 SWAP1 REVERT JUMPDEST PUSH1 0x1 DUP1 PUSH1 0xA0 SHL SUB DUP1 SWAP2 AND SWAP1 PUSH1 0x0 SWAP1 DUP3 DUP3 MSTORE PUSH1 0x20 SWAP4 PUSH1 0xD DUP6 MSTORE PUSH1 0x40 SWAP4 PUSH1 0xFF DUP6 DUP6 KECCAK256 SLOAD AND PUSH2 0x399E JUMPI DUP2 ISZERO ISZERO DUP1 PUSH2 0x3992 JUMPI JUMPDEST ISZERO PUSH2 0x3959 JUMPI PUSH3 0x15180 TIMESTAMP DIV DUP2 DUP6 MSTORE PUSH1 0xE DUP8 MSTORE PUSH1 0x3 DUP7 DUP7 KECCAK256 ADD SLOAD DUP2 GT PUSH2 0x393F JUMPI JUMPDEST POP PUSH1 0xC DUP7 MSTORE PUSH2 0x379D DUP3 DUP7 DUP7 KECCAK256 SLOAD PUSH2 0x3154 JUMP JUMPDEST PUSH1 0x4 SLOAD LT PUSH2 0x3904 JUMPI SWAP1 DUP2 DUP7 SWAP3 DUP6 MSTORE PUSH1 0xE DUP4 MSTORE DUP6 DUP6 KECCAK256 PUSH1 0x6 DUP2 ADD SLOAD PUSH1 0x7 SLOAD GT ISZERO PUSH2 0x38AF JUMPI JUMPDEST POP DUP1 PUSH1 0x64 SWAP2 DUP7 MSTORE PUSH1 0xC DUP5 MSTORE DUP7 DUP7 KECCAK256 PUSH2 0x37DA DUP5 DUP3 SLOAD PUSH2 0x3154 JUMP JUMPDEST SWAP1 SSTORE DUP1 DUP7 MSTORE PUSH1 0xE DUP5 MSTORE PUSH1 0x1 DUP8 DUP8 KECCAK256 ADD PUSH2 0x37F3 DUP2 SLOAD PUSH2 0x2EBC JUMP JUMPDEST SWAP1 SSTORE DUP6 DUP8 MLOAD SWAP6 DUP7 SWAP5 DUP6 SWAP4 PUSH4 0x23B872DD PUSH1 0xE0 SHL DUP6 MSTORE PUSH1 0x4 DUP6 ADD MSTORE ADDRESS PUSH1 0x24 DUP6 ADD MSTORE PUSH1 0x44 DUP5 ADD MSTORE PUSH32 0x0 AND GAS CALL SWAP2 DUP3 ISZERO PUSH2 0x38A4 JUMPI SWAP2 PUSH2 0x3887 JUMPI JUMPDEST POP ISZERO PUSH2 0x3852 JUMPI POP POP JUMP JUMPDEST PUSH1 0x64 SWAP3 POP MLOAD SWAP1 PUSH3 0x461BCD PUSH1 0xE5 SHL DUP3 MSTORE PUSH1 0x4 DUP3 ADD MSTORE PUSH1 0xF PUSH1 0x24 DUP3 ADD MSTORE PUSH15 0x1D1C985B9CD9995C8819985A5B1959 PUSH1 0x8A SHL PUSH1 0x44 DUP3 ADD MSTORE REVERT JUMPDEST PUSH2 0x389E SWAP2 POP DUP4 RETURNDATASIZE DUP6 GT PUSH2 0x10C9 JUMPI PUSH2 0x10BB DUP2 DUP4 PUSH2 0x2E84 JUMP JUMPDEST CODESIZE PUSH2 0x3848 JUMP JUMPDEST DUP4 MLOAD SWAP1 RETURNDATASIZE SWAP1 DUP3 RETURNDATACOPY RETURNDATASIZE SWAP1 REVERT JUMPDEST PUSH2 0x38C3 SWAP2 SWAP3 SWAP4 POP PUSH1 0x7 ADD SLOAD PUSH1 0x6 SLOAD SWAP1 PUSH2 0x3154 JUMP JUMPDEST TIMESTAMP LT PUSH2 0x38D2 JUMPI SWAP1 DUP6 SWAP2 CODESIZE PUSH2 0x37C1 JUMP JUMPDEST DUP5 MLOAD PUSH3 0x461BCD PUSH1 0xE5 SHL DUP2 MSTORE PUSH1 0x4 DUP2 ADD DUP8 SWAP1 MSTORE PUSH1 0xB PUSH1 0x24 DUP3 ADD MSTORE PUSH11 0x34B71031B7B7B63237BBB7 PUSH1 0xA9 SHL PUSH1 0x44 DUP3 ADD MSTORE PUSH1 0x64 SWAP1 REVERT JUMPDEST DUP5 MLOAD PUSH3 0x461BCD PUSH1 0xE5 SHL DUP2 MSTORE PUSH1 0x4 DUP2 ADD DUP8 SWAP1 MSTORE PUSH1 0x14 PUSH1 0x24 DUP3 ADD MSTORE PUSH20 0x19185A5B1E481B1A5B5A5D08195E18D959591959 PUSH1 0x62 SHL PUSH1 0x44 DUP3 ADD MSTORE PUSH1 0x64 SWAP1 REVERT JUMPDEST PUSH1 0xC DUP8 MSTORE DUP5 DUP7 DUP2 KECCAK256 SSTORE PUSH1 0xE DUP8 MSTORE PUSH1 0x3 DUP7 DUP7 KECCAK256 ADD SSTORE CODESIZE PUSH2 0x378B JUMP JUMPDEST DUP5 MLOAD PUSH3 0x461BCD PUSH1 0xE5 SHL DUP2 MSTORE PUSH1 0x4 DUP2 ADD DUP8 SWAP1 MSTORE PUSH1 0x12 PUSH1 0x24 DUP3 ADD MSTORE PUSH18 0x626574206F757473696465206C696D697473 PUSH1 0x70 SHL PUSH1 0x44 DUP3 ADD MSTORE PUSH1 0x64 SWAP1 REVERT JUMPDEST POP PUSH1 0x3 SLOAD DUP3 GT ISZERO PUSH2 0x376B JUMP JUMPDEST DUP5 MLOAD PUSH3 0x461BCD PUSH1 0xE5 SHL DUP2 MSTORE PUSH1 0x4 DUP2 ADD DUP8 SWAP1 MSTORE PUSH1 0x12 PUSH1 0x24 DUP3 ADD MSTORE PUSH18 0x1C1B185E595C88189B1858DADB1A5CDD1959 PUSH1 0x72 SHL PUSH1 0x44 DUP3 ADD MSTORE PUSH1 0x64 SWAP1 REVERT INVALID SWAP12 PUSH24 0x9B17422D0DF92223018B32B4D1FA46E071723D6817E2486D STOP EXTCODESIZE 0xEC 0xC5 PUSH0 STOP LOG2 PUSH5 0x6970667358 0x22 SLT KECCAK256 0xD3 SWAP15 0xAA DUP9 0xE0 0xEF SWAP8 0xDD CHAINID SWAP14 0x2C SWAP12 SELFBALANCE AND 0xE7 0xCF 0xEF 0xC MLOAD 0xBF RETURNDATASIZE 0xB5 0xF6 PUSH7 0x9842BD49B2410A 0xCE PUSH5 0x736F6C6343 STOP ADDMOD XOR STOP CALLER "},"methodIdentifiers":{"acceptOwnership()":"79ba5097","applyCooldown(address)":"2bbf1274","arenaCount()":"74b06938","arenas(uint256)":"84f4319c","ban(address)":"97c3ccd8","blacklist(address)":"f9f92be4","checkVRFTimeout(uint256)":"f83674bc","cooldownDuration()":"35269315","createArena(uint256,uint8)":"410ddaca","dailyBetTotal(address)":"66951131","getArena(uint256)":"1a8425b4","getCommitHash(uint256)":"edfe7216","getPlayerStats(address)":"4fd66eae","getRound(uint256)":"8f1327c0","getVRFRandom(uint256)":"51a667ca","getVRFRequest(uint256)":"c1e582ba","isPlayerBanned(address)":"6e3288a2","joinArena(uint256)":"f6b3a00a","keyHash()":"61728f39","lossesBeforeCooldown()":"65c1c630","maxBetPerDay()":"9b795a00","maxBetPerTx()":"9918965f","owner()":"8da5cb5b","pause()":"8456cb59","paused()":"5c975abb","pickCard(uint256,uint8)":"858d9da2","pickSoloCard(uint256,uint8)":"ed28b379","playerStats(address)":"cdafbbb6","rawFulfillRandomWords(uint256,uint256[])":"1fe543e3","refundAllArena(uint256)":"9409d75c","revealSeeds(uint256,string,string,uint256)":"712fb121","roundVrfMap(uint256)":"0fb58b09","rounds(uint256)":"8c65c81f","s_subscriptionId()":"8ac00021","s_vrfCoordinator()":"9eccacf6","setCooldownParams(uint256,uint256)":"951b60a4","setCoordinator(address)":"8ea98117","setMaxBet(uint256,uint256)":"c03daa4d","setVRFTimeout(uint256)":"3c580d5d","settleRound(uint256,address)":"9d997b82","startSoloGame(uint256)":"92d53a67","transferOwnership(address)":"f2fde38b","unban(address)":"b9f14557","unpause()":"3f4ba83a","usdm()":"ee138d0f","vrfRequestTimeout()":"794687d7","vrfRequests(uint256)":"1a1d9252"}}}}}