{
  "_format": "hh-sol-artifact-1",
  "contractName": "MockUSDM",
  "sourceName": "contracts/MockUSDM.sol",
  "abi": [
    {
      "inputs": [],
      "stateMutability": "nonpayable",
      "type": "constructor"
    },
    {
      "inputs": [
        {
          "internalType": "address",
          "name": "spender",
          "type": "address"
        },
        {
          "internalType": "uint256",
          "name": "allowance",
          "type": "uint256"
        },
        {
          "internalType": "uint256",
          "name": "needed",
          "type": "uint256"
        }
      ],
      "name": "ERC20InsufficientAllowance",
      "type": "error"
    },
    {
      "inputs": [
        {
          "internalType": "address",
          "name": "sender",
          "type": "address"
        },
        {
          "internalType": "uint256",
          "name": "balance",
          "type": "uint256"
        },
        {
          "internalType": "uint256",
          "name": "needed",
          "type": "uint256"
        }
      ],
      "name": "ERC20InsufficientBalance",
      "type": "error"
    },
    {
      "inputs": [
        {
          "internalType": "address",
          "name": "approver",
          "type": "address"
        }
      ],
      "name": "ERC20InvalidApprover",
      "type": "error"
    },
    {
      "inputs": [
        {
          "internalType": "address",
          "name": "receiver",
          "type": "address"
        }
      ],
      "name": "ERC20InvalidReceiver",
      "type": "error"
    },
    {
      "inputs": [
        {
          "internalType": "address",
          "name": "sender",
          "type": "address"
        }
      ],
      "name": "ERC20InvalidSender",
      "type": "error"
    },
    {
      "inputs": [
        {
          "internalType": "address",
          "name": "spender",
          "type": "address"
        }
      ],
      "name": "ERC20InvalidSpender",
      "type": "error"
    },
    {
      "anonymous": false,
      "inputs": [
        {
          "indexed": true,
          "internalType": "address",
          "name": "owner",
          "type": "address"
        },
        {
          "indexed": true,
          "internalType": "address",
          "name": "spender",
          "type": "address"
        },
        {
          "indexed": false,
          "internalType": "uint256",
          "name": "value",
          "type": "uint256"
        }
      ],
      "name": "Approval",
      "type": "event"
    },
    {
      "anonymous": false,
      "inputs": [
        {
          "indexed": true,
          "internalType": "address",
          "name": "from",
          "type": "address"
        },
        {
          "indexed": true,
          "internalType": "address",
          "name": "to",
          "type": "address"
        },
        {
          "indexed": false,
          "internalType": "uint256",
          "name": "value",
          "type": "uint256"
        }
      ],
      "name": "Transfer",
      "type": "event"
    },
    {
      "inputs": [
        {
          "internalType": "address",
          "name": "owner",
          "type": "address"
        },
        {
          "internalType": "address",
          "name": "spender",
          "type": "address"
        }
      ],
      "name": "allowance",
      "outputs": [
        {
          "internalType": "uint256",
          "name": "",
          "type": "uint256"
        }
      ],
      "stateMutability": "view",
      "type": "function"
    },
    {
      "inputs": [
        {
          "internalType": "address",
          "name": "spender",
          "type": "address"
        },
        {
          "internalType": "uint256",
          "name": "value",
          "type": "uint256"
        }
      ],
      "name": "approve",
      "outputs": [
        {
          "internalType": "bool",
          "name": "",
          "type": "bool"
        }
      ],
      "stateMutability": "nonpayable",
      "type": "function"
    },
    {
      "inputs": [
        {
          "internalType": "address",
          "name": "account",
          "type": "address"
        }
      ],
      "name": "balanceOf",
      "outputs": [
        {
          "internalType": "uint256",
          "name": "",
          "type": "uint256"
        }
      ],
      "stateMutability": "view",
      "type": "function"
    },
    {
      "inputs": [
        {
          "internalType": "uint256",
          "name": "amount",
          "type": "uint256"
        }
      ],
      "name": "burn",
      "outputs": [],
      "stateMutability": "nonpayable",
      "type": "function"
    },
    {
      "inputs": [],
      "name": "decimals",
      "outputs": [
        {
          "internalType": "uint8",
          "name": "",
          "type": "uint8"
        }
      ],
      "stateMutability": "view",
      "type": "function"
    },
    {
      "inputs": [
        {
          "internalType": "address",
          "name": "to",
          "type": "address"
        },
        {
          "internalType": "uint256",
          "name": "amount",
          "type": "uint256"
        }
      ],
      "name": "mint",
      "outputs": [],
      "stateMutability": "nonpayable",
      "type": "function"
    },
    {
      "inputs": [],
      "name": "name",
      "outputs": [
        {
          "internalType": "string",
          "name": "",
          "type": "string"
        }
      ],
      "stateMutability": "view",
      "type": "function"
    },
    {
      "inputs": [],
      "name": "symbol",
      "outputs": [
        {
          "internalType": "string",
          "name": "",
          "type": "string"
        }
      ],
      "stateMutability": "view",
      "type": "function"
    },
    {
      "inputs": [],
      "name": "totalSupply",
      "outputs": [
        {
          "internalType": "uint256",
          "name": "",
          "type": "uint256"
        }
      ],
      "stateMutability": "view",
      "type": "function"
    },
    {
      "inputs": [
        {
          "internalType": "address",
          "name": "to",
          "type": "address"
        },
        {
          "internalType": "uint256",
          "name": "value",
          "type": "uint256"
        }
      ],
      "name": "transfer",
      "outputs": [
        {
          "internalType": "bool",
          "name": "",
          "type": "bool"
        }
      ],
      "stateMutability": "nonpayable",
      "type": "function"
    },
    {
      "inputs": [
        {
          "internalType": "address",
          "name": "from",
          "type": "address"
        },
        {
          "internalType": "address",
          "name": "to",
          "type": "address"
        },
        {
          "internalType": "uint256",
          "name": "value",
          "type": "uint256"
        }
      ],
      "name": "transferFrom",
      "outputs": [
        {
          "internalType": "bool",
          "name": "",
          "type": "bool"
        }
      ],
      "stateMutability": "nonpayable",
      "type": "function"
    }
  ],
  "bytecode": "0x60803462000338576040906001600160401b0390808301828111828210176200032257835260088152602091674d6f636b5553446d60c01b838301528351928484018481108382111762000322578552600493848152635553446d60e01b828201528351908382116200030d576003928354926001968785811c9516801562000302575b83861014620002ed578190601f9586811162000297575b508390868311600114620002305760009262000224575b505060001982871b1c191690871b1784555b81519485116200020f5786548681811c9116801562000204575b82821014620001ef57838111620001a4575b50809285116001146200013657509383949184926000956200012a575b50501b92600019911b1c19161790555b5161081690816200033e8239f35b0151935038806200010c565b92919084601f1981168860005285600020956000905b898383106200018957505050106200016e575b50505050811b0190556200011c565b01519060f884600019921b161c19169055388080806200015f565b8587015189559097019694850194889350908101906200014c565b87600052816000208480880160051c820192848910620001e5575b0160051c019087905b828110620001d8575050620000ef565b60008155018790620001c8565b92508192620001bf565b602288634e487b7160e01b6000525260246000fd5b90607f1690620000dd565b604187634e487b7160e01b6000525260246000fd5b015190503880620000b1565b90899350601f1983169188600052856000209260005b8782821062000280575050841162000267575b505050811b018455620000c3565b015160001983891b60f8161c1916905538808062000259565b8385015186558d9790950194938401930162000246565b90915086600052836000208680850160051c820192868610620002e3575b918b91869594930160051c01915b828110620002d35750506200009a565b600081558594508b9101620002c3565b92508192620002b5565b602289634e487b7160e01b6000525260246000fd5b94607f169462000083565b604186634e487b7160e01b6000525260246000fd5b634e487b7160e01b600052604160045260246000fd5b600080fdfe608060408181526004918236101561001657600080fd5b600092833560e01c91826306fdde03146105ae57508163095ea7b31461050457816318160ddd146104e557816323b872dd146103ee578163313ce567146103d257816340c10f191461032657816342966c681461027157816370a082311461023a57816395d89b411461011957508063a9059cbb146100e95763dd62ed3e1461009e57600080fd5b346100e557806003193601126100e557806020926100ba6106d1565b6100c26106ec565b6001600160a01b0391821683526001865283832091168252845220549051908152f35b5080fd5b50346100e557806003193601126100e5576020906101126101086106d1565b6024359033610702565b5160018152f35b8383346100e557816003193601126100e55780519082845460018160011c9060018316928315610230575b602093848410811461021d5783885290811561020157506001146101ac575b505050829003601f01601f191682019267ffffffffffffffff8411838510176101995750829182610195925282610688565b0390f35b634e487b7160e01b815260418552602490fd5b8787529192508591837f8a35acfbc15ff81a39ae7d344fd709f28e8600b4aa8c65c6b64bfe7fe36bd19b5b8385106101ed5750505050830101858080610163565b8054888601830152930192849082016101d7565b60ff1916878501525050151560051b8401019050858080610163565b634e487b7160e01b895260228a52602489fd5b91607f1691610144565b5050346100e55760203660031901126100e55760209181906001600160a01b036102626106d1565b16815280845220549051908152f35b8383346100e55760203660031901126100e5578235903315610310573383528260205280832054938285106102e557508183943385528460205203818420558160025403600255519081527fddf252ad1be2c89b69c2b068fc378daa952ba7f163c4a11628f55a4df523b3ef60203392a380f35b905163391434e360e21b81523391810191825260208201859052604082018390529081906060010390fd5b51634b637e8f60e11b8152808401839052602490fd5b919050346103ce57806003193601126103ce576103416106d1565b6001600160a01b031691602435919083156103b957600254908382018092116103a6575084927fddf252ad1be2c89b69c2b068fc378daa952ba7f163c4a11628f55a4df523b3ef9260209260025585855284835280852082815401905551908152a380f35b634e487b7160e01b865260119052602485fd5b84602492519163ec442f0560e01b8352820152fd5b8280fd5b5050346100e557816003193601126100e5576020905160128152f35b905082346104e25760603660031901126104e25761040a6106d1565b6104126106ec565b916044359360018060a01b03831680835260016020528683203384526020528683205491600019831061044e575b602088610112898989610702565b8683106104b657811561049f5733156104885750825260016020908152868320338452815291869020908590039055829061011287610440565b8751634a1406b160e11b8152908101849052602490fd5b875163e602df0560e01b8152908101849052602490fd5b8751637dc7a0d960e11b8152339181019182526020820193909352604081018790528291506060010390fd5b80fd5b5050346100e557816003193601126100e5576020906002549051908152f35b9050346103ce57816003193601126103ce5761051e6106d1565b602435903315610597576001600160a01b031691821561058057508083602095338152600187528181208582528752205582519081527f8c5be1e5ebec7d5bd14f71427d1e84f3dd0314c0f7b2291e5b200ac8c7c3b925843392a35160018152f35b8351634a1406b160e11b8152908101859052602490fd5b835163e602df0560e01b8152808401869052602490fd5b849084346103ce57826003193601126103ce578260035460018160011c906001831692831561067e575b602093848410811461021d57838852908115610201575060011461062857505050829003601f01601f191682019267ffffffffffffffff8411838510176101995750829182610195925282610688565b600387529192508591837fc2575a0e9e593c00f959f8c92f12db2869c3395a3b0502d05e2516446f71f85b5b83851061066a5750505050830101858080610163565b805488860183015293019284908201610654565b91607f16916105d8565b6020808252825181830181905290939260005b8281106106bd57505060409293506000838284010152601f8019910116010190565b81810186015184820160400152850161069b565b600435906001600160a01b03821682036106e757565b600080fd5b602435906001600160a01b03821682036106e757565b916001600160a01b038084169283156107c757169283156107ae576000908382528160205260408220549083821061077c575091604082827fddf252ad1be2c89b69c2b068fc378daa952ba7f163c4a11628f55a4df523b3ef958760209652828652038282205586815220818154019055604051908152a3565b60405163391434e360e21b81526001600160a01b03919091166004820152602481019190915260448101839052606490fd5b60405163ec442f0560e01b815260006004820152602490fd5b604051634b637e8f60e11b815260006004820152602490fdfea26469706673582212200399c2b19d562388592e3e0d82ebbf63877e516082445e1d2cc25abb23e25cbc64736f6c63430008180033",
  "linkReferences": {},
  "deployedLinkReferences": {}
}