{
  "_format": "hh-sol-artifact-1",
  "contractName": "Xolat",
  "sourceName": "contracts/Xolat.sol",
  "abi": [
    {
      "inputs": [
        {
          "internalType": "address",
          "name": "usdmAddress",
          "type": "address"
        },
        {
          "internalType": "address",
          "name": "witnetAddress",
          "type": "address"
        }
      ],
      "stateMutability": "nonpayable",
      "type": "constructor"
    },
    {
      "inputs": [],
      "name": "EnforcedPause",
      "type": "error"
    },
    {
      "inputs": [],
      "name": "ExpectedPause",
      "type": "error"
    },
    {
      "inputs": [
        {
          "internalType": "address",
          "name": "owner",
          "type": "address"
        }
      ],
      "name": "OwnableInvalidOwner",
      "type": "error"
    },
    {
      "inputs": [
        {
          "internalType": "address",
          "name": "account",
          "type": "address"
        }
      ],
      "name": "OwnableUnauthorizedAccount",
      "type": "error"
    },
    {
      "inputs": [],
      "name": "ReentrancyGuardReentrantCall",
      "type": "error"
    },
    {
      "anonymous": false,
      "inputs": [
        {
          "indexed": true,
          "internalType": "uint256",
          "name": "arenaId",
          "type": "uint256"
        },
        {
          "indexed": true,
          "internalType": "address",
          "name": "creator",
          "type": "address"
        },
        {
          "indexed": false,
          "internalType": "uint256",
          "name": "betAmount",
          "type": "uint256"
        },
        {
          "indexed": false,
          "internalType": "uint8",
          "name": "maxPlayers",
          "type": "uint8"
        }
      ],
      "name": "ArenaCreated",
      "type": "event"
    },
    {
      "anonymous": false,
      "inputs": [
        {
          "indexed": true,
          "internalType": "uint256",
          "name": "arenaId",
          "type": "uint256"
        },
        {
          "indexed": true,
          "internalType": "address",
          "name": "player",
          "type": "address"
        },
        {
          "indexed": false,
          "internalType": "uint8",
          "name": "cardIndex",
          "type": "uint8"
        }
      ],
      "name": "CardPicked",
      "type": "event"
    },
    {
      "anonymous": false,
      "inputs": [
        {
          "indexed": true,
          "internalType": "address",
          "name": "player",
          "type": "address"
        },
        {
          "indexed": false,
          "internalType": "uint256",
          "name": "duration",
          "type": "uint256"
        }
      ],
      "name": "CooldownApplied",
      "type": "event"
    },
    {
      "anonymous": false,
      "inputs": [
        {
          "indexed": true,
          "internalType": "address",
          "name": "previousOwner",
          "type": "address"
        },
        {
          "indexed": true,
          "internalType": "address",
          "name": "newOwner",
          "type": "address"
        }
      ],
      "name": "OwnershipTransferred",
      "type": "event"
    },
    {
      "anonymous": false,
      "inputs": [
        {
          "indexed": false,
          "internalType": "address",
          "name": "account",
          "type": "address"
        }
      ],
      "name": "Paused",
      "type": "event"
    },
    {
      "anonymous": false,
      "inputs": [
        {
          "indexed": true,
          "internalType": "address",
          "name": "player",
          "type": "address"
        }
      ],
      "name": "PlayerBanned",
      "type": "event"
    },
    {
      "anonymous": false,
      "inputs": [
        {
          "indexed": true,
          "internalType": "uint256",
          "name": "arenaId",
          "type": "uint256"
        },
        {
          "indexed": true,
          "internalType": "address",
          "name": "player",
          "type": "address"
        }
      ],
      "name": "PlayerJoined",
      "type": "event"
    },
    {
      "anonymous": false,
      "inputs": [
        {
          "indexed": true,
          "internalType": "uint256",
          "name": "roundId",
          "type": "uint256"
        },
        {
          "indexed": true,
          "internalType": "uint256",
          "name": "requestBlock",
          "type": "uint256"
        },
        {
          "indexed": true,
          "internalType": "address",
          "name": "requester",
          "type": "address"
        },
        {
          "indexed": false,
          "internalType": "uint256",
          "name": "celoPaid",
          "type": "uint256"
        }
      ],
      "name": "RandomnessRequested",
      "type": "event"
    },
    {
      "anonymous": false,
      "inputs": [
        {
          "indexed": true,
          "internalType": "uint256",
          "name": "roundId",
          "type": "uint256"
        },
        {
          "indexed": false,
          "internalType": "bytes32",
          "name": "commitHash",
          "type": "bytes32"
        },
        {
          "indexed": false,
          "internalType": "bytes32",
          "name": "randomness",
          "type": "bytes32"
        }
      ],
      "name": "RandomnessRevealed",
      "type": "event"
    },
    {
      "anonymous": false,
      "inputs": [
        {
          "indexed": true,
          "internalType": "uint256",
          "name": "roundId",
          "type": "uint256"
        },
        {
          "indexed": true,
          "internalType": "uint256",
          "name": "requestBlock",
          "type": "uint256"
        }
      ],
      "name": "RandomnessTimeoutTriggered",
      "type": "event"
    },
    {
      "anonymous": false,
      "inputs": [
        {
          "indexed": true,
          "internalType": "uint256",
          "name": "roundId",
          "type": "uint256"
        },
        {
          "indexed": true,
          "internalType": "address",
          "name": "player",
          "type": "address"
        },
        {
          "indexed": false,
          "internalType": "uint256",
          "name": "amount",
          "type": "uint256"
        },
        {
          "indexed": false,
          "internalType": "string",
          "name": "reason",
          "type": "string"
        }
      ],
      "name": "RefundProcessed",
      "type": "event"
    },
    {
      "anonymous": false,
      "inputs": [
        {
          "indexed": true,
          "internalType": "uint256",
          "name": "roundId",
          "type": "uint256"
        },
        {
          "indexed": false,
          "internalType": "string",
          "name": "roundType",
          "type": "string"
        },
        {
          "indexed": true,
          "internalType": "uint256",
          "name": "arenaId",
          "type": "uint256"
        },
        {
          "indexed": true,
          "internalType": "address",
          "name": "player",
          "type": "address"
        },
        {
          "indexed": false,
          "internalType": "uint256",
          "name": "potUsdm",
          "type": "uint256"
        }
      ],
      "name": "RoundCreated",
      "type": "event"
    },
    {
      "anonymous": false,
      "inputs": [
        {
          "indexed": true,
          "internalType": "uint256",
          "name": "roundId",
          "type": "uint256"
        },
        {
          "indexed": false,
          "internalType": "string",
          "name": "serverSeed",
          "type": "string"
        },
        {
          "indexed": false,
          "internalType": "string",
          "name": "clientSeed",
          "type": "string"
        },
        {
          "indexed": false,
          "internalType": "uint256",
          "name": "nonce",
          "type": "uint256"
        }
      ],
      "name": "SeedRevealed",
      "type": "event"
    },
    {
      "anonymous": false,
      "inputs": [
        {
          "indexed": true,
          "internalType": "address",
          "name": "player",
          "type": "address"
        },
        {
          "indexed": false,
          "internalType": "uint256",
          "name": "betAmount",
          "type": "uint256"
        },
        {
          "indexed": false,
          "internalType": "uint8",
          "name": "cardIndex",
          "type": "uint8"
        },
        {
          "indexed": false,
          "internalType": "uint256",
          "name": "roundId",
          "type": "uint256"
        }
      ],
      "name": "SoloPlayed",
      "type": "event"
    },
    {
      "anonymous": false,
      "inputs": [
        {
          "indexed": false,
          "internalType": "address",
          "name": "account",
          "type": "address"
        }
      ],
      "name": "Unpaused",
      "type": "event"
    },
    {
      "anonymous": false,
      "inputs": [
        {
          "indexed": true,
          "internalType": "uint256",
          "name": "roundId",
          "type": "uint256"
        },
        {
          "indexed": true,
          "internalType": "address",
          "name": "winner",
          "type": "address"
        },
        {
          "indexed": false,
          "internalType": "uint256",
          "name": "payout",
          "type": "uint256"
        },
        {
          "indexed": false,
          "internalType": "string",
          "name": "reason",
          "type": "string"
        }
      ],
      "name": "WinnerPaid",
      "type": "event"
    },
    {
      "inputs": [],
      "name": "RANDOMNESS_TIMEOUT",
      "outputs": [
        {
          "internalType": "uint256",
          "name": "",
          "type": "uint256"
        }
      ],
      "stateMutability": "view",
      "type": "function"
    },
    {
      "inputs": [
        {
          "internalType": "address",
          "name": "player",
          "type": "address"
        }
      ],
      "name": "applyCooldown",
      "outputs": [],
      "stateMutability": "nonpayable",
      "type": "function"
    },
    {
      "inputs": [],
      "name": "arenaCount",
      "outputs": [
        {
          "internalType": "uint256",
          "name": "",
          "type": "uint256"
        }
      ],
      "stateMutability": "view",
      "type": "function"
    },
    {
      "inputs": [
        {
          "internalType": "uint256",
          "name": "",
          "type": "uint256"
        }
      ],
      "name": "arenas",
      "outputs": [
        {
          "internalType": "uint256",
          "name": "arenaId",
          "type": "uint256"
        },
        {
          "internalType": "uint256",
          "name": "betAmount",
          "type": "uint256"
        },
        {
          "internalType": "uint8",
          "name": "maxPlayers",
          "type": "uint8"
        },
        {
          "internalType": "uint8",
          "name": "playerCount",
          "type": "uint8"
        },
        {
          "internalType": "bool",
          "name": "settled",
          "type": "bool"
        },
        {
          "internalType": "address",
          "name": "winner",
          "type": "address"
        },
        {
          "internalType": "uint256",
          "name": "createdAt",
          "type": "uint256"
        },
        {
          "internalType": "uint256",
          "name": "roundId",
          "type": "uint256"
        },
        {
          "internalType": "uint8",
          "name": "pickedCount",
          "type": "uint8"
        }
      ],
      "stateMutability": "view",
      "type": "function"
    },
    {
      "inputs": [
        {
          "internalType": "address",
          "name": "player",
          "type": "address"
        }
      ],
      "name": "ban",
      "outputs": [],
      "stateMutability": "nonpayable",
      "type": "function"
    },
    {
      "inputs": [
        {
          "internalType": "address",
          "name": "",
          "type": "address"
        }
      ],
      "name": "blacklist",
      "outputs": [
        {
          "internalType": "bool",
          "name": "",
          "type": "bool"
        }
      ],
      "stateMutability": "view",
      "type": "function"
    },
    {
      "inputs": [
        {
          "internalType": "uint256",
          "name": "roundId",
          "type": "uint256"
        }
      ],
      "name": "checkRandomnessTimeout",
      "outputs": [],
      "stateMutability": "nonpayable",
      "type": "function"
    },
    {
      "inputs": [],
      "name": "cooldownDuration",
      "outputs": [
        {
          "internalType": "uint256",
          "name": "",
          "type": "uint256"
        }
      ],
      "stateMutability": "view",
      "type": "function"
    },
    {
      "inputs": [
        {
          "internalType": "uint256",
          "name": "betAmount",
          "type": "uint256"
        },
        {
          "internalType": "uint8",
          "name": "maxPlayers",
          "type": "uint8"
        }
      ],
      "name": "createArena",
      "outputs": [
        {
          "internalType": "uint256",
          "name": "arenaId",
          "type": "uint256"
        }
      ],
      "stateMutability": "nonpayable",
      "type": "function"
    },
    {
      "inputs": [
        {
          "internalType": "address",
          "name": "",
          "type": "address"
        }
      ],
      "name": "dailyBetTotal",
      "outputs": [
        {
          "internalType": "uint256",
          "name": "",
          "type": "uint256"
        }
      ],
      "stateMutability": "view",
      "type": "function"
    },
    {
      "inputs": [
        {
          "internalType": "uint256",
          "name": "roundId",
          "type": "uint256"
        }
      ],
      "name": "emergencyRefundRound",
      "outputs": [],
      "stateMutability": "nonpayable",
      "type": "function"
    },
    {
      "inputs": [
        {
          "internalType": "uint256",
          "name": "roundId",
          "type": "uint256"
        }
      ],
      "name": "fetchRandomness",
      "outputs": [],
      "stateMutability": "nonpayable",
      "type": "function"
    },
    {
      "inputs": [
        {
          "internalType": "uint256",
          "name": "arenaId",
          "type": "uint256"
        }
      ],
      "name": "getArena",
      "outputs": [
        {
          "internalType": "uint256",
          "name": "",
          "type": "uint256"
        },
        {
          "internalType": "uint256",
          "name": "",
          "type": "uint256"
        },
        {
          "internalType": "uint8",
          "name": "",
          "type": "uint8"
        },
        {
          "internalType": "uint8",
          "name": "",
          "type": "uint8"
        },
        {
          "internalType": "bool",
          "name": "",
          "type": "bool"
        },
        {
          "internalType": "address",
          "name": "",
          "type": "address"
        },
        {
          "internalType": "uint256",
          "name": "",
          "type": "uint256"
        },
        {
          "internalType": "address[]",
          "name": "",
          "type": "address[]"
        }
      ],
      "stateMutability": "view",
      "type": "function"
    },
    {
      "inputs": [
        {
          "internalType": "uint256",
          "name": "roundId",
          "type": "uint256"
        }
      ],
      "name": "getCommitHash",
      "outputs": [
        {
          "internalType": "bytes32",
          "name": "",
          "type": "bytes32"
        }
      ],
      "stateMutability": "view",
      "type": "function"
    },
    {
      "inputs": [
        {
          "internalType": "address",
          "name": "player",
          "type": "address"
        }
      ],
      "name": "getPlayerStats",
      "outputs": [
        {
          "components": [
            {
              "internalType": "uint256",
              "name": "totalWonUsdm",
              "type": "uint256"
            },
            {
              "internalType": "uint256",
              "name": "totalPlayed",
              "type": "uint256"
            },
            {
              "internalType": "uint256",
              "name": "dailyBetTotal",
              "type": "uint256"
            },
            {
              "internalType": "uint256",
              "name": "lastBetDate",
              "type": "uint256"
            },
            {
              "internalType": "string",
              "name": "rank",
              "type": "string"
            },
            {
              "internalType": "bool",
              "name": "isBanned",
              "type": "bool"
            },
            {
              "internalType": "uint256",
              "name": "recentLosses",
              "type": "uint256"
            },
            {
              "internalType": "uint256",
              "name": "lastLossTime",
              "type": "uint256"
            }
          ],
          "internalType": "struct Xolat.PlayerStats",
          "name": "",
          "type": "tuple"
        }
      ],
      "stateMutability": "view",
      "type": "function"
    },
    {
      "inputs": [
        {
          "internalType": "uint256",
          "name": "roundId",
          "type": "uint256"
        }
      ],
      "name": "getRandomness",
      "outputs": [
        {
          "internalType": "bytes32",
          "name": "",
          "type": "bytes32"
        }
      ],
      "stateMutability": "view",
      "type": "function"
    },
    {
      "inputs": [
        {
          "internalType": "uint256",
          "name": "roundId",
          "type": "uint256"
        }
      ],
      "name": "getRandomnessRequest",
      "outputs": [
        {
          "components": [
            {
              "internalType": "uint256",
              "name": "roundId",
              "type": "uint256"
            },
            {
              "internalType": "uint256",
              "name": "requestBlock",
              "type": "uint256"
            },
            {
              "internalType": "uint256",
              "name": "requestedAt",
              "type": "uint256"
            },
            {
              "internalType": "uint256",
              "name": "celoPaid",
              "type": "uint256"
            },
            {
              "internalType": "bool",
              "name": "fulfilled",
              "type": "bool"
            }
          ],
          "internalType": "struct Xolat.RandomnessRequest",
          "name": "",
          "type": "tuple"
        }
      ],
      "stateMutability": "view",
      "type": "function"
    },
    {
      "inputs": [
        {
          "internalType": "uint256",
          "name": "roundId",
          "type": "uint256"
        }
      ],
      "name": "getRound",
      "outputs": [
        {
          "components": [
            {
              "internalType": "uint256",
              "name": "roundId",
              "type": "uint256"
            },
            {
              "internalType": "string",
              "name": "roundType",
              "type": "string"
            },
            {
              "internalType": "address",
              "name": "player",
              "type": "address"
            },
            {
              "internalType": "uint256",
              "name": "arenaId",
              "type": "uint256"
            },
            {
              "internalType": "bytes32",
              "name": "commitHash",
              "type": "bytes32"
            },
            {
              "internalType": "string",
              "name": "serverSeed",
              "type": "string"
            },
            {
              "internalType": "string",
              "name": "clientSeed",
              "type": "string"
            },
            {
              "internalType": "uint256",
              "name": "nonce",
              "type": "uint256"
            },
            {
              "internalType": "bytes32",
              "name": "randomness",
              "type": "bytes32"
            },
            {
              "internalType": "uint256[]",
              "name": "numbers",
              "type": "uint256[]"
            },
            {
              "internalType": "address",
              "name": "winnerAddress",
              "type": "address"
            },
            {
              "internalType": "uint256",
              "name": "potUsdm",
              "type": "uint256"
            },
            {
              "internalType": "string",
              "name": "txHash",
              "type": "string"
            },
            {
              "internalType": "uint8",
              "name": "selectedCard",
              "type": "uint8"
            },
            {
              "internalType": "string",
              "name": "status",
              "type": "string"
            },
            {
              "internalType": "uint256",
              "name": "createdAt",
              "type": "uint256"
            }
          ],
          "internalType": "struct Xolat.Round",
          "name": "",
          "type": "tuple"
        }
      ],
      "stateMutability": "view",
      "type": "function"
    },
    {
      "inputs": [
        {
          "internalType": "address",
          "name": "player",
          "type": "address"
        }
      ],
      "name": "isPlayerBanned",
      "outputs": [
        {
          "internalType": "bool",
          "name": "",
          "type": "bool"
        }
      ],
      "stateMutability": "view",
      "type": "function"
    },
    {
      "inputs": [
        {
          "internalType": "uint256",
          "name": "arenaId",
          "type": "uint256"
        }
      ],
      "name": "joinArena",
      "outputs": [],
      "stateMutability": "nonpayable",
      "type": "function"
    },
    {
      "inputs": [],
      "name": "lossesBeforeCooldown",
      "outputs": [
        {
          "internalType": "uint256",
          "name": "",
          "type": "uint256"
        }
      ],
      "stateMutability": "view",
      "type": "function"
    },
    {
      "inputs": [],
      "name": "maxBetPerDay",
      "outputs": [
        {
          "internalType": "uint256",
          "name": "",
          "type": "uint256"
        }
      ],
      "stateMutability": "view",
      "type": "function"
    },
    {
      "inputs": [],
      "name": "maxBetPerTx",
      "outputs": [
        {
          "internalType": "uint256",
          "name": "",
          "type": "uint256"
        }
      ],
      "stateMutability": "view",
      "type": "function"
    },
    {
      "inputs": [],
      "name": "owner",
      "outputs": [
        {
          "internalType": "address",
          "name": "",
          "type": "address"
        }
      ],
      "stateMutability": "view",
      "type": "function"
    },
    {
      "inputs": [],
      "name": "pause",
      "outputs": [],
      "stateMutability": "nonpayable",
      "type": "function"
    },
    {
      "inputs": [],
      "name": "paused",
      "outputs": [
        {
          "internalType": "bool",
          "name": "",
          "type": "bool"
        }
      ],
      "stateMutability": "view",
      "type": "function"
    },
    {
      "inputs": [
        {
          "internalType": "uint256",
          "name": "arenaId",
          "type": "uint256"
        },
        {
          "internalType": "uint8",
          "name": "cardIndex",
          "type": "uint8"
        }
      ],
      "name": "pickCard",
      "outputs": [],
      "stateMutability": "nonpayable",
      "type": "function"
    },
    {
      "inputs": [
        {
          "internalType": "uint256",
          "name": "gameId",
          "type": "uint256"
        },
        {
          "internalType": "uint8",
          "name": "cardIndex",
          "type": "uint8"
        }
      ],
      "name": "pickSoloCard",
      "outputs": [],
      "stateMutability": "nonpayable",
      "type": "function"
    },
    {
      "inputs": [
        {
          "internalType": "address",
          "name": "",
          "type": "address"
        }
      ],
      "name": "playerStats",
      "outputs": [
        {
          "internalType": "uint256",
          "name": "totalWonUsdm",
          "type": "uint256"
        },
        {
          "internalType": "uint256",
          "name": "totalPlayed",
          "type": "uint256"
        },
        {
          "internalType": "uint256",
          "name": "dailyBetTotal",
          "type": "uint256"
        },
        {
          "internalType": "uint256",
          "name": "lastBetDate",
          "type": "uint256"
        },
        {
          "internalType": "string",
          "name": "rank",
          "type": "string"
        },
        {
          "internalType": "bool",
          "name": "isBanned",
          "type": "bool"
        },
        {
          "internalType": "uint256",
          "name": "recentLosses",
          "type": "uint256"
        },
        {
          "internalType": "uint256",
          "name": "lastLossTime",
          "type": "uint256"
        }
      ],
      "stateMutability": "view",
      "type": "function"
    },
    {
      "inputs": [
        {
          "internalType": "uint256",
          "name": "roundId",
          "type": "uint256"
        }
      ],
      "name": "randomnessRequests",
      "outputs": [
        {
          "internalType": "uint256",
          "name": "roundId",
          "type": "uint256"
        },
        {
          "internalType": "uint256",
          "name": "requestBlock",
          "type": "uint256"
        },
        {
          "internalType": "uint256",
          "name": "requestedAt",
          "type": "uint256"
        },
        {
          "internalType": "uint256",
          "name": "celoPaid",
          "type": "uint256"
        },
        {
          "internalType": "bool",
          "name": "fulfilled",
          "type": "bool"
        }
      ],
      "stateMutability": "view",
      "type": "function"
    },
    {
      "inputs": [],
      "name": "renounceOwnership",
      "outputs": [],
      "stateMutability": "nonpayable",
      "type": "function"
    },
    {
      "inputs": [
        {
          "internalType": "uint256",
          "name": "roundId",
          "type": "uint256"
        }
      ],
      "name": "requestRandomness",
      "outputs": [],
      "stateMutability": "payable",
      "type": "function"
    },
    {
      "inputs": [
        {
          "internalType": "uint256",
          "name": "roundId",
          "type": "uint256"
        },
        {
          "internalType": "string",
          "name": "serverSeed",
          "type": "string"
        },
        {
          "internalType": "string",
          "name": "clientSeed",
          "type": "string"
        },
        {
          "internalType": "uint256",
          "name": "nonce",
          "type": "uint256"
        }
      ],
      "name": "revealSeeds",
      "outputs": [],
      "stateMutability": "nonpayable",
      "type": "function"
    },
    {
      "inputs": [],
      "name": "roundCount",
      "outputs": [
        {
          "internalType": "uint256",
          "name": "",
          "type": "uint256"
        }
      ],
      "stateMutability": "view",
      "type": "function"
    },
    {
      "inputs": [
        {
          "internalType": "uint256",
          "name": "",
          "type": "uint256"
        }
      ],
      "name": "rounds",
      "outputs": [
        {
          "internalType": "uint256",
          "name": "roundId",
          "type": "uint256"
        },
        {
          "internalType": "string",
          "name": "roundType",
          "type": "string"
        },
        {
          "internalType": "address",
          "name": "player",
          "type": "address"
        },
        {
          "internalType": "uint256",
          "name": "arenaId",
          "type": "uint256"
        },
        {
          "internalType": "bytes32",
          "name": "commitHash",
          "type": "bytes32"
        },
        {
          "internalType": "string",
          "name": "serverSeed",
          "type": "string"
        },
        {
          "internalType": "string",
          "name": "clientSeed",
          "type": "string"
        },
        {
          "internalType": "uint256",
          "name": "nonce",
          "type": "uint256"
        },
        {
          "internalType": "bytes32",
          "name": "randomness",
          "type": "bytes32"
        },
        {
          "internalType": "address",
          "name": "winnerAddress",
          "type": "address"
        },
        {
          "internalType": "uint256",
          "name": "potUsdm",
          "type": "uint256"
        },
        {
          "internalType": "string",
          "name": "txHash",
          "type": "string"
        },
        {
          "internalType": "uint8",
          "name": "selectedCard",
          "type": "uint8"
        },
        {
          "internalType": "string",
          "name": "status",
          "type": "string"
        },
        {
          "internalType": "uint256",
          "name": "createdAt",
          "type": "uint256"
        }
      ],
      "stateMutability": "view",
      "type": "function"
    },
    {
      "inputs": [
        {
          "internalType": "uint256",
          "name": "duration",
          "type": "uint256"
        },
        {
          "internalType": "uint256",
          "name": "losses",
          "type": "uint256"
        }
      ],
      "name": "setCooldownParams",
      "outputs": [],
      "stateMutability": "nonpayable",
      "type": "function"
    },
    {
      "inputs": [
        {
          "internalType": "uint256",
          "name": "perTx",
          "type": "uint256"
        },
        {
          "internalType": "uint256",
          "name": "perDay",
          "type": "uint256"
        }
      ],
      "name": "setMaxBet",
      "outputs": [],
      "stateMutability": "nonpayable",
      "type": "function"
    },
    {
      "inputs": [
        {
          "internalType": "uint256",
          "name": "roundId",
          "type": "uint256"
        }
      ],
      "name": "settleRound",
      "outputs": [],
      "stateMutability": "nonpayable",
      "type": "function"
    },
    {
      "inputs": [
        {
          "internalType": "uint256",
          "name": "betAmount",
          "type": "uint256"
        }
      ],
      "name": "startSoloGame",
      "outputs": [
        {
          "internalType": "uint256",
          "name": "roundId",
          "type": "uint256"
        }
      ],
      "stateMutability": "nonpayable",
      "type": "function"
    },
    {
      "inputs": [
        {
          "internalType": "address",
          "name": "newOwner",
          "type": "address"
        }
      ],
      "name": "transferOwnership",
      "outputs": [],
      "stateMutability": "nonpayable",
      "type": "function"
    },
    {
      "inputs": [
        {
          "internalType": "address",
          "name": "player",
          "type": "address"
        }
      ],
      "name": "unban",
      "outputs": [],
      "stateMutability": "nonpayable",
      "type": "function"
    },
    {
      "inputs": [],
      "name": "unpause",
      "outputs": [],
      "stateMutability": "nonpayable",
      "type": "function"
    },
    {
      "inputs": [],
      "name": "usdm",
      "outputs": [
        {
          "internalType": "contract IERC20",
          "name": "",
          "type": "address"
        }
      ],
      "stateMutability": "view",
      "type": "function"
    },
    {
      "inputs": [],
      "name": "witnet",
      "outputs": [
        {
          "internalType": "contract IWitnetRandomness",
          "name": "",
          "type": "address"
        }
      ],
      "stateMutability": "view",
      "type": "function"
    }
  ],
  "bytecode": "0x60c0346200022e576200422290601f38839003908101601f19168201906001600160401b038211838310176200023357808391604095869485528339810103126200022e576200005d6020620000558362000249565b920162000249565b9060017f9b779b17422d0df92223018b32b4d1fa46e071723d6817e2486d003becc55f00553315620002165760008054610100600160a81b0319811633600881811b610100600160a81b03169290921784558651956001600160a01b03959094869491939190911c8416907f8be0079c531659141344cd1fd0a4f28419497f9722a3daafe3b4186f6b6457e09080a36801158e460913d0000060015568056bc75e2d63100000600255610e10600555600560065516928315620001d4575016908115620001905760805260a05251613fc390816200025f8239608051818181610a6c01528181610f7601528181611288015281816113be0152818161398e01528181613b500152613daf015260a0518181816103110152818161036d015281816105bd015281816125540152612ccb0152f35b825162461bcd60e51b815260206004820152601660248201527f696e76616c6964205769746e65742061646472657373000000000000000000006044820152606490fd5b62461bcd60e51b815260206004820152601460248201527f696e76616c6964205553444d20616464726573730000000000000000000000006044820152606490fd5b8251631e4fbdf760e01b815260006004820152602490fd5b600080fd5b634e487b7160e01b600052604160045260246000fd5b51906001600160a01b03821682036200022e5756fe608080604052600436101561001357600080fd5b60003560e01c908163127f0b3f14613320575080631a8425b4146132185780632bbf12741461317a5780633200fc7114612ff95780633526931514612fdb5780633f4ba83a14612f71578063410ddaca14612e24578063453f4f6214612cfa57806346d1d21a14612cb55780634fd66eae14612b735780635c975abb14612b505780635cb6dfff14612af357806365c1c63014612ad55780636695113114612a975780636e3288a214610203578063712fb12114612828578063715018a6146127cb5780637363ae1f146124b057806374b06938146124925780638456cb591461243857806384f4319c146123a1578063858d9da21461201b5780638c65c81f14611e7c5780638da5cb5b14611e4f5780638f1327c014611b0f57806392d53a67146119c4578063951b60a41461194957806397c3ccd8146118c35780639918965f146118a55780639b795a0014611887578063b181ee85146117d3578063b9f1455714611776578063c03daa4d146116af578063cdafbbb6146115f7578063d09d142314611492578063d2b48cd314610d4e578063dd35e7aa14610d31578063ed28b37914610aca578063edfe721614610a9b578063ee138d0f14610a56578063f2fde38b146109b8578063f6b3a00a146107d7578063f87de1101461024b5763f9f92be41461020357600080fd5b34610246576020366003190112610246576004356001600160a01b0381169081900361024657600052600a602052602060ff604060002054166040519015158152f35b600080fd5b3461024657602036600319011261024657610264613837565b600435600052600c602052604060002061028081541515613552565b6040516020810190602082526102ae816102a060408201600e8701613403565b03601f19810183528261350b565b51902060405160208101906102c6816102a084613590565b5190200361079257600435600052600760205260406000209060048201549160ff831661074d5760018101546040516326f21bfb60e21b8152600481018290529091906020816024817f00000000000000000000000000000000000000000000000000000000000000006001600160a01b03165afa9081156106a05760009161071e575b50156106e05760405163fb476cad60e01b815260048101839052936020856024817f00000000000000000000000000000000000000000000000000000000000000006001600160a01b03165afa9485156106a0576000956106ac575b50604051926103b4846134b6565b60048452608036602086013760005b60048110610553575050600160049160ff1916179101558260088301556009820181519067ffffffffffffffff821161053d57600160401b821161053d57805482825580831061051f575b506020830190600052602060002060005b83811061050b575050505060405190816060810191856020830152604080830152805180935260206080830191019260005b8181106104f257505061046d925003601f19810183528261350b565b60208151910120906004810191825561049561048c600e8301546133c9565b600e83016136de565b600e6010671c995d99585b195960c21b01910155549060405191825260208201527f5bea98f83eb292dbd765e5bf6dfc7f916d0bc8f6aa03f07518763c300ad832c5604060043592a26001600080516020613f6e83398151915255005b8451835260209485019486945090920191600101610451565b60019060208451940193818401550161041f565b610537908260005283602060002091820191016136c7565b8561040e565b634e487b7160e01b600052604160045260246000fd5b6040519060043560208301528060408301526040825281606081011067ffffffffffffffff60608401111761053d5760608201604081905282516020808501919091206324cbbfc160e01b83526064808601819052608486019190915260a48501869052909190817f00000000000000000000000000000000000000000000000000000000000000006001600160a01b03165afa9182156106a057600092610659575b5063ffffffff8083166001011161064357855181101561062d5763ffffffff806001931683011660208260051b88010152016103c3565b634e487b7160e01b600052603260045260246000fd5b634e487b7160e01b600052601160045260246000fd5b9091506020813d602011610698575b816106786020936060840161350b565b81010312610246576060015163ffffffff811681036102465790886105f6565b3d9150610668565b6040513d6000823e3d90fd5b9094506020813d6020116106d8575b816106c86020938361350b565b81010312610246575193856103a6565b3d91506106bb565b60405162461bcd60e51b815260206004820152601660248201527572616e646f6d6e65737320756e617661696c61626c6560501b6044820152606490fd5b610740915060203d602011610746575b610738818361350b565b8101906137f0565b8561034a565b503d61072e565b60405162461bcd60e51b815260206004820152601a60248201527f72616e646f6d6e65737320616c726561647920666574636865640000000000006044820152606490fd5b60405162461bcd60e51b815260206004820152601860248201527f72616e646f6d6e657373206e6f742072657175657374656400000000000000006044820152606490fd5b3461024657602080600319360112610246576004356107f4613cb4565b6107fc613837565b33600052600a825261081660ff60406000205416156135cb565b806000526008825260406000209160028301805460ff8160081c1680151590816109ab575b50156109725760101c60ff1661093557600060068501928354915b8281106108d557505050610872600161089a9495015433613cd2565b805461ff0061088660ff8360081c166137df565b60081b169061ff0019161790553390613668565b33907f87969bc7faf902221a147b95ceba76e011c5efb0339a0a8ee7a2bb82d9cfbbd6600080a36001600080516020613f6e83398151915255005b6108df8186613650565b905460039190911b1c6001600160a01b031633146108ff57600101610856565b60405162461bcd60e51b815260048101839052600e60248201526d185b1c9958591e481a9bda5b995960921b6044820152606490fd5b60405162461bcd60e51b8152600481018390526015602482015274185c995b9848185b1c9958591e481cd95d1d1b1959605a1b6044820152606490fd5b60405162461bcd60e51b81526004810184905260116024820152706172656e6120756e617661696c61626c6560781b6044820152606490fd5b905060ff8216118661083b565b34610246576020366003190112610246576004356001600160a01b0381811691828103610246576109e7613808565b8215610a3d5760008054610100600160a81b03198116600893841b610100600160a81b031617825590911c91909116907f8be0079c531659141344cd1fd0a4f28419497f9722a3daafe3b4186f6b6457e09080a3005b604051631e4fbdf760e01b815260006004820152602490fd5b34610246576000366003190112610246576040517f00000000000000000000000000000000000000000000000000000000000000006001600160a01b03168152602090f35b3461024657602036600319011261024657600435600052600c6020526020600460406000200154604051908152f35b3461024657610ad83661333b565b90610ae1613cb4565b3360005260ff602092600a8452610aff8260406000205416156135cb565b166002811015610cfd5781600052600c835260406000203360018060a01b0360028301541603610cc857600e81016040519085820186815282610b456040820184613403565b0392610b59601f199485810183528261350b565b51902060405187810190610b7c81610b70846136a3565b0386810183528261350b565b519020141580610c61575b15610c2f57600b9291610be891604051610bbb81610baf8b8201948c86526040830190613403565b0384810183528261350b565b51902090604051610bdf8982019282610bd38561376e565b0390810183528261350b565b51902014613790565b600d81018360ff1982541617905501549260405193845283015260408201527f74e6cd5d5d8fda41d1dfe0a2b03c42d613de1e32c1758c97c3ce0397579608f160603392a2005b60405162461bcd60e51b815260048101879052600a60248201526919d85b5948195b99195960b21b6044820152606490fd5b5060405186810190878252610c8981610c7d6040820186613403565b0385810183528261350b565b51902060405187810190610cbe81610b70846060906020815260086020820152671c99599d5b99195960c21b60408201520190565b5190201415610b87565b60405162461bcd60e51b815260048101859052600d60248201526c6e6f7420796f75722067616d6560981b6044820152606490fd5b60405162461bcd60e51b815260048101849052600c60248201526b1a5b9d985b1a590818d85c9960a21b6044820152606490fd5b346102465760003660031901126102465760206040516104b08152f35b3461024657602036600319011261024657610d67613837565b600435600052600c6020526040600020610d8381541515613552565b604051602081016020815281610d9f60408201600e8601613403565b0391610db3601f199384810183528261350b565b5190206040516020810190610de981610c7d846060906020815260086020820152671c995d99585b195960c21b60408201520190565b5190200361145857604051602081019060208252610e1181610baf6040820160018801613403565b51902090604051610e4560208201926020845282610bd36040820160409060058152646172656e6160d81b60208201520190565b519020036111ad5760038101546000526008602052604060002090600682015490811561062d576006830160005260018060a01b0360206000205416918260005260078401602052610ea260ff6040600020541660098401613650565b90549060031b1c60015b82811061114b57505050600b81015492605f8402848104605f148515171561064357610ede60646002920480966137d2565b91600a84019360018060a01b03861694856001600160601b0360a01b825416179055610f1061048c600e8301546133c9565b60126818dbdb5c1b195d195960ba1b01600e919091015501805462010000600160b81b031916601885901b6301000000600160b81b0316176201000017905560405163a9059cbb60e01b8082526001600160a01b038086166004840152602483018790527f000000000000000000000000000000000000000000000000000000000000000016929091602081806044810103816000885af19081156106a05760009161112c575b50156110ee576000805460405193845260081c6001600160a01b0316600484015260248301919091529091602091839160449183915af19081156106a0576000916110cf575b501561108a57600052600b602052604060002061101b8382546135be565b90555b60405191825260406020830152600a6040830152691cd95d1d1b195b595b9d60b21b606083015260018060a01b0316907f76e3932ab627fbf797df82027f96467d2db24b01f1863446b10447eb72d64cf2608060043592a36001600080516020613f6e83398151915255005b60405162461bcd60e51b815260206004820152601960248201527f6f776e657220666565207472616e73666572206661696c6564000000000000006044820152606490fd5b6110e8915060203d60201161074657610738818361350b565b84610ffd565b60405162461bcd60e51b81526020600482015260166024820152751dda5b9b995c881d1c985b9cd9995c8819985a5b195960521b6044820152606490fd5b611145915060203d60201161074657610738818361350b565b87610fb7565b6111588160068801613650565b60018060a01b0391549060031b1c16806000526007870160205261118760ff6040600020541660098701613650565b90549060031b1c8381116111a0575b5050600101610eac565b9095509150600187611196565b6009810160ff600d830154166111c38183613650565b9290549160010360ff8111610643576111db91613650565b9054600391821b1c92901b1c106113385760018060a01b038060028301541690600b83015460c381029080820460c31490151715610643576064900492600a8101836001600160601b0360a01b82541617905561123e61048c600e8301546133c9565b60126818dbdb5c1b195d195960ba1b01600e919091015560405163a9059cbb60e01b81526001600160a01b03831660048201526024810184905290602090829060449082906000907f0000000000000000000000000000000000000000000000000000000000000000165af19081156106a057600091611319575b50156112df5780600052600b60205260406000206112d88382546135be565b905561101e565b60405162461bcd60e51b81526020600482015260126024820152711cdbdb1bc81c185e5bdd5d0819985a5b195960721b6044820152606490fd5b611332915060203d60201161074657610738818361350b565b836112b9565b60018060a01b038060005460081c1690600b83015492600a8101836001600160601b0360a01b82541617905561137461048c600e8301546133c9565b60126818dbdb5c1b195d195960ba1b01600e919091015560405163a9059cbb60e01b81526001600160a01b03831660048201526024810184905290602090829060449082906000907f0000000000000000000000000000000000000000000000000000000000000000165af19081156106a057600091611439575b5061101e5760405162461bcd60e51b815260206004820152601960248201527f736f6c6f206c6f7373207472616e73666572206661696c6564000000000000006044820152606490fd5b611452915060203d60201161074657610738818361350b565b836113ef565b60405162461bcd60e51b81526020600482015260126024820152711c9bdd5b99081b9bdd081c995d99585b195960721b6044820152606490fd5b346102465760208060031936011261024657600435906114b0613808565b6114b8613837565b81600052600c8152600e60406000206114d381541515613552565b01604051828101838152816114eb6040820185613403565b03916114ff601f199384810183528261350b565b5190206040518481019061151681610c7d8461376e565b519020149182156115b6575b50501561157b57611567917f656d657267656e63792072616e646f6d6e65737320726566756e6400000000006040519261155b846134ef565b601b8452830152613867565b6001600080516020613f6e83398151915255005b6064906040519062461bcd60e51b825260048201526014602482015273726f756e64206e6f7420726566756e6461626c6560601b6044820152fd5b9091506040516115d481610baf868201948786526040830190613403565b519020906040516115ec8482019282610bd385613590565b519020148380611522565b34610246576020366003190112610246576004356001600160a01b0381169081900361024657600052600b6020526040600020805460018201549060028301549260038101549061169960405161165c816116558160048701613403565b038261350b565b60ff600584015416946007600685015494015494604051988998610100938a5260208a01526040890152606088015280608088015286019061335b565b92151560a085015260c084015260e08301520390f35b34610246576116bd3661352d565b906116c6613808565b8015158061176d575b15611728578082106116e357600155600255005b60405162461bcd60e51b815260206004820152601f60248201527f6461696c79206c696d6974206d757374206265203e3d207478206c696d6974006044820152606490fd5b60405162461bcd60e51b815260206004820152601b60248201527f626574206c696d697473206d75737420626520706f73697469766500000000006044820152606490fd5b508115156116cf565b34610246576020366003190112610246576004356001600160a01b03811690819003610246576117a4613808565b600052600a602052604060002060ff1990818154169055600b6020526005604060002001908154169055600080f35b3461024657602036600319011261024657600060806040516117f4816134b6565b8281528260208201528260408201528260608201520152600435600052600760205260a06040600020604051611829816134b6565b81549182825260018101546020830190815260028201549060408401918252608060ff600460038601549560608801968752015416940193151584526040519485525160208501525160408401525160608301525115156080820152f35b34610246576000366003190112610246576020600254604051908152f35b34610246576000366003190112610246576020600154604051908152f35b34610246576020366003190112610246576004356001600160a01b03811690819003610246576118f1613808565b80600052600a602052604060002060ff1990600182825416179055600b60205260016005604060002001918254161790557fe9668cca25138ad3c67ec987cb4843e582d8b30a9b47338c21b2c18ade516454600080a2005b34610246576119573661352d565b90611960613808565b801515806119bb575b1561197657600555600655005b60405162461bcd60e51b815260206004820152601760248201527f706172616d73206d75737420626520706f7369746976650000000000000000006044820152606490fd5b50811515611969565b346102465760203660031901126102465760206004356119e2613cb4565b6119ea613837565b33600052600a8252611a0460ff60406000205416156135cb565b611a0f81151561360d565b611a198133613cd2565b611a24600454613543565b908160045581600052600c8352600e604060002083815560018101611a52611a4c82546133c9565b826136de565b600863736f6c6f60e01b0190556002810180546001600160a01b03191633179055600b810183905542600f820155018054611a9090611a4c906133c9565b600e6618dc99585d195960ca1b0190556000827f9577abb201dc9d305bcbb0b9a535f972e3883d6dc9bdb72dee07ee7b3b50358660405160408152611aea604082016040906004815263736f6c6f60e01b60208201520190565b94878201528033950390a46001600080516020613f6e83398151915255604051908152f35b346102465760203660031901126102465760006101e0604051611b31816134d2565b82815260606020820152826040820152826060820152826080820152606060a0820152606060c08201528260e082015282610100820152606061012082015282610140820152826101608201526060610180820152826101a082015260606101c08201520152600435600052600c6020526040600020604051611bb3816134d2565b81548152604051611bcb816116558160018701613403565b602082015260028201546001600160a01b0316604080830191909152600383015460608301526004830154608083015251611c0d816116558160058701613403565b60a0820152604051611c26816116558160068701613403565b60c0820152600782015460e082015260088201546101008201526009820191604051806020855491828152019460005260206000209060005b818110611e3957505050611c7881600f9495038261350b565b610120840152600a8101546001600160a01b0316610140840152600b810154610160840152604051611cb18161165581600c8601613403565b61018084015260ff600d820154166101a0840152604051611cd98161165581600e8601613403565b6101c084015201546101e08201526040516020815281516020820152611d68611d52611d166020850151610200604086015261022085019061335b565b60018060a01b03604086015116606085015260608501516080850152608085015160a085015260a0850151601f198583030160c086015261335b565b60c0840151838203601f190160e085015261335b565b9160e081015161010083015261010081015161012083015261012081015192601f19838203016101408401526020808551928381520194019060005b818110611e23575050506101e0611e16611df1849560018060a01b0361014086015116610160870152610160850151610180870152610180850151601f19878303016101a088015261335b565b60ff6101a0850151166101c08601526101c0840151601f19868303018487015261335b565b9101516102008301520390f35b8251865260209586019590920191600101611da4565b8254875260209096019560019283019201611c5f565b346102465760003660031901126102465760005460405160089190911c6001600160a01b03168152602090f35b3461024657602036600319011261024657600435600052600c60205260406000208054906040519081806001830190611eb491613403565b03611ebf908361350b565b60028101546003820154600483015460405191939290916001600160a01b03918216919080611ef18160058801613403565b03611efc908261350b565b60405180611f0d8160068901613403565b03611f18908261350b565b600786015492600887015490600a8801541691600b88015493604051968780600c8c0190611f4591613403565b03611f50908961350b565b600d8a015460ff16986040519a8b80600e830190611f6d91613403565b03611f78908d61350b565b600f01549b6040519e8f9e8f916101e09083528060208401528201611f9c9161335b565b9360408201526060015260808d01528b810360a08d0152611fbc9161335b565b8a810360c08c0152611fcd9161335b565b9360e08a0152610100890152610120880152610140870152858103610160870152611ff79161335b565b906101808501528381036101a08501526120109161335b565b906101c08301520390f35b34610246576120293661333b565b90612032613cb4565b33600052602091600a835260ff80916120528260406000205416156135cb565b166004811015612367578260005260088452604060002093600285018054848160081c16156123305760101c84166122fb57600486019283546122be57600080600689018054915b828110612286575b5050501561224b573360005260088701835260406000208054908682161561221f575b50503360005260078701835260406000208160ff19825416179055604051908152857f66cee2873c9d4f051647de1b983be68fc0860d323d4ff6594c7d622ca213bc3f843393a3805484808260081c1691168114908161220f575b5061212757005b612132600454613543565b938460045584600052600c8352600160406000209786895581890161215a611a4c82546133c9565b600a646172656e6160d81b0190558760038a01550154915460081c169081810291818304149015171561064357837f9577abb201dc9d305bcbb0b9a535f972e3883d6dc9bdb72dee07ee7b3b50358693600e88600b60009a0194855542600f820155016121ca611a4c82546133c9565b600e6618dc99585d195960ca1b0190555554604051918291604083526122066040840160409060058152646172656e6160d81b60208201520190565b918301520390a4005b9050846005880154161487612120565b60ff19918216600117905560058801805490918761223e8184166137df565b16911617905587806120c5565b60405162461bcd60e51b81526004810184905260136024820152723737ba1030b71030b932b73090383630bcb2b960691b6044820152606490fd5b6122908183613650565b905460039190911b1c6001600160a01b031633146122b05760010161209a565b5050505060018880806120a2565b60405162461bcd60e51b81526004810184905260156024820152741c9bdd5b9908185b1c9958591e4818dc99585d1959605a1b6044820152606490fd5b60405162461bcd60e51b815260048101839052600d60248201526c185c995b98481cd95d1d1b1959609a1b6044820152606490fd5b60405162461bcd60e51b815260048101849052600f60248201526e185c995b98481b9bdd08199bdd5b99608a1b6044820152606490fd5b60405162461bcd60e51b81526004810185905260126024820152710d2dcecc2d8d2c840c6c2e4c840d2dcc8caf60731b6044820152606490fd5b346102465760203660031901126102465760043560005260086020526101206040600020805490600181015490600281015460038201549060ff600560048501549401541693604051958652602086015260ff8116604086015260ff8160081c16606086015260ff8160101c161515608086015260018060a01b039060181c1660a085015260c084015260e0830152610100820152f35b3461024657600036600319011261024657612451613808565b612459613cb4565b600160ff1960005416176000557f62e78cea01bee320cd4e420270b5ea74000d11b0c9f74754ebdbfc544b05a2586020604051338152a1005b34610246576000366003190112610246576020600354604051908152f35b602080600319360112610246576004356124c8613cb4565b6124d0613837565b80600052600c8252600e60406000206124eb81541515613552565b01906040519261253f818501828152856125086040820187613403565b039561251c601f199788810183528261350b565b51902060405183810190610bdf816125338461376e565b0389810183528261350b565b6040516314c1dc4d60e31b81523a60048201527f00000000000000000000000000000000000000000000000000000000000000006001600160a01b03169490938285602481895afa9485156106a05760009561279c575b50843410612763578285966004604051809881936334cd994560e11b83525af19485156106a057600095612734575b506040516125d2816134b6565b8481526004848201918783526040810142815260608201908a82526080830194600086528960005260078952604060002093518455516001840155516002830155516003820155019051151560ff80198354169116179055612637611a4c82546133c9565b7f72616e646f6d6e65737352657175657374656400000000000000000000000026905561266485346137d2565b806126ab575b50507feee7195b6cee0fa7044c3af0b86fe2febb1d2703d71191f44052ba0d60ffda64906040519485523394a46001600080516020613f6e83398151915255005b600080808093335af1903d1561272e573d67ffffffffffffffff811161053d576126df8460405193601f840116018361350b565b81526000833d92013e5b156126f557848061266a565b6064906040519062461bcd60e51b82526004820152601260248201527110d15313c81c99599d5b990819985a5b195960721b6044820152fd5b506126e9565b9094508281813d831161275c575b61274c818361350b565b81010312610246575193866125c5565b503d612742565b60405162461bcd60e51b8152600481018490526011602482015270696e73756666696369656e742043454c4f60781b6044820152606490fd5b9094508281813d83116127c4575b6127b4818361350b565b8101031261024657519386612596565b503d6127aa565b34610246576000366003190112610246576127e4613808565b60008054610100600160a81b03198116825560081c6001600160a01b03167f8be0079c531659141344cd1fd0a4f28419497f9722a3daafe3b4186f6b6457e08280a3005b346102465760803660031901126102465767ffffffffffffffff6004356024358281116102465761285d90369060040161339b565b6044358481116102465761287590369060040161339b565b60643591612881613808565b85600052602096600c885260406000209061289e82541515613552565b6005820181871161053d576128bd876128b783546133c9565b83613708565b866000601f8211600114612a3057600091612a25575b508760011b906000198960031b1c19161790555b6006820190841161053d57612900846128b783546133c9565b6000601f851160011461299457600785937f431e05890b19757a3e2c8fcc029f9cba75796d3f867432c8aca4908a867c2a129a9b959361297e978994600091612989575b508660011b906000198860031b1c19161790555b015561297160405197889760608952606089019161374d565b928684039087015261374d565b9060408301520390a2005b90508501358e612944565b601f19851690826000528a6000209160005b818110612a0e5750937f431e05890b19757a3e2c8fcc029f9cba75796d3f867432c8aca4908a867c2a129a9b959388936007938961297e9a98106129f4575b5050600186811b019055612958565b860135600019600389901b60f8161c191690558d806129e5565b91928c60018192868a0135815501940192016129a6565b90508801358b6128d3565b60008381528c812092508990601f198216908e5b8d838310612a7e5750505010612a64575b5050600187811b0190556128e7565b89013560001960038a901b60f8161c191690558a80612a55565b8501358655600190950194938401938c9350018e612a44565b34610246576020366003190112610246576004356001600160a01b038116908190036102465760005260096020526020604060002054604051908152f35b34610246576000366003190112610246576020600654604051908152f35b3461024657602036600319011261024657600435600052600760205260a06040600020805490600181015490600281015460ff60046003840154930154169260405194855260208501526040840152606083015215156080820152f35b3461024657600036600319011261024657602060ff600054166040519015158152f35b3461024657602080600319360112610246576004356001600160a01b0381169081900361024657600060e0604051612baa81613499565b8281528285820152826040820152826060820152606060808201528260a08201528260c08201520152600052600b8152604060002060405190612bec82613499565b805482526001810154908383019182526002810154916040840192835260038201546060850190815260405190612c3182612c2a8160048801613403565b038361350b565b6080860191825260ff6005850154169460a087019515158652600760068601549560c0890196875201549360e08801948552604051988998818a5251908901525160408801525160608701525160808601525191612c9d610100938460a088015261012087019061335b565b9351151560c08601525160e085015251908301520390f35b34610246576000366003190112610246576040517f00000000000000000000000000000000000000000000000000000000000000006001600160a01b03168152602090f35b346102465760208060031936011261024657600435600052600c81526040600020600e810160405183810184815281612d366040820185613403565b0391612d4a601f199384810183528261350b565b51902060405185810190612d7f81610c7d846060906020815260086020820152671c995d99585b195960c21b60408201520190565b51902014918215612de3575b505015612d9e5760080154604051908152f35b60405162461bcd60e51b815260048101839052601760248201527f72616e646f6d6e657373206e6f742072657665616c65640000000000000000006044820152606490fd5b909150604051612e0181610baf878201948886526040830190613403565b51902090604051612e198582019282610bd3856136a3565b519020148380612d8b565b346102465760ff612e343661333b565b612e3f929192613cb4565b612e47613837565b33600052600a602052612e618260406000205416156135cb565b16600281101580612f66575b15612f215781612e80602093151561360d565b612e8a8133613cd2565b612e95600354613543565b91826003558260005260088452612ed66040600020848155836001820155600281016101008461ffff19835416171790554260038201556006339101613668565b60405191825283820152817fa2bbd44031e4a29e8a7b02904c750b86ee4b539b515b912b6312f23f7a12de8f60403393a36001600080516020613f6e83398151915255604051908152f35b60405162461bcd60e51b815260206004820152601860248201527f706c6179657220636f756e74206d75737420626520322d3400000000000000006044820152606490fd5b506004811115612e6d565b3461024657600036600319011261024657612f8a613808565b60005460ff811615612fc95760ff19166000557f5db9ee0a495bf2e6ff9c91a7834c1ba4fdd244a5e8aa4e537bd38aeae4b073aa6020604051338152a1005b604051638dfc202b60e01b8152600490fd5b34610246576000366003190112610246576020600554604051908152f35b34610246576020806003193601126102465760043590613017613837565b81600052600c8152604060002061303081541515613552565b604051908161304c84820192858452600e604084019101613403565b0391613060601f199384810183528261350b565b519020906040516130788482019282610bd385613590565b5190200361313d57816000526007815260406000209160028301546104b08101809111610643574210613102576001611567930154817fd9c88ce99c062b2cd8b0eecd6d9164002cc3ba98f31f5a1e83dde1ed5c21e049600080a3711c985b991bdb5b995cdcc81d1a5b595bdd5d60721b604051926130f6846134ef565b60128452830152613867565b60405162461bcd60e51b81526004810183905260136024820152721d1a5b595bdd5d081b9bdd081c995858da1959606a1b6044820152606490fd5b6064906040519062461bcd60e51b82526004820152601660248201527572616e646f6d6e657373206e6f742070656e64696e6760501b6044820152fd5b34610246576020366003190112610246576004356001600160a01b03811690819003610246576131a8613808565b80600052600b60205260066040600020016131c38154613543565b905580600052600b6020526040600020600681015460065411156131e357005b6007429101557f2cab723428c7ee886be3d0fb35d9aa30beab5acc2016ea5dcadd2d6b9eec81e56020600554604051908152a2005b3461024657602080600319360112610246576004356000526008815260406000209081549160019060018101549360028201549360018060a01b0392600660038201549101966040519182848a54918281520190819a600052856000209060005b81811061330b575050508361328f91038461350b565b856040519861010093848b01978b52868b015260ff811660408b015260ff8160081c1660608b015260ff8160101c16151560808b015260181c1660a089015260c088015260e087015251809252610120850195926000905b8382106132f45786880387f35b8451811688529682019693820193908501906132e7565b82548a16845292870192918a01918a01613279565b34610246576000366003190112610246576020906004548152f35b6040906003190112610246576004359060243560ff811681036102465790565b919082519283825260005b848110613387575050826000602080949584010152601f8019910116010190565b602081830181015184830182015201613366565b9181601f840112156102465782359167ffffffffffffffff8311610246576020838186019501011161024657565b90600182811c921680156133f9575b60208310146133e357565b634e487b7160e01b600052602260045260246000fd5b91607f16916133d8565b805460009392613412826133c9565b9182825260209360019160018116908160001461347a5750600114613439575b5050505050565b90939495506000929192528360002092846000945b83861061346657505050500101903880808080613432565b80548587018301529401938590820161344e565b60ff19168685015250505090151560051b010191503880808080613432565b610100810190811067ffffffffffffffff82111761053d57604052565b60a0810190811067ffffffffffffffff82111761053d57604052565b610200810190811067ffffffffffffffff82111761053d57604052565b6040810190811067ffffffffffffffff82111761053d57604052565b90601f8019910116810190811067ffffffffffffffff82111761053d57604052565b6040906003190112610246576004359060243590565b60001981146106435760010190565b1561355957565b60405162461bcd60e51b815260206004820152600f60248201526e1c9bdd5b99081b9bdd08199bdd5b99608a1b6044820152606490fd5b6060906020815260136020820152721c985b991bdb5b995cdcd4995c5d595cdd1959606a1b60408201520190565b9190820180921161064357565b156135d257565b60405162461bcd60e51b81526020600482015260136024820152721859191c995cdcc8189b1858dadb1a5cdd1959606a1b6044820152606490fd5b1561361457565b60405162461bcd60e51b8152602060048201526014602482015273626574206d75737420626520706f73697469766560601b6044820152606490fd5b805482101561062d5760005260206000200190600090565b8054600160401b81101561053d5761368591600182018155613650565b60018060a09493941b038084549260031b9316831b921b1916179055565b60609060208152600960208201526818dbdb5c1b195d195960ba1b60408201520190565b8181106136d2575050565b600081556001016136c7565b90601f81116136eb575050565b61370691600052601f6020600020910160051c8101906136c7565b565b9190601f811161371757505050565b613706926000526020600020906020601f840160051c83019310613743575b601f0160051c01906136c7565b9091508190613736565b908060209392818452848401376000828201840152601f01601f1916010190565b60609060208152600760208201526618dc99585d195960ca1b60408201520190565b1561379757565b60405162461bcd60e51b8152602060048201526013602482015272696e76616c696420726f756e6420737461746560681b6044820152606490fd5b9190820391821161064357565b60ff1660ff81146106435760010190565b90816020910312610246575180151581036102465790565b60005460081c6001600160a01b0316330361381f57565b60405163118cdaa760e01b8152336004820152602490fd5b600080516020613f6e83398151915260028154146138555760029055565b604051633ee5aeb560e01b8152600490fd5b91906000838152602090600c82526040948582209261388884541515613552565b600e840193875194828601838152866138a38b820184613403565b03966138b7601f199889810183528261350b565b5190208951848101906138d9816138cd846136a3565b038a810183528261350b565b519020141580613c5c575b15613c28576138f6611a4c82546133c9565b6010671c99599d5b99195960c21b0190556001948880518481019085825261392781610c7d85820160018901613403565b5190209161395682519182610bd38882019589875282016040906004815263736f6c6f60e01b60208201520190565b51902014613b075750818352600c8152868320600390810154845260088252878420939793956001600160a01b0395949160018801907f00000000000000000000000000000000000000000000000000000000000000008816908b9060068b01895b6139df575b50505050505050505050506002919250016201000062ff000019825416179055565b8d819d9c9b9d541115613afe578c6139f78f83613650565b905490841b1c168554885163a9059cbb60e01b81528a8180613a336004958787840160209093929193604081019460018060a01b031681520152565b0381898b5af1908115613af4578691613ad7575b5015613a9e57508a9b9c9d9e8b918b7f9b4b9fe42e556d768a938a82696607b338f22ed4a51cd053ce2559efc1616a5a8c8c613a938d8d5492808051958695865285015283019061335b565b0390a3019d9a6139b8565b885162461bcd60e51b81529081018a90526013602482015272185c995b98481c99599d5b990819985a5b1959606a1b6044820152606490fd5b613aee91508b3d8d1161074657610738818361350b565b38613a47565b8a513d88823e3d90fd5b8a9b9c506139bd565b600281018054600b90920180548a5163a9059cbb60e01b81526001600160a01b0394851660048201526024810191909152989990989497939650949293919290918681604481857f000000000000000000000000000000000000000000000000000000000000000089165af1918215613c1d5791613c00575b5015613bcc5791613bc7917f9b4b9fe42e556d768a938a82696607b338f22ed4a51cd053ce2559efc1616a5a9594935416965492808051958695865285015283019061335b565b0390a3565b835162461bcd60e51b815260048101869052600d60248201526c1c99599d5b990819985a5b1959609a1b6044820152606490fd5b613c179150863d881161074657610738818361350b565b38613b80565b8651903d90823e3d90fd5b885162461bcd60e51b815260048101849052600d60248201526c18d85b9b9bdd081c99599d5b99609a1b6044820152606490fd5b50885183810190848252613c76816125338d820186613403565b519020895184810190613caa816138cd846060906020815260086020820152671c99599d5b99195960c21b60408201520190565b51902014156138e4565b60ff60005416613cc057565b60405163d93c066560e01b8152600490fd5b60018060a01b0380911690600090828252602093600a855260409360ff8585205416613f345781151580613f28575b15613eef57620151804204818552600b8752600386862001548111613ed5575b5060098652613d3382868620546135be565b60025410613e9a57908186928552600b835285852060068101546006541115613e45575b5080606491865260098452868620613d708482546135be565b9055808652600b8452600187872001613d898154613543565b905585875195869485936323b872dd60e01b8552600485015230602485015260448401527f0000000000000000000000000000000000000000000000000000000000000000165af1918215613e3a5791613e1d575b5015613de8575050565b60649250519062461bcd60e51b82526004820152600f60248201526e1d1c985b9cd9995c8819985a5b1959608a1b6044820152fd5b613e349150833d851161074657610738818361350b565b38613dde565b8351903d90823e3d90fd5b613e599192935060070154600554906135be565b4210613e685790859138613d57565b845162461bcd60e51b815260048101879052600b60248201526a34b71031b7b7b63237bbb760a91b6044820152606490fd5b845162461bcd60e51b815260048101879052601460248201527319185a5b1e481b1a5b5a5d08195e18d95959195960621b6044820152606490fd5b600987528486812055600b87526003868620015538613d21565b845162461bcd60e51b8152600481018790526012602482015271626574206f757473696465206c696d69747360701b6044820152606490fd5b50600154821115613d01565b845162461bcd60e51b81526004810187905260126024820152711c1b185e595c88189b1858dadb1a5cdd195960721b6044820152606490fdfe9b779b17422d0df92223018b32b4d1fa46e071723d6817e2486d003becc55f00a26469706673582212208eb5f69947a0bd9547d6fc366aca9eee7d640419a4dc2da4091b4fb5d9f40c4b64736f6c63430008180033",
  "linkReferences": {},
  "deployedLinkReferences": {}
}